{
  "_format": "hh-sol-artifact-1",
  "contractName": "TimeConfig",
  "sourceName": "contractweb3/TimeConfig.sol",
  "abi": [
    {
      "inputs": [],
      "name": "BTC_150K_BETTING_CLOSE",
      "outputs": [
        {
          "internalType": "uint256",
          "name": "",
          "type": "uint256"
        }
      ],
      "stateMutability": "view",
      "type": "function"
    },
    {
      "inputs": [],
      "name": "BTC_150K_PREDICTION_END",
      "outputs": [
        {
          "internalType": "uint256",
          "name": "",
          "type": "uint256"
        }
      ],
      "stateMutability": "view",
      "type": "function"
    }
  ],
  "bytecode": "0x609e610038600b82828239805160001a607314602b57634e487b7160e01b600052600060045260246000fd5b30600052607381538281f3fe7300000000000000000000000000000000000000003014608060405260043610603d5760003560e01c8063c84bb35a146042578063e46d260014605e575b600080fd5b604c636918db8481565b60405190815260200160405180910390f35b604c63695580848156fea2646970667358221220861151fbe7583c4d3ed67343db80e85708fb786d9cfcdf869ca85eef4ac6e12e64736f6c63430008130033",
  "linkReferences": {},
  "deployedLinkReferences": {}
}