{"contractweb3/TimeConfig.sol":{"TimeConfig":{"abi":[{"inputs":[],"name":"BTC_150K_BETTING_CLOSE","outputs":[{"internalType":"uint256","name":"","type":"uint256"}],"stateMutability":"view","type":"function"},{"inputs":[],"name":"BTC_150K_PREDICTION_END","outputs":[{"internalType":"uint256","name":"","type":"uint256"}],"stateMutability":"view","type":"function"}],"evm":{"bytecode":{"linkReferences":{},"object":"609e610038600b82828239805160001a607314602b57634e487b7160e01b600052600060045260246000fd5b30600052607381538281f3fe7300000000000000000000000000000000000000003014608060405260043610603d5760003560e01c8063c84bb35a146042578063e46d260014605e575b600080fd5b604c636918db8481565b60405190815260200160405180910390f35b604c63695580848156fea2646970667358221220861151fbe7583c4d3ed67343db80e85708fb786d9cfcdf869ca85eef4ac6e12e64736f6c63430008130033","opcodes":"PUSH1 0x9E PUSH2 0x38 PUSH1 0xB DUP3 DUP3 DUP3 CODECOPY DUP1 MLOAD PUSH1 0x0 BYTE PUSH1 0x73 EQ PUSH1 0x2B JUMPI PUSH4 0x4E487B71 PUSH1 0xE0 SHL PUSH1 0x0 MSTORE PUSH1 0x0 PUSH1 0x4 MSTORE PUSH1 0x24 PUSH1 0x0 REVERT JUMPDEST ADDRESS PUSH1 0x0 MSTORE PUSH1 0x73 DUP2 MSTORE8 DUP3 DUP2 RETURN INVALID PUSH20 0x0 ADDRESS EQ PUSH1 0x80 PUSH1 0x40 MSTORE PUSH1 0x4 CALLDATASIZE LT PUSH1 0x3D JUMPI PUSH1 0x0 CALLDATALOAD PUSH1 0xE0 SHR DUP1 PUSH4 0xC84BB35A EQ PUSH1 0x42 JUMPI DUP1 PUSH4 0xE46D2600 EQ PUSH1 0x5E JUMPI JUMPDEST PUSH1 0x0 DUP1 REVERT JUMPDEST PUSH1 0x4C PUSH4 0x6918DB84 DUP2 JUMP JUMPDEST PUSH1 0x40 MLOAD SWAP1 DUP2 MSTORE PUSH1 0x20 ADD PUSH1 0x40 MLOAD DUP1 SWAP2 SUB SWAP1 RETURN JUMPDEST PUSH1 0x4C PUSH4 0x69558084 DUP2 JUMP INVALID LOG2 PUSH5 0x6970667358 0x22 SLT KECCAK256 DUP7 GT MLOAD 0xFB 0xE7 PC EXTCODECOPY 0x4D RETURNDATACOPY 0xD6 PUSH20 0x43DB80E85708FB786D9CFCDF869CA85EEF4AC6E1 0x2E PUSH5 0x736F6C6343 STOP ADDMOD SGT STOP CALLER "},"methodIdentifiers":{"BTC_150K_BETTING_CLOSE()":"c84bb35a","BTC_150K_PREDICTION_END()":"e46d2600"}}}}}