{"project/contractweb3/PredictionPool.sol":{"PredictionPool":{"abi":[{"inputs":[{"internalType":"string","name":"_title","type":"string"},{"internalType":"string","name":"_description","type":"string"},{"internalType":"string","name":"_category","type":"string"},{"internalType":"uint256","name":"_closingDate","type":"uint256"},{"internalType":"uint256","name":"_closingBid","type":"uint256"},{"internalType":"address","name":"_factory","type":"address"}],"stateMutability":"nonpayable","type":"constructor"},{"anonymous":false,"inputs":[{"indexed":true,"internalType":"address","name":"user","type":"address"},{"indexed":false,"internalType":"uint256","name":"amount","type":"uint256"},{"indexed":false,"internalType":"bool","name":"choice","type":"bool"},{"indexed":false,"internalType":"uint256","name":"totalYes","type":"uint256"},{"indexed":false,"internalType":"uint256","name":"totalNo","type":"uint256"},{"indexed":false,"internalType":"string","name":"predictionTitle","type":"string"},{"indexed":false,"internalType":"string","name":"userChoice","type":"string"}],"name":"BetPlaced","type":"event"},{"anonymous":false,"inputs":[{"indexed":false,"internalType":"bool","name":"winner","type":"bool"},{"indexed":false,"internalType":"string","name":"reason","type":"string"}],"name":"EmergencyResolution","type":"event"},{"anonymous":false,"inputs":[{"indexed":false,"internalType":"bool","name":"stopped","type":"bool"}],"name":"EmergencyStopToggled","type":"event"},{"anonymous":false,"inputs":[{"indexed":true,"internalType":"address","name":"feeWallet","type":"address"},{"indexed":false,"internalType":"uint256","name":"amount","type":"uint256"}],"name":"FeeTransferred","type":"event"},{"anonymous":false,"inputs":[{"indexed":true,"internalType":"address","name":"previousOwner","type":"address"},{"indexed":true,"internalType":"address","name":"newOwner","type":"address"}],"name":"OwnershipTransferred","type":"event"},{"anonymous":false,"inputs":[{"indexed":false,"internalType":"string","name":"reason","type":"string"}],"name":"PoolCancelled","type":"event"},{"anonymous":false,"inputs":[],"name":"PoolClosed","type":"event"},{"anonymous":false,"inputs":[{"indexed":true,"internalType":"address","name":"user","type":"address"},{"indexed":false,"internalType":"uint256","name":"amount","type":"uint256"}],"name":"RefundClaimed","type":"event"},{"anonymous":false,"inputs":[{"indexed":true,"internalType":"address","name":"user","type":"address"},{"indexed":false,"internalType":"uint256","name":"amount","type":"uint256"}],"name":"RewardClaimed","type":"event"},{"anonymous":false,"inputs":[{"indexed":false,"internalType":"bool","name":"winner","type":"bool"}],"name":"WinnerSet","type":"event"},{"inputs":[],"name":"BASIS_POINTS","outputs":[{"internalType":"uint256","name":"","type":"uint256"}],"stateMutability":"view","type":"function"},{"inputs":[],"name":"FEE_PERCENTAGE","outputs":[{"internalType":"uint256","name":"","type":"uint256"}],"stateMutability":"view","type":"function"},{"inputs":[],"name":"FEE_WALLET","outputs":[{"internalType":"address","name":"","type":"address"}],"stateMutability":"view","type":"function"},{"inputs":[{"internalType":"uint256","name":"","type":"uint256"}],"name":"bettors","outputs":[{"internalType":"address","name":"","type":"address"}],"stateMutability":"view","type":"function"},{"inputs":[{"internalType":"address","name":"_user","type":"address"}],"name":"canClaimRefund","outputs":[{"internalType":"bool","name":"","type":"bool"}],"stateMutability":"view","type":"function"},{"inputs":[{"internalType":"address","name":"_user","type":"address"}],"name":"canUserBet","outputs":[{"internalType":"bool","name":"canBet","type":"bool"},{"internalType":"string","name":"reason","type":"string"}],"stateMutability":"view","type":"function"},{"inputs":[{"internalType":"string","name":"_reason","type":"string"}],"name":"cancelPool","outputs":[],"stateMutability":"nonpayable","type":"function"},{"inputs":[],"name":"cancelled","outputs":[{"internalType":"bool","name":"","type":"bool"}],"stateMutability":"view","type":"function"},{"inputs":[],"name":"category","outputs":[{"internalType":"string","name":"","type":"string"}],"stateMutability":"view","type":"function"},{"inputs":[],"name":"claim","outputs":[],"stateMutability":"nonpayable","type":"function"},{"inputs":[],"name":"claimRefund","outputs":[],"stateMutability":"nonpayable","type":"function"},{"inputs":[],"name":"closingBid","outputs":[{"internalType":"uint256","name":"","type":"uint256"}],"stateMutability":"view","type":"function"},{"inputs":[],"name":"closingDate","outputs":[{"internalType":"uint256","name":"","type":"uint256"}],"stateMutability":"view","type":"function"},{"inputs":[],"name":"description","outputs":[{"internalType":"string","name":"","type":"string"}],"stateMutability":"view","type":"function"},{"inputs":[],"name":"emergencyClose","outputs":[],"stateMutability":"nonpayable","type":"function"},{"inputs":[{"internalType":"bool","name":"_winner","type":"bool"},{"internalType":"string","name":"_reason","type":"string"}],"name":"emergencyResolve","outputs":[],"stateMutability":"nonpayable","type":"function"},{"inputs":[],"name":"emergencyStop","outputs":[{"internalType":"bool","name":"","type":"bool"}],"stateMutability":"view","type":"function"},{"inputs":[],"name":"factory","outputs":[{"internalType":"address payable","name":"","type":"address"}],"stateMutability":"view","type":"function"},{"inputs":[],"name":"getBetDescription","outputs":[{"internalType":"string","name":"","type":"string"}],"stateMutability":"view","type":"function"},{"inputs":[],"name":"getBettingStatus","outputs":[{"internalType":"string","name":"status","type":"string"}],"stateMutability":"view","type":"function"},{"inputs":[],"name":"getBettors","outputs":[{"internalType":"address[]","name":"","type":"address[]"}],"stateMutability":"view","type":"function"},{"inputs":[],"name":"getFeeInfo","outputs":[{"internalType":"address","name":"_feeWallet","type":"address"},{"internalType":"uint256","name":"_feePercentage","type":"uint256"},{"internalType":"uint256","name":"_calculatedFee","type":"uint256"},{"internalType":"bool","name":"_feeSent","type":"bool"}],"stateMutability":"view","type":"function"},{"inputs":[],"name":"getLosingPot","outputs":[{"internalType":"uint256","name":"","type":"uint256"}],"stateMutability":"view","type":"function"},{"inputs":[],"name":"getPoolInfo","outputs":[{"internalType":"string","name":"_title","type":"string"},{"internalType":"string","name":"_description","type":"string"},{"internalType":"string","name":"_category","type":"string"},{"internalType":"uint256","name":"_closingDate","type":"uint256"},{"internalType":"uint256","name":"_closingBid","type":"uint256"}],"stateMutability":"view","type":"function"},{"inputs":[],"name":"getPoolStats","outputs":[{"internalType":"uint256","name":"_totalYes","type":"uint256"},{"internalType":"uint256","name":"_totalNo","type":"uint256"},{"internalType":"uint256","name":"_totalBets","type":"uint256"},{"internalType":"uint256","name":"_bettorCount","type":"uint256"},{"internalType":"bool","name":"_isClosed","type":"bool"},{"internalType":"bool","name":"_winnerSet","type":"bool"},{"internalType":"bool","name":"_winner","type":"bool"}],"stateMutability":"view","type":"function"},{"inputs":[],"name":"getRedistributionInfo","outputs":[{"internalType":"uint256","name":"_winningPot","type":"uint256"},{"internalType":"uint256","name":"_losingPot","type":"uint256"},{"internalType":"uint256","name":"_feeAmount","type":"uint256"},{"internalType":"uint256","name":"_netLosingPot","type":"uint256"},{"internalType":"uint256","name":"_totalRedistribution","type":"uint256"}],"stateMutability":"view","type":"function"},{"inputs":[{"internalType":"address","name":"_user","type":"address"}],"name":"getUserBet","outputs":[{"components":[{"internalType":"uint256","name":"amount","type":"uint256"},{"internalType":"bool","name":"choice","type":"bool"},{"internalType":"bool","name":"claimed","type":"bool"},{"internalType":"uint256","name":"timestamp","type":"uint256"}],"internalType":"struct PredictionPool.Bet","name":"bet","type":"tuple"}],"stateMutability":"view","type":"function"},{"inputs":[],"name":"getWinningPot","outputs":[{"internalType":"uint256","name":"","type":"uint256"}],"stateMutability":"view","type":"function"},{"inputs":[{"internalType":"address","name":"","type":"address"}],"name":"hasClaimed","outputs":[{"internalType":"bool","name":"","type":"bool"}],"stateMutability":"view","type":"function"},{"inputs":[],"name":"isBettingCurrentlyOpen","outputs":[{"internalType":"bool","name":"","type":"bool"}],"stateMutability":"view","type":"function"},{"inputs":[],"name":"isClosed","outputs":[{"internalType":"bool","name":"","type":"bool"}],"stateMutability":"view","type":"function"},{"inputs":[],"name":"owner","outputs":[{"internalType":"address","name":"","type":"address"}],"stateMutability":"view","type":"function"},{"inputs":[{"internalType":"bool","name":"_choice","type":"bool"}],"name":"placeBet","outputs":[],"stateMutability":"payable","type":"function"},{"inputs":[],"name":"renounceOwnership","outputs":[],"stateMutability":"nonpayable","type":"function"},{"inputs":[{"internalType":"bool","name":"_stop","type":"bool"}],"name":"setEmergencyStop","outputs":[],"stateMutability":"nonpayable","type":"function"},{"inputs":[{"internalType":"bool","name":"_winner","type":"bool"}],"name":"setWinner","outputs":[],"stateMutability":"nonpayable","type":"function"},{"inputs":[],"name":"title","outputs":[{"internalType":"string","name":"","type":"string"}],"stateMutability":"view","type":"function"},{"inputs":[],"name":"totalBets","outputs":[{"internalType":"uint256","name":"","type":"uint256"}],"stateMutability":"view","type":"function"},{"inputs":[],"name":"totalClaimed","outputs":[{"internalType":"uint256","name":"","type":"uint256"}],"stateMutability":"view","type":"function"},{"inputs":[],"name":"totalNo","outputs":[{"internalType":"uint256","name":"","type":"uint256"}],"stateMutability":"view","type":"function"},{"inputs":[],"name":"totalYes","outputs":[{"internalType":"uint256","name":"","type":"uint256"}],"stateMutability":"view","type":"function"},{"inputs":[{"internalType":"address","name":"newOwner","type":"address"}],"name":"transferOwnership","outputs":[],"stateMutability":"nonpayable","type":"function"},{"inputs":[{"internalType":"address","name":"","type":"address"}],"name":"userBets","outputs":[{"internalType":"uint256","name":"amount","type":"uint256"},{"internalType":"bool","name":"choice","type":"bool"},{"internalType":"bool","name":"claimed","type":"bool"},{"internalType":"uint256","name":"timestamp","type":"uint256"}],"stateMutability":"view","type":"function"},{"inputs":[],"name":"winner","outputs":[{"internalType":"bool","name":"","type":"bool"}],"stateMutability":"view","type":"function"},{"inputs":[],"name":"winnerSet","outputs":[{"internalType":"bool","name":"","type":"bool"}],"stateMutability":"view","type":"function"},{"stateMutability":"payable","type":"receive"}],"evm":{"bytecode":{"linkReferences":{},"object":"60806040526007805464ffff00ffff60a01b1916905534801562000021575f80fd5b5060405162002bf838038062002bf88339810160408190526200004491620001c2565b6200004f33620000b2565b6001805560026200006187826200030c565b5060036200007086826200030c565b5060046200007f85826200030c565b50600592909255600655600780546001600160a01b0319166001600160a01b0390921691909117905550620003d8915050565b5f80546001600160a01b038381166001600160a01b0319831681178455604051919092169283917f8be0079c531659141344cd1fd0a4f28419497f9722a3daafe3b4186f6b6457e09190a35050565b634e487b7160e01b5f52604160045260245ffd5b5f82601f83011262000125575f80fd5b81516001600160401b038082111562000142576200014262000101565b604051601f8301601f19908116603f011681019082821181831017156200016d576200016d62000101565b81604052838152602092508660208588010111156200018a575f80fd5b5f91505b83821015620001ad57858201830151818301840152908201906200018e565b5f602085830101528094505050505092915050565b5f805f805f8060c08789031215620001d8575f80fd5b86516001600160401b0380821115620001ef575f80fd5b620001fd8a838b0162000115565b9750602089015191508082111562000213575f80fd5b620002218a838b0162000115565b9650604089015191508082111562000237575f80fd5b506200024689828a0162000115565b606089015160808a015160a08b0151929750909550935090506001600160a01b038116811462000274575f80fd5b809150509295509295509295565b600181811c908216806200029757607f821691505b602082108103620002b657634e487b7160e01b5f52602260045260245ffd5b50919050565b601f8211156200030757805f5260205f20601f840160051c81016020851015620002e35750805b601f840160051c820191505b8181101562000304575f8155600101620002ef565b50505b505050565b81516001600160401b0381111562000328576200032862000101565b620003408162000339845462000282565b84620002bc565b602080601f83116001811462000376575f84156200035e5750858301515b5f19600386901b1c1916600185901b178555620003d0565b5f85815260208120601f198616915b82811015620003a65788860151825594840194600190910190840162000385565b5085821015620003c457878501515f19600388901b60f8161c191681555b505060018460011b0185555b505050505050565b61281280620003e65f395ff3fe60806040526004361061026b575f3560e01c8063968b048f1161014a578063c45a0155116100be578063dfbf53ae11610078578063dfbf53ae14610864578063e1f1c4a714610884578063ef430aa614610899578063ef9ea486146108ad578063f2fde38b146108cc578063ffd4493c146108eb575f80fd5b8063c45a01551461071c578063c73d7c7b1461073b578063c77511ee1461075a578063c96adb011461076e578063d54ad2a11461083b578063da3d918314610850575f80fd5b8063af0088831161010f578063af00888314610639578063b5545a3c1461064e578063b84ff26214610662578063bbb8518814610677578063befa1e2f146106e7578063c2b6b58c146106fc575f80fd5b8063968b048f146105a45780639a82a09a146105d1578063a628828f146105f1578063a8ae8e0514610606578063a9cc9ae914610625575f80fd5b80634e71d92d116101e15780637284e416116101a65780637284e416146104f257806373b2e80e1461050657806378e73ff81461053457806388ba8dd6146105545780638cca8f64146105695780638da5cb5b14610588575f80fd5b80634e71d92d146104085780634e92a6461461041c57806360246c881461048957806363a599a4146104ae578063715018a6146104de575f80fd5b80631cc3a0f1116102325780631cc3a0f114610332578063330b19ba1461036e5780633482b6441461038257806343c322ba146103b957806344cd7948146103cd5780634a79d50c146103f4575f80fd5b806202eab7146102765780620b46f8146102bb57806306f6bce9146102dd578063096a3778146102fe578063179dfbf314610311575f80fd5b3661027257005b5f80fd5b348015610281575f80fd5b5061028a61090c565b604080516001600160a01b039095168552602085019390935291830152151560608201526080015b60405180910390f35b3480156102c6575f80fd5b506102cf609681565b6040519081526020016102b2565b3480156102e8575f80fd5b506102fc6102f7366004612322565b61099e565b005b6102fc61030c36600461236d565b610b08565b34801561031c575f80fd5b50610325610eeb565b6040516102b291906123d0565b34801561033d575f80fd5b50610346610fc3565b604080519586526020860194909452928401919091526060830152608082015260a0016102b2565b348015610379575f80fd5b50610325611052565b34801561038d575f80fd5b506103a161039c3660046123e2565b611081565b6040516001600160a01b0390911681526020016102b2565b3480156103c4575f80fd5b506102cf6110a9565b3480156103d8575f80fd5b506103a1738e49800f0aa47e68ba9e46d97481679d0337929481565b3480156103ff575f80fd5b506103256110cc565b348015610413575f80fd5b506102fc611158565b348015610427575f80fd5b506104636104363660046123f9565b600b6020525f9081526040902080546001820154600290920154909160ff80821692610100909204169084565b6040805194855292151560208501529015159183019190915260608201526080016102b2565b348015610494575f80fd5b5061049d611636565b6040516102b295949392919061241f565b3480156104b9575f80fd5b506007546104ce90600160b81b900460ff1681565b60405190151581526020016102b2565b3480156104e9575f80fd5b506102fc6117f8565b3480156104fd575f80fd5b50610325611809565b348015610511575f80fd5b506104ce6105203660046123f9565b600d6020525f908152604090205460ff1681565b34801561053f575f80fd5b506007546104ce90600160a81b900460ff1681565b34801561055f575f80fd5b506102cf60085481565b348015610574575f80fd5b506104ce6105833660046123f9565b611816565b348015610593575f80fd5b505f546001600160a01b03166103a1565b3480156105af575f80fd5b506105c36105be3660046123f9565b611871565b6040516102b292919061246c565b3480156105dc575f80fd5b506007546104ce90600160c01b900460ff1681565b3480156105fc575f80fd5b506102cf60055481565b348015610611575f80fd5b506102fc61062036600461248e565b6119ce565b348015610630575f80fd5b506102fc611b33565b348015610644575f80fd5b506102cf60095481565b348015610659575f80fd5b506102fc611c1a565b34801561066d575f80fd5b506102cf60065481565b348015610682575f80fd5b50600854600954600a54600c5460075460408051958652602086019490945292840191909152606083015260ff600160a01b8204811615156080840152600160a81b82048116151560a0840152600160b01b90910416151560c082015260e0016102b2565b3480156106f2575f80fd5b506102cf600a5481565b348015610707575f80fd5b506007546104ce90600160a01b900460ff1681565b348015610727575f80fd5b506007546103a1906001600160a01b031681565b348015610746575f80fd5b506102fc61075536600461236d565b611e20565b348015610765575f80fd5b506102cf611e75565b348015610779575f80fd5b506108046107883660046123f9565b604080516080810182525f808252602082018190529181018290526060810191909152506001600160a01b03165f908152600b6020908152604091829020825160808101845281548152600182015460ff8082161515948301949094526101009004909216151592820192909252600290910154606082015290565b6040516102b29190815181526020808301511515908201526040808301511515908201526060918201519181019190915260800190565b348015610846575f80fd5b506102cf600e5481565b34801561085b575f80fd5b506104ce611e96565b34801561086f575f80fd5b506007546104ce90600160b01b900460ff1681565b34801561088f575f80fd5b506102cf61271081565b3480156108a4575f80fd5b50610325611ee8565b3480156108b8575f80fd5b506102fc6108c736600461236d565b611ef5565b3480156108d7575f80fd5b506102fc6108e63660046123f9565b612097565b3480156108f6575f80fd5b506108ff612110565b6040516102b291906124c0565b5f805f805f600760169054906101000a900460ff1661092d57600854610931565b6009545b90505f612710610942609684612520565b61094c9190612537565b5f8052600d6020527f81955a0a11e65eac625c29e8882660bae4e165a75d72780094acae8ece9a29ee54738e49800f0aa47e68ba9e46d97481679d03379294986096985091965060ff16945092505050565b6109a6612170565b600754600160a81b900460ff16156109fa5760405162461bcd60e51b815260206004820152601260248201527115da5b9b995c88185b1c9958591e481cd95d60721b60448201526064015b60405180910390fd5b5f815111610a5b5760405162461bcd60e51b815260206004820152602860248201527f526561736f6e20726571756972656420666f7220656d657267656e637920726560448201526739b7b63aba34b7b760c11b60648201526084016109f1565b60078054600160a81b61ffff60a81b19909116600160b01b8515150260ff60a81b1916171763ff0000ff60a01b1916630100000160a01b1790556040517f5eece6d9b713b073a6bc2416b26a7cf53d8a15c9d90aa4e064eee4cb25707cd990610ac7908490849061246c565b60405180910390a160405182151581527f9302b6cb5e0903af39b78bed199ff2d57795b0dae6c9de428f46c9d1316b98719060200160405180910390a15050565b600554421115610b555760405162461bcd60e51b815260206004820152601860248201527710995d1d1a5b99c81c195c9a5bd9081a185cc8195b99195960421b60448201526064016109f1565b600754600160a01b900460ff1615610ba05760405162461bcd60e51b815260206004820152600e60248201526d141bdbdb081a5cc818db1bdcd95960921b60448201526064016109f1565b5f3411610bf95760405162461bcd60e51b815260206004820152602160248201527f42657420616d6f756e74206d7573742062652067726561746572207468616e206044820152600360fc1b60648201526084016109f1565b335f908152600b602052604090205415610c555760405162461bcd60e51b815260206004820152601d60248201527f557365722068617320616c726561647920706c6163656420612062657400000060448201526064016109f1565b600754600160b81b900460ff1615610cb95760405162461bcd60e51b815260206004820152602160248201527f42657474696e6720686173206265656e2073746f707065642062792061646d696044820152603760f91b60648201526084016109f1565b600754600160c01b900460ff1615610d135760405162461bcd60e51b815260206004820152601760248201527f506f6f6c20686173206265656e2063616e63656c6c656400000000000000000060448201526064016109f1565b6040805160808101825234815282151560208083019182525f8385018181524260608601908152338352600b909352949020925183559051600183018054945115156101000261ff00199215159290921661ffff1990951694909417179092559051600290910155600c541580610dbf5750600c8054339190610d9890600190612556565b81548110610da857610da8612569565b5f918252602090912001546001600160a01b031614155b15610e0657600c80546001810182555f919091527fdf6966c971051c3d54ec59162606531493a51404a002842f56009d7e5cf4a8c70180546001600160a01b031916331790555b8015610e28573460085f828254610e1d919061257d565b90915550610e3f9050565b3460095f828254610e39919061257d565b90915550505b34600a5f828254610e50919061257d565b92505081905550336001600160a01b03167f59bec262f3e5c00d172330919288747f1356aecc686af7caa21a3baf473550d73483600854600954600287610eb157604051806040016040528060028152602001614e4f60f01b815250610ece565b6040518060400160405280600381526020016259455360e81b8152505b604051610ee0969594939291906125c8565b60405180910390a250565b600754606090600160b81b900460ff1615610f1e5760405180606001604052806024815260200161278f60249139905090565b600754600160c01b900460ff1615610f68575060408051808201909152601c81527f5468697320706f6f6c20686173206265656e2063616e63656c6c656400000000602082015290565b600554421115610fa5575060408051808201909152601881527710995d1d1a5b99c81c195c9a5bd9081a185cc8195b99195960421b602082015290565b60405180606001604052806028815260200161276760289139905090565b5f805f805f80600760169054906101000a900460ff16610fe557600954610fe9565b6008545b6007549091505f90600160b01b900460ff166110075760085461100b565b6009545b90505f61271061101c609684612520565b6110269190612537565b90505f6110338284612556565b90505f611040828661257d565b949a9399509197509550919350915050565b60606002600460055460405160200161106d939291906126f3565b604051602081830303815290604052905090565b600c8181548110611090575f80fd5b5f918252602090912001546001600160a01b0316905081565b6007545f90600160b01b900460ff166110c3575060085490565b6009545b905090565b600280546110d990612590565b80601f016020809104026020016040519081016040528092919081815260200182805461110590612590565b80156111505780601f1061112757610100808354040283529160200191611150565b820191905f5260205f20905b81548152906001019060200180831161113357829003601f168201915b505050505081565b6111606121c9565b600754600160a81b900460ff166111ae5760405162461bcd60e51b815260206004820152601260248201527115da5b9b995c881b9bdd081cd95d081e595d60721b60448201526064016109f1565b600754600160a01b900460ff1615806111d05750600754600160a81b900460ff165b6112125760405162461bcd60e51b8152602060048201526013602482015272141bdbdb081b9bdd0818db1bdcd959081e595d606a1b60448201526064016109f1565b335f908152600b602052604090205461125d5760405162461bcd60e51b815260206004820152600d60248201526c139bc818995d081c1b1858d959609a1b60448201526064016109f1565b335f908152600d602052604090205460ff16156112ae5760405162461bcd60e51b815260206004820152600f60248201526e105b1c9958591e4818db185a5b5959608a1b60448201526064016109f1565b600754335f908152600b602052604090206001015460ff9081161515600160b01b909204161515146113165760405162461bcd60e51b8152602060048201526011602482015270139bdd0818481dda5b9b9a5b99c818995d607a1b60448201526064016109f1565b335f908152600d60209081526040808320805460ff19166001908117909155600b909252822001805461ff001916610100179055600754600160b01b900460ff1661136357600954611367565b6008545b6007549091505f90600160b01b900460ff1661138557600854611389565b6009545b90505f61271061139a609684612520565b6113a49190612537565b90505f6113b18284612556565b90505f821180156113ec57505f8052600d6020527f81955a0a11e65eac625c29e8882660bae4e165a75d72780094acae8ece9a29ee5460ff16155b15611516576040515f90738e49800f0aa47e68ba9e46d97481679d033792949084908381818185875af1925050503d805f8114611444576040519150601f19603f3d011682016040523d82523d5f602084013e611449565b606091505b50509050806114905760405162461bcd60e51b8152602060048201526013602482015272119959481d1c985b9cd9995c8819985a5b1959606a1b60448201526064016109f1565b5f8052600d6020527f81955a0a11e65eac625c29e8882660bae4e165a75d72780094acae8ece9a29ee805460ff19166001179055604051738e49800f0aa47e68ba9e46d97481679d03379294907f34e8a84e537ed93d93ddf39a78816dcbc74df8397c635838b8cc973d4fa943f89061150c9086815260200190565b60405180910390a2505b335f908152600b602052604081205490611530838761257d565b90505f8661153e8385612520565b6115489190612537565b905080600e5f82825461155b919061257d565b90915550506040515f90339083908381818185875af1925050503d805f811461159f576040519150601f19603f3d011682016040523d82523d5f602084013e6115a4565b606091505b50509050806115ee5760405162461bcd60e51b815260206004820152601660248201527514995dd85c99081d1c985b9cd9995c8819985a5b195960521b60448201526064016109f1565b60405182815233907f106f923f993c2149d49b4255ff723acafa1f2d94393f561d3eda32ae348f72419060200160405180910390a2505050505050505061163460018055565b565b60608060605f8060026003600460055460065484805461165590612590565b80601f016020809104026020016040519081016040528092919081815260200182805461168190612590565b80156116cc5780601f106116a3576101008083540402835291602001916116cc565b820191905f5260205f20905b8154815290600101906020018083116116af57829003601f168201915b505050505094508380546116df90612590565b80601f016020809104026020016040519081016040528092919081815260200182805461170b90612590565b80156117565780601f1061172d57610100808354040283529160200191611756565b820191905f5260205f20905b81548152906001019060200180831161173957829003601f168201915b5050505050935082805461176990612590565b80601f016020809104026020016040519081016040528092919081815260200182805461179590612590565b80156117e05780601f106117b7576101008083540402835291602001916117e0565b820191905f5260205f20905b8154815290600101906020018083116117c357829003601f168201915b50505050509250945094509450945094509091929394565b611800612170565b6116345f612222565b600380546110d990612590565b6007545f90600160c01b900460ff16801561184757506001600160a01b0382165f908152600b602052604090205415155b801561186b57506001600160a01b0382165f908152600d602052604090205460ff16155b92915050565b6001600160a01b0381165f908152600b6020526040812054606090156118b4575f6040518060600160405280602a81526020016127b3602a913991509150915091565b600754600160b81b900460ff1615611906575f6040518060400160405280602081526020017f42657474696e6720686173206265656e207061757365642062792061646d696e81525091509150915091565b600754600160c01b900460ff161561195557505060408051808201909152601c81527f5468697320706f6f6c20686173206265656e2063616e63656c6c65640000000060208201525f92909150565b60055442111561199757505060408051808201909152601881527710995d1d1a5b99c81c195c9a5bd9081a185cc8195b99195960421b60208201525f92909150565b5050604080518082019091526016815275165bdd4818d85b881c1b1858d9481e5bdd5c8818995d60521b6020820152600192909150565b6119d6612170565b600754600160a81b900460ff1615611a3a5760405162461bcd60e51b815260206004820152602160248201527f43616e6e6f742063616e63656c2061667465722077696e6e65722069732073656044820152601d60fa1b60648201526084016109f1565b600754600160c01b900460ff1615611a8d5760405162461bcd60e51b8152602060048201526016602482015275141bdbdb08185b1c9958591e4818d85b98d95b1b195960521b60448201526064016109f1565b5f815111611add5760405162461bcd60e51b815260206004820181905260248201527f526561736f6e20726571756972656420666f722063616e63656c6c6174696f6e60448201526064016109f1565b6007805464ffff0000ff60a01b191664010100000160a01b1790556040517fb8201d4fe5c71cc4bf444acaf4124edf462bda026c79355261a71d9f40d5cd0a90611b289083906123d0565b60405180910390a150565b6007546001600160a01b03163314611b8d5760405162461bcd60e51b815260206004820152601a60248201527f4f6e6c7920666163746f72792063616e2063616c6c207468697300000000000060448201526064016109f1565b600754600160a01b900460ff1615611bdd5760405162461bcd60e51b8152602060048201526013602482015272141bdbdb08185b1c9958591e4818db1bdcd959606a1b60448201526064016109f1565b6007805460ff60a01b1916600160a01b1790556040517fd9fd1a29efbd67e74bbcd110e7344e0a2fbc8efd8334b946c1b805670d8d08ea905f90a1565b611c226121c9565b600754600160c01b900460ff16611c705760405162461bcd60e51b8152602060048201526012602482015271141bdbdb081b9bdd0818d85b98d95b1b195960721b60448201526064016109f1565b335f908152600b6020526040902054611cbb5760405162461bcd60e51b815260206004820152600d60248201526c139bc818995d081c1b1858d959609a1b60448201526064016109f1565b335f908152600d602052604090205460ff1615611d135760405162461bcd60e51b8152602060048201526016602482015275105b1c9958591e4818db185a5b5959081c99599d5b9960521b60448201526064016109f1565b335f818152600b602081815260408084208054600d8452828620805460ff191660019081179091559490935292909201805461ff001916610100179055905190929083905f6040518083038185875af1925050503d805f8114611d91576040519150601f19603f3d011682016040523d82523d5f602084013e611d96565b606091505b5050905080611de05760405162461bcd60e51b81526020600482015260166024820152751499599d5b99081d1c985b9cd9995c8819985a5b195960521b60448201526064016109f1565b60405182815233907f358fe4192934d3bf28ae181feda1f4bd08ca67f5e2fad55582cce5eb67304ae99060200160405180910390a2505061163460018055565b611e28612170565b60078054821515600160b81b0260ff60b81b199091161790556040517f05b88d23d9a60b7924fccc370e1e0c1ccf49989e3b2968cafaf7db7fc13bd13f90611b2890831515815260200190565b6007545f90600160b01b900460ff16611e8f575060095490565b5060085490565b5f611ea360055442111590565b8015611eb95750600754600160b81b900460ff16155b8015611ecf5750600754600160a01b900460ff16155b80156110c7575050600754600160c01b900460ff161590565b600480546110d990612590565b611efd612170565b6005544211611f4e5760405162461bcd60e51b815260206004820152601c60248201527f42657474696e6720706572696f64206973207374696c6c206f70656e0000000060448201526064016109f1565b600754600160a81b900460ff1615611f9d5760405162461bcd60e51b815260206004820152601260248201527115da5b9b995c88185b1c9958591e481cd95d60721b60448201526064016109f1565b6006544211611ff95760405162461bcd60e51b815260206004820152602260248201527f50726564696374696f6e206576656e7420686173206e6f7420656e6465642079604482015261195d60f21b60648201526084016109f1565b6007805460ff60a01b1960ff60a81b19841515600160b01b021661ffff60a81b1990921691909117600160a81b1716600160a01b1790556040517f9302b6cb5e0903af39b78bed199ff2d57795b0dae6c9de428f46c9d1316b98719061206490831515815260200190565b60405180910390a16040517fd9fd1a29efbd67e74bbcd110e7344e0a2fbc8efd8334b946c1b805670d8d08ea905f90a150565b61209f612170565b6001600160a01b0381166121045760405162461bcd60e51b815260206004820152602660248201527f4f776e61626c653a206e6577206f776e657220697320746865207a65726f206160448201526564647265737360d01b60648201526084016109f1565b61210d81612222565b50565b6060600c80548060200260200160405190810160405280929190818152602001828054801561216657602002820191905f5260205f20905b81546001600160a01b03168152600190910190602001808311612148575b5050505050905090565b5f546001600160a01b031633146116345760405162461bcd60e51b815260206004820181905260248201527f4f776e61626c653a2063616c6c6572206973206e6f7420746865206f776e657260448201526064016109f1565b60026001540361221b5760405162461bcd60e51b815260206004820152601f60248201527f5265656e7472616e637947756172643a207265656e7472616e742063616c6c0060448201526064016109f1565b6002600155565b5f80546001600160a01b038381166001600160a01b0319831681178455604051919092169283917f8be0079c531659141344cd1fd0a4f28419497f9722a3daafe3b4186f6b6457e09190a35050565b80358015158114612280575f80fd5b919050565b634e487b7160e01b5f52604160045260245ffd5b5f82601f8301126122a8575f80fd5b813567ffffffffffffffff808211156122c3576122c3612285565b604051601f8301601f19908116603f011681019082821181831017156122eb576122eb612285565b81604052838152866020858801011115612303575f80fd5b836020870160208301375f602085830101528094505050505092915050565b5f8060408385031215612333575f80fd5b61233c83612271565b9150602083013567ffffffffffffffff811115612357575f80fd5b61236385828601612299565b9150509250929050565b5f6020828403121561237d575f80fd5b61238682612271565b9392505050565b5f81518084525f5b818110156123b157602081850181015186830182015201612395565b505f602082860101526020601f19601f83011685010191505092915050565b602081525f612386602083018461238d565b5f602082840312156123f2575f80fd5b5035919050565b5f60208284031215612409575f80fd5b81356001600160a01b0381168114612386575f80fd5b60a081525f61243160a083018861238d565b8281036020840152612443818861238d565b90508281036040840152612457818761238d565b60608401959095525050608001529392505050565b8215158152604060208201525f612486604083018461238d565b949350505050565b5f6020828403121561249e575f80fd5b813567ffffffffffffffff8111156124b4575f80fd5b61248684828501612299565b602080825282518282018190525f9190848201906040850190845b818110156125005783516001600160a01b0316835292840192918401916001016124db565b50909695505050505050565b634e487b7160e01b5f52601160045260245ffd5b808202811582820484141761186b5761186b61250c565b5f8261255157634e487b7160e01b5f52601260045260245ffd5b500490565b8181038181111561186b5761186b61250c565b634e487b7160e01b5f52603260045260245ffd5b8082018082111561186b5761186b61250c565b600181811c908216806125a457607f821691505b6020821081036125c257634e487b7160e01b5f52602260045260245ffd5b50919050565b8681525f6020871515602084015286604084015285606084015260c060808401525f85546125f581612590565b8060c087015260e060018084165f811461261657600181146126325761265f565b60ff19851660e08a015260e084151560051b8a0101955061265f565b8a5f5260205f205f5b858110156126565781548b820186015290830190880161263b565b8a0160e0019650505b505050505083810360a0850152612676818661238d565b9a9950505050505050505050565b5f815461269081612590565b600182811680156126a857600181146126bd576126e9565b60ff19841687528215158302870194506126e9565b855f526020805f205f5b858110156126e05781548a8201529084019082016126c7565b50505082870194505b5050505092915050565b6f0283630b1b29030903132ba1037b71d160851b81525f6127176010830186612684565b6c0103e1021b0ba32b3b7b93c9d1609d1b8152612737600d820186612684565b720103e102132ba3a34b7339031b637b9b2b99d1606d1b8152601381019490945250506033909101939250505056fe42657474696e67206973206f70656e202d20796f752063616e20706c61636520796f75722062657442657474696e672069732063757272656e746c79207061757365642062792061646d696e596f75206861766520616c726561647920706c6163656420612062657420696e207468697320706f6f6ca264697066735822122068a17ba8ff7e21a1f813c4b4f539d977e7aabfa2af54a84b3c0df810d70a7fce64736f6c63430008180033","opcodes":"PUSH1 0x80 PUSH1 0x40 MSTORE PUSH1 0x7 DUP1 SLOAD PUSH5 0xFFFF00FFFF PUSH1 0xA0 SHL NOT AND SWAP1 SSTORE CALLVALUE DUP1 ISZERO PUSH3 0x21 JUMPI PUSH0 DUP1 REVERT JUMPDEST POP PUSH1 0x40 MLOAD PUSH3 0x2BF8 CODESIZE SUB DUP1 PUSH3 0x2BF8 DUP4 CODECOPY DUP2 ADD PUSH1 0x40 DUP2 SWAP1 MSTORE PUSH3 0x44 SWAP2 PUSH3 0x1C2 JUMP JUMPDEST PUSH3 0x4F CALLER PUSH3 0xB2 JUMP JUMPDEST PUSH1 0x1 DUP1 SSTORE PUSH1 0x2 PUSH3 0x61 DUP8 DUP3 PUSH3 0x30C JUMP JUMPDEST POP PUSH1 0x3 PUSH3 0x70 DUP7 DUP3 PUSH3 0x30C JUMP JUMPDEST POP PUSH1 0x4 PUSH3 0x7F DUP6 DUP3 PUSH3 0x30C JUMP JUMPDEST POP PUSH1 0x5 SWAP3 SWAP1 SWAP3 SSTORE PUSH1 0x6 SSTORE PUSH1 0x7 DUP1 SLOAD PUSH1 0x1 PUSH1 0x1 PUSH1 0xA0 SHL SUB NOT AND PUSH1 0x1 PUSH1 0x1 PUSH1 0xA0 SHL SUB SWAP1 SWAP3 AND SWAP2 SWAP1 SWAP2 OR SWAP1 SSTORE POP PUSH3 0x3D8 SWAP2 POP POP JUMP JUMPDEST PUSH0 DUP1 SLOAD PUSH1 0x1 PUSH1 0x1 PUSH1 0xA0 SHL SUB DUP4 DUP2 AND PUSH1 0x1 PUSH1 0x1 PUSH1 0xA0 SHL SUB NOT DUP4 AND DUP2 OR DUP5 SSTORE PUSH1 0x40 MLOAD SWAP2 SWAP1 SWAP3 AND SWAP3 DUP4 SWAP2 PUSH32 0x8BE0079C531659141344CD1FD0A4F28419497F9722A3DAAFE3B4186F6B6457E0 SWAP2 SWAP1 LOG3 POP POP JUMP JUMPDEST PUSH4 0x4E487B71 PUSH1 0xE0 SHL PUSH0 MSTORE PUSH1 0x41 PUSH1 0x4 MSTORE PUSH1 0x24 PUSH0 REVERT JUMPDEST PUSH0 DUP3 PUSH1 0x1F DUP4 ADD SLT PUSH3 0x125 JUMPI PUSH0 DUP1 REVERT JUMPDEST DUP2 MLOAD PUSH1 0x1 PUSH1 0x1 PUSH1 0x40 SHL SUB DUP1 DUP3 GT ISZERO PUSH3 0x142 JUMPI PUSH3 0x142 PUSH3 0x101 JUMP JUMPDEST PUSH1 0x40 MLOAD PUSH1 0x1F DUP4 ADD PUSH1 0x1F NOT SWAP1 DUP2 AND PUSH1 0x3F ADD AND DUP2 ADD SWAP1 DUP3 DUP3 GT DUP2 DUP4 LT OR ISZERO PUSH3 0x16D JUMPI PUSH3 0x16D PUSH3 0x101 JUMP JUMPDEST DUP2 PUSH1 0x40 MSTORE DUP4 DUP2 MSTORE PUSH1 0x20 SWAP3 POP DUP7 PUSH1 0x20 DUP6 DUP9 ADD ADD GT ISZERO PUSH3 0x18A JUMPI PUSH0 DUP1 REVERT JUMPDEST PUSH0 SWAP2 POP JUMPDEST DUP4 DUP3 LT ISZERO PUSH3 0x1AD JUMPI DUP6 DUP3 ADD DUP4 ADD MLOAD DUP2 DUP4 ADD DUP5 ADD MSTORE SWAP1 DUP3 ADD SWAP1 PUSH3 0x18E JUMP JUMPDEST PUSH0 PUSH1 0x20 DUP6 DUP4 ADD ADD MSTORE DUP1 SWAP5 POP POP POP POP POP SWAP3 SWAP2 POP POP JUMP JUMPDEST PUSH0 DUP1 PUSH0 DUP1 PUSH0 DUP1 PUSH1 0xC0 DUP8 DUP10 SUB SLT ISZERO PUSH3 0x1D8 JUMPI PUSH0 DUP1 REVERT JUMPDEST DUP7 MLOAD PUSH1 0x1 PUSH1 0x1 PUSH1 0x40 SHL SUB DUP1 DUP3 GT ISZERO PUSH3 0x1EF JUMPI PUSH0 DUP1 REVERT JUMPDEST PUSH3 0x1FD DUP11 DUP4 DUP12 ADD PUSH3 0x115 JUMP JUMPDEST SWAP8 POP PUSH1 0x20 DUP10 ADD MLOAD SWAP2 POP DUP1 DUP3 GT ISZERO PUSH3 0x213 JUMPI PUSH0 DUP1 REVERT JUMPDEST PUSH3 0x221 DUP11 DUP4 DUP12 ADD PUSH3 0x115 JUMP JUMPDEST SWAP7 POP PUSH1 0x40 DUP10 ADD MLOAD SWAP2 POP DUP1 DUP3 GT ISZERO PUSH3 0x237 JUMPI PUSH0 DUP1 REVERT JUMPDEST POP PUSH3 0x246 DUP10 DUP3 DUP11 ADD PUSH3 0x115 JUMP JUMPDEST PUSH1 0x60 DUP10 ADD MLOAD PUSH1 0x80 DUP11 ADD MLOAD PUSH1 0xA0 DUP12 ADD MLOAD SWAP3 SWAP8 POP SWAP1 SWAP6 POP SWAP4 POP SWAP1 POP PUSH1 0x1 PUSH1 0x1 PUSH1 0xA0 SHL SUB DUP2 AND DUP2 EQ PUSH3 0x274 JUMPI PUSH0 DUP1 REVERT JUMPDEST DUP1 SWAP2 POP POP SWAP3 SWAP6 POP SWAP3 SWAP6 POP SWAP3 SWAP6 JUMP JUMPDEST PUSH1 0x1 DUP2 DUP2 SHR SWAP1 DUP3 AND DUP1 PUSH3 0x297 JUMPI PUSH1 0x7F DUP3 AND SWAP2 POP JUMPDEST PUSH1 0x20 DUP3 LT DUP2 SUB PUSH3 0x2B6 JUMPI PUSH4 0x4E487B71 PUSH1 0xE0 SHL PUSH0 MSTORE PUSH1 0x22 PUSH1 0x4 MSTORE PUSH1 0x24 PUSH0 REVERT JUMPDEST POP SWAP2 SWAP1 POP JUMP JUMPDEST PUSH1 0x1F DUP3 GT ISZERO PUSH3 0x307 JUMPI DUP1 PUSH0 MSTORE PUSH1 0x20 PUSH0 KECCAK256 PUSH1 0x1F DUP5 ADD PUSH1 0x5 SHR DUP2 ADD PUSH1 0x20 DUP6 LT ISZERO PUSH3 0x2E3 JUMPI POP DUP1 JUMPDEST PUSH1 0x1F DUP5 ADD PUSH1 0x5 SHR DUP3 ADD SWAP2 POP JUMPDEST DUP2 DUP2 LT ISZERO PUSH3 0x304 JUMPI PUSH0 DUP2 SSTORE PUSH1 0x1 ADD PUSH3 0x2EF JUMP JUMPDEST POP POP JUMPDEST POP POP POP JUMP JUMPDEST DUP2 MLOAD PUSH1 0x1 PUSH1 0x1 PUSH1 0x40 SHL SUB DUP2 GT ISZERO PUSH3 0x328 JUMPI PUSH3 0x328 PUSH3 0x101 JUMP JUMPDEST PUSH3 0x340 DUP2 PUSH3 0x339 DUP5 SLOAD PUSH3 0x282 JUMP JUMPDEST DUP5 PUSH3 0x2BC JUMP JUMPDEST PUSH1 0x20 DUP1 PUSH1 0x1F DUP4 GT PUSH1 0x1 DUP2 EQ PUSH3 0x376 JUMPI PUSH0 DUP5 ISZERO PUSH3 0x35E JUMPI POP DUP6 DUP4 ADD MLOAD JUMPDEST PUSH0 NOT PUSH1 0x3 DUP7 SWAP1 SHL SHR NOT AND PUSH1 0x1 DUP6 SWAP1 SHL OR DUP6 SSTORE PUSH3 0x3D0 JUMP JUMPDEST PUSH0 DUP6 DUP2 MSTORE PUSH1 0x20 DUP2 KECCAK256 PUSH1 0x1F NOT DUP7 AND SWAP2 JUMPDEST DUP3 DUP2 LT ISZERO PUSH3 0x3A6 JUMPI DUP9 DUP7 ADD MLOAD DUP3 SSTORE SWAP5 DUP5 ADD SWAP5 PUSH1 0x1 SWAP1 SWAP2 ADD SWAP1 DUP5 ADD PUSH3 0x385 JUMP JUMPDEST POP DUP6 DUP3 LT ISZERO PUSH3 0x3C4 JUMPI DUP8 DUP6 ADD MLOAD PUSH0 NOT PUSH1 0x3 DUP9 SWAP1 SHL PUSH1 0xF8 AND SHR NOT AND DUP2 SSTORE JUMPDEST POP POP PUSH1 0x1 DUP5 PUSH1 0x1 SHL ADD DUP6 SSTORE JUMPDEST POP POP POP POP POP POP JUMP JUMPDEST PUSH2 0x2812 DUP1 PUSH3 0x3E6 PUSH0 CODECOPY PUSH0 RETURN INVALID PUSH1 0x80 PUSH1 0x40 MSTORE PUSH1 0x4 CALLDATASIZE LT PUSH2 0x26B JUMPI PUSH0 CALLDATALOAD PUSH1 0xE0 SHR DUP1 PUSH4 0x968B048F GT PUSH2 0x14A JUMPI DUP1 PUSH4 0xC45A0155 GT PUSH2 0xBE JUMPI DUP1 PUSH4 0xDFBF53AE GT PUSH2 0x78 JUMPI DUP1 PUSH4 0xDFBF53AE EQ PUSH2 0x864 JUMPI DUP1 PUSH4 0xE1F1C4A7 EQ PUSH2 0x884 JUMPI DUP1 PUSH4 0xEF430AA6 EQ PUSH2 0x899 JUMPI DUP1 PUSH4 0xEF9EA486 EQ PUSH2 0x8AD JUMPI DUP1 PUSH4 0xF2FDE38B EQ PUSH2 0x8CC JUMPI DUP1 PUSH4 0xFFD4493C EQ PUSH2 0x8EB JUMPI PUSH0 DUP1 REVERT JUMPDEST DUP1 PUSH4 0xC45A0155 EQ PUSH2 0x71C JUMPI DUP1 PUSH4 0xC73D7C7B EQ PUSH2 0x73B JUMPI DUP1 PUSH4 0xC77511EE EQ PUSH2 0x75A JUMPI DUP1 PUSH4 0xC96ADB01 EQ PUSH2 0x76E JUMPI DUP1 PUSH4 0xD54AD2A1 EQ PUSH2 0x83B JUMPI DUP1 PUSH4 0xDA3D9183 EQ PUSH2 0x850 JUMPI PUSH0 DUP1 REVERT JUMPDEST DUP1 PUSH4 0xAF008883 GT PUSH2 0x10F JUMPI DUP1 PUSH4 0xAF008883 EQ PUSH2 0x639 JUMPI DUP1 PUSH4 0xB5545A3C EQ PUSH2 0x64E JUMPI DUP1 PUSH4 0xB84FF262 EQ PUSH2 0x662 JUMPI DUP1 PUSH4 0xBBB85188 EQ PUSH2 0x677 JUMPI DUP1 PUSH4 0xBEFA1E2F EQ PUSH2 0x6E7 JUMPI DUP1 PUSH4 0xC2B6B58C EQ PUSH2 0x6FC JUMPI PUSH0 DUP1 REVERT JUMPDEST DUP1 PUSH4 0x968B048F EQ PUSH2 0x5A4 JUMPI DUP1 PUSH4 0x9A82A09A EQ PUSH2 0x5D1 JUMPI DUP1 PUSH4 0xA628828F EQ PUSH2 0x5F1 JUMPI DUP1 PUSH4 0xA8AE8E05 EQ PUSH2 0x606 JUMPI DUP1 PUSH4 0xA9CC9AE9 EQ PUSH2 0x625 JUMPI PUSH0 DUP1 REVERT JUMPDEST DUP1 PUSH4 0x4E71D92D GT PUSH2 0x1E1 JUMPI DUP1 PUSH4 0x7284E416 GT PUSH2 0x1A6 JUMPI DUP1 PUSH4 0x7284E416 EQ PUSH2 0x4F2 JUMPI DUP1 PUSH4 0x73B2E80E EQ PUSH2 0x506 JUMPI DUP1 PUSH4 0x78E73FF8 EQ PUSH2 0x534 JUMPI DUP1 PUSH4 0x88BA8DD6 EQ PUSH2 0x554 JUMPI DUP1 PUSH4 0x8CCA8F64 EQ PUSH2 0x569 JUMPI DUP1 PUSH4 0x8DA5CB5B EQ PUSH2 0x588 JUMPI PUSH0 DUP1 REVERT JUMPDEST DUP1 PUSH4 0x4E71D92D EQ PUSH2 0x408 JUMPI DUP1 PUSH4 0x4E92A646 EQ PUSH2 0x41C JUMPI DUP1 PUSH4 0x60246C88 EQ PUSH2 0x489 JUMPI DUP1 PUSH4 0x63A599A4 EQ PUSH2 0x4AE JUMPI DUP1 PUSH4 0x715018A6 EQ PUSH2 0x4DE JUMPI PUSH0 DUP1 REVERT JUMPDEST DUP1 PUSH4 0x1CC3A0F1 GT PUSH2 0x232 JUMPI DUP1 PUSH4 0x1CC3A0F1 EQ PUSH2 0x332 JUMPI DUP1 PUSH4 0x330B19BA EQ PUSH2 0x36E JUMPI DUP1 PUSH4 0x3482B644 EQ PUSH2 0x382 JUMPI DUP1 PUSH4 0x43C322BA EQ PUSH2 0x3B9 JUMPI DUP1 PUSH4 0x44CD7948 EQ PUSH2 0x3CD JUMPI DUP1 PUSH4 0x4A79D50C EQ PUSH2 0x3F4 JUMPI PUSH0 DUP1 REVERT JUMPDEST DUP1 PUSH3 0x2EAB7 EQ PUSH2 0x276 JUMPI DUP1 PUSH3 0xB46F8 EQ PUSH2 0x2BB JUMPI DUP1 PUSH4 0x6F6BCE9 EQ PUSH2 0x2DD JUMPI DUP1 PUSH4 0x96A3778 EQ PUSH2 0x2FE JUMPI DUP1 PUSH4 0x179DFBF3 EQ PUSH2 0x311 JUMPI PUSH0 DUP1 REVERT JUMPDEST CALLDATASIZE PUSH2 0x272 JUMPI STOP JUMPDEST PUSH0 DUP1 REVERT JUMPDEST CALLVALUE DUP1 ISZERO PUSH2 0x281 JUMPI PUSH0 DUP1 REVERT JUMPDEST POP PUSH2 0x28A PUSH2 0x90C JUMP JUMPDEST PUSH1 0x40 DUP1 MLOAD PUSH1 0x1 PUSH1 0x1 PUSH1 0xA0 SHL SUB SWAP1 SWAP6 AND DUP6 MSTORE PUSH1 0x20 DUP6 ADD SWAP4 SWAP1 SWAP4 MSTORE SWAP2 DUP4 ADD MSTORE ISZERO ISZERO PUSH1 0x60 DUP3 ADD MSTORE PUSH1 0x80 ADD JUMPDEST PUSH1 0x40 MLOAD DUP1 SWAP2 SUB SWAP1 RETURN JUMPDEST CALLVALUE DUP1 ISZERO PUSH2 0x2C6 JUMPI PUSH0 DUP1 REVERT JUMPDEST POP PUSH2 0x2CF PUSH1 0x96 DUP2 JUMP JUMPDEST PUSH1 0x40 MLOAD SWAP1 DUP2 MSTORE PUSH1 0x20 ADD PUSH2 0x2B2 JUMP JUMPDEST CALLVALUE DUP1 ISZERO PUSH2 0x2E8 JUMPI PUSH0 DUP1 REVERT JUMPDEST POP PUSH2 0x2FC PUSH2 0x2F7 CALLDATASIZE PUSH1 0x4 PUSH2 0x2322 JUMP JUMPDEST PUSH2 0x99E JUMP JUMPDEST STOP JUMPDEST PUSH2 0x2FC PUSH2 0x30C CALLDATASIZE PUSH1 0x4 PUSH2 0x236D JUMP JUMPDEST PUSH2 0xB08 JUMP JUMPDEST CALLVALUE DUP1 ISZERO PUSH2 0x31C JUMPI PUSH0 DUP1 REVERT JUMPDEST POP PUSH2 0x325 PUSH2 0xEEB JUMP JUMPDEST PUSH1 0x40 MLOAD PUSH2 0x2B2 SWAP2 SWAP1 PUSH2 0x23D0 JUMP JUMPDEST CALLVALUE DUP1 ISZERO PUSH2 0x33D JUMPI PUSH0 DUP1 REVERT JUMPDEST POP PUSH2 0x346 PUSH2 0xFC3 JUMP JUMPDEST PUSH1 0x40 DUP1 MLOAD SWAP6 DUP7 MSTORE PUSH1 0x20 DUP7 ADD SWAP5 SWAP1 SWAP5 MSTORE SWAP3 DUP5 ADD SWAP2 SWAP1 SWAP2 MSTORE PUSH1 0x60 DUP4 ADD MSTORE PUSH1 0x80 DUP3 ADD MSTORE PUSH1 0xA0 ADD PUSH2 0x2B2 JUMP JUMPDEST CALLVALUE DUP1 ISZERO PUSH2 0x379 JUMPI PUSH0 DUP1 REVERT JUMPDEST POP PUSH2 0x325 PUSH2 0x1052 JUMP JUMPDEST CALLVALUE DUP1 ISZERO PUSH2 0x38D JUMPI PUSH0 DUP1 REVERT JUMPDEST POP PUSH2 0x3A1 PUSH2 0x39C CALLDATASIZE PUSH1 0x4 PUSH2 0x23E2 JUMP JUMPDEST PUSH2 0x1081 JUMP JUMPDEST PUSH1 0x40 MLOAD PUSH1 0x1 PUSH1 0x1 PUSH1 0xA0 SHL SUB SWAP1 SWAP2 AND DUP2 MSTORE PUSH1 0x20 ADD PUSH2 0x2B2 JUMP JUMPDEST CALLVALUE DUP1 ISZERO PUSH2 0x3C4 JUMPI PUSH0 DUP1 REVERT JUMPDEST POP PUSH2 0x2CF PUSH2 0x10A9 JUMP JUMPDEST CALLVALUE DUP1 ISZERO PUSH2 0x3D8 JUMPI PUSH0 DUP1 REVERT JUMPDEST POP PUSH2 0x3A1 PUSH20 0x8E49800F0AA47E68BA9E46D97481679D03379294 DUP2 JUMP JUMPDEST CALLVALUE DUP1 ISZERO PUSH2 0x3FF JUMPI PUSH0 DUP1 REVERT JUMPDEST POP PUSH2 0x325 PUSH2 0x10CC JUMP JUMPDEST CALLVALUE DUP1 ISZERO PUSH2 0x413 JUMPI PUSH0 DUP1 REVERT JUMPDEST POP PUSH2 0x2FC PUSH2 0x1158 JUMP JUMPDEST CALLVALUE DUP1 ISZERO PUSH2 0x427 JUMPI PUSH0 DUP1 REVERT JUMPDEST POP PUSH2 0x463 PUSH2 0x436 CALLDATASIZE PUSH1 0x4 PUSH2 0x23F9 JUMP JUMPDEST PUSH1 0xB PUSH1 0x20 MSTORE PUSH0 SWAP1 DUP2 MSTORE PUSH1 0x40 SWAP1 KECCAK256 DUP1 SLOAD PUSH1 0x1 DUP3 ADD SLOAD PUSH1 0x2 SWAP1 SWAP3 ADD SLOAD SWAP1 SWAP2 PUSH1 0xFF DUP1 DUP3 AND SWAP3 PUSH2 0x100 SWAP1 SWAP3 DIV AND SWAP1 DUP5 JUMP JUMPDEST PUSH1 0x40 DUP1 MLOAD SWAP5 DUP6 MSTORE SWAP3 ISZERO ISZERO PUSH1 0x20 DUP6 ADD MSTORE SWAP1 ISZERO ISZERO SWAP2 DUP4 ADD SWAP2 SWAP1 SWAP2 MSTORE PUSH1 0x60 DUP3 ADD MSTORE PUSH1 0x80 ADD PUSH2 0x2B2 JUMP JUMPDEST CALLVALUE DUP1 ISZERO PUSH2 0x494 JUMPI PUSH0 DUP1 REVERT JUMPDEST POP PUSH2 0x49D PUSH2 0x1636 JUMP JUMPDEST PUSH1 0x40 MLOAD PUSH2 0x2B2 SWAP6 SWAP5 SWAP4 SWAP3 SWAP2 SWAP1 PUSH2 0x241F JUMP JUMPDEST CALLVALUE DUP1 ISZERO PUSH2 0x4B9 JUMPI PUSH0 DUP1 REVERT JUMPDEST POP PUSH1 0x7 SLOAD PUSH2 0x4CE SWAP1 PUSH1 0x1 PUSH1 0xB8 SHL SWAP1 DIV PUSH1 0xFF AND DUP2 JUMP JUMPDEST PUSH1 0x40 MLOAD SWAP1 ISZERO ISZERO DUP2 MSTORE PUSH1 0x20 ADD PUSH2 0x2B2 JUMP JUMPDEST CALLVALUE DUP1 ISZERO PUSH2 0x4E9 JUMPI PUSH0 DUP1 REVERT JUMPDEST POP PUSH2 0x2FC PUSH2 0x17F8 JUMP JUMPDEST CALLVALUE DUP1 ISZERO PUSH2 0x4FD JUMPI PUSH0 DUP1 REVERT JUMPDEST POP PUSH2 0x325 PUSH2 0x1809 JUMP JUMPDEST CALLVALUE DUP1 ISZERO PUSH2 0x511 JUMPI PUSH0 DUP1 REVERT JUMPDEST POP PUSH2 0x4CE PUSH2 0x520 CALLDATASIZE PUSH1 0x4 PUSH2 0x23F9 JUMP JUMPDEST PUSH1 0xD PUSH1 0x20 MSTORE PUSH0 SWAP1 DUP2 MSTORE PUSH1 0x40 SWAP1 KECCAK256 SLOAD PUSH1 0xFF AND DUP2 JUMP JUMPDEST CALLVALUE DUP1 ISZERO PUSH2 0x53F JUMPI PUSH0 DUP1 REVERT JUMPDEST POP PUSH1 0x7 SLOAD PUSH2 0x4CE SWAP1 PUSH1 0x1 PUSH1 0xA8 SHL SWAP1 DIV PUSH1 0xFF AND DUP2 JUMP JUMPDEST CALLVALUE DUP1 ISZERO PUSH2 0x55F JUMPI PUSH0 DUP1 REVERT JUMPDEST POP PUSH2 0x2CF PUSH1 0x8 SLOAD DUP2 JUMP JUMPDEST CALLVALUE DUP1 ISZERO PUSH2 0x574 JUMPI PUSH0 DUP1 REVERT JUMPDEST POP PUSH2 0x4CE PUSH2 0x583 CALLDATASIZE PUSH1 0x4 PUSH2 0x23F9 JUMP JUMPDEST PUSH2 0x1816 JUMP JUMPDEST CALLVALUE DUP1 ISZERO PUSH2 0x593 JUMPI PUSH0 DUP1 REVERT JUMPDEST POP PUSH0 SLOAD PUSH1 0x1 PUSH1 0x1 PUSH1 0xA0 SHL SUB AND PUSH2 0x3A1 JUMP JUMPDEST CALLVALUE DUP1 ISZERO PUSH2 0x5AF JUMPI PUSH0 DUP1 REVERT JUMPDEST POP PUSH2 0x5C3 PUSH2 0x5BE CALLDATASIZE PUSH1 0x4 PUSH2 0x23F9 JUMP JUMPDEST PUSH2 0x1871 JUMP JUMPDEST PUSH1 0x40 MLOAD PUSH2 0x2B2 SWAP3 SWAP2 SWAP1 PUSH2 0x246C JUMP JUMPDEST CALLVALUE DUP1 ISZERO PUSH2 0x5DC JUMPI PUSH0 DUP1 REVERT JUMPDEST POP PUSH1 0x7 SLOAD PUSH2 0x4CE SWAP1 PUSH1 0x1 PUSH1 0xC0 SHL SWAP1 DIV PUSH1 0xFF AND DUP2 JUMP JUMPDEST CALLVALUE DUP1 ISZERO PUSH2 0x5FC JUMPI PUSH0 DUP1 REVERT JUMPDEST POP PUSH2 0x2CF PUSH1 0x5 SLOAD DUP2 JUMP JUMPDEST CALLVALUE DUP1 ISZERO PUSH2 0x611 JUMPI PUSH0 DUP1 REVERT JUMPDEST POP PUSH2 0x2FC PUSH2 0x620 CALLDATASIZE PUSH1 0x4 PUSH2 0x248E JUMP JUMPDEST PUSH2 0x19CE JUMP JUMPDEST CALLVALUE DUP1 ISZERO PUSH2 0x630 JUMPI PUSH0 DUP1 REVERT JUMPDEST POP PUSH2 0x2FC PUSH2 0x1B33 JUMP JUMPDEST CALLVALUE DUP1 ISZERO PUSH2 0x644 JUMPI PUSH0 DUP1 REVERT JUMPDEST POP PUSH2 0x2CF PUSH1 0x9 SLOAD DUP2 JUMP JUMPDEST CALLVALUE DUP1 ISZERO PUSH2 0x659 JUMPI PUSH0 DUP1 REVERT JUMPDEST POP PUSH2 0x2FC PUSH2 0x1C1A JUMP JUMPDEST CALLVALUE DUP1 ISZERO PUSH2 0x66D JUMPI PUSH0 DUP1 REVERT JUMPDEST POP PUSH2 0x2CF PUSH1 0x6 SLOAD DUP2 JUMP JUMPDEST CALLVALUE DUP1 ISZERO PUSH2 0x682 JUMPI PUSH0 DUP1 REVERT JUMPDEST POP PUSH1 0x8 SLOAD PUSH1 0x9 SLOAD PUSH1 0xA SLOAD PUSH1 0xC SLOAD PUSH1 0x7 SLOAD PUSH1 0x40 DUP1 MLOAD SWAP6 DUP7 MSTORE PUSH1 0x20 DUP7 ADD SWAP5 SWAP1 SWAP5 MSTORE SWAP3 DUP5 ADD SWAP2 SWAP1 SWAP2 MSTORE PUSH1 0x60 DUP4 ADD MSTORE PUSH1 0xFF PUSH1 0x1 PUSH1 0xA0 SHL DUP3 DIV DUP2 AND ISZERO ISZERO PUSH1 0x80 DUP5 ADD MSTORE PUSH1 0x1 PUSH1 0xA8 SHL DUP3 DIV DUP2 AND ISZERO ISZERO PUSH1 0xA0 DUP5 ADD MSTORE PUSH1 0x1 PUSH1 0xB0 SHL SWAP1 SWAP2 DIV AND ISZERO ISZERO PUSH1 0xC0 DUP3 ADD MSTORE PUSH1 0xE0 ADD PUSH2 0x2B2 JUMP JUMPDEST CALLVALUE DUP1 ISZERO PUSH2 0x6F2 JUMPI PUSH0 DUP1 REVERT JUMPDEST POP PUSH2 0x2CF PUSH1 0xA SLOAD DUP2 JUMP JUMPDEST CALLVALUE DUP1 ISZERO PUSH2 0x707 JUMPI PUSH0 DUP1 REVERT JUMPDEST POP PUSH1 0x7 SLOAD PUSH2 0x4CE SWAP1 PUSH1 0x1 PUSH1 0xA0 SHL SWAP1 DIV PUSH1 0xFF AND DUP2 JUMP JUMPDEST CALLVALUE DUP1 ISZERO PUSH2 0x727 JUMPI PUSH0 DUP1 REVERT JUMPDEST POP PUSH1 0x7 SLOAD PUSH2 0x3A1 SWAP1 PUSH1 0x1 PUSH1 0x1 PUSH1 0xA0 SHL SUB AND DUP2 JUMP JUMPDEST CALLVALUE DUP1 ISZERO PUSH2 0x746 JUMPI PUSH0 DUP1 REVERT JUMPDEST POP PUSH2 0x2FC PUSH2 0x755 CALLDATASIZE PUSH1 0x4 PUSH2 0x236D JUMP JUMPDEST PUSH2 0x1E20 JUMP JUMPDEST CALLVALUE DUP1 ISZERO PUSH2 0x765 JUMPI PUSH0 DUP1 REVERT JUMPDEST POP PUSH2 0x2CF PUSH2 0x1E75 JUMP JUMPDEST CALLVALUE DUP1 ISZERO PUSH2 0x779 JUMPI PUSH0 DUP1 REVERT JUMPDEST POP PUSH2 0x804 PUSH2 0x788 CALLDATASIZE PUSH1 0x4 PUSH2 0x23F9 JUMP JUMPDEST PUSH1 0x40 DUP1 MLOAD PUSH1 0x80 DUP2 ADD DUP3 MSTORE PUSH0 DUP1 DUP3 MSTORE PUSH1 0x20 DUP3 ADD DUP2 SWAP1 MSTORE SWAP2 DUP2 ADD DUP3 SWAP1 MSTORE PUSH1 0x60 DUP2 ADD SWAP2 SWAP1 SWAP2 MSTORE POP PUSH1 0x1 PUSH1 0x1 PUSH1 0xA0 SHL SUB AND PUSH0 SWAP1 DUP2 MSTORE PUSH1 0xB PUSH1 0x20 SWAP1 DUP2 MSTORE PUSH1 0x40 SWAP2 DUP3 SWAP1 KECCAK256 DUP3 MLOAD PUSH1 0x80 DUP2 ADD DUP5 MSTORE DUP2 SLOAD DUP2 MSTORE PUSH1 0x1 DUP3 ADD SLOAD PUSH1 0xFF DUP1 DUP3 AND ISZERO ISZERO SWAP5 DUP4 ADD SWAP5 SWAP1 SWAP5 MSTORE PUSH2 0x100 SWAP1 DIV SWAP1 SWAP3 AND ISZERO ISZERO SWAP3 DUP3 ADD SWAP3 SWAP1 SWAP3 MSTORE PUSH1 0x2 SWAP1 SWAP2 ADD SLOAD PUSH1 0x60 DUP3 ADD MSTORE SWAP1 JUMP JUMPDEST PUSH1 0x40 MLOAD PUSH2 0x2B2 SWAP2 SWAP1 DUP2 MLOAD DUP2 MSTORE PUSH1 0x20 DUP1 DUP4 ADD MLOAD ISZERO ISZERO SWAP1 DUP3 ADD MSTORE PUSH1 0x40 DUP1 DUP4 ADD MLOAD ISZERO ISZERO SWAP1 DUP3 ADD MSTORE PUSH1 0x60 SWAP2 DUP3 ADD MLOAD SWAP2 DUP2 ADD SWAP2 SWAP1 SWAP2 MSTORE PUSH1 0x80 ADD SWAP1 JUMP JUMPDEST CALLVALUE DUP1 ISZERO PUSH2 0x846 JUMPI PUSH0 DUP1 REVERT JUMPDEST POP PUSH2 0x2CF PUSH1 0xE SLOAD DUP2 JUMP JUMPDEST CALLVALUE DUP1 ISZERO PUSH2 0x85B JUMPI PUSH0 DUP1 REVERT JUMPDEST POP PUSH2 0x4CE PUSH2 0x1E96 JUMP JUMPDEST CALLVALUE DUP1 ISZERO PUSH2 0x86F JUMPI PUSH0 DUP1 REVERT JUMPDEST POP PUSH1 0x7 SLOAD PUSH2 0x4CE SWAP1 PUSH1 0x1 PUSH1 0xB0 SHL SWAP1 DIV PUSH1 0xFF AND DUP2 JUMP JUMPDEST CALLVALUE DUP1 ISZERO PUSH2 0x88F JUMPI PUSH0 DUP1 REVERT JUMPDEST POP PUSH2 0x2CF PUSH2 0x2710 DUP2 JUMP JUMPDEST CALLVALUE DUP1 ISZERO PUSH2 0x8A4 JUMPI PUSH0 DUP1 REVERT JUMPDEST POP PUSH2 0x325 PUSH2 0x1EE8 JUMP JUMPDEST CALLVALUE DUP1 ISZERO PUSH2 0x8B8 JUMPI PUSH0 DUP1 REVERT JUMPDEST POP PUSH2 0x2FC PUSH2 0x8C7 CALLDATASIZE PUSH1 0x4 PUSH2 0x236D JUMP JUMPDEST PUSH2 0x1EF5 JUMP JUMPDEST CALLVALUE DUP1 ISZERO PUSH2 0x8D7 JUMPI PUSH0 DUP1 REVERT JUMPDEST POP PUSH2 0x2FC PUSH2 0x8E6 CALLDATASIZE PUSH1 0x4 PUSH2 0x23F9 JUMP JUMPDEST PUSH2 0x2097 JUMP JUMPDEST CALLVALUE DUP1 ISZERO PUSH2 0x8F6 JUMPI PUSH0 DUP1 REVERT JUMPDEST POP PUSH2 0x8FF PUSH2 0x2110 JUMP JUMPDEST PUSH1 0x40 MLOAD PUSH2 0x2B2 SWAP2 SWAP1 PUSH2 0x24C0 JUMP JUMPDEST PUSH0 DUP1 PUSH0 DUP1 PUSH0 PUSH1 0x7 PUSH1 0x16 SWAP1 SLOAD SWAP1 PUSH2 0x100 EXP SWAP1 DIV PUSH1 0xFF AND PUSH2 0x92D JUMPI PUSH1 0x8 SLOAD PUSH2 0x931 JUMP JUMPDEST PUSH1 0x9 SLOAD JUMPDEST SWAP1 POP PUSH0 PUSH2 0x2710 PUSH2 0x942 PUSH1 0x96 DUP5 PUSH2 0x2520 JUMP JUMPDEST PUSH2 0x94C SWAP2 SWAP1 PUSH2 0x2537 JUMP JUMPDEST PUSH0 DUP1 MSTORE PUSH1 0xD PUSH1 0x20 MSTORE PUSH32 0x81955A0A11E65EAC625C29E8882660BAE4E165A75D72780094ACAE8ECE9A29EE SLOAD PUSH20 0x8E49800F0AA47E68BA9E46D97481679D03379294 SWAP9 PUSH1 0x96 SWAP9 POP SWAP2 SWAP7 POP PUSH1 0xFF AND SWAP5 POP SWAP3 POP POP POP JUMP JUMPDEST PUSH2 0x9A6 PUSH2 0x2170 JUMP JUMPDEST PUSH1 0x7 SLOAD PUSH1 0x1 PUSH1 0xA8 SHL SWAP1 DIV PUSH1 0xFF AND ISZERO PUSH2 0x9FA JUMPI PUSH1 0x40 MLOAD PUSH3 0x461BCD PUSH1 0xE5 SHL DUP2 MSTORE PUSH1 0x20 PUSH1 0x4 DUP3 ADD MSTORE PUSH1 0x12 PUSH1 0x24 DUP3 ADD MSTORE PUSH18 0x15DA5B9B995C88185B1C9958591E481CD95D PUSH1 0x72 SHL PUSH1 0x44 DUP3 ADD MSTORE PUSH1 0x64 ADD JUMPDEST PUSH1 0x40 MLOAD DUP1 SWAP2 SUB SWAP1 REVERT JUMPDEST PUSH0 DUP2 MLOAD GT PUSH2 0xA5B JUMPI PUSH1 0x40 MLOAD PUSH3 0x461BCD PUSH1 0xE5 SHL DUP2 MSTORE PUSH1 0x20 PUSH1 0x4 DUP3 ADD MSTORE PUSH1 0x28 PUSH1 0x24 DUP3 ADD MSTORE PUSH32 0x526561736F6E20726571756972656420666F7220656D657267656E6379207265 PUSH1 0x44 DUP3 ADD MSTORE PUSH8 0x39B7B63ABA34B7B7 PUSH1 0xC1 SHL PUSH1 0x64 DUP3 ADD MSTORE PUSH1 0x84 ADD PUSH2 0x9F1 JUMP JUMPDEST PUSH1 0x7 DUP1 SLOAD PUSH1 0x1 PUSH1 0xA8 SHL PUSH2 0xFFFF PUSH1 0xA8 SHL NOT SWAP1 SWAP2 AND PUSH1 0x1 PUSH1 0xB0 SHL DUP6 ISZERO ISZERO MUL PUSH1 0xFF PUSH1 0xA8 SHL NOT AND OR OR PUSH4 0xFF0000FF PUSH1 0xA0 SHL NOT AND PUSH4 0x1000001 PUSH1 0xA0 SHL OR SWAP1 SSTORE PUSH1 0x40 MLOAD PUSH32 0x5EECE6D9B713B073A6BC2416B26A7CF53D8A15C9D90AA4E064EEE4CB25707CD9 SWAP1 PUSH2 0xAC7 SWAP1 DUP5 SWAP1 DUP5 SWAP1 PUSH2 0x246C JUMP JUMPDEST PUSH1 0x40 MLOAD DUP1 SWAP2 SUB SWAP1 LOG1 PUSH1 0x40 MLOAD DUP3 ISZERO ISZERO DUP2 MSTORE PUSH32 0x9302B6CB5E0903AF39B78BED199FF2D57795B0DAE6C9DE428F46C9D1316B9871 SWAP1 PUSH1 0x20 ADD PUSH1 0x40 MLOAD DUP1 SWAP2 SUB SWAP1 LOG1 POP POP JUMP JUMPDEST PUSH1 0x5 SLOAD TIMESTAMP GT ISZERO PUSH2 0xB55 JUMPI PUSH1 0x40 MLOAD PUSH3 0x461BCD PUSH1 0xE5 SHL DUP2 MSTORE PUSH1 0x20 PUSH1 0x4 DUP3 ADD MSTORE PUSH1 0x18 PUSH1 0x24 DUP3 ADD MSTORE PUSH24 0x10995D1D1A5B99C81C195C9A5BD9081A185CC8195B991959 PUSH1 0x42 SHL PUSH1 0x44 DUP3 ADD MSTORE PUSH1 0x64 ADD PUSH2 0x9F1 JUMP JUMPDEST PUSH1 0x7 SLOAD PUSH1 0x1 PUSH1 0xA0 SHL SWAP1 DIV PUSH1 0xFF AND ISZERO PUSH2 0xBA0 JUMPI PUSH1 0x40 MLOAD PUSH3 0x461BCD PUSH1 0xE5 SHL DUP2 MSTORE PUSH1 0x20 PUSH1 0x4 DUP3 ADD MSTORE PUSH1 0xE PUSH1 0x24 DUP3 ADD MSTORE PUSH14 0x141BDBDB081A5CC818DB1BDCD959 PUSH1 0x92 SHL PUSH1 0x44 DUP3 ADD MSTORE PUSH1 0x64 ADD PUSH2 0x9F1 JUMP JUMPDEST PUSH0 CALLVALUE GT PUSH2 0xBF9 JUMPI PUSH1 0x40 MLOAD PUSH3 0x461BCD PUSH1 0xE5 SHL DUP2 MSTORE PUSH1 0x20 PUSH1 0x4 DUP3 ADD MSTORE PUSH1 0x21 PUSH1 0x24 DUP3 ADD MSTORE PUSH32 0x42657420616D6F756E74206D7573742062652067726561746572207468616E20 PUSH1 0x44 DUP3 ADD MSTORE PUSH1 0x3 PUSH1 0xFC SHL PUSH1 0x64 DUP3 ADD MSTORE PUSH1 0x84 ADD PUSH2 0x9F1 JUMP JUMPDEST CALLER PUSH0 SWAP1 DUP2 MSTORE PUSH1 0xB PUSH1 0x20 MSTORE PUSH1 0x40 SWAP1 KECCAK256 SLOAD ISZERO PUSH2 0xC55 JUMPI PUSH1 0x40 MLOAD PUSH3 0x461BCD PUSH1 0xE5 SHL DUP2 MSTORE PUSH1 0x20 PUSH1 0x4 DUP3 ADD MSTORE PUSH1 0x1D PUSH1 0x24 DUP3 ADD MSTORE PUSH32 0x557365722068617320616C726561647920706C61636564206120626574000000 PUSH1 0x44 DUP3 ADD MSTORE PUSH1 0x64 ADD PUSH2 0x9F1 JUMP JUMPDEST PUSH1 0x7 SLOAD PUSH1 0x1 PUSH1 0xB8 SHL SWAP1 DIV PUSH1 0xFF AND ISZERO PUSH2 0xCB9 JUMPI PUSH1 0x40 MLOAD PUSH3 0x461BCD PUSH1 0xE5 SHL DUP2 MSTORE PUSH1 0x20 PUSH1 0x4 DUP3 ADD MSTORE PUSH1 0x21 PUSH1 0x24 DUP3 ADD MSTORE PUSH32 0x42657474696E6720686173206265656E2073746F707065642062792061646D69 PUSH1 0x44 DUP3 ADD MSTORE PUSH1 0x37 PUSH1 0xF9 SHL PUSH1 0x64 DUP3 ADD MSTORE PUSH1 0x84 ADD PUSH2 0x9F1 JUMP JUMPDEST PUSH1 0x7 SLOAD PUSH1 0x1 PUSH1 0xC0 SHL SWAP1 DIV PUSH1 0xFF AND ISZERO PUSH2 0xD13 JUMPI PUSH1 0x40 MLOAD PUSH3 0x461BCD PUSH1 0xE5 SHL DUP2 MSTORE PUSH1 0x20 PUSH1 0x4 DUP3 ADD MSTORE PUSH1 0x17 PUSH1 0x24 DUP3 ADD MSTORE PUSH32 0x506F6F6C20686173206265656E2063616E63656C6C6564000000000000000000 PUSH1 0x44 DUP3 ADD MSTORE PUSH1 0x64 ADD PUSH2 0x9F1 JUMP JUMPDEST PUSH1 0x40 DUP1 MLOAD PUSH1 0x80 DUP2 ADD DUP3 MSTORE CALLVALUE DUP2 MSTORE DUP3 ISZERO ISZERO PUSH1 0x20 DUP1 DUP4 ADD SWAP2 DUP3 MSTORE PUSH0 DUP4 DUP6 ADD DUP2 DUP2 MSTORE TIMESTAMP PUSH1 0x60 DUP7 ADD SWAP1 DUP2 MSTORE CALLER DUP4 MSTORE PUSH1 0xB SWAP1 SWAP4 MSTORE SWAP5 SWAP1 KECCAK256 SWAP3 MLOAD DUP4 SSTORE SWAP1 MLOAD PUSH1 0x1 DUP4 ADD DUP1 SLOAD SWAP5 MLOAD ISZERO ISZERO PUSH2 0x100 MUL PUSH2 0xFF00 NOT SWAP3 ISZERO ISZERO SWAP3 SWAP1 SWAP3 AND PUSH2 0xFFFF NOT SWAP1 SWAP6 AND SWAP5 SWAP1 SWAP5 OR OR SWAP1 SWAP3 SSTORE SWAP1 MLOAD PUSH1 0x2 SWAP1 SWAP2 ADD SSTORE PUSH1 0xC SLOAD ISZERO DUP1 PUSH2 0xDBF JUMPI POP PUSH1 0xC DUP1 SLOAD CALLER SWAP2 SWAP1 PUSH2 0xD98 SWAP1 PUSH1 0x1 SWAP1 PUSH2 0x2556 JUMP JUMPDEST DUP2 SLOAD DUP2 LT PUSH2 0xDA8 JUMPI PUSH2 0xDA8 PUSH2 0x2569 JUMP JUMPDEST PUSH0 SWAP2 DUP3 MSTORE PUSH1 0x20 SWAP1 SWAP2 KECCAK256 ADD SLOAD PUSH1 0x1 PUSH1 0x1 PUSH1 0xA0 SHL SUB AND EQ ISZERO JUMPDEST ISZERO PUSH2 0xE06 JUMPI PUSH1 0xC DUP1 SLOAD PUSH1 0x1 DUP2 ADD DUP3 SSTORE PUSH0 SWAP2 SWAP1 SWAP2 MSTORE PUSH32 0xDF6966C971051C3D54EC59162606531493A51404A002842F56009D7E5CF4A8C7 ADD DUP1 SLOAD PUSH1 0x1 PUSH1 0x1 PUSH1 0xA0 SHL SUB NOT AND CALLER OR SWAP1 SSTORE JUMPDEST DUP1 ISZERO PUSH2 0xE28 JUMPI CALLVALUE PUSH1 0x8 PUSH0 DUP3 DUP3 SLOAD PUSH2 0xE1D SWAP2 SWAP1 PUSH2 0x257D JUMP JUMPDEST SWAP1 SWAP2 SSTORE POP PUSH2 0xE3F SWAP1 POP JUMP JUMPDEST CALLVALUE PUSH1 0x9 PUSH0 DUP3 DUP3 SLOAD PUSH2 0xE39 SWAP2 SWAP1 PUSH2 0x257D JUMP JUMPDEST SWAP1 SWAP2 SSTORE POP POP JUMPDEST CALLVALUE PUSH1 0xA PUSH0 DUP3 DUP3 SLOAD PUSH2 0xE50 SWAP2 SWAP1 PUSH2 0x257D JUMP JUMPDEST SWAP3 POP POP DUP2 SWAP1 SSTORE POP CALLER PUSH1 0x1 PUSH1 0x1 PUSH1 0xA0 SHL SUB AND PUSH32 0x59BEC262F3E5C00D172330919288747F1356AECC686AF7CAA21A3BAF473550D7 CALLVALUE DUP4 PUSH1 0x8 SLOAD PUSH1 0x9 SLOAD PUSH1 0x2 DUP8 PUSH2 0xEB1 JUMPI PUSH1 0x40 MLOAD DUP1 PUSH1 0x40 ADD PUSH1 0x40 MSTORE DUP1 PUSH1 0x2 DUP2 MSTORE PUSH1 0x20 ADD PUSH2 0x4E4F PUSH1 0xF0 SHL DUP2 MSTORE POP PUSH2 0xECE JUMP JUMPDEST PUSH1 0x40 MLOAD DUP1 PUSH1 0x40 ADD PUSH1 0x40 MSTORE DUP1 PUSH1 0x3 DUP2 MSTORE PUSH1 0x20 ADD PUSH3 0x594553 PUSH1 0xE8 SHL DUP2 MSTORE POP JUMPDEST PUSH1 0x40 MLOAD PUSH2 0xEE0 SWAP7 SWAP6 SWAP5 SWAP4 SWAP3 SWAP2 SWAP1 PUSH2 0x25C8 JUMP JUMPDEST PUSH1 0x40 MLOAD DUP1 SWAP2 SUB SWAP1 LOG2 POP JUMP JUMPDEST PUSH1 0x7 SLOAD PUSH1 0x60 SWAP1 PUSH1 0x1 PUSH1 0xB8 SHL SWAP1 DIV PUSH1 0xFF AND ISZERO PUSH2 0xF1E JUMPI PUSH1 0x40 MLOAD DUP1 PUSH1 0x60 ADD PUSH1 0x40 MSTORE DUP1 PUSH1 0x24 DUP2 MSTORE PUSH1 0x20 ADD PUSH2 0x278F PUSH1 0x24 SWAP2 CODECOPY SWAP1 POP SWAP1 JUMP JUMPDEST PUSH1 0x7 SLOAD PUSH1 0x1 PUSH1 0xC0 SHL SWAP1 DIV PUSH1 0xFF AND ISZERO PUSH2 0xF68 JUMPI POP PUSH1 0x40 DUP1 MLOAD DUP1 DUP3 ADD SWAP1 SWAP2 MSTORE PUSH1 0x1C DUP2 MSTORE PUSH32 0x5468697320706F6F6C20686173206265656E2063616E63656C6C656400000000 PUSH1 0x20 DUP3 ADD MSTORE SWAP1 JUMP JUMPDEST PUSH1 0x5 SLOAD TIMESTAMP GT ISZERO PUSH2 0xFA5 JUMPI POP PUSH1 0x40 DUP1 MLOAD DUP1 DUP3 ADD SWAP1 SWAP2 MSTORE PUSH1 0x18 DUP2 MSTORE PUSH24 0x10995D1D1A5B99C81C195C9A5BD9081A185CC8195B991959 PUSH1 0x42 SHL PUSH1 0x20 DUP3 ADD MSTORE SWAP1 JUMP JUMPDEST PUSH1 0x40 MLOAD DUP1 PUSH1 0x60 ADD PUSH1 0x40 MSTORE DUP1 PUSH1 0x28 DUP2 MSTORE PUSH1 0x20 ADD PUSH2 0x2767 PUSH1 0x28 SWAP2 CODECOPY SWAP1 POP SWAP1 JUMP JUMPDEST PUSH0 DUP1 PUSH0 DUP1 PUSH0 DUP1 PUSH1 0x7 PUSH1 0x16 SWAP1 SLOAD SWAP1 PUSH2 0x100 EXP SWAP1 DIV PUSH1 0xFF AND PUSH2 0xFE5 JUMPI PUSH1 0x9 SLOAD PUSH2 0xFE9 JUMP JUMPDEST PUSH1 0x8 SLOAD JUMPDEST PUSH1 0x7 SLOAD SWAP1 SWAP2 POP PUSH0 SWAP1 PUSH1 0x1 PUSH1 0xB0 SHL SWAP1 DIV PUSH1 0xFF AND PUSH2 0x1007 JUMPI PUSH1 0x8 SLOAD PUSH2 0x100B JUMP JUMPDEST PUSH1 0x9 SLOAD JUMPDEST SWAP1 POP PUSH0 PUSH2 0x2710 PUSH2 0x101C PUSH1 0x96 DUP5 PUSH2 0x2520 JUMP JUMPDEST PUSH2 0x1026 SWAP2 SWAP1 PUSH2 0x2537 JUMP JUMPDEST SWAP1 POP PUSH0 PUSH2 0x1033 DUP3 DUP5 PUSH2 0x2556 JUMP JUMPDEST SWAP1 POP PUSH0 PUSH2 0x1040 DUP3 DUP7 PUSH2 0x257D JUMP JUMPDEST SWAP5 SWAP11 SWAP4 SWAP10 POP SWAP2 SWAP8 POP SWAP6 POP SWAP2 SWAP4 POP SWAP2 POP POP JUMP JUMPDEST PUSH1 0x60 PUSH1 0x2 PUSH1 0x4 PUSH1 0x5 SLOAD PUSH1 0x40 MLOAD PUSH1 0x20 ADD PUSH2 0x106D SWAP4 SWAP3 SWAP2 SWAP1 PUSH2 0x26F3 JUMP JUMPDEST PUSH1 0x40 MLOAD PUSH1 0x20 DUP2 DUP4 SUB SUB DUP2 MSTORE SWAP1 PUSH1 0x40 MSTORE SWAP1 POP SWAP1 JUMP JUMPDEST PUSH1 0xC DUP2 DUP2 SLOAD DUP2 LT PUSH2 0x1090 JUMPI PUSH0 DUP1 REVERT JUMPDEST PUSH0 SWAP2 DUP3 MSTORE PUSH1 0x20 SWAP1 SWAP2 KECCAK256 ADD SLOAD PUSH1 0x1 PUSH1 0x1 PUSH1 0xA0 SHL SUB AND SWAP1 POP DUP2 JUMP JUMPDEST PUSH1 0x7 SLOAD PUSH0 SWAP1 PUSH1 0x1 PUSH1 0xB0 SHL SWAP1 DIV PUSH1 0xFF AND PUSH2 0x10C3 JUMPI POP PUSH1 0x8 SLOAD SWAP1 JUMP JUMPDEST PUSH1 0x9 SLOAD JUMPDEST SWAP1 POP SWAP1 JUMP JUMPDEST PUSH1 0x2 DUP1 SLOAD PUSH2 0x10D9 SWAP1 PUSH2 0x2590 JUMP JUMPDEST DUP1 PUSH1 0x1F ADD PUSH1 0x20 DUP1 SWAP2 DIV MUL PUSH1 0x20 ADD PUSH1 0x40 MLOAD SWAP1 DUP2 ADD PUSH1 0x40 MSTORE DUP1 SWAP3 SWAP2 SWAP1 DUP2 DUP2 MSTORE PUSH1 0x20 ADD DUP3 DUP1 SLOAD PUSH2 0x1105 SWAP1 PUSH2 0x2590 JUMP JUMPDEST DUP1 ISZERO PUSH2 0x1150 JUMPI DUP1 PUSH1 0x1F LT PUSH2 0x1127 JUMPI PUSH2 0x100 DUP1 DUP4 SLOAD DIV MUL DUP4 MSTORE SWAP2 PUSH1 0x20 ADD SWAP2 PUSH2 0x1150 JUMP JUMPDEST DUP3 ADD SWAP2 SWAP1 PUSH0 MSTORE PUSH1 0x20 PUSH0 KECCAK256 SWAP1 JUMPDEST DUP2 SLOAD DUP2 MSTORE SWAP1 PUSH1 0x1 ADD SWAP1 PUSH1 0x20 ADD DUP1 DUP4 GT PUSH2 0x1133 JUMPI DUP3 SWAP1 SUB PUSH1 0x1F AND DUP3 ADD SWAP2 JUMPDEST POP POP POP POP POP DUP2 JUMP JUMPDEST PUSH2 0x1160 PUSH2 0x21C9 JUMP JUMPDEST PUSH1 0x7 SLOAD PUSH1 0x1 PUSH1 0xA8 SHL SWAP1 DIV PUSH1 0xFF AND PUSH2 0x11AE JUMPI PUSH1 0x40 MLOAD PUSH3 0x461BCD PUSH1 0xE5 SHL DUP2 MSTORE PUSH1 0x20 PUSH1 0x4 DUP3 ADD MSTORE PUSH1 0x12 PUSH1 0x24 DUP3 ADD MSTORE PUSH18 0x15DA5B9B995C881B9BDD081CD95D081E595D PUSH1 0x72 SHL PUSH1 0x44 DUP3 ADD MSTORE PUSH1 0x64 ADD PUSH2 0x9F1 JUMP JUMPDEST PUSH1 0x7 SLOAD PUSH1 0x1 PUSH1 0xA0 SHL SWAP1 DIV PUSH1 0xFF AND ISZERO DUP1 PUSH2 0x11D0 JUMPI POP PUSH1 0x7 SLOAD PUSH1 0x1 PUSH1 0xA8 SHL SWAP1 DIV PUSH1 0xFF AND JUMPDEST PUSH2 0x1212 JUMPI PUSH1 0x40 MLOAD PUSH3 0x461BCD PUSH1 0xE5 SHL DUP2 MSTORE PUSH1 0x20 PUSH1 0x4 DUP3 ADD MSTORE PUSH1 0x13 PUSH1 0x24 DUP3 ADD MSTORE PUSH19 0x141BDBDB081B9BDD0818DB1BDCD959081E595D PUSH1 0x6A SHL PUSH1 0x44 DUP3 ADD MSTORE PUSH1 0x64 ADD PUSH2 0x9F1 JUMP JUMPDEST CALLER PUSH0 SWAP1 DUP2 MSTORE PUSH1 0xB PUSH1 0x20 MSTORE PUSH1 0x40 SWAP1 KECCAK256 SLOAD PUSH2 0x125D JUMPI PUSH1 0x40 MLOAD PUSH3 0x461BCD PUSH1 0xE5 SHL DUP2 MSTORE PUSH1 0x20 PUSH1 0x4 DUP3 ADD MSTORE PUSH1 0xD PUSH1 0x24 DUP3 ADD MSTORE PUSH13 0x139BC818995D081C1B1858D959 PUSH1 0x9A SHL PUSH1 0x44 DUP3 ADD MSTORE PUSH1 0x64 ADD PUSH2 0x9F1 JUMP JUMPDEST CALLER PUSH0 SWAP1 DUP2 MSTORE PUSH1 0xD PUSH1 0x20 MSTORE PUSH1 0x40 SWAP1 KECCAK256 SLOAD PUSH1 0xFF AND ISZERO PUSH2 0x12AE JUMPI PUSH1 0x40 MLOAD PUSH3 0x461BCD PUSH1 0xE5 SHL DUP2 MSTORE PUSH1 0x20 PUSH1 0x4 DUP3 ADD MSTORE PUSH1 0xF PUSH1 0x24 DUP3 ADD MSTORE PUSH15 0x105B1C9958591E4818DB185A5B5959 PUSH1 0x8A SHL PUSH1 0x44 DUP3 ADD MSTORE PUSH1 0x64 ADD PUSH2 0x9F1 JUMP JUMPDEST PUSH1 0x7 SLOAD CALLER PUSH0 SWAP1 DUP2 MSTORE PUSH1 0xB PUSH1 0x20 MSTORE PUSH1 0x40 SWAP1 KECCAK256 PUSH1 0x1 ADD SLOAD PUSH1 0xFF SWAP1 DUP2 AND ISZERO ISZERO PUSH1 0x1 PUSH1 0xB0 SHL SWAP1 SWAP3 DIV AND ISZERO ISZERO EQ PUSH2 0x1316 JUMPI PUSH1 0x40 MLOAD PUSH3 0x461BCD PUSH1 0xE5 SHL DUP2 MSTORE PUSH1 0x20 PUSH1 0x4 DUP3 ADD MSTORE PUSH1 0x11 PUSH1 0x24 DUP3 ADD MSTORE PUSH17 0x139BDD0818481DDA5B9B9A5B99C818995D PUSH1 0x7A SHL PUSH1 0x44 DUP3 ADD MSTORE PUSH1 0x64 ADD PUSH2 0x9F1 JUMP JUMPDEST CALLER PUSH0 SWAP1 DUP2 MSTORE PUSH1 0xD PUSH1 0x20 SWAP1 DUP2 MSTORE PUSH1 0x40 DUP1 DUP4 KECCAK256 DUP1 SLOAD PUSH1 0xFF NOT AND PUSH1 0x1 SWAP1 DUP2 OR SWAP1 SWAP2 SSTORE PUSH1 0xB SWAP1 SWAP3 MSTORE DUP3 KECCAK256 ADD DUP1 SLOAD PUSH2 0xFF00 NOT AND PUSH2 0x100 OR SWAP1 SSTORE PUSH1 0x7 SLOAD PUSH1 0x1 PUSH1 0xB0 SHL SWAP1 DIV PUSH1 0xFF AND PUSH2 0x1363 JUMPI PUSH1 0x9 SLOAD PUSH2 0x1367 JUMP JUMPDEST PUSH1 0x8 SLOAD JUMPDEST PUSH1 0x7 SLOAD SWAP1 SWAP2 POP PUSH0 SWAP1 PUSH1 0x1 PUSH1 0xB0 SHL SWAP1 DIV PUSH1 0xFF AND PUSH2 0x1385 JUMPI PUSH1 0x8 SLOAD PUSH2 0x1389 JUMP JUMPDEST PUSH1 0x9 SLOAD JUMPDEST SWAP1 POP PUSH0 PUSH2 0x2710 PUSH2 0x139A PUSH1 0x96 DUP5 PUSH2 0x2520 JUMP JUMPDEST PUSH2 0x13A4 SWAP2 SWAP1 PUSH2 0x2537 JUMP JUMPDEST SWAP1 POP PUSH0 PUSH2 0x13B1 DUP3 DUP5 PUSH2 0x2556 JUMP JUMPDEST SWAP1 POP PUSH0 DUP3 GT DUP1 ISZERO PUSH2 0x13EC JUMPI POP PUSH0 DUP1 MSTORE PUSH1 0xD PUSH1 0x20 MSTORE PUSH32 0x81955A0A11E65EAC625C29E8882660BAE4E165A75D72780094ACAE8ECE9A29EE SLOAD PUSH1 0xFF AND ISZERO JUMPDEST ISZERO PUSH2 0x1516 JUMPI PUSH1 0x40 MLOAD PUSH0 SWAP1 PUSH20 0x8E49800F0AA47E68BA9E46D97481679D03379294 SWAP1 DUP5 SWAP1 DUP4 DUP2 DUP2 DUP2 DUP6 DUP8 GAS CALL SWAP3 POP POP POP RETURNDATASIZE DUP1 PUSH0 DUP2 EQ PUSH2 0x1444 JUMPI PUSH1 0x40 MLOAD SWAP2 POP PUSH1 0x1F NOT PUSH1 0x3F RETURNDATASIZE ADD AND DUP3 ADD PUSH1 0x40 MSTORE RETURNDATASIZE DUP3 MSTORE RETURNDATASIZE PUSH0 PUSH1 0x20 DUP5 ADD RETURNDATACOPY PUSH2 0x1449 JUMP JUMPDEST PUSH1 0x60 SWAP2 POP JUMPDEST POP POP SWAP1 POP DUP1 PUSH2 0x1490 JUMPI PUSH1 0x40 MLOAD PUSH3 0x461BCD PUSH1 0xE5 SHL DUP2 MSTORE PUSH1 0x20 PUSH1 0x4 DUP3 ADD MSTORE PUSH1 0x13 PUSH1 0x24 DUP3 ADD MSTORE PUSH19 0x119959481D1C985B9CD9995C8819985A5B1959 PUSH1 0x6A SHL PUSH1 0x44 DUP3 ADD MSTORE PUSH1 0x64 ADD PUSH2 0x9F1 JUMP JUMPDEST PUSH0 DUP1 MSTORE PUSH1 0xD PUSH1 0x20 MSTORE PUSH32 0x81955A0A11E65EAC625C29E8882660BAE4E165A75D72780094ACAE8ECE9A29EE DUP1 SLOAD PUSH1 0xFF NOT AND PUSH1 0x1 OR SWAP1 SSTORE PUSH1 0x40 MLOAD PUSH20 0x8E49800F0AA47E68BA9E46D97481679D03379294 SWAP1 PUSH32 0x34E8A84E537ED93D93DDF39A78816DCBC74DF8397C635838B8CC973D4FA943F8 SWAP1 PUSH2 0x150C SWAP1 DUP7 DUP2 MSTORE PUSH1 0x20 ADD SWAP1 JUMP JUMPDEST PUSH1 0x40 MLOAD DUP1 SWAP2 SUB SWAP1 LOG2 POP JUMPDEST CALLER PUSH0 SWAP1 DUP2 MSTORE PUSH1 0xB PUSH1 0x20 MSTORE PUSH1 0x40 DUP2 KECCAK256 SLOAD SWAP1 PUSH2 0x1530 DUP4 DUP8 PUSH2 0x257D JUMP JUMPDEST SWAP1 POP PUSH0 DUP7 PUSH2 0x153E DUP4 DUP6 PUSH2 0x2520 JUMP JUMPDEST PUSH2 0x1548 SWAP2 SWAP1 PUSH2 0x2537 JUMP JUMPDEST SWAP1 POP DUP1 PUSH1 0xE PUSH0 DUP3 DUP3 SLOAD PUSH2 0x155B SWAP2 SWAP1 PUSH2 0x257D JUMP JUMPDEST SWAP1 SWAP2 SSTORE POP POP PUSH1 0x40 MLOAD PUSH0 SWAP1 CALLER SWAP1 DUP4 SWAP1 DUP4 DUP2 DUP2 DUP2 DUP6 DUP8 GAS CALL SWAP3 POP POP POP RETURNDATASIZE DUP1 PUSH0 DUP2 EQ PUSH2 0x159F JUMPI PUSH1 0x40 MLOAD SWAP2 POP PUSH1 0x1F NOT PUSH1 0x3F RETURNDATASIZE ADD AND DUP3 ADD PUSH1 0x40 MSTORE RETURNDATASIZE DUP3 MSTORE RETURNDATASIZE PUSH0 PUSH1 0x20 DUP5 ADD RETURNDATACOPY PUSH2 0x15A4 JUMP JUMPDEST PUSH1 0x60 SWAP2 POP JUMPDEST POP POP SWAP1 POP DUP1 PUSH2 0x15EE JUMPI PUSH1 0x40 MLOAD PUSH3 0x461BCD PUSH1 0xE5 SHL DUP2 MSTORE PUSH1 0x20 PUSH1 0x4 DUP3 ADD MSTORE PUSH1 0x16 PUSH1 0x24 DUP3 ADD MSTORE PUSH22 0x14995DD85C99081D1C985B9CD9995C8819985A5B1959 PUSH1 0x52 SHL PUSH1 0x44 DUP3 ADD MSTORE PUSH1 0x64 ADD PUSH2 0x9F1 JUMP JUMPDEST PUSH1 0x40 MLOAD DUP3 DUP2 MSTORE CALLER SWAP1 PUSH32 0x106F923F993C2149D49B4255FF723ACAFA1F2D94393F561D3EDA32AE348F7241 SWAP1 PUSH1 0x20 ADD PUSH1 0x40 MLOAD DUP1 SWAP2 SUB SWAP1 LOG2 POP POP POP POP POP POP POP POP PUSH2 0x1634 PUSH1 0x1 DUP1 SSTORE JUMP JUMPDEST JUMP JUMPDEST PUSH1 0x60 DUP1 PUSH1 0x60 PUSH0 DUP1 PUSH1 0x2 PUSH1 0x3 PUSH1 0x4 PUSH1 0x5 SLOAD PUSH1 0x6 SLOAD DUP5 DUP1 SLOAD PUSH2 0x1655 SWAP1 PUSH2 0x2590 JUMP JUMPDEST DUP1 PUSH1 0x1F ADD PUSH1 0x20 DUP1 SWAP2 DIV MUL PUSH1 0x20 ADD PUSH1 0x40 MLOAD SWAP1 DUP2 ADD PUSH1 0x40 MSTORE DUP1 SWAP3 SWAP2 SWAP1 DUP2 DUP2 MSTORE PUSH1 0x20 ADD DUP3 DUP1 SLOAD PUSH2 0x1681 SWAP1 PUSH2 0x2590 JUMP JUMPDEST DUP1 ISZERO PUSH2 0x16CC JUMPI DUP1 PUSH1 0x1F LT PUSH2 0x16A3 JUMPI PUSH2 0x100 DUP1 DUP4 SLOAD DIV MUL DUP4 MSTORE SWAP2 PUSH1 0x20 ADD SWAP2 PUSH2 0x16CC JUMP JUMPDEST DUP3 ADD SWAP2 SWAP1 PUSH0 MSTORE PUSH1 0x20 PUSH0 KECCAK256 SWAP1 JUMPDEST DUP2 SLOAD DUP2 MSTORE SWAP1 PUSH1 0x1 ADD SWAP1 PUSH1 0x20 ADD DUP1 DUP4 GT PUSH2 0x16AF JUMPI DUP3 SWAP1 SUB PUSH1 0x1F AND DUP3 ADD SWAP2 JUMPDEST POP POP POP POP POP SWAP5 POP DUP4 DUP1 SLOAD PUSH2 0x16DF SWAP1 PUSH2 0x2590 JUMP JUMPDEST DUP1 PUSH1 0x1F ADD PUSH1 0x20 DUP1 SWAP2 DIV MUL PUSH1 0x20 ADD PUSH1 0x40 MLOAD SWAP1 DUP2 ADD PUSH1 0x40 MSTORE DUP1 SWAP3 SWAP2 SWAP1 DUP2 DUP2 MSTORE PUSH1 0x20 ADD DUP3 DUP1 SLOAD PUSH2 0x170B SWAP1 PUSH2 0x2590 JUMP JUMPDEST DUP1 ISZERO PUSH2 0x1756 JUMPI DUP1 PUSH1 0x1F LT PUSH2 0x172D JUMPI PUSH2 0x100 DUP1 DUP4 SLOAD DIV MUL DUP4 MSTORE SWAP2 PUSH1 0x20 ADD SWAP2 PUSH2 0x1756 JUMP JUMPDEST DUP3 ADD SWAP2 SWAP1 PUSH0 MSTORE PUSH1 0x20 PUSH0 KECCAK256 SWAP1 JUMPDEST DUP2 SLOAD DUP2 MSTORE SWAP1 PUSH1 0x1 ADD SWAP1 PUSH1 0x20 ADD DUP1 DUP4 GT PUSH2 0x1739 JUMPI DUP3 SWAP1 SUB PUSH1 0x1F AND DUP3 ADD SWAP2 JUMPDEST POP POP POP POP POP SWAP4 POP DUP3 DUP1 SLOAD PUSH2 0x1769 SWAP1 PUSH2 0x2590 JUMP JUMPDEST DUP1 PUSH1 0x1F ADD PUSH1 0x20 DUP1 SWAP2 DIV MUL PUSH1 0x20 ADD PUSH1 0x40 MLOAD SWAP1 DUP2 ADD PUSH1 0x40 MSTORE DUP1 SWAP3 SWAP2 SWAP1 DUP2 DUP2 MSTORE PUSH1 0x20 ADD DUP3 DUP1 SLOAD PUSH2 0x1795 SWAP1 PUSH2 0x2590 JUMP JUMPDEST DUP1 ISZERO PUSH2 0x17E0 JUMPI DUP1 PUSH1 0x1F LT PUSH2 0x17B7 JUMPI PUSH2 0x100 DUP1 DUP4 SLOAD DIV MUL DUP4 MSTORE SWAP2 PUSH1 0x20 ADD SWAP2 PUSH2 0x17E0 JUMP JUMPDEST DUP3 ADD SWAP2 SWAP1 PUSH0 MSTORE PUSH1 0x20 PUSH0 KECCAK256 SWAP1 JUMPDEST DUP2 SLOAD DUP2 MSTORE SWAP1 PUSH1 0x1 ADD SWAP1 PUSH1 0x20 ADD DUP1 DUP4 GT PUSH2 0x17C3 JUMPI DUP3 SWAP1 SUB PUSH1 0x1F AND DUP3 ADD SWAP2 JUMPDEST POP POP POP POP POP SWAP3 POP SWAP5 POP SWAP5 POP SWAP5 POP SWAP5 POP SWAP5 POP SWAP1 SWAP2 SWAP3 SWAP4 SWAP5 JUMP JUMPDEST PUSH2 0x1800 PUSH2 0x2170 JUMP JUMPDEST PUSH2 0x1634 PUSH0 PUSH2 0x2222 JUMP JUMPDEST PUSH1 0x3 DUP1 SLOAD PUSH2 0x10D9 SWAP1 PUSH2 0x2590 JUMP JUMPDEST PUSH1 0x7 SLOAD PUSH0 SWAP1 PUSH1 0x1 PUSH1 0xC0 SHL SWAP1 DIV PUSH1 0xFF AND DUP1 ISZERO PUSH2 0x1847 JUMPI POP PUSH1 0x1 PUSH1 0x1 PUSH1 0xA0 SHL SUB DUP3 AND PUSH0 SWAP1 DUP2 MSTORE PUSH1 0xB PUSH1 0x20 MSTORE PUSH1 0x40 SWAP1 KECCAK256 SLOAD ISZERO ISZERO JUMPDEST DUP1 ISZERO PUSH2 0x186B JUMPI POP PUSH1 0x1 PUSH1 0x1 PUSH1 0xA0 SHL SUB DUP3 AND PUSH0 SWAP1 DUP2 MSTORE PUSH1 0xD PUSH1 0x20 MSTORE PUSH1 0x40 SWAP1 KECCAK256 SLOAD PUSH1 0xFF AND ISZERO JUMPDEST SWAP3 SWAP2 POP POP JUMP JUMPDEST PUSH1 0x1 PUSH1 0x1 PUSH1 0xA0 SHL SUB DUP2 AND PUSH0 SWAP1 DUP2 MSTORE PUSH1 0xB PUSH1 0x20 MSTORE PUSH1 0x40 DUP2 KECCAK256 SLOAD PUSH1 0x60 SWAP1 ISZERO PUSH2 0x18B4 JUMPI PUSH0 PUSH1 0x40 MLOAD DUP1 PUSH1 0x60 ADD PUSH1 0x40 MSTORE DUP1 PUSH1 0x2A DUP2 MSTORE PUSH1 0x20 ADD PUSH2 0x27B3 PUSH1 0x2A SWAP2 CODECOPY SWAP2 POP SWAP2 POP SWAP2 POP SWAP2 JUMP JUMPDEST PUSH1 0x7 SLOAD PUSH1 0x1 PUSH1 0xB8 SHL SWAP1 DIV PUSH1 0xFF AND ISZERO PUSH2 0x1906 JUMPI PUSH0 PUSH1 0x40 MLOAD DUP1 PUSH1 0x40 ADD PUSH1 0x40 MSTORE DUP1 PUSH1 0x20 DUP2 MSTORE PUSH1 0x20 ADD PUSH32 0x42657474696E6720686173206265656E207061757365642062792061646D696E DUP2 MSTORE POP SWAP2 POP SWAP2 POP SWAP2 POP SWAP2 JUMP JUMPDEST PUSH1 0x7 SLOAD PUSH1 0x1 PUSH1 0xC0 SHL SWAP1 DIV PUSH1 0xFF AND ISZERO PUSH2 0x1955 JUMPI POP POP PUSH1 0x40 DUP1 MLOAD DUP1 DUP3 ADD SWAP1 SWAP2 MSTORE PUSH1 0x1C DUP2 MSTORE PUSH32 0x5468697320706F6F6C20686173206265656E2063616E63656C6C656400000000 PUSH1 0x20 DUP3 ADD MSTORE PUSH0 SWAP3 SWAP1 SWAP2 POP JUMP JUMPDEST PUSH1 0x5 SLOAD TIMESTAMP GT ISZERO PUSH2 0x1997 JUMPI POP POP PUSH1 0x40 DUP1 MLOAD DUP1 DUP3 ADD SWAP1 SWAP2 MSTORE PUSH1 0x18 DUP2 MSTORE PUSH24 0x10995D1D1A5B99C81C195C9A5BD9081A185CC8195B991959 PUSH1 0x42 SHL PUSH1 0x20 DUP3 ADD MSTORE PUSH0 SWAP3 SWAP1 SWAP2 POP JUMP JUMPDEST POP POP PUSH1 0x40 DUP1 MLOAD DUP1 DUP3 ADD SWAP1 SWAP2 MSTORE PUSH1 0x16 DUP2 MSTORE PUSH22 0x165BDD4818D85B881C1B1858D9481E5BDD5C8818995D PUSH1 0x52 SHL PUSH1 0x20 DUP3 ADD MSTORE PUSH1 0x1 SWAP3 SWAP1 SWAP2 POP JUMP JUMPDEST PUSH2 0x19D6 PUSH2 0x2170 JUMP JUMPDEST PUSH1 0x7 SLOAD PUSH1 0x1 PUSH1 0xA8 SHL SWAP1 DIV PUSH1 0xFF AND ISZERO PUSH2 0x1A3A JUMPI PUSH1 0x40 MLOAD PUSH3 0x461BCD PUSH1 0xE5 SHL DUP2 MSTORE PUSH1 0x20 PUSH1 0x4 DUP3 ADD MSTORE PUSH1 0x21 PUSH1 0x24 DUP3 ADD MSTORE PUSH32 0x43616E6E6F742063616E63656C2061667465722077696E6E6572206973207365 PUSH1 0x44 DUP3 ADD MSTORE PUSH1 0x1D PUSH1 0xFA SHL PUSH1 0x64 DUP3 ADD MSTORE PUSH1 0x84 ADD PUSH2 0x9F1 JUMP JUMPDEST PUSH1 0x7 SLOAD PUSH1 0x1 PUSH1 0xC0 SHL SWAP1 DIV PUSH1 0xFF AND ISZERO PUSH2 0x1A8D JUMPI PUSH1 0x40 MLOAD PUSH3 0x461BCD PUSH1 0xE5 SHL DUP2 MSTORE PUSH1 0x20 PUSH1 0x4 DUP3 ADD MSTORE PUSH1 0x16 PUSH1 0x24 DUP3 ADD MSTORE PUSH22 0x141BDBDB08185B1C9958591E4818D85B98D95B1B1959 PUSH1 0x52 SHL PUSH1 0x44 DUP3 ADD MSTORE PUSH1 0x64 ADD PUSH2 0x9F1 JUMP JUMPDEST PUSH0 DUP2 MLOAD GT PUSH2 0x1ADD JUMPI PUSH1 0x40 MLOAD PUSH3 0x461BCD PUSH1 0xE5 SHL DUP2 MSTORE PUSH1 0x20 PUSH1 0x4 DUP3 ADD DUP2 SWAP1 MSTORE PUSH1 0x24 DUP3 ADD MSTORE PUSH32 0x526561736F6E20726571756972656420666F722063616E63656C6C6174696F6E PUSH1 0x44 DUP3 ADD MSTORE PUSH1 0x64 ADD PUSH2 0x9F1 JUMP JUMPDEST PUSH1 0x7 DUP1 SLOAD PUSH5 0xFFFF0000FF PUSH1 0xA0 SHL NOT AND PUSH5 0x101000001 PUSH1 0xA0 SHL OR SWAP1 SSTORE PUSH1 0x40 MLOAD PUSH32 0xB8201D4FE5C71CC4BF444ACAF4124EDF462BDA026C79355261A71D9F40D5CD0A SWAP1 PUSH2 0x1B28 SWAP1 DUP4 SWAP1 PUSH2 0x23D0 JUMP JUMPDEST PUSH1 0x40 MLOAD DUP1 SWAP2 SUB SWAP1 LOG1 POP JUMP JUMPDEST PUSH1 0x7 SLOAD PUSH1 0x1 PUSH1 0x1 PUSH1 0xA0 SHL SUB AND CALLER EQ PUSH2 0x1B8D JUMPI PUSH1 0x40 MLOAD PUSH3 0x461BCD PUSH1 0xE5 SHL DUP2 MSTORE PUSH1 0x20 PUSH1 0x4 DUP3 ADD MSTORE PUSH1 0x1A PUSH1 0x24 DUP3 ADD MSTORE PUSH32 0x4F6E6C7920666163746F72792063616E2063616C6C2074686973000000000000 PUSH1 0x44 DUP3 ADD MSTORE PUSH1 0x64 ADD PUSH2 0x9F1 JUMP JUMPDEST PUSH1 0x7 SLOAD PUSH1 0x1 PUSH1 0xA0 SHL SWAP1 DIV PUSH1 0xFF AND ISZERO PUSH2 0x1BDD JUMPI PUSH1 0x40 MLOAD PUSH3 0x461BCD PUSH1 0xE5 SHL DUP2 MSTORE PUSH1 0x20 PUSH1 0x4 DUP3 ADD MSTORE PUSH1 0x13 PUSH1 0x24 DUP3 ADD MSTORE PUSH19 0x141BDBDB08185B1C9958591E4818DB1BDCD959 PUSH1 0x6A SHL PUSH1 0x44 DUP3 ADD MSTORE PUSH1 0x64 ADD PUSH2 0x9F1 JUMP JUMPDEST PUSH1 0x7 DUP1 SLOAD PUSH1 0xFF PUSH1 0xA0 SHL NOT AND PUSH1 0x1 PUSH1 0xA0 SHL OR SWAP1 SSTORE PUSH1 0x40 MLOAD PUSH32 0xD9FD1A29EFBD67E74BBCD110E7344E0A2FBC8EFD8334B946C1B805670D8D08EA SWAP1 PUSH0 SWAP1 LOG1 JUMP JUMPDEST PUSH2 0x1C22 PUSH2 0x21C9 JUMP JUMPDEST PUSH1 0x7 SLOAD PUSH1 0x1 PUSH1 0xC0 SHL SWAP1 DIV PUSH1 0xFF AND PUSH2 0x1C70 JUMPI PUSH1 0x40 MLOAD PUSH3 0x461BCD PUSH1 0xE5 SHL DUP2 MSTORE PUSH1 0x20 PUSH1 0x4 DUP3 ADD MSTORE PUSH1 0x12 PUSH1 0x24 DUP3 ADD MSTORE PUSH18 0x141BDBDB081B9BDD0818D85B98D95B1B1959 PUSH1 0x72 SHL PUSH1 0x44 DUP3 ADD MSTORE PUSH1 0x64 ADD PUSH2 0x9F1 JUMP JUMPDEST CALLER PUSH0 SWAP1 DUP2 MSTORE PUSH1 0xB PUSH1 0x20 MSTORE PUSH1 0x40 SWAP1 KECCAK256 SLOAD PUSH2 0x1CBB JUMPI PUSH1 0x40 MLOAD PUSH3 0x461BCD PUSH1 0xE5 SHL DUP2 MSTORE PUSH1 0x20 PUSH1 0x4 DUP3 ADD MSTORE PUSH1 0xD PUSH1 0x24 DUP3 ADD MSTORE PUSH13 0x139BC818995D081C1B1858D959 PUSH1 0x9A SHL PUSH1 0x44 DUP3 ADD MSTORE PUSH1 0x64 ADD PUSH2 0x9F1 JUMP JUMPDEST CALLER PUSH0 SWAP1 DUP2 MSTORE PUSH1 0xD PUSH1 0x20 MSTORE PUSH1 0x40 SWAP1 KECCAK256 SLOAD PUSH1 0xFF AND ISZERO PUSH2 0x1D13 JUMPI PUSH1 0x40 MLOAD PUSH3 0x461BCD PUSH1 0xE5 SHL DUP2 MSTORE PUSH1 0x20 PUSH1 0x4 DUP3 ADD MSTORE PUSH1 0x16 PUSH1 0x24 DUP3 ADD MSTORE PUSH22 0x105B1C9958591E4818DB185A5B5959081C99599D5B99 PUSH1 0x52 SHL PUSH1 0x44 DUP3 ADD MSTORE PUSH1 0x64 ADD PUSH2 0x9F1 JUMP JUMPDEST CALLER PUSH0 DUP2 DUP2 MSTORE PUSH1 0xB PUSH1 0x20 DUP2 DUP2 MSTORE PUSH1 0x40 DUP1 DUP5 KECCAK256 DUP1 SLOAD PUSH1 0xD DUP5 MSTORE DUP3 DUP7 KECCAK256 DUP1 SLOAD PUSH1 0xFF NOT AND PUSH1 0x1 SWAP1 DUP2 OR SWAP1 SWAP2 SSTORE SWAP5 SWAP1 SWAP4 MSTORE SWAP3 SWAP1 SWAP3 ADD DUP1 SLOAD PUSH2 0xFF00 NOT AND PUSH2 0x100 OR SWAP1 SSTORE SWAP1 MLOAD SWAP1 SWAP3 SWAP1 DUP4 SWAP1 PUSH0 PUSH1 0x40 MLOAD DUP1 DUP4 SUB DUP2 DUP6 DUP8 GAS CALL SWAP3 POP POP POP RETURNDATASIZE DUP1 PUSH0 DUP2 EQ PUSH2 0x1D91 JUMPI PUSH1 0x40 MLOAD SWAP2 POP PUSH1 0x1F NOT PUSH1 0x3F RETURNDATASIZE ADD AND DUP3 ADD PUSH1 0x40 MSTORE RETURNDATASIZE DUP3 MSTORE RETURNDATASIZE PUSH0 PUSH1 0x20 DUP5 ADD RETURNDATACOPY PUSH2 0x1D96 JUMP JUMPDEST PUSH1 0x60 SWAP2 POP JUMPDEST POP POP SWAP1 POP DUP1 PUSH2 0x1DE0 JUMPI PUSH1 0x40 MLOAD PUSH3 0x461BCD PUSH1 0xE5 SHL DUP2 MSTORE PUSH1 0x20 PUSH1 0x4 DUP3 ADD MSTORE PUSH1 0x16 PUSH1 0x24 DUP3 ADD MSTORE PUSH22 0x1499599D5B99081D1C985B9CD9995C8819985A5B1959 PUSH1 0x52 SHL PUSH1 0x44 DUP3 ADD MSTORE PUSH1 0x64 ADD PUSH2 0x9F1 JUMP JUMPDEST PUSH1 0x40 MLOAD DUP3 DUP2 MSTORE CALLER SWAP1 PUSH32 0x358FE4192934D3BF28AE181FEDA1F4BD08CA67F5E2FAD55582CCE5EB67304AE9 SWAP1 PUSH1 0x20 ADD PUSH1 0x40 MLOAD DUP1 SWAP2 SUB SWAP1 LOG2 POP POP PUSH2 0x1634 PUSH1 0x1 DUP1 SSTORE JUMP JUMPDEST PUSH2 0x1E28 PUSH2 0x2170 JUMP JUMPDEST PUSH1 0x7 DUP1 SLOAD DUP3 ISZERO ISZERO PUSH1 0x1 PUSH1 0xB8 SHL MUL PUSH1 0xFF PUSH1 0xB8 SHL NOT SWAP1 SWAP2 AND OR SWAP1 SSTORE PUSH1 0x40 MLOAD PUSH32 0x5B88D23D9A60B7924FCCC370E1E0C1CCF49989E3B2968CAFAF7DB7FC13BD13F SWAP1 PUSH2 0x1B28 SWAP1 DUP4 ISZERO ISZERO DUP2 MSTORE PUSH1 0x20 ADD SWAP1 JUMP JUMPDEST PUSH1 0x7 SLOAD PUSH0 SWAP1 PUSH1 0x1 PUSH1 0xB0 SHL SWAP1 DIV PUSH1 0xFF AND PUSH2 0x1E8F JUMPI POP PUSH1 0x9 SLOAD SWAP1 JUMP JUMPDEST POP PUSH1 0x8 SLOAD SWAP1 JUMP JUMPDEST PUSH0 PUSH2 0x1EA3 PUSH1 0x5 SLOAD TIMESTAMP GT ISZERO SWAP1 JUMP JUMPDEST DUP1 ISZERO PUSH2 0x1EB9 JUMPI POP PUSH1 0x7 SLOAD PUSH1 0x1 PUSH1 0xB8 SHL SWAP1 DIV PUSH1 0xFF AND ISZERO JUMPDEST DUP1 ISZERO PUSH2 0x1ECF JUMPI POP PUSH1 0x7 SLOAD PUSH1 0x1 PUSH1 0xA0 SHL SWAP1 DIV PUSH1 0xFF AND ISZERO JUMPDEST DUP1 ISZERO PUSH2 0x10C7 JUMPI POP POP PUSH1 0x7 SLOAD PUSH1 0x1 PUSH1 0xC0 SHL SWAP1 DIV PUSH1 0xFF AND ISZERO SWAP1 JUMP JUMPDEST PUSH1 0x4 DUP1 SLOAD PUSH2 0x10D9 SWAP1 PUSH2 0x2590 JUMP JUMPDEST PUSH2 0x1EFD PUSH2 0x2170 JUMP JUMPDEST PUSH1 0x5 SLOAD TIMESTAMP GT PUSH2 0x1F4E JUMPI PUSH1 0x40 MLOAD PUSH3 0x461BCD PUSH1 0xE5 SHL DUP2 MSTORE PUSH1 0x20 PUSH1 0x4 DUP3 ADD MSTORE PUSH1 0x1C PUSH1 0x24 DUP3 ADD MSTORE PUSH32 0x42657474696E6720706572696F64206973207374696C6C206F70656E00000000 PUSH1 0x44 DUP3 ADD MSTORE PUSH1 0x64 ADD PUSH2 0x9F1 JUMP JUMPDEST PUSH1 0x7 SLOAD PUSH1 0x1 PUSH1 0xA8 SHL SWAP1 DIV PUSH1 0xFF AND ISZERO PUSH2 0x1F9D JUMPI PUSH1 0x40 MLOAD PUSH3 0x461BCD PUSH1 0xE5 SHL DUP2 MSTORE PUSH1 0x20 PUSH1 0x4 DUP3 ADD MSTORE PUSH1 0x12 PUSH1 0x24 DUP3 ADD MSTORE PUSH18 0x15DA5B9B995C88185B1C9958591E481CD95D PUSH1 0x72 SHL PUSH1 0x44 DUP3 ADD MSTORE PUSH1 0x64 ADD PUSH2 0x9F1 JUMP JUMPDEST PUSH1 0x6 SLOAD TIMESTAMP GT PUSH2 0x1FF9 JUMPI PUSH1 0x40 MLOAD PUSH3 0x461BCD PUSH1 0xE5 SHL DUP2 MSTORE PUSH1 0x20 PUSH1 0x4 DUP3 ADD MSTORE PUSH1 0x22 PUSH1 0x24 DUP3 ADD MSTORE PUSH32 0x50726564696374696F6E206576656E7420686173206E6F7420656E6465642079 PUSH1 0x44 DUP3 ADD MSTORE PUSH2 0x195D PUSH1 0xF2 SHL PUSH1 0x64 DUP3 ADD MSTORE PUSH1 0x84 ADD PUSH2 0x9F1 JUMP JUMPDEST PUSH1 0x7 DUP1 SLOAD PUSH1 0xFF PUSH1 0xA0 SHL NOT PUSH1 0xFF PUSH1 0xA8 SHL NOT DUP5 ISZERO ISZERO PUSH1 0x1 PUSH1 0xB0 SHL MUL AND PUSH2 0xFFFF PUSH1 0xA8 SHL NOT SWAP1 SWAP3 AND SWAP2 SWAP1 SWAP2 OR PUSH1 0x1 PUSH1 0xA8 SHL OR AND PUSH1 0x1 PUSH1 0xA0 SHL OR SWAP1 SSTORE PUSH1 0x40 MLOAD PUSH32 0x9302B6CB5E0903AF39B78BED199FF2D57795B0DAE6C9DE428F46C9D1316B9871 SWAP1 PUSH2 0x2064 SWAP1 DUP4 ISZERO ISZERO DUP2 MSTORE PUSH1 0x20 ADD SWAP1 JUMP JUMPDEST PUSH1 0x40 MLOAD DUP1 SWAP2 SUB SWAP1 LOG1 PUSH1 0x40 MLOAD PUSH32 0xD9FD1A29EFBD67E74BBCD110E7344E0A2FBC8EFD8334B946C1B805670D8D08EA SWAP1 PUSH0 SWAP1 LOG1 POP JUMP JUMPDEST PUSH2 0x209F PUSH2 0x2170 JUMP JUMPDEST PUSH1 0x1 PUSH1 0x1 PUSH1 0xA0 SHL SUB DUP2 AND PUSH2 0x2104 JUMPI PUSH1 0x40 MLOAD PUSH3 0x461BCD PUSH1 0xE5 SHL DUP2 MSTORE PUSH1 0x20 PUSH1 0x4 DUP3 ADD MSTORE PUSH1 0x26 PUSH1 0x24 DUP3 ADD MSTORE PUSH32 0x4F776E61626C653A206E6577206F776E657220697320746865207A65726F2061 PUSH1 0x44 DUP3 ADD MSTORE PUSH6 0x646472657373 PUSH1 0xD0 SHL PUSH1 0x64 DUP3 ADD MSTORE PUSH1 0x84 ADD PUSH2 0x9F1 JUMP JUMPDEST PUSH2 0x210D DUP2 PUSH2 0x2222 JUMP JUMPDEST POP JUMP JUMPDEST PUSH1 0x60 PUSH1 0xC DUP1 SLOAD DUP1 PUSH1 0x20 MUL PUSH1 0x20 ADD PUSH1 0x40 MLOAD SWAP1 DUP2 ADD PUSH1 0x40 MSTORE DUP1 SWAP3 SWAP2 SWAP1 DUP2 DUP2 MSTORE PUSH1 0x20 ADD DUP3 DUP1 SLOAD DUP1 ISZERO PUSH2 0x2166 JUMPI PUSH1 0x20 MUL DUP3 ADD SWAP2 SWAP1 PUSH0 MSTORE PUSH1 0x20 PUSH0 KECCAK256 SWAP1 JUMPDEST DUP2 SLOAD PUSH1 0x1 PUSH1 0x1 PUSH1 0xA0 SHL SUB AND DUP2 MSTORE PUSH1 0x1 SWAP1 SWAP2 ADD SWAP1 PUSH1 0x20 ADD DUP1 DUP4 GT PUSH2 0x2148 JUMPI JUMPDEST POP POP POP POP POP SWAP1 POP SWAP1 JUMP JUMPDEST PUSH0 SLOAD PUSH1 0x1 PUSH1 0x1 PUSH1 0xA0 SHL SUB AND CALLER EQ PUSH2 0x1634 JUMPI PUSH1 0x40 MLOAD PUSH3 0x461BCD PUSH1 0xE5 SHL DUP2 MSTORE PUSH1 0x20 PUSH1 0x4 DUP3 ADD DUP2 SWAP1 MSTORE PUSH1 0x24 DUP3 ADD MSTORE PUSH32 0x4F776E61626C653A2063616C6C6572206973206E6F7420746865206F776E6572 PUSH1 0x44 DUP3 ADD MSTORE PUSH1 0x64 ADD PUSH2 0x9F1 JUMP JUMPDEST PUSH1 0x2 PUSH1 0x1 SLOAD SUB PUSH2 0x221B JUMPI PUSH1 0x40 MLOAD PUSH3 0x461BCD PUSH1 0xE5 SHL DUP2 MSTORE PUSH1 0x20 PUSH1 0x4 DUP3 ADD MSTORE PUSH1 0x1F PUSH1 0x24 DUP3 ADD MSTORE PUSH32 0x5265656E7472616E637947756172643A207265656E7472616E742063616C6C00 PUSH1 0x44 DUP3 ADD MSTORE PUSH1 0x64 ADD PUSH2 0x9F1 JUMP JUMPDEST PUSH1 0x2 PUSH1 0x1 SSTORE JUMP JUMPDEST PUSH0 DUP1 SLOAD PUSH1 0x1 PUSH1 0x1 PUSH1 0xA0 SHL SUB DUP4 DUP2 AND PUSH1 0x1 PUSH1 0x1 PUSH1 0xA0 SHL SUB NOT DUP4 AND DUP2 OR DUP5 SSTORE PUSH1 0x40 MLOAD SWAP2 SWAP1 SWAP3 AND SWAP3 DUP4 SWAP2 PUSH32 0x8BE0079C531659141344CD1FD0A4F28419497F9722A3DAAFE3B4186F6B6457E0 SWAP2 SWAP1 LOG3 POP POP JUMP JUMPDEST DUP1 CALLDATALOAD DUP1 ISZERO ISZERO DUP2 EQ PUSH2 0x2280 JUMPI PUSH0 DUP1 REVERT JUMPDEST SWAP2 SWAP1 POP JUMP JUMPDEST PUSH4 0x4E487B71 PUSH1 0xE0 SHL PUSH0 MSTORE PUSH1 0x41 PUSH1 0x4 MSTORE PUSH1 0x24 PUSH0 REVERT JUMPDEST PUSH0 DUP3 PUSH1 0x1F DUP4 ADD SLT PUSH2 0x22A8 JUMPI PUSH0 DUP1 REVERT JUMPDEST DUP2 CALLDATALOAD PUSH8 0xFFFFFFFFFFFFFFFF DUP1 DUP3 GT ISZERO PUSH2 0x22C3 JUMPI PUSH2 0x22C3 PUSH2 0x2285 JUMP JUMPDEST PUSH1 0x40 MLOAD PUSH1 0x1F DUP4 ADD PUSH1 0x1F NOT SWAP1 DUP2 AND PUSH1 0x3F ADD AND DUP2 ADD SWAP1 DUP3 DUP3 GT DUP2 DUP4 LT OR ISZERO PUSH2 0x22EB JUMPI PUSH2 0x22EB PUSH2 0x2285 JUMP JUMPDEST DUP2 PUSH1 0x40 MSTORE DUP4 DUP2 MSTORE DUP7 PUSH1 0x20 DUP6 DUP9 ADD ADD GT ISZERO PUSH2 0x2303 JUMPI PUSH0 DUP1 REVERT JUMPDEST DUP4 PUSH1 0x20 DUP8 ADD PUSH1 0x20 DUP4 ADD CALLDATACOPY PUSH0 PUSH1 0x20 DUP6 DUP4 ADD ADD MSTORE DUP1 SWAP5 POP POP POP POP POP SWAP3 SWAP2 POP POP JUMP JUMPDEST PUSH0 DUP1 PUSH1 0x40 DUP4 DUP6 SUB SLT ISZERO PUSH2 0x2333 JUMPI PUSH0 DUP1 REVERT JUMPDEST PUSH2 0x233C DUP4 PUSH2 0x2271 JUMP JUMPDEST SWAP2 POP PUSH1 0x20 DUP4 ADD CALLDATALOAD PUSH8 0xFFFFFFFFFFFFFFFF DUP2 GT ISZERO PUSH2 0x2357 JUMPI PUSH0 DUP1 REVERT JUMPDEST PUSH2 0x2363 DUP6 DUP3 DUP7 ADD PUSH2 0x2299 JUMP JUMPDEST SWAP2 POP POP SWAP3 POP SWAP3 SWAP1 POP JUMP JUMPDEST PUSH0 PUSH1 0x20 DUP3 DUP5 SUB SLT ISZERO PUSH2 0x237D JUMPI PUSH0 DUP1 REVERT JUMPDEST PUSH2 0x2386 DUP3 PUSH2 0x2271 JUMP JUMPDEST SWAP4 SWAP3 POP POP POP JUMP JUMPDEST PUSH0 DUP2 MLOAD DUP1 DUP5 MSTORE PUSH0 JUMPDEST DUP2 DUP2 LT ISZERO PUSH2 0x23B1 JUMPI PUSH1 0x20 DUP2 DUP6 ADD DUP2 ADD MLOAD DUP7 DUP4 ADD DUP3 ADD MSTORE ADD PUSH2 0x2395 JUMP JUMPDEST POP PUSH0 PUSH1 0x20 DUP3 DUP7 ADD ADD MSTORE PUSH1 0x20 PUSH1 0x1F NOT PUSH1 0x1F DUP4 ADD AND DUP6 ADD ADD SWAP2 POP POP SWAP3 SWAP2 POP POP JUMP JUMPDEST PUSH1 0x20 DUP2 MSTORE PUSH0 PUSH2 0x2386 PUSH1 0x20 DUP4 ADD DUP5 PUSH2 0x238D JUMP JUMPDEST PUSH0 PUSH1 0x20 DUP3 DUP5 SUB SLT ISZERO PUSH2 0x23F2 JUMPI PUSH0 DUP1 REVERT JUMPDEST POP CALLDATALOAD SWAP2 SWAP1 POP JUMP JUMPDEST PUSH0 PUSH1 0x20 DUP3 DUP5 SUB SLT ISZERO PUSH2 0x2409 JUMPI PUSH0 DUP1 REVERT JUMPDEST DUP2 CALLDATALOAD PUSH1 0x1 PUSH1 0x1 PUSH1 0xA0 SHL SUB DUP2 AND DUP2 EQ PUSH2 0x2386 JUMPI PUSH0 DUP1 REVERT JUMPDEST PUSH1 0xA0 DUP2 MSTORE PUSH0 PUSH2 0x2431 PUSH1 0xA0 DUP4 ADD DUP9 PUSH2 0x238D JUMP JUMPDEST DUP3 DUP2 SUB PUSH1 0x20 DUP5 ADD MSTORE PUSH2 0x2443 DUP2 DUP9 PUSH2 0x238D JUMP JUMPDEST SWAP1 POP DUP3 DUP2 SUB PUSH1 0x40 DUP5 ADD MSTORE PUSH2 0x2457 DUP2 DUP8 PUSH2 0x238D JUMP JUMPDEST PUSH1 0x60 DUP5 ADD SWAP6 SWAP1 SWAP6 MSTORE POP POP PUSH1 0x80 ADD MSTORE SWAP4 SWAP3 POP POP POP JUMP JUMPDEST DUP3 ISZERO ISZERO DUP2 MSTORE PUSH1 0x40 PUSH1 0x20 DUP3 ADD MSTORE PUSH0 PUSH2 0x2486 PUSH1 0x40 DUP4 ADD DUP5 PUSH2 0x238D JUMP JUMPDEST SWAP5 SWAP4 POP POP POP POP JUMP JUMPDEST PUSH0 PUSH1 0x20 DUP3 DUP5 SUB SLT ISZERO PUSH2 0x249E JUMPI PUSH0 DUP1 REVERT JUMPDEST DUP2 CALLDATALOAD PUSH8 0xFFFFFFFFFFFFFFFF DUP2 GT ISZERO PUSH2 0x24B4 JUMPI PUSH0 DUP1 REVERT JUMPDEST PUSH2 0x2486 DUP5 DUP3 DUP6 ADD PUSH2 0x2299 JUMP JUMPDEST PUSH1 0x20 DUP1 DUP3 MSTORE DUP3 MLOAD DUP3 DUP3 ADD DUP2 SWAP1 MSTORE PUSH0 SWAP2 SWAP1 DUP5 DUP3 ADD SWAP1 PUSH1 0x40 DUP6 ADD SWAP1 DUP5 JUMPDEST DUP2 DUP2 LT ISZERO PUSH2 0x2500 JUMPI DUP4 MLOAD PUSH1 0x1 PUSH1 0x1 PUSH1 0xA0 SHL SUB AND DUP4 MSTORE SWAP3 DUP5 ADD SWAP3 SWAP2 DUP5 ADD SWAP2 PUSH1 0x1 ADD PUSH2 0x24DB JUMP JUMPDEST POP SWAP1 SWAP7 SWAP6 POP POP POP POP POP POP JUMP JUMPDEST PUSH4 0x4E487B71 PUSH1 0xE0 SHL PUSH0 MSTORE PUSH1 0x11 PUSH1 0x4 MSTORE PUSH1 0x24 PUSH0 REVERT JUMPDEST DUP1 DUP3 MUL DUP2 ISZERO DUP3 DUP3 DIV DUP5 EQ OR PUSH2 0x186B JUMPI PUSH2 0x186B PUSH2 0x250C JUMP JUMPDEST PUSH0 DUP3 PUSH2 0x2551 JUMPI PUSH4 0x4E487B71 PUSH1 0xE0 SHL PUSH0 MSTORE PUSH1 0x12 PUSH1 0x4 MSTORE PUSH1 0x24 PUSH0 REVERT JUMPDEST POP DIV SWAP1 JUMP JUMPDEST DUP2 DUP2 SUB DUP2 DUP2 GT ISZERO PUSH2 0x186B JUMPI PUSH2 0x186B PUSH2 0x250C JUMP JUMPDEST PUSH4 0x4E487B71 PUSH1 0xE0 SHL PUSH0 MSTORE PUSH1 0x32 PUSH1 0x4 MSTORE PUSH1 0x24 PUSH0 REVERT JUMPDEST DUP1 DUP3 ADD DUP1 DUP3 GT ISZERO PUSH2 0x186B JUMPI PUSH2 0x186B PUSH2 0x250C JUMP JUMPDEST PUSH1 0x1 DUP2 DUP2 SHR SWAP1 DUP3 AND DUP1 PUSH2 0x25A4 JUMPI PUSH1 0x7F DUP3 AND SWAP2 POP JUMPDEST PUSH1 0x20 DUP3 LT DUP2 SUB PUSH2 0x25C2 JUMPI PUSH4 0x4E487B71 PUSH1 0xE0 SHL PUSH0 MSTORE PUSH1 0x22 PUSH1 0x4 MSTORE PUSH1 0x24 PUSH0 REVERT JUMPDEST POP SWAP2 SWAP1 POP JUMP JUMPDEST DUP7 DUP2 MSTORE PUSH0 PUSH1 0x20 DUP8 ISZERO ISZERO PUSH1 0x20 DUP5 ADD MSTORE DUP7 PUSH1 0x40 DUP5 ADD MSTORE DUP6 PUSH1 0x60 DUP5 ADD MSTORE PUSH1 0xC0 PUSH1 0x80 DUP5 ADD MSTORE PUSH0 DUP6 SLOAD PUSH2 0x25F5 DUP2 PUSH2 0x2590 JUMP JUMPDEST DUP1 PUSH1 0xC0 DUP8 ADD MSTORE PUSH1 0xE0 PUSH1 0x1 DUP1 DUP5 AND PUSH0 DUP2 EQ PUSH2 0x2616 JUMPI PUSH1 0x1 DUP2 EQ PUSH2 0x2632 JUMPI PUSH2 0x265F JUMP JUMPDEST PUSH1 0xFF NOT DUP6 AND PUSH1 0xE0 DUP11 ADD MSTORE PUSH1 0xE0 DUP5 ISZERO ISZERO PUSH1 0x5 SHL DUP11 ADD ADD SWAP6 POP PUSH2 0x265F JUMP JUMPDEST DUP11 PUSH0 MSTORE PUSH1 0x20 PUSH0 KECCAK256 PUSH0 JUMPDEST DUP6 DUP2 LT ISZERO PUSH2 0x2656 JUMPI DUP2 SLOAD DUP12 DUP3 ADD DUP7 ADD MSTORE SWAP1 DUP4 ADD SWAP1 DUP9 ADD PUSH2 0x263B JUMP JUMPDEST DUP11 ADD PUSH1 0xE0 ADD SWAP7 POP POP JUMPDEST POP POP POP POP POP DUP4 DUP2 SUB PUSH1 0xA0 DUP6 ADD MSTORE PUSH2 0x2676 DUP2 DUP7 PUSH2 0x238D JUMP JUMPDEST SWAP11 SWAP10 POP POP POP POP POP POP POP POP POP POP JUMP JUMPDEST PUSH0 DUP2 SLOAD PUSH2 0x2690 DUP2 PUSH2 0x2590 JUMP JUMPDEST PUSH1 0x1 DUP3 DUP2 AND DUP1 ISZERO PUSH2 0x26A8 JUMPI PUSH1 0x1 DUP2 EQ PUSH2 0x26BD JUMPI PUSH2 0x26E9 JUMP JUMPDEST PUSH1 0xFF NOT DUP5 AND DUP8 MSTORE DUP3 ISZERO ISZERO DUP4 MUL DUP8 ADD SWAP5 POP PUSH2 0x26E9 JUMP JUMPDEST DUP6 PUSH0 MSTORE PUSH1 0x20 DUP1 PUSH0 KECCAK256 PUSH0 JUMPDEST DUP6 DUP2 LT ISZERO PUSH2 0x26E0 JUMPI DUP2 SLOAD DUP11 DUP3 ADD MSTORE SWAP1 DUP5 ADD SWAP1 DUP3 ADD PUSH2 0x26C7 JUMP JUMPDEST POP POP POP DUP3 DUP8 ADD SWAP5 POP JUMPDEST POP POP POP POP SWAP3 SWAP2 POP POP JUMP JUMPDEST PUSH16 0x283630B1B29030903132BA1037B71D1 PUSH1 0x85 SHL DUP2 MSTORE PUSH0 PUSH2 0x2717 PUSH1 0x10 DUP4 ADD DUP7 PUSH2 0x2684 JUMP JUMPDEST PUSH13 0x103E1021B0BA32B3B7B93C9D1 PUSH1 0x9D SHL DUP2 MSTORE PUSH2 0x2737 PUSH1 0xD DUP3 ADD DUP7 PUSH2 0x2684 JUMP JUMPDEST PUSH19 0x103E102132BA3A34B7339031B637B9B2B99D1 PUSH1 0x6D SHL DUP2 MSTORE PUSH1 0x13 DUP2 ADD SWAP5 SWAP1 SWAP5 MSTORE POP POP PUSH1 0x33 SWAP1 SWAP2 ADD SWAP4 SWAP3 POP POP POP JUMP INVALID TIMESTAMP PUSH6 0x7474696E6720 PUSH10 0x73206F70656E202D2079 PUSH16 0x752063616E20706C61636520796F7572 KECCAK256 PUSH3 0x657442 PUSH6 0x7474696E6720 PUSH10 0x732063757272656E746C PUSH26 0x207061757365642062792061646D696E596F7520686176652061 PUSH13 0x726561647920706C6163656420 PUSH2 0x2062 PUSH6 0x7420696E2074 PUSH9 0x697320706F6F6CA264 PUSH10 0x7066735822122068A17B 0xA8 SELFDESTRUCT PUSH31 0x21A1F813C4B4F539D977E7AABFA2AF54A84B3C0DF810D70A7FCE64736F6C63 NUMBER STOP ADDMOD XOR STOP CALLER "},"methodIdentifiers":{"BASIS_POINTS()":"e1f1c4a7","FEE_PERCENTAGE()":"000b46f8","FEE_WALLET()":"44cd7948","bettors(uint256)":"3482b644","canClaimRefund(address)":"8cca8f64","canUserBet(address)":"968b048f","cancelPool(string)":"a8ae8e05","cancelled()":"9a82a09a","category()":"ef430aa6","claim()":"4e71d92d","claimRefund()":"b5545a3c","closingBid()":"b84ff262","closingDate()":"a628828f","description()":"7284e416","emergencyClose()":"a9cc9ae9","emergencyResolve(bool,string)":"06f6bce9","emergencyStop()":"63a599a4","factory()":"c45a0155","getBetDescription()":"330b19ba","getBettingStatus()":"179dfbf3","getBettors()":"ffd4493c","getFeeInfo()":"0002eab7","getLosingPot()":"43c322ba","getPoolInfo()":"60246c88","getPoolStats()":"bbb85188","getRedistributionInfo()":"1cc3a0f1","getUserBet(address)":"c96adb01","getWinningPot()":"c77511ee","hasClaimed(address)":"73b2e80e","isBettingCurrentlyOpen()":"da3d9183","isClosed()":"c2b6b58c","owner()":"8da5cb5b","placeBet(bool)":"096a3778","renounceOwnership()":"715018a6","setEmergencyStop(bool)":"c73d7c7b","setWinner(bool)":"ef9ea486","title()":"4a79d50c","totalBets()":"befa1e2f","totalClaimed()":"d54ad2a1","totalNo()":"af008883","totalYes()":"88ba8dd6","transferOwnership(address)":"f2fde38b","userBets(address)":"4e92a646","winner()":"dfbf53ae","winnerSet()":"78e73ff8"}}}}}