{"project/contracts/BellaNapoliPredictionFactory-flattened-v4.sol":{"PredictionPool":{"abi":[{"inputs":[{"internalType":"string","name":"_title","type":"string"},{"internalType":"string","name":"_description","type":"string"},{"internalType":"string","name":"_category","type":"string"},{"internalType":"uint256","name":"_closingDate","type":"uint256"},{"internalType":"uint256","name":"_closingBid","type":"uint256"},{"internalType":"address","name":"_factory","type":"address"}],"stateMutability":"nonpayable","type":"constructor"},{"anonymous":false,"inputs":[{"indexed":true,"internalType":"address","name":"bettor","type":"address"},{"indexed":false,"internalType":"uint256","name":"amount","type":"uint256"},{"indexed":false,"internalType":"bool","name":"choice","type":"bool"},{"indexed":false,"internalType":"uint256","name":"totalYes","type":"uint256"},{"indexed":false,"internalType":"uint256","name":"totalNo","type":"uint256"},{"indexed":false,"internalType":"string","name":"predictionTitle","type":"string"},{"indexed":false,"internalType":"string","name":"userChoice","type":"string"}],"name":"BetPlaced","type":"event"},{"anonymous":false,"inputs":[{"indexed":true,"internalType":"address","name":"to","type":"address"},{"indexed":false,"internalType":"uint256","name":"amount","type":"uint256"},{"indexed":false,"internalType":"uint256","name":"userCount","type":"uint256"}],"name":"EmergencyFundsRecovered","type":"event"},{"anonymous":false,"inputs":[{"indexed":false,"internalType":"bool","name":"stopped","type":"bool"}],"name":"EmergencyStopToggled","type":"event"},{"anonymous":false,"inputs":[{"indexed":true,"internalType":"address","name":"feeWallet","type":"address"},{"indexed":false,"internalType":"uint256","name":"amount","type":"uint256"}],"name":"FeeTransferred","type":"event"},{"anonymous":false,"inputs":[{"indexed":true,"internalType":"address","name":"previousOwner","type":"address"},{"indexed":true,"internalType":"address","name":"newOwner","type":"address"}],"name":"OwnershipTransferred","type":"event"},{"anonymous":false,"inputs":[{"indexed":false,"internalType":"string","name":"reason","type":"string"}],"name":"PoolCancelled","type":"event"},{"anonymous":false,"inputs":[],"name":"PoolReopened","type":"event"},{"anonymous":false,"inputs":[{"indexed":true,"internalType":"address","name":"user","type":"address"},{"indexed":false,"internalType":"uint256","name":"amount","type":"uint256"}],"name":"RefundClaimed","type":"event"},{"anonymous":false,"inputs":[{"indexed":true,"internalType":"address","name":"winner","type":"address"},{"indexed":false,"internalType":"uint256","name":"amount","type":"uint256"}],"name":"RewardClaimed","type":"event"},{"anonymous":false,"inputs":[{"indexed":false,"internalType":"bool","name":"winnerChoice","type":"bool"},{"indexed":false,"internalType":"string","name":"reason","type":"string"}],"name":"WinnerSet","type":"event"},{"inputs":[],"name":"BASIS_POINTS","outputs":[{"internalType":"uint256","name":"","type":"uint256"}],"stateMutability":"view","type":"function"},{"inputs":[],"name":"FEE_PERCENTAGE","outputs":[{"internalType":"uint256","name":"","type":"uint256"}],"stateMutability":"view","type":"function"},{"inputs":[{"internalType":"uint256","name":"","type":"uint256"}],"name":"bettors","outputs":[{"internalType":"address","name":"","type":"address"}],"stateMutability":"view","type":"function"},{"inputs":[{"internalType":"address","name":"_user","type":"address"}],"name":"canClaimRefund","outputs":[{"internalType":"bool","name":"","type":"bool"}],"stateMutability":"view","type":"function"},{"inputs":[{"internalType":"string","name":"_reason","type":"string"}],"name":"cancelPool","outputs":[],"stateMutability":"nonpayable","type":"function"},{"inputs":[],"name":"cancelled","outputs":[{"internalType":"bool","name":"","type":"bool"}],"stateMutability":"view","type":"function"},{"inputs":[],"name":"category","outputs":[{"internalType":"string","name":"","type":"string"}],"stateMutability":"view","type":"function"},{"inputs":[],"name":"claimRefund","outputs":[],"stateMutability":"nonpayable","type":"function"},{"inputs":[],"name":"claimWinnings","outputs":[],"stateMutability":"nonpayable","type":"function"},{"inputs":[],"name":"closePool","outputs":[],"stateMutability":"nonpayable","type":"function"},{"inputs":[],"name":"closingBid","outputs":[{"internalType":"uint256","name":"","type":"uint256"}],"stateMutability":"view","type":"function"},{"inputs":[],"name":"closingDate","outputs":[{"internalType":"uint256","name":"","type":"uint256"}],"stateMutability":"view","type":"function"},{"inputs":[],"name":"description","outputs":[{"internalType":"string","name":"","type":"string"}],"stateMutability":"view","type":"function"},{"inputs":[],"name":"emergencyRecoverFunds","outputs":[],"stateMutability":"nonpayable","type":"function"},{"inputs":[{"internalType":"bool","name":"_winner","type":"bool"},{"internalType":"string","name":"_reason","type":"string"}],"name":"emergencyResolve","outputs":[],"stateMutability":"nonpayable","type":"function"},{"inputs":[],"name":"emergencyStop","outputs":[{"internalType":"bool","name":"","type":"bool"}],"stateMutability":"view","type":"function"},{"inputs":[],"name":"factory","outputs":[{"internalType":"address payable","name":"","type":"address"}],"stateMutability":"view","type":"function"},{"inputs":[],"name":"feeSplitPercentage","outputs":[{"internalType":"uint256","name":"","type":"uint256"}],"stateMutability":"view","type":"function"},{"inputs":[],"name":"feeWallet","outputs":[{"internalType":"address","name":"","type":"address"}],"stateMutability":"view","type":"function"},{"inputs":[],"name":"feeWallet2","outputs":[{"internalType":"address","name":"","type":"address"}],"stateMutability":"view","type":"function"},{"inputs":[],"name":"getBettors","outputs":[{"internalType":"address[]","name":"","type":"address[]"}],"stateMutability":"view","type":"function"},{"inputs":[],"name":"getFeeInfo","outputs":[{"internalType":"address","name":"_feeWallet","type":"address"},{"internalType":"uint256","name":"_feePercentage","type":"uint256"},{"internalType":"uint256","name":"_totalFees","type":"uint256"},{"internalType":"bool","name":"_feesClaimed","type":"bool"}],"stateMutability":"view","type":"function"},{"inputs":[],"name":"getLosingPot","outputs":[{"internalType":"uint256","name":"","type":"uint256"}],"stateMutability":"view","type":"function"},{"inputs":[],"name":"getPoolStats","outputs":[{"internalType":"uint256","name":"_totalYes","type":"uint256"},{"internalType":"uint256","name":"_totalNo","type":"uint256"},{"internalType":"uint256","name":"_totalBets","type":"uint256"},{"internalType":"uint256","name":"_bettorCount","type":"uint256"},{"internalType":"bool","name":"_isClosed","type":"bool"},{"internalType":"bool","name":"_winnerSet","type":"bool"},{"internalType":"bool","name":"_cancelled","type":"bool"}],"stateMutability":"view","type":"function"},{"inputs":[],"name":"getTotalFees","outputs":[{"internalType":"uint256","name":"","type":"uint256"}],"stateMutability":"view","type":"function"},{"inputs":[],"name":"getWinnerPot","outputs":[{"internalType":"uint256","name":"","type":"uint256"}],"stateMutability":"view","type":"function"},{"inputs":[{"internalType":"address","name":"","type":"address"}],"name":"hasClaimed","outputs":[{"internalType":"bool","name":"","type":"bool"}],"stateMutability":"view","type":"function"},{"inputs":[],"name":"isBettingOpen","outputs":[{"internalType":"bool","name":"","type":"bool"}],"stateMutability":"view","type":"function"},{"inputs":[],"name":"isClosed","outputs":[{"internalType":"bool","name":"","type":"bool"}],"stateMutability":"view","type":"function"},{"inputs":[],"name":"owner","outputs":[{"internalType":"address","name":"","type":"address"}],"stateMutability":"view","type":"function"},{"inputs":[{"internalType":"bool","name":"_choice","type":"bool"}],"name":"placeBet","outputs":[],"stateMutability":"payable","type":"function"},{"inputs":[],"name":"renounceOwnership","outputs":[],"stateMutability":"nonpayable","type":"function"},{"inputs":[],"name":"reopenPool","outputs":[],"stateMutability":"nonpayable","type":"function"},{"inputs":[{"internalType":"bool","name":"_stop","type":"bool"}],"name":"setEmergencyStop","outputs":[],"stateMutability":"nonpayable","type":"function"},{"inputs":[{"internalType":"uint256","name":"_percentage","type":"uint256"}],"name":"setFeeSplit","outputs":[],"stateMutability":"nonpayable","type":"function"},{"inputs":[{"internalType":"address","name":"_newFeeWallet","type":"address"}],"name":"setFeeWallet","outputs":[],"stateMutability":"nonpayable","type":"function"},{"inputs":[{"internalType":"address","name":"_newFeeWallet2","type":"address"}],"name":"setFeeWallet2","outputs":[],"stateMutability":"nonpayable","type":"function"},{"inputs":[{"internalType":"bool","name":"_winner","type":"bool"}],"name":"setWinner","outputs":[],"stateMutability":"nonpayable","type":"function"},{"inputs":[],"name":"title","outputs":[{"internalType":"string","name":"","type":"string"}],"stateMutability":"view","type":"function"},{"inputs":[],"name":"totalBets","outputs":[{"internalType":"uint256","name":"","type":"uint256"}],"stateMutability":"view","type":"function"},{"inputs":[],"name":"totalClaimed","outputs":[{"internalType":"uint256","name":"","type":"uint256"}],"stateMutability":"view","type":"function"},{"inputs":[],"name":"totalNo","outputs":[{"internalType":"uint256","name":"","type":"uint256"}],"stateMutability":"view","type":"function"},{"inputs":[],"name":"totalYes","outputs":[{"internalType":"uint256","name":"","type":"uint256"}],"stateMutability":"view","type":"function"},{"inputs":[{"internalType":"address","name":"newOwner","type":"address"}],"name":"transferOwnership","outputs":[],"stateMutability":"nonpayable","type":"function"},{"inputs":[{"internalType":"address","name":"","type":"address"}],"name":"userBets","outputs":[{"internalType":"bool","name":"choice","type":"bool"},{"internalType":"uint256","name":"amount","type":"uint256"},{"internalType":"bool","name":"claimed","type":"bool"},{"internalType":"uint256","name":"timestamp","type":"uint256"}],"stateMutability":"view","type":"function"},{"inputs":[],"name":"winner","outputs":[{"internalType":"bool","name":"","type":"bool"}],"stateMutability":"view","type":"function"},{"inputs":[],"name":"winnerSet","outputs":[{"internalType":"bool","name":"","type":"bool"}],"stateMutability":"view","type":"function"},{"stateMutability":"payable","type":"receive"}],"evm":{"bytecode":{"linkReferences":{},"object":"60806040526007805464ffff00ffff60a01b19169055600f80546001600160a01b031916738e49800f0aa47e68ba9e46d97481679d033792941790555f6011553480156200004b575f80fd5b5060405162002b8638038062002b868339810160408190526200006e91620001ec565b6200007933620000dc565b6001805560026200008b878262000336565b5060036200009a868262000336565b506004620000a9858262000336565b50600592909255600655600780546001600160a01b0319166001600160a01b039092169190911790555062000402915050565b5f80546001600160a01b038381166001600160a01b0319831681178455604051919092169283917f8be0079c531659141344cd1fd0a4f28419497f9722a3daafe3b4186f6b6457e09190a35050565b634e487b7160e01b5f52604160045260245ffd5b5f82601f8301126200014f575f80fd5b81516001600160401b03808211156200016c576200016c6200012b565b604051601f8301601f19908116603f011681019082821181831017156200019757620001976200012b565b8160405283815260209250866020858801011115620001b4575f80fd5b5f91505b83821015620001d75785820183015181830184015290820190620001b8565b5f602085830101528094505050505092915050565b5f805f805f8060c0878903121562000202575f80fd5b86516001600160401b038082111562000219575f80fd5b620002278a838b016200013f565b975060208901519150808211156200023d575f80fd5b6200024b8a838b016200013f565b9650604089015191508082111562000261575f80fd5b506200027089828a016200013f565b606089015160808a015160a08b0151929750909550935090506001600160a01b03811681146200029e575f80fd5b809150509295509295509295565b600181811c90821680620002c157607f821691505b602082108103620002e057634e487b7160e01b5f52602260045260245ffd5b50919050565b601f8211156200033157805f5260205f20601f840160051c810160208510156200030d5750805b601f840160051c820191505b818110156200032e575f815560010162000319565b50505b505050565b81516001600160401b038111156200035257620003526200012b565b6200036a81620003638454620002ac565b84620002e6565b602080601f831160018114620003a0575f8415620003885750858301515b5f19600386901b1c1916600185901b178555620003fa565b5f85815260208120601f198616915b82811015620003d057888601518255948401946001909101908401620003af565b5085821015620003ee57878501515f19600388901b60f8161c191681555b505060018460011b0185555b505050505050565b61277680620004105f395ff3fe608060405260043610610281575f3560e01c8063a0b43a4e11610155578063c73d7c7b116100be578063ef430aa611610078578063ef430aa6146107c0578063ef9ea486146107d4578063f25f4b56146107f3578063f2fde38b14610812578063fd388be214610831578063ffd4493c14610846575f80fd5b8063c73d7c7b14610724578063cd962a0614610743578063d54ad2a114610762578063dfbf53ae14610777578063e1f1c4a714610797578063ee4eb586146107ac575f80fd5b8063b84ff2621161010f578063b84ff2621461062c578063bbb8518814610641578063befa1e2f146106b1578063c2b6b58c146106c6578063c45a0155146106e6578063c50c96b614610705575f80fd5b8063a0b43a4e146105a7578063a628828f146105bb578063a8ae8e05146105d0578063af008883146105ef578063b401faf114610604578063b5545a3c14610618575f80fd5b806366805de5116101f75780638cca8f64116101b15780638cca8f64146104fa5780638da5cb5b146105195780638ebce3f81461053557806390d49b9d14610549578063936e1d83146105685780639a82a09a14610587575f80fd5b806366805de51461045b578063715018a61461046f5780637284e4161461048357806373b2e80e1461049757806378e73ff8146104c557806388ba8dd6146104e5575f80fd5b806341271b001161024857806341271b001461035e57806343c322ba146103725780634a79d50c146103865780634e92a646146103a7578063626e1ae71461041757806363a599a41461042b575f80fd5b806202eab71461028c5780620b46f8146102d157806306f6bce9146102f3578063096a3778146103145780633482b64414610327575f80fd5b3661028857005b5f80fd5b348015610297575f80fd5b506102a0610867565b604080516001600160a01b039095168552602085019390935291830152151560608201526080015b60405180910390f35b3480156102dc575f80fd5b506102e5609681565b6040519081526020016102c8565b3480156102fe575f80fd5b5061031261030d36600461241c565b6108e1565b005b610312610322366004612467565b6109fb565b348015610332575f80fd5b50610346610341366004612487565b610e87565b6040516001600160a01b0390911681526020016102c8565b348015610369575f80fd5b50610312610eaf565b34801561037d575f80fd5b506102e561104d565b348015610391575f80fd5b5061039a611070565b6040516102c891906124e1565b3480156103b2575f80fd5b506103ef6103c13660046124f3565b600b6020525f9081526040902080546001820154600283015460039093015460ff9283169391929091169084565b60408051941515855260208501939093529015159183019190915260608201526080016102c8565b348015610422575f80fd5b506102e56110fc565b348015610436575f80fd5b5060075461044b90600160b81b900460ff1681565b60405190151581526020016102c8565b348015610466575f80fd5b5061031261117d565b34801561047a575f80fd5b50610312611244565b34801561048e575f80fd5b5061039a611257565b3480156104a2575f80fd5b5061044b6104b13660046124f3565b600d6020525f908152604090205460ff1681565b3480156104d0575f80fd5b5060075461044b90600160a81b900460ff1681565b3480156104f0575f80fd5b506102e560085481565b348015610505575f80fd5b5061044b6105143660046124f3565b611264565b348015610524575f80fd5b505f546001600160a01b0316610346565b348015610540575f80fd5b506103126112c5565b348015610554575f80fd5b506103126105633660046124f3565b611417565b348015610573575f80fd5b50601054610346906001600160a01b031681565b348015610592575f80fd5b5060075461044b90600160c01b900460ff1681565b3480156105b2575f80fd5b506102e56114f5565b3480156105c6575f80fd5b506102e560055481565b3480156105db575f80fd5b506103126105ea366004612519565b611516565b3480156105fa575f80fd5b506102e560095481565b34801561060f575f80fd5b50610312611623565b348015610623575f80fd5b50610312611c64565b348015610637575f80fd5b506102e560065481565b34801561064c575f80fd5b50600854600954600a54600c5460075460408051958652602086019490945292840191909152606083015260ff600160a01b8204811615156080840152600160a81b82048116151560a0840152600160c01b90910416151560c082015260e0016102c8565b3480156106bc575f80fd5b506102e5600a5481565b3480156106d1575f80fd5b5060075461044b90600160a01b900460ff1681565b3480156106f1575f80fd5b50600754610346906001600160a01b031681565b348015610710575f80fd5b5061031261071f3660046124f3565b611e4b565b34801561072f575f80fd5b5061031261073e366004612467565b611ecb565b34801561074e575f80fd5b5061031261075d366004612487565b611f93565b34801561076d575f80fd5b506102e5600e5481565b348015610782575f80fd5b5060075461044b90600160b01b900460ff1681565b3480156107a2575f80fd5b506102e561271081565b3480156107b7575f80fd5b5061044b611fe7565b3480156107cb575f80fd5b5061039a612033565b3480156107df575f80fd5b506103126107ee366004612467565b612040565b3480156107fe575f80fd5b50600f54610346906001600160a01b031681565b34801561081d575f80fd5b5061031261082c3660046124f3565b612191565b34801561083c575f80fd5b506102e560115481565b348015610851575f80fd5b5061085a61220a565b6040516102c89190612553565b5f805f805f60095460085461087c91906125b3565b600f549091506001600160a01b0316609661271061089a82856125c6565b6108a491906125dd565b5f8052600d6020527f81955a0a11e65eac625c29e8882660bae4e165a75d72780094acae8ece9a29ee549298919750955060ff9091169350915050565b6108e961226a565b600754600160b81b900460ff166109475760405162461bcd60e51b815260206004820152601c60248201527f456d657267656e63792073746f70206e6f74206163746976617465640000000060448201526064015b60405180910390fd5b600754600160a81b900460ff16156109965760405162461bcd60e51b815260206004820152601260248201527115da5b9b995c88185b1c9958591e481cd95d60721b604482015260640161093e565b6007805460ff60a81b19841515600160b01b021661ffff60a81b1990911617600160a81b1790556040517f9f1ed7ec730b47aa440b5ede52772362be32571a818cd31ac36a295e8393b98e906109ef90849084906125fc565b60405180910390a15050565b600754600160a01b900460ff1615610a465760405162461bcd60e51b815260206004820152600e60248201526d141bdbdb081a5cc818db1bdcd95960921b604482015260640161093e565b600754600160b81b900460ff1615610aa05760405162461bcd60e51b815260206004820152601a60248201527f42657474696e67206973207061757365642062792061646d696e000000000000604482015260640161093e565b600754600160c01b900460ff1615610afa5760405162461bcd60e51b815260206004820152601760248201527f506f6f6c20686173206265656e2063616e63656c6c6564000000000000000000604482015260640161093e565b6005544210610b4b5760405162461bcd60e51b815260206004820152601860248201527f42657474696e6720706572696f642068617320656e6465640000000000000000604482015260640161093e565b5f3411610ba45760405162461bcd60e51b815260206004820152602160248201527f42657420616d6f756e74206d7573742062652067726561746572207468616e206044820152600360fc1b606482015260840161093e565b66038d7ea4c68000341015610bfb5760405162461bcd60e51b815260206004820152601860248201527f4d696e696d756d2062657420697320302e30303120424e420000000000000000604482015260640161093e565b68056bc75e2d63100000341115610c4d5760405162461bcd60e51b815260206004820152601660248201527526b0bc34b6bab6903132ba1034b9901898181021272160511b604482015260640161093e565b335f908152600b602052604090206001015415610cac5760405162461bcd60e51b815260206004820152601d60248201527f557365722068617320616c726561647920706c61636564206120626574000000604482015260640161093e565b33610cf25760405162461bcd60e51b8152602060048201526016602482015275496e76616c69642073656e646572206164647265737360501b604482015260640161093e565b604080516080810182528215801582523460208084019182525f848601818152426060870190815233808452600b9094529682209551865490151560ff199182161787559351600187810191909155905160028701805491151591909516179093559451600390940193909355600c805491820181559093527fdf6966c971051c3d54ec59162606531493a51404a002842f56009d7e5cf4a8c790920180546001600160a01b0319169091179055610dc0573460085f828254610db591906125b3565b90915550610dd79050565b3460095f828254610dd191906125b3565b90915550505b34600a5f828254610de891906125b3565b909155505f905081610e1457604051806040016040528060028152602001614e4f60f01b815250610e31565b6040518060400160405280600381526020016259455360e81b8152505b9050336001600160a01b03167f59bec262f3e5c00d172330919288747f1356aecc686af7caa21a3baf473550d73484600854600954600287604051610e7b9695949392919061264e565b60405180910390a25050565b600c8181548110610e96575f80fd5b5f918252602090912001546001600160a01b0316905081565b610eb761226a565b600754600160c01b900460ff1680610ed85750600754600160a81b900460ff165b610f2f5760405162461bcd60e51b815260206004820152602260248201527f506f6f6c206d7573742062652063616e63656c6c6564206f72207265736f6c76604482015261195960f21b606482015260840161093e565b4780610f725760405162461bcd60e51b81526020600482015260126024820152714e6f2072656d61696e696e672066756e647360701b604482015260640161093e565b600f546040515f916001600160a01b03169083908381818185875af1925050503d805f8114610fbc576040519150601f19603f3d011682016040523d82523d5f602084013e610fc1565b606091505b50509050806110045760405162461bcd60e51b815260206004820152600f60248201526e151c985b9cd9995c8819985a5b1959608a1b604482015260640161093e565b600f54600c546040805185815260208101929092526001600160a01b03909216917ff0a97973a49275db27bc3c7d20205d3f004fb1f9e662e879be26ccaead739c089101610e7b565b6007545f90600160b01b900460ff16611067575060085490565b6009545b905090565b6002805461107d90612616565b80601f01602080910402602001604051908101604052809291908181526020018280546110a990612616565b80156110f45780601f106110cb576101008083540402835291602001916110f4565b820191905f5260205f20905b8154815290600101906020018083116110d757829003601f168201915b505050505081565b6007545f90600160a81b900460ff1661114c5760405162461bcd60e51b815260206004820152601260248201527115da5b9b995c881b9bdd081cd95d081e595d60721b604482015260640161093e565b5f60095460085461115d91906125b3565b905061271061116d6096836125c6565b61117791906125dd565b91505090565b61118561226a565b600754600160a01b900460ff16156111d55760405162461bcd60e51b8152602060048201526013602482015272141bdbdb08185b1c9958591e4818db1bdcd959606a1b604482015260640161093e565b600754600160c01b900460ff161561122f5760405162461bcd60e51b815260206004820152601d60248201527f43616e6e6f7420636c6f736520612063616e63656c6c656420706f6f6c000000604482015260640161093e565b6007805460ff60a01b1916600160a01b179055565b61124c61226a565b6112555f6122c3565b565b6003805461107d90612616565b6007545f90600160c01b900460ff16801561129857506001600160a01b0382165f908152600b602052604090206001015415155b80156112bf57506001600160a01b0382165f908152600b602052604090206002015460ff16155b92915050565b6112cd61226a565b600754600160a01b900460ff166113225760405162461bcd60e51b8152602060048201526019602482015278141bdbdb081b5d5cdd0818994818db1bdcd95908199a5c9cdd603a1b604482015260640161093e565b600754600160a81b900460ff16156113865760405162461bcd60e51b815260206004820152602160248201527f43616e6e6f742072656f70656e2061667465722077696e6e65722069732073656044820152601d60fa1b606482015260840161093e565b600754600160c01b900460ff16156113e05760405162461bcd60e51b815260206004820152601e60248201527f43616e6e6f742072656f70656e20612063616e63656c6c656420706f6f6c0000604482015260640161093e565b6007805460ff60a01b191690556040517ff54f54a062f88fc2b512f355402f79b5856d0a8a037b08c31a94a7e5239528dc905f90a1565b61141f61226a565b6001600160a01b0381166114755760405162461bcd60e51b815260206004820152601a60248201527f496e76616c6964206665652077616c6c65742061646472657373000000000000604482015260640161093e565b600f546001600160a01b03908116908216036114d35760405162461bcd60e51b815260206004820152601760248201527f53616d65206665652077616c6c65742061646472657373000000000000000000604482015260640161093e565b600f80546001600160a01b0319166001600160a01b0392909216919091179055565b6007545f90600160b01b900460ff1661150f575060095490565b5060085490565b61151e61226a565b600754600160a81b900460ff16156115825760405162461bcd60e51b815260206004820152602160248201527f43616e6e6f742063616e63656c2061667465722077696e6e65722069732073656044820152601d60fa1b606482015260840161093e565b600754600160c01b900460ff16156115d55760405162461bcd60e51b8152602060048201526016602482015275141bdbdb08185b1c9958591e4818d85b98d95b1b195960521b604482015260640161093e565b6007805460ff60c01b1916600160c01b1790556040517fb8201d4fe5c71cc4bf444acaf4124edf462bda026c79355261a71d9f40d5cd0a906116189083906124e1565b60405180910390a150565b61162b612312565b600754600160a81b900460ff166116795760405162461bcd60e51b815260206004820152601260248201527115da5b9b995c881b9bdd081cd95d081e595d60721b604482015260640161093e565b335f908152600b60205260409020600101546116c75760405162461bcd60e51b815260206004820152600d60248201526c139bc818995d081c1b1858d959609a1b604482015260640161093e565b335f908152600b602052604090206002015460ff161561171b5760405162461bcd60e51b815260206004820152600f60248201526e105b1c9958591e4818db185a5b5959608a1b604482015260640161093e565b600754335f908152600b602052604090205460ff9081161515600160b01b909204161515146117805760405162461bcd60e51b8152602060048201526011602482015270139bdd0818481dda5b9b9a5b99c818995d607a1b604482015260640161093e565b335f908152600b6020526040812060028101805460ff191660019081179091550154600754909190600160b01b900460ff166117be576009546117c2565b6008545b90505f6009546008546117d591906125b3565b90505f6127106117e66096846125c6565b6117f091906125dd565b90505f6117fd828461272d565b90505f8461180b83886125c6565b61181591906125dd565b90505f8311801561185057505f8052600d6020527f81955a0a11e65eac625c29e8882660bae4e165a75d72780094acae8ece9a29ee5460ff16155b15611b7b575f60115411801561187057506010546001600160a01b031615155b15611a6c575f612710601154612710611889919061272d565b61189390866125c6565b61189d91906125dd565b90505f6118aa828661272d565b600f546040519192505f916001600160a01b039091169084908381818185875af1925050503d805f81146118f9576040519150601f19603f3d011682016040523d82523d5f602084013e6118fe565b606091505b50509050806119475760405162461bcd60e51b8152602060048201526015602482015274119959481d1c985b9cd9995c880c4819985a5b1959605a1b604482015260640161093e565b6010546040515f916001600160a01b03169084908381818185875af1925050503d805f8114611991576040519150601f19603f3d011682016040523d82523d5f602084013e611996565b606091505b50509050806119df5760405162461bcd60e51b8152602060048201526015602482015274119959481d1c985b9cd9995c880c8819985a5b1959605a1b604482015260640161093e565b600f546040518581526001600160a01b03909116907f34e8a84e537ed93d93ddf39a78816dcbc74df8397c635838b8cc973d4fa943f89060200160405180910390a26010546040518481526001600160a01b03909116907f34e8a84e537ed93d93ddf39a78816dcbc74df8397c635838b8cc973d4fa943f89060200160405180910390a250505050611b46565b600f546040515f916001600160a01b03169085908381818185875af1925050503d805f8114611ab6576040519150601f19603f3d011682016040523d82523d5f602084013e611abb565b606091505b5050905080611b025760405162461bcd60e51b8152602060048201526013602482015272119959481d1c985b9cd9995c8819985a5b1959606a1b604482015260640161093e565b600f546040518581526001600160a01b03909116907f34e8a84e537ed93d93ddf39a78816dcbc74df8397c635838b8cc973d4fa943f89060200160405180910390a2505b5f8052600d6020527f81955a0a11e65eac625c29e8882660bae4e165a75d72780094acae8ece9a29ee805460ff191660011790555b6040515f90339083908381818185875af1925050503d805f8114611bba576040519150601f19603f3d011682016040523d82523d5f602084013e611bbf565b606091505b5050905080611c095760405162461bcd60e51b815260206004820152601660248201527514995dd85c99081d1c985b9cd9995c8819985a5b195960521b604482015260640161093e565b81600e5f828254611c1a91906125b3565b909155505060405182815233907f106f923f993c2149d49b4255ff723acafa1f2d94393f561d3eda32ae348f72419060200160405180910390a25050505050505061125560018055565b611c6c612312565b600754600160c01b900460ff16611cba5760405162461bcd60e51b8152602060048201526012602482015271141bdbdb081b9bdd0818d85b98d95b1b195960721b604482015260640161093e565b335f908152600b6020526040902060010154611d085760405162461bcd60e51b815260206004820152600d60248201526c139bc818995d081c1b1858d959609a1b604482015260640161093e565b335f908152600b602052604090206002015460ff1615611d5c5760405162461bcd60e51b815260206004820152600f60248201526e105b1c9958591e4818db185a5b5959608a1b604482015260640161093e565b335f818152600b602052604080822060028101805460ff191660019081179091550154905190929083908381818185875af1925050503d805f8114611dbc576040519150601f19603f3d011682016040523d82523d5f602084013e611dc1565b606091505b5050905080611e0b5760405162461bcd60e51b81526020600482015260166024820152751499599d5b99081d1c985b9cd9995c8819985a5b195960521b604482015260640161093e565b60405182815233907f358fe4192934d3bf28ae181feda1f4bd08ca67f5e2fad55582cce5eb67304ae99060200160405180910390a2505061125560018055565b611e5361226a565b6001600160a01b038116611ea95760405162461bcd60e51b815260206004820152601a60248201527f496e76616c6964206665652077616c6c65742061646472657373000000000000604482015260640161093e565b601080546001600160a01b0319166001600160a01b0392909216919091179055565b611ed361226a565b600754600160c01b900460ff1615611f465760405162461bcd60e51b815260206004820152603060248201527f43616e6e6f7420746f67676c6520656d657267656e63792073746f70206f6e2060448201526f184818d85b98d95b1b1959081c1bdbdb60821b606482015260840161093e565b60078054821515600160b81b0260ff60b81b199091161790556040517f05b88d23d9a60b7924fccc370e1e0c1ccf49989e3b2968cafaf7db7fc13bd13f9061161890831515815260200190565b611f9b61226a565b612710811115611fe25760405162461bcd60e51b8152602060048201526012602482015271496e76616c69642070657263656e7461676560701b604482015260640161093e565b601155565b6007545f90600160a01b900460ff1615801561200d5750600754600160b81b900460ff16155b80156120235750600754600160c01b900460ff16155b801561106b575050600554421090565b6004805461107d90612616565b61204861226a565b600754600160a01b900460ff1661209d5760405162461bcd60e51b8152602060048201526019602482015278141bdbdb081b5d5cdd0818994818db1bdcd95908199a5c9cdd603a1b604482015260640161093e565b600754600160a81b900460ff16156120ec5760405162461bcd60e51b815260206004820152601260248201527115da5b9b995c88185b1c9958591e481cd95d60721b604482015260640161093e565b6007805460ff60a81b19831515600160b01b021661ffff60a81b1990911617600160a81b1790555f8161213d57604051806040016040528060068152602001652727903bb7b760d11b81525061215e565b604051806040016040528060078152602001662ca2a9903bb7b760c91b8152505b90507f9f1ed7ec730b47aa440b5ede52772362be32571a818cd31ac36a295e8393b98e82826040516109ef9291906125fc565b61219961226a565b6001600160a01b0381166121fe5760405162461bcd60e51b815260206004820152602660248201527f4f776e61626c653a206e6577206f776e657220697320746865207a65726f206160448201526564647265737360d01b606482015260840161093e565b612207816122c3565b50565b6060600c80548060200260200160405190810160405280929190818152602001828054801561226057602002820191905f5260205f20905b81546001600160a01b03168152600190910190602001808311612242575b5050505050905090565b5f546001600160a01b031633146112555760405162461bcd60e51b815260206004820181905260248201527f4f776e61626c653a2063616c6c6572206973206e6f7420746865206f776e6572604482015260640161093e565b5f80546001600160a01b038381166001600160a01b0319831681178455604051919092169283917f8be0079c531659141344cd1fd0a4f28419497f9722a3daafe3b4186f6b6457e09190a35050565b6002600154036123645760405162461bcd60e51b815260206004820152601f60248201527f5265656e7472616e637947756172643a207265656e7472616e742063616c6c00604482015260640161093e565b6002600155565b8035801515811461237a575f80fd5b919050565b634e487b7160e01b5f52604160045260245ffd5b5f82601f8301126123a2575f80fd5b813567ffffffffffffffff808211156123bd576123bd61237f565b604051601f8301601f19908116603f011681019082821181831017156123e5576123e561237f565b816040528381528660208588010111156123fd575f80fd5b836020870160208301375f602085830101528094505050505092915050565b5f806040838503121561242d575f80fd5b6124368361236b565b9150602083013567ffffffffffffffff811115612451575f80fd5b61245d85828601612393565b9150509250929050565b5f60208284031215612477575f80fd5b6124808261236b565b9392505050565b5f60208284031215612497575f80fd5b5035919050565b5f81518084525f5b818110156124c2576020818501810151868301820152016124a6565b505f602082860101526020601f19601f83011685010191505092915050565b602081525f612480602083018461249e565b5f60208284031215612503575f80fd5b81356001600160a01b0381168114612480575f80fd5b5f60208284031215612529575f80fd5b813567ffffffffffffffff81111561253f575f80fd5b61254b84828501612393565b949350505050565b602080825282518282018190525f9190848201906040850190845b818110156125935783516001600160a01b03168352928401929184019160010161256e565b50909695505050505050565b634e487b7160e01b5f52601160045260245ffd5b808201808211156112bf576112bf61259f565b80820281158282048414176112bf576112bf61259f565b5f826125f757634e487b7160e01b5f52601260045260245ffd5b500490565b8215158152604060208201525f61254b604083018461249e565b600181811c9082168061262a57607f821691505b60208210810361264857634e487b7160e01b5f52602260045260245ffd5b50919050565b8681525f6020871515602084015286604084015285606084015260c060808401525f85545f60018260011c9150600183168061268b57607f831692505b6020831081036126a957634e487b7160e01b5f52602260045260245ffd5b60c0880183905260e088018180156126c857600181146126de57612707565b60ff198616825284151560051b82019650612707565b5f8c8152602090205f5b86811015612701578154848201529085019089016126e8565b83019750505b50505050505083810360a085015261271f818661249e565b9a9950505050505050505050565b818103818111156112bf576112bf61259f56fea264697066735822122016c6cb9a6716a910c8a8177c9cb46f642d4619bb3cc406279b8606c030f637b564736f6c63430008180033","opcodes":"PUSH1 0x80 PUSH1 0x40 MSTORE PUSH1 0x7 DUP1 SLOAD PUSH5 0xFFFF00FFFF PUSH1 0xA0 SHL NOT AND SWAP1 SSTORE PUSH1 0xF DUP1 SLOAD PUSH1 0x1 PUSH1 0x1 PUSH1 0xA0 SHL SUB NOT AND PUSH20 0x8E49800F0AA47E68BA9E46D97481679D03379294 OR SWAP1 SSTORE PUSH0 PUSH1 0x11 SSTORE CALLVALUE DUP1 ISZERO PUSH3 0x4B JUMPI PUSH0 DUP1 REVERT JUMPDEST POP PUSH1 0x40 MLOAD PUSH3 0x2B86 CODESIZE SUB DUP1 PUSH3 0x2B86 DUP4 CODECOPY DUP2 ADD PUSH1 0x40 DUP2 SWAP1 MSTORE PUSH3 0x6E SWAP2 PUSH3 0x1EC JUMP JUMPDEST PUSH3 0x79 CALLER PUSH3 0xDC JUMP JUMPDEST PUSH1 0x1 DUP1 SSTORE PUSH1 0x2 PUSH3 0x8B DUP8 DUP3 PUSH3 0x336 JUMP JUMPDEST POP PUSH1 0x3 PUSH3 0x9A DUP7 DUP3 PUSH3 0x336 JUMP JUMPDEST POP PUSH1 0x4 PUSH3 0xA9 DUP6 DUP3 PUSH3 0x336 JUMP JUMPDEST POP PUSH1 0x5 SWAP3 SWAP1 SWAP3 SSTORE PUSH1 0x6 SSTORE PUSH1 0x7 DUP1 SLOAD PUSH1 0x1 PUSH1 0x1 PUSH1 0xA0 SHL SUB NOT AND PUSH1 0x1 PUSH1 0x1 PUSH1 0xA0 SHL SUB SWAP1 SWAP3 AND SWAP2 SWAP1 SWAP2 OR SWAP1 SSTORE POP PUSH3 0x402 SWAP2 POP POP JUMP JUMPDEST PUSH0 DUP1 SLOAD PUSH1 0x1 PUSH1 0x1 PUSH1 0xA0 SHL SUB DUP4 DUP2 AND PUSH1 0x1 PUSH1 0x1 PUSH1 0xA0 SHL SUB NOT DUP4 AND DUP2 OR DUP5 SSTORE PUSH1 0x40 MLOAD SWAP2 SWAP1 SWAP3 AND SWAP3 DUP4 SWAP2 PUSH32 0x8BE0079C531659141344CD1FD0A4F28419497F9722A3DAAFE3B4186F6B6457E0 SWAP2 SWAP1 LOG3 POP POP JUMP JUMPDEST PUSH4 0x4E487B71 PUSH1 0xE0 SHL PUSH0 MSTORE PUSH1 0x41 PUSH1 0x4 MSTORE PUSH1 0x24 PUSH0 REVERT JUMPDEST PUSH0 DUP3 PUSH1 0x1F DUP4 ADD SLT PUSH3 0x14F JUMPI PUSH0 DUP1 REVERT JUMPDEST DUP2 MLOAD PUSH1 0x1 PUSH1 0x1 PUSH1 0x40 SHL SUB DUP1 DUP3 GT ISZERO PUSH3 0x16C JUMPI PUSH3 0x16C PUSH3 0x12B JUMP JUMPDEST PUSH1 0x40 MLOAD PUSH1 0x1F DUP4 ADD PUSH1 0x1F NOT SWAP1 DUP2 AND PUSH1 0x3F ADD AND DUP2 ADD SWAP1 DUP3 DUP3 GT DUP2 DUP4 LT OR ISZERO PUSH3 0x197 JUMPI PUSH3 0x197 PUSH3 0x12B JUMP JUMPDEST DUP2 PUSH1 0x40 MSTORE DUP4 DUP2 MSTORE PUSH1 0x20 SWAP3 POP DUP7 PUSH1 0x20 DUP6 DUP9 ADD ADD GT ISZERO PUSH3 0x1B4 JUMPI PUSH0 DUP1 REVERT JUMPDEST PUSH0 SWAP2 POP JUMPDEST DUP4 DUP3 LT ISZERO PUSH3 0x1D7 JUMPI DUP6 DUP3 ADD DUP4 ADD MLOAD DUP2 DUP4 ADD DUP5 ADD MSTORE SWAP1 DUP3 ADD SWAP1 PUSH3 0x1B8 JUMP JUMPDEST PUSH0 PUSH1 0x20 DUP6 DUP4 ADD ADD MSTORE DUP1 SWAP5 POP POP POP POP POP SWAP3 SWAP2 POP POP JUMP JUMPDEST PUSH0 DUP1 PUSH0 DUP1 PUSH0 DUP1 PUSH1 0xC0 DUP8 DUP10 SUB SLT ISZERO PUSH3 0x202 JUMPI PUSH0 DUP1 REVERT JUMPDEST DUP7 MLOAD PUSH1 0x1 PUSH1 0x1 PUSH1 0x40 SHL SUB DUP1 DUP3 GT ISZERO PUSH3 0x219 JUMPI PUSH0 DUP1 REVERT JUMPDEST PUSH3 0x227 DUP11 DUP4 DUP12 ADD PUSH3 0x13F JUMP JUMPDEST SWAP8 POP PUSH1 0x20 DUP10 ADD MLOAD SWAP2 POP DUP1 DUP3 GT ISZERO PUSH3 0x23D JUMPI PUSH0 DUP1 REVERT JUMPDEST PUSH3 0x24B DUP11 DUP4 DUP12 ADD PUSH3 0x13F JUMP JUMPDEST SWAP7 POP PUSH1 0x40 DUP10 ADD MLOAD SWAP2 POP DUP1 DUP3 GT ISZERO PUSH3 0x261 JUMPI PUSH0 DUP1 REVERT JUMPDEST POP PUSH3 0x270 DUP10 DUP3 DUP11 ADD PUSH3 0x13F JUMP JUMPDEST PUSH1 0x60 DUP10 ADD MLOAD PUSH1 0x80 DUP11 ADD MLOAD PUSH1 0xA0 DUP12 ADD MLOAD SWAP3 SWAP8 POP SWAP1 SWAP6 POP SWAP4 POP SWAP1 POP PUSH1 0x1 PUSH1 0x1 PUSH1 0xA0 SHL SUB DUP2 AND DUP2 EQ PUSH3 0x29E JUMPI PUSH0 DUP1 REVERT JUMPDEST DUP1 SWAP2 POP POP SWAP3 SWAP6 POP SWAP3 SWAP6 POP SWAP3 SWAP6 JUMP JUMPDEST PUSH1 0x1 DUP2 DUP2 SHR SWAP1 DUP3 AND DUP1 PUSH3 0x2C1 JUMPI PUSH1 0x7F DUP3 AND SWAP2 POP JUMPDEST PUSH1 0x20 DUP3 LT DUP2 SUB PUSH3 0x2E0 JUMPI PUSH4 0x4E487B71 PUSH1 0xE0 SHL PUSH0 MSTORE PUSH1 0x22 PUSH1 0x4 MSTORE PUSH1 0x24 PUSH0 REVERT JUMPDEST POP SWAP2 SWAP1 POP JUMP JUMPDEST PUSH1 0x1F DUP3 GT ISZERO PUSH3 0x331 JUMPI DUP1 PUSH0 MSTORE PUSH1 0x20 PUSH0 KECCAK256 PUSH1 0x1F DUP5 ADD PUSH1 0x5 SHR DUP2 ADD PUSH1 0x20 DUP6 LT ISZERO PUSH3 0x30D JUMPI POP DUP1 JUMPDEST PUSH1 0x1F DUP5 ADD PUSH1 0x5 SHR DUP3 ADD SWAP2 POP JUMPDEST DUP2 DUP2 LT ISZERO PUSH3 0x32E JUMPI PUSH0 DUP2 SSTORE PUSH1 0x1 ADD PUSH3 0x319 JUMP JUMPDEST POP POP JUMPDEST POP POP POP JUMP JUMPDEST DUP2 MLOAD PUSH1 0x1 PUSH1 0x1 PUSH1 0x40 SHL SUB DUP2 GT ISZERO PUSH3 0x352 JUMPI PUSH3 0x352 PUSH3 0x12B JUMP JUMPDEST PUSH3 0x36A DUP2 PUSH3 0x363 DUP5 SLOAD PUSH3 0x2AC JUMP JUMPDEST DUP5 PUSH3 0x2E6 JUMP JUMPDEST PUSH1 0x20 DUP1 PUSH1 0x1F DUP4 GT PUSH1 0x1 DUP2 EQ PUSH3 0x3A0 JUMPI PUSH0 DUP5 ISZERO PUSH3 0x388 JUMPI POP DUP6 DUP4 ADD MLOAD JUMPDEST PUSH0 NOT PUSH1 0x3 DUP7 SWAP1 SHL SHR NOT AND PUSH1 0x1 DUP6 SWAP1 SHL OR DUP6 SSTORE PUSH3 0x3FA JUMP JUMPDEST PUSH0 DUP6 DUP2 MSTORE PUSH1 0x20 DUP2 KECCAK256 PUSH1 0x1F NOT DUP7 AND SWAP2 JUMPDEST DUP3 DUP2 LT ISZERO PUSH3 0x3D0 JUMPI DUP9 DUP7 ADD MLOAD DUP3 SSTORE SWAP5 DUP5 ADD SWAP5 PUSH1 0x1 SWAP1 SWAP2 ADD SWAP1 DUP5 ADD PUSH3 0x3AF JUMP JUMPDEST POP DUP6 DUP3 LT ISZERO PUSH3 0x3EE JUMPI DUP8 DUP6 ADD MLOAD PUSH0 NOT PUSH1 0x3 DUP9 SWAP1 SHL PUSH1 0xF8 AND SHR NOT AND DUP2 SSTORE JUMPDEST POP POP PUSH1 0x1 DUP5 PUSH1 0x1 SHL ADD DUP6 SSTORE JUMPDEST POP POP POP POP POP POP JUMP JUMPDEST PUSH2 0x2776 DUP1 PUSH3 0x410 PUSH0 CODECOPY PUSH0 RETURN INVALID PUSH1 0x80 PUSH1 0x40 MSTORE PUSH1 0x4 CALLDATASIZE LT PUSH2 0x281 JUMPI PUSH0 CALLDATALOAD PUSH1 0xE0 SHR DUP1 PUSH4 0xA0B43A4E GT PUSH2 0x155 JUMPI DUP1 PUSH4 0xC73D7C7B GT PUSH2 0xBE JUMPI DUP1 PUSH4 0xEF430AA6 GT PUSH2 0x78 JUMPI DUP1 PUSH4 0xEF430AA6 EQ PUSH2 0x7C0 JUMPI DUP1 PUSH4 0xEF9EA486 EQ PUSH2 0x7D4 JUMPI DUP1 PUSH4 0xF25F4B56 EQ PUSH2 0x7F3 JUMPI DUP1 PUSH4 0xF2FDE38B EQ PUSH2 0x812 JUMPI DUP1 PUSH4 0xFD388BE2 EQ PUSH2 0x831 JUMPI DUP1 PUSH4 0xFFD4493C EQ PUSH2 0x846 JUMPI PUSH0 DUP1 REVERT JUMPDEST DUP1 PUSH4 0xC73D7C7B EQ PUSH2 0x724 JUMPI DUP1 PUSH4 0xCD962A06 EQ PUSH2 0x743 JUMPI DUP1 PUSH4 0xD54AD2A1 EQ PUSH2 0x762 JUMPI DUP1 PUSH4 0xDFBF53AE EQ PUSH2 0x777 JUMPI DUP1 PUSH4 0xE1F1C4A7 EQ PUSH2 0x797 JUMPI DUP1 PUSH4 0xEE4EB586 EQ PUSH2 0x7AC JUMPI PUSH0 DUP1 REVERT JUMPDEST DUP1 PUSH4 0xB84FF262 GT PUSH2 0x10F JUMPI DUP1 PUSH4 0xB84FF262 EQ PUSH2 0x62C JUMPI DUP1 PUSH4 0xBBB85188 EQ PUSH2 0x641 JUMPI DUP1 PUSH4 0xBEFA1E2F EQ PUSH2 0x6B1 JUMPI DUP1 PUSH4 0xC2B6B58C EQ PUSH2 0x6C6 JUMPI DUP1 PUSH4 0xC45A0155 EQ PUSH2 0x6E6 JUMPI DUP1 PUSH4 0xC50C96B6 EQ PUSH2 0x705 JUMPI PUSH0 DUP1 REVERT JUMPDEST DUP1 PUSH4 0xA0B43A4E EQ PUSH2 0x5A7 JUMPI DUP1 PUSH4 0xA628828F EQ PUSH2 0x5BB JUMPI DUP1 PUSH4 0xA8AE8E05 EQ PUSH2 0x5D0 JUMPI DUP1 PUSH4 0xAF008883 EQ PUSH2 0x5EF JUMPI DUP1 PUSH4 0xB401FAF1 EQ PUSH2 0x604 JUMPI DUP1 PUSH4 0xB5545A3C EQ PUSH2 0x618 JUMPI PUSH0 DUP1 REVERT JUMPDEST DUP1 PUSH4 0x66805DE5 GT PUSH2 0x1F7 JUMPI DUP1 PUSH4 0x8CCA8F64 GT PUSH2 0x1B1 JUMPI DUP1 PUSH4 0x8CCA8F64 EQ PUSH2 0x4FA JUMPI DUP1 PUSH4 0x8DA5CB5B EQ PUSH2 0x519 JUMPI DUP1 PUSH4 0x8EBCE3F8 EQ PUSH2 0x535 JUMPI DUP1 PUSH4 0x90D49B9D EQ PUSH2 0x549 JUMPI DUP1 PUSH4 0x936E1D83 EQ PUSH2 0x568 JUMPI DUP1 PUSH4 0x9A82A09A EQ PUSH2 0x587 JUMPI PUSH0 DUP1 REVERT JUMPDEST DUP1 PUSH4 0x66805DE5 EQ PUSH2 0x45B JUMPI DUP1 PUSH4 0x715018A6 EQ PUSH2 0x46F JUMPI DUP1 PUSH4 0x7284E416 EQ PUSH2 0x483 JUMPI DUP1 PUSH4 0x73B2E80E EQ PUSH2 0x497 JUMPI DUP1 PUSH4 0x78E73FF8 EQ PUSH2 0x4C5 JUMPI DUP1 PUSH4 0x88BA8DD6 EQ PUSH2 0x4E5 JUMPI PUSH0 DUP1 REVERT JUMPDEST DUP1 PUSH4 0x41271B00 GT PUSH2 0x248 JUMPI DUP1 PUSH4 0x41271B00 EQ PUSH2 0x35E JUMPI DUP1 PUSH4 0x43C322BA EQ PUSH2 0x372 JUMPI DUP1 PUSH4 0x4A79D50C EQ PUSH2 0x386 JUMPI DUP1 PUSH4 0x4E92A646 EQ PUSH2 0x3A7 JUMPI DUP1 PUSH4 0x626E1AE7 EQ PUSH2 0x417 JUMPI DUP1 PUSH4 0x63A599A4 EQ PUSH2 0x42B JUMPI PUSH0 DUP1 REVERT JUMPDEST DUP1 PUSH3 0x2EAB7 EQ PUSH2 0x28C JUMPI DUP1 PUSH3 0xB46F8 EQ PUSH2 0x2D1 JUMPI DUP1 PUSH4 0x6F6BCE9 EQ PUSH2 0x2F3 JUMPI DUP1 PUSH4 0x96A3778 EQ PUSH2 0x314 JUMPI DUP1 PUSH4 0x3482B644 EQ PUSH2 0x327 JUMPI PUSH0 DUP1 REVERT JUMPDEST CALLDATASIZE PUSH2 0x288 JUMPI STOP JUMPDEST PUSH0 DUP1 REVERT JUMPDEST CALLVALUE DUP1 ISZERO PUSH2 0x297 JUMPI PUSH0 DUP1 REVERT JUMPDEST POP PUSH2 0x2A0 PUSH2 0x867 JUMP JUMPDEST PUSH1 0x40 DUP1 MLOAD PUSH1 0x1 PUSH1 0x1 PUSH1 0xA0 SHL SUB SWAP1 SWAP6 AND DUP6 MSTORE PUSH1 0x20 DUP6 ADD SWAP4 SWAP1 SWAP4 MSTORE SWAP2 DUP4 ADD MSTORE ISZERO ISZERO PUSH1 0x60 DUP3 ADD MSTORE PUSH1 0x80 ADD JUMPDEST PUSH1 0x40 MLOAD DUP1 SWAP2 SUB SWAP1 RETURN JUMPDEST CALLVALUE DUP1 ISZERO PUSH2 0x2DC JUMPI PUSH0 DUP1 REVERT JUMPDEST POP PUSH2 0x2E5 PUSH1 0x96 DUP2 JUMP JUMPDEST PUSH1 0x40 MLOAD SWAP1 DUP2 MSTORE PUSH1 0x20 ADD PUSH2 0x2C8 JUMP JUMPDEST CALLVALUE DUP1 ISZERO PUSH2 0x2FE JUMPI PUSH0 DUP1 REVERT JUMPDEST POP PUSH2 0x312 PUSH2 0x30D CALLDATASIZE PUSH1 0x4 PUSH2 0x241C JUMP JUMPDEST PUSH2 0x8E1 JUMP JUMPDEST STOP JUMPDEST PUSH2 0x312 PUSH2 0x322 CALLDATASIZE PUSH1 0x4 PUSH2 0x2467 JUMP JUMPDEST PUSH2 0x9FB JUMP JUMPDEST CALLVALUE DUP1 ISZERO PUSH2 0x332 JUMPI PUSH0 DUP1 REVERT JUMPDEST POP PUSH2 0x346 PUSH2 0x341 CALLDATASIZE PUSH1 0x4 PUSH2 0x2487 JUMP JUMPDEST PUSH2 0xE87 JUMP JUMPDEST PUSH1 0x40 MLOAD PUSH1 0x1 PUSH1 0x1 PUSH1 0xA0 SHL SUB SWAP1 SWAP2 AND DUP2 MSTORE PUSH1 0x20 ADD PUSH2 0x2C8 JUMP JUMPDEST CALLVALUE DUP1 ISZERO PUSH2 0x369 JUMPI PUSH0 DUP1 REVERT JUMPDEST POP PUSH2 0x312 PUSH2 0xEAF JUMP JUMPDEST CALLVALUE DUP1 ISZERO PUSH2 0x37D JUMPI PUSH0 DUP1 REVERT JUMPDEST POP PUSH2 0x2E5 PUSH2 0x104D JUMP JUMPDEST CALLVALUE DUP1 ISZERO PUSH2 0x391 JUMPI PUSH0 DUP1 REVERT JUMPDEST POP PUSH2 0x39A PUSH2 0x1070 JUMP JUMPDEST PUSH1 0x40 MLOAD PUSH2 0x2C8 SWAP2 SWAP1 PUSH2 0x24E1 JUMP JUMPDEST CALLVALUE DUP1 ISZERO PUSH2 0x3B2 JUMPI PUSH0 DUP1 REVERT JUMPDEST POP PUSH2 0x3EF PUSH2 0x3C1 CALLDATASIZE PUSH1 0x4 PUSH2 0x24F3 JUMP JUMPDEST PUSH1 0xB PUSH1 0x20 MSTORE PUSH0 SWAP1 DUP2 MSTORE PUSH1 0x40 SWAP1 KECCAK256 DUP1 SLOAD PUSH1 0x1 DUP3 ADD SLOAD PUSH1 0x2 DUP4 ADD SLOAD PUSH1 0x3 SWAP1 SWAP4 ADD SLOAD PUSH1 0xFF SWAP3 DUP4 AND SWAP4 SWAP2 SWAP3 SWAP1 SWAP2 AND SWAP1 DUP5 JUMP JUMPDEST PUSH1 0x40 DUP1 MLOAD SWAP5 ISZERO ISZERO DUP6 MSTORE PUSH1 0x20 DUP6 ADD SWAP4 SWAP1 SWAP4 MSTORE SWAP1 ISZERO ISZERO SWAP2 DUP4 ADD SWAP2 SWAP1 SWAP2 MSTORE PUSH1 0x60 DUP3 ADD MSTORE PUSH1 0x80 ADD PUSH2 0x2C8 JUMP JUMPDEST CALLVALUE DUP1 ISZERO PUSH2 0x422 JUMPI PUSH0 DUP1 REVERT JUMPDEST POP PUSH2 0x2E5 PUSH2 0x10FC JUMP JUMPDEST CALLVALUE DUP1 ISZERO PUSH2 0x436 JUMPI PUSH0 DUP1 REVERT JUMPDEST POP PUSH1 0x7 SLOAD PUSH2 0x44B SWAP1 PUSH1 0x1 PUSH1 0xB8 SHL SWAP1 DIV PUSH1 0xFF AND DUP2 JUMP JUMPDEST PUSH1 0x40 MLOAD SWAP1 ISZERO ISZERO DUP2 MSTORE PUSH1 0x20 ADD PUSH2 0x2C8 JUMP JUMPDEST CALLVALUE DUP1 ISZERO PUSH2 0x466 JUMPI PUSH0 DUP1 REVERT JUMPDEST POP PUSH2 0x312 PUSH2 0x117D JUMP JUMPDEST CALLVALUE DUP1 ISZERO PUSH2 0x47A JUMPI PUSH0 DUP1 REVERT JUMPDEST POP PUSH2 0x312 PUSH2 0x1244 JUMP JUMPDEST CALLVALUE DUP1 ISZERO PUSH2 0x48E JUMPI PUSH0 DUP1 REVERT JUMPDEST POP PUSH2 0x39A PUSH2 0x1257 JUMP JUMPDEST CALLVALUE DUP1 ISZERO PUSH2 0x4A2 JUMPI PUSH0 DUP1 REVERT JUMPDEST POP PUSH2 0x44B PUSH2 0x4B1 CALLDATASIZE PUSH1 0x4 PUSH2 0x24F3 JUMP JUMPDEST PUSH1 0xD PUSH1 0x20 MSTORE PUSH0 SWAP1 DUP2 MSTORE PUSH1 0x40 SWAP1 KECCAK256 SLOAD PUSH1 0xFF AND DUP2 JUMP JUMPDEST CALLVALUE DUP1 ISZERO PUSH2 0x4D0 JUMPI PUSH0 DUP1 REVERT JUMPDEST POP PUSH1 0x7 SLOAD PUSH2 0x44B SWAP1 PUSH1 0x1 PUSH1 0xA8 SHL SWAP1 DIV PUSH1 0xFF AND DUP2 JUMP JUMPDEST CALLVALUE DUP1 ISZERO PUSH2 0x4F0 JUMPI PUSH0 DUP1 REVERT JUMPDEST POP PUSH2 0x2E5 PUSH1 0x8 SLOAD DUP2 JUMP JUMPDEST CALLVALUE DUP1 ISZERO PUSH2 0x505 JUMPI PUSH0 DUP1 REVERT JUMPDEST POP PUSH2 0x44B PUSH2 0x514 CALLDATASIZE PUSH1 0x4 PUSH2 0x24F3 JUMP JUMPDEST PUSH2 0x1264 JUMP JUMPDEST CALLVALUE DUP1 ISZERO PUSH2 0x524 JUMPI PUSH0 DUP1 REVERT JUMPDEST POP PUSH0 SLOAD PUSH1 0x1 PUSH1 0x1 PUSH1 0xA0 SHL SUB AND PUSH2 0x346 JUMP JUMPDEST CALLVALUE DUP1 ISZERO PUSH2 0x540 JUMPI PUSH0 DUP1 REVERT JUMPDEST POP PUSH2 0x312 PUSH2 0x12C5 JUMP JUMPDEST CALLVALUE DUP1 ISZERO PUSH2 0x554 JUMPI PUSH0 DUP1 REVERT JUMPDEST POP PUSH2 0x312 PUSH2 0x563 CALLDATASIZE PUSH1 0x4 PUSH2 0x24F3 JUMP JUMPDEST PUSH2 0x1417 JUMP JUMPDEST CALLVALUE DUP1 ISZERO PUSH2 0x573 JUMPI PUSH0 DUP1 REVERT JUMPDEST POP PUSH1 0x10 SLOAD PUSH2 0x346 SWAP1 PUSH1 0x1 PUSH1 0x1 PUSH1 0xA0 SHL SUB AND DUP2 JUMP JUMPDEST CALLVALUE DUP1 ISZERO PUSH2 0x592 JUMPI PUSH0 DUP1 REVERT JUMPDEST POP PUSH1 0x7 SLOAD PUSH2 0x44B SWAP1 PUSH1 0x1 PUSH1 0xC0 SHL SWAP1 DIV PUSH1 0xFF AND DUP2 JUMP JUMPDEST CALLVALUE DUP1 ISZERO PUSH2 0x5B2 JUMPI PUSH0 DUP1 REVERT JUMPDEST POP PUSH2 0x2E5 PUSH2 0x14F5 JUMP JUMPDEST CALLVALUE DUP1 ISZERO PUSH2 0x5C6 JUMPI PUSH0 DUP1 REVERT JUMPDEST POP PUSH2 0x2E5 PUSH1 0x5 SLOAD DUP2 JUMP JUMPDEST CALLVALUE DUP1 ISZERO PUSH2 0x5DB JUMPI PUSH0 DUP1 REVERT JUMPDEST POP PUSH2 0x312 PUSH2 0x5EA CALLDATASIZE PUSH1 0x4 PUSH2 0x2519 JUMP JUMPDEST PUSH2 0x1516 JUMP JUMPDEST CALLVALUE DUP1 ISZERO PUSH2 0x5FA JUMPI PUSH0 DUP1 REVERT JUMPDEST POP PUSH2 0x2E5 PUSH1 0x9 SLOAD DUP2 JUMP JUMPDEST CALLVALUE DUP1 ISZERO PUSH2 0x60F JUMPI PUSH0 DUP1 REVERT JUMPDEST POP PUSH2 0x312 PUSH2 0x1623 JUMP JUMPDEST CALLVALUE DUP1 ISZERO PUSH2 0x623 JUMPI PUSH0 DUP1 REVERT JUMPDEST POP PUSH2 0x312 PUSH2 0x1C64 JUMP JUMPDEST CALLVALUE DUP1 ISZERO PUSH2 0x637 JUMPI PUSH0 DUP1 REVERT JUMPDEST POP PUSH2 0x2E5 PUSH1 0x6 SLOAD DUP2 JUMP JUMPDEST CALLVALUE DUP1 ISZERO PUSH2 0x64C JUMPI PUSH0 DUP1 REVERT JUMPDEST POP PUSH1 0x8 SLOAD PUSH1 0x9 SLOAD PUSH1 0xA SLOAD PUSH1 0xC SLOAD PUSH1 0x7 SLOAD PUSH1 0x40 DUP1 MLOAD SWAP6 DUP7 MSTORE PUSH1 0x20 DUP7 ADD SWAP5 SWAP1 SWAP5 MSTORE SWAP3 DUP5 ADD SWAP2 SWAP1 SWAP2 MSTORE PUSH1 0x60 DUP4 ADD MSTORE PUSH1 0xFF PUSH1 0x1 PUSH1 0xA0 SHL DUP3 DIV DUP2 AND ISZERO ISZERO PUSH1 0x80 DUP5 ADD MSTORE PUSH1 0x1 PUSH1 0xA8 SHL DUP3 DIV DUP2 AND ISZERO ISZERO PUSH1 0xA0 DUP5 ADD MSTORE PUSH1 0x1 PUSH1 0xC0 SHL SWAP1 SWAP2 DIV AND ISZERO ISZERO PUSH1 0xC0 DUP3 ADD MSTORE PUSH1 0xE0 ADD PUSH2 0x2C8 JUMP JUMPDEST CALLVALUE DUP1 ISZERO PUSH2 0x6BC JUMPI PUSH0 DUP1 REVERT JUMPDEST POP PUSH2 0x2E5 PUSH1 0xA SLOAD DUP2 JUMP JUMPDEST CALLVALUE DUP1 ISZERO PUSH2 0x6D1 JUMPI PUSH0 DUP1 REVERT JUMPDEST POP PUSH1 0x7 SLOAD PUSH2 0x44B SWAP1 PUSH1 0x1 PUSH1 0xA0 SHL SWAP1 DIV PUSH1 0xFF AND DUP2 JUMP JUMPDEST CALLVALUE DUP1 ISZERO PUSH2 0x6F1 JUMPI PUSH0 DUP1 REVERT JUMPDEST POP PUSH1 0x7 SLOAD PUSH2 0x346 SWAP1 PUSH1 0x1 PUSH1 0x1 PUSH1 0xA0 SHL SUB AND DUP2 JUMP JUMPDEST CALLVALUE DUP1 ISZERO PUSH2 0x710 JUMPI PUSH0 DUP1 REVERT JUMPDEST POP PUSH2 0x312 PUSH2 0x71F CALLDATASIZE PUSH1 0x4 PUSH2 0x24F3 JUMP JUMPDEST PUSH2 0x1E4B JUMP JUMPDEST CALLVALUE DUP1 ISZERO PUSH2 0x72F JUMPI PUSH0 DUP1 REVERT JUMPDEST POP PUSH2 0x312 PUSH2 0x73E CALLDATASIZE PUSH1 0x4 PUSH2 0x2467 JUMP JUMPDEST PUSH2 0x1ECB JUMP JUMPDEST CALLVALUE DUP1 ISZERO PUSH2 0x74E JUMPI PUSH0 DUP1 REVERT JUMPDEST POP PUSH2 0x312 PUSH2 0x75D CALLDATASIZE PUSH1 0x4 PUSH2 0x2487 JUMP JUMPDEST PUSH2 0x1F93 JUMP JUMPDEST CALLVALUE DUP1 ISZERO PUSH2 0x76D JUMPI PUSH0 DUP1 REVERT JUMPDEST POP PUSH2 0x2E5 PUSH1 0xE SLOAD DUP2 JUMP JUMPDEST CALLVALUE DUP1 ISZERO PUSH2 0x782 JUMPI PUSH0 DUP1 REVERT JUMPDEST POP PUSH1 0x7 SLOAD PUSH2 0x44B SWAP1 PUSH1 0x1 PUSH1 0xB0 SHL SWAP1 DIV PUSH1 0xFF AND DUP2 JUMP JUMPDEST CALLVALUE DUP1 ISZERO PUSH2 0x7A2 JUMPI PUSH0 DUP1 REVERT JUMPDEST POP PUSH2 0x2E5 PUSH2 0x2710 DUP2 JUMP JUMPDEST CALLVALUE DUP1 ISZERO PUSH2 0x7B7 JUMPI PUSH0 DUP1 REVERT JUMPDEST POP PUSH2 0x44B PUSH2 0x1FE7 JUMP JUMPDEST CALLVALUE DUP1 ISZERO PUSH2 0x7CB JUMPI PUSH0 DUP1 REVERT JUMPDEST POP PUSH2 0x39A PUSH2 0x2033 JUMP JUMPDEST CALLVALUE DUP1 ISZERO PUSH2 0x7DF JUMPI PUSH0 DUP1 REVERT JUMPDEST POP PUSH2 0x312 PUSH2 0x7EE CALLDATASIZE PUSH1 0x4 PUSH2 0x2467 JUMP JUMPDEST PUSH2 0x2040 JUMP JUMPDEST CALLVALUE DUP1 ISZERO PUSH2 0x7FE JUMPI PUSH0 DUP1 REVERT JUMPDEST POP PUSH1 0xF SLOAD PUSH2 0x346 SWAP1 PUSH1 0x1 PUSH1 0x1 PUSH1 0xA0 SHL SUB AND DUP2 JUMP JUMPDEST CALLVALUE DUP1 ISZERO PUSH2 0x81D JUMPI PUSH0 DUP1 REVERT JUMPDEST POP PUSH2 0x312 PUSH2 0x82C CALLDATASIZE PUSH1 0x4 PUSH2 0x24F3 JUMP JUMPDEST PUSH2 0x2191 JUMP JUMPDEST CALLVALUE DUP1 ISZERO PUSH2 0x83C JUMPI PUSH0 DUP1 REVERT JUMPDEST POP PUSH2 0x2E5 PUSH1 0x11 SLOAD DUP2 JUMP JUMPDEST CALLVALUE DUP1 ISZERO PUSH2 0x851 JUMPI PUSH0 DUP1 REVERT JUMPDEST POP PUSH2 0x85A PUSH2 0x220A JUMP JUMPDEST PUSH1 0x40 MLOAD PUSH2 0x2C8 SWAP2 SWAP1 PUSH2 0x2553 JUMP JUMPDEST PUSH0 DUP1 PUSH0 DUP1 PUSH0 PUSH1 0x9 SLOAD PUSH1 0x8 SLOAD PUSH2 0x87C SWAP2 SWAP1 PUSH2 0x25B3 JUMP JUMPDEST PUSH1 0xF SLOAD SWAP1 SWAP2 POP PUSH1 0x1 PUSH1 0x1 PUSH1 0xA0 SHL SUB AND PUSH1 0x96 PUSH2 0x2710 PUSH2 0x89A DUP3 DUP6 PUSH2 0x25C6 JUMP JUMPDEST PUSH2 0x8A4 SWAP2 SWAP1 PUSH2 0x25DD JUMP JUMPDEST PUSH0 DUP1 MSTORE PUSH1 0xD PUSH1 0x20 MSTORE PUSH32 0x81955A0A11E65EAC625C29E8882660BAE4E165A75D72780094ACAE8ECE9A29EE SLOAD SWAP3 SWAP9 SWAP2 SWAP8 POP SWAP6 POP PUSH1 0xFF SWAP1 SWAP2 AND SWAP4 POP SWAP2 POP POP JUMP JUMPDEST PUSH2 0x8E9 PUSH2 0x226A JUMP JUMPDEST PUSH1 0x7 SLOAD PUSH1 0x1 PUSH1 0xB8 SHL SWAP1 DIV PUSH1 0xFF AND PUSH2 0x947 JUMPI PUSH1 0x40 MLOAD PUSH3 0x461BCD PUSH1 0xE5 SHL DUP2 MSTORE PUSH1 0x20 PUSH1 0x4 DUP3 ADD MSTORE PUSH1 0x1C PUSH1 0x24 DUP3 ADD MSTORE PUSH32 0x456D657267656E63792073746F70206E6F742061637469766174656400000000 PUSH1 0x44 DUP3 ADD MSTORE PUSH1 0x64 ADD JUMPDEST PUSH1 0x40 MLOAD DUP1 SWAP2 SUB SWAP1 REVERT JUMPDEST PUSH1 0x7 SLOAD PUSH1 0x1 PUSH1 0xA8 SHL SWAP1 DIV PUSH1 0xFF AND ISZERO PUSH2 0x996 JUMPI PUSH1 0x40 MLOAD PUSH3 0x461BCD PUSH1 0xE5 SHL DUP2 MSTORE PUSH1 0x20 PUSH1 0x4 DUP3 ADD MSTORE PUSH1 0x12 PUSH1 0x24 DUP3 ADD MSTORE PUSH18 0x15DA5B9B995C88185B1C9958591E481CD95D PUSH1 0x72 SHL PUSH1 0x44 DUP3 ADD MSTORE PUSH1 0x64 ADD PUSH2 0x93E JUMP JUMPDEST PUSH1 0x7 DUP1 SLOAD PUSH1 0xFF PUSH1 0xA8 SHL NOT DUP5 ISZERO ISZERO PUSH1 0x1 PUSH1 0xB0 SHL MUL AND PUSH2 0xFFFF PUSH1 0xA8 SHL NOT SWAP1 SWAP2 AND OR PUSH1 0x1 PUSH1 0xA8 SHL OR SWAP1 SSTORE PUSH1 0x40 MLOAD PUSH32 0x9F1ED7EC730B47AA440B5EDE52772362BE32571A818CD31AC36A295E8393B98E SWAP1 PUSH2 0x9EF SWAP1 DUP5 SWAP1 DUP5 SWAP1 PUSH2 0x25FC JUMP JUMPDEST PUSH1 0x40 MLOAD DUP1 SWAP2 SUB SWAP1 LOG1 POP POP JUMP JUMPDEST PUSH1 0x7 SLOAD PUSH1 0x1 PUSH1 0xA0 SHL SWAP1 DIV PUSH1 0xFF AND ISZERO PUSH2 0xA46 JUMPI PUSH1 0x40 MLOAD PUSH3 0x461BCD PUSH1 0xE5 SHL DUP2 MSTORE PUSH1 0x20 PUSH1 0x4 DUP3 ADD MSTORE PUSH1 0xE PUSH1 0x24 DUP3 ADD MSTORE PUSH14 0x141BDBDB081A5CC818DB1BDCD959 PUSH1 0x92 SHL PUSH1 0x44 DUP3 ADD MSTORE PUSH1 0x64 ADD PUSH2 0x93E JUMP JUMPDEST PUSH1 0x7 SLOAD PUSH1 0x1 PUSH1 0xB8 SHL SWAP1 DIV PUSH1 0xFF AND ISZERO PUSH2 0xAA0 JUMPI PUSH1 0x40 MLOAD PUSH3 0x461BCD PUSH1 0xE5 SHL DUP2 MSTORE PUSH1 0x20 PUSH1 0x4 DUP3 ADD MSTORE PUSH1 0x1A PUSH1 0x24 DUP3 ADD MSTORE PUSH32 0x42657474696E67206973207061757365642062792061646D696E000000000000 PUSH1 0x44 DUP3 ADD MSTORE PUSH1 0x64 ADD PUSH2 0x93E JUMP JUMPDEST PUSH1 0x7 SLOAD PUSH1 0x1 PUSH1 0xC0 SHL SWAP1 DIV PUSH1 0xFF AND ISZERO PUSH2 0xAFA JUMPI PUSH1 0x40 MLOAD PUSH3 0x461BCD PUSH1 0xE5 SHL DUP2 MSTORE PUSH1 0x20 PUSH1 0x4 DUP3 ADD MSTORE PUSH1 0x17 PUSH1 0x24 DUP3 ADD MSTORE PUSH32 0x506F6F6C20686173206265656E2063616E63656C6C6564000000000000000000 PUSH1 0x44 DUP3 ADD MSTORE PUSH1 0x64 ADD PUSH2 0x93E JUMP JUMPDEST PUSH1 0x5 SLOAD TIMESTAMP LT PUSH2 0xB4B JUMPI PUSH1 0x40 MLOAD PUSH3 0x461BCD PUSH1 0xE5 SHL DUP2 MSTORE PUSH1 0x20 PUSH1 0x4 DUP3 ADD MSTORE PUSH1 0x18 PUSH1 0x24 DUP3 ADD MSTORE PUSH32 0x42657474696E6720706572696F642068617320656E6465640000000000000000 PUSH1 0x44 DUP3 ADD MSTORE PUSH1 0x64 ADD PUSH2 0x93E JUMP JUMPDEST PUSH0 CALLVALUE GT PUSH2 0xBA4 JUMPI PUSH1 0x40 MLOAD PUSH3 0x461BCD PUSH1 0xE5 SHL DUP2 MSTORE PUSH1 0x20 PUSH1 0x4 DUP3 ADD MSTORE PUSH1 0x21 PUSH1 0x24 DUP3 ADD MSTORE PUSH32 0x42657420616D6F756E74206D7573742062652067726561746572207468616E20 PUSH1 0x44 DUP3 ADD MSTORE PUSH1 0x3 PUSH1 0xFC SHL PUSH1 0x64 DUP3 ADD MSTORE PUSH1 0x84 ADD PUSH2 0x93E JUMP JUMPDEST PUSH7 0x38D7EA4C68000 CALLVALUE LT ISZERO PUSH2 0xBFB JUMPI PUSH1 0x40 MLOAD PUSH3 0x461BCD PUSH1 0xE5 SHL DUP2 MSTORE PUSH1 0x20 PUSH1 0x4 DUP3 ADD MSTORE PUSH1 0x18 PUSH1 0x24 DUP3 ADD MSTORE PUSH32 0x4D696E696D756D2062657420697320302E30303120424E420000000000000000 PUSH1 0x44 DUP3 ADD MSTORE PUSH1 0x64 ADD PUSH2 0x93E JUMP JUMPDEST PUSH9 0x56BC75E2D63100000 CALLVALUE GT ISZERO PUSH2 0xC4D JUMPI PUSH1 0x40 MLOAD PUSH3 0x461BCD PUSH1 0xE5 SHL DUP2 MSTORE PUSH1 0x20 PUSH1 0x4 DUP3 ADD MSTORE PUSH1 0x16 PUSH1 0x24 DUP3 ADD MSTORE PUSH22 0x26B0BC34B6BAB6903132BA1034B99018981810212721 PUSH1 0x51 SHL PUSH1 0x44 DUP3 ADD MSTORE PUSH1 0x64 ADD PUSH2 0x93E JUMP JUMPDEST CALLER PUSH0 SWAP1 DUP2 MSTORE PUSH1 0xB PUSH1 0x20 MSTORE PUSH1 0x40 SWAP1 KECCAK256 PUSH1 0x1 ADD SLOAD ISZERO PUSH2 0xCAC JUMPI PUSH1 0x40 MLOAD PUSH3 0x461BCD PUSH1 0xE5 SHL DUP2 MSTORE PUSH1 0x20 PUSH1 0x4 DUP3 ADD MSTORE PUSH1 0x1D PUSH1 0x24 DUP3 ADD MSTORE PUSH32 0x557365722068617320616C726561647920706C61636564206120626574000000 PUSH1 0x44 DUP3 ADD MSTORE PUSH1 0x64 ADD PUSH2 0x93E JUMP JUMPDEST CALLER PUSH2 0xCF2 JUMPI PUSH1 0x40 MLOAD PUSH3 0x461BCD PUSH1 0xE5 SHL DUP2 MSTORE PUSH1 0x20 PUSH1 0x4 DUP3 ADD MSTORE PUSH1 0x16 PUSH1 0x24 DUP3 ADD MSTORE PUSH22 0x496E76616C69642073656E6465722061646472657373 PUSH1 0x50 SHL PUSH1 0x44 DUP3 ADD MSTORE PUSH1 0x64 ADD PUSH2 0x93E JUMP JUMPDEST PUSH1 0x40 DUP1 MLOAD PUSH1 0x80 DUP2 ADD DUP3 MSTORE DUP3 ISZERO DUP1 ISZERO DUP3 MSTORE CALLVALUE PUSH1 0x20 DUP1 DUP5 ADD SWAP2 DUP3 MSTORE PUSH0 DUP5 DUP7 ADD DUP2 DUP2 MSTORE TIMESTAMP PUSH1 0x60 DUP8 ADD SWAP1 DUP2 MSTORE CALLER DUP1 DUP5 MSTORE PUSH1 0xB SWAP1 SWAP5 MSTORE SWAP7 DUP3 KECCAK256 SWAP6 MLOAD DUP7 SLOAD SWAP1 ISZERO ISZERO PUSH1 0xFF NOT SWAP2 DUP3 AND OR DUP8 SSTORE SWAP4 MLOAD PUSH1 0x1 DUP8 DUP2 ADD SWAP2 SWAP1 SWAP2 SSTORE SWAP1 MLOAD PUSH1 0x2 DUP8 ADD DUP1 SLOAD SWAP2 ISZERO ISZERO SWAP2 SWAP1 SWAP6 AND OR SWAP1 SWAP4 SSTORE SWAP5 MLOAD PUSH1 0x3 SWAP1 SWAP5 ADD SWAP4 SWAP1 SWAP4 SSTORE PUSH1 0xC DUP1 SLOAD SWAP2 DUP3 ADD DUP2 SSTORE SWAP1 SWAP4 MSTORE PUSH32 0xDF6966C971051C3D54EC59162606531493A51404A002842F56009D7E5CF4A8C7 SWAP1 SWAP3 ADD DUP1 SLOAD PUSH1 0x1 PUSH1 0x1 PUSH1 0xA0 SHL SUB NOT AND SWAP1 SWAP2 OR SWAP1 SSTORE PUSH2 0xDC0 JUMPI CALLVALUE PUSH1 0x8 PUSH0 DUP3 DUP3 SLOAD PUSH2 0xDB5 SWAP2 SWAP1 PUSH2 0x25B3 JUMP JUMPDEST SWAP1 SWAP2 SSTORE POP PUSH2 0xDD7 SWAP1 POP JUMP JUMPDEST CALLVALUE PUSH1 0x9 PUSH0 DUP3 DUP3 SLOAD PUSH2 0xDD1 SWAP2 SWAP1 PUSH2 0x25B3 JUMP JUMPDEST SWAP1 SWAP2 SSTORE POP POP JUMPDEST CALLVALUE PUSH1 0xA PUSH0 DUP3 DUP3 SLOAD PUSH2 0xDE8 SWAP2 SWAP1 PUSH2 0x25B3 JUMP JUMPDEST SWAP1 SWAP2 SSTORE POP PUSH0 SWAP1 POP DUP2 PUSH2 0xE14 JUMPI PUSH1 0x40 MLOAD DUP1 PUSH1 0x40 ADD PUSH1 0x40 MSTORE DUP1 PUSH1 0x2 DUP2 MSTORE PUSH1 0x20 ADD PUSH2 0x4E4F PUSH1 0xF0 SHL DUP2 MSTORE POP PUSH2 0xE31 JUMP JUMPDEST PUSH1 0x40 MLOAD DUP1 PUSH1 0x40 ADD PUSH1 0x40 MSTORE DUP1 PUSH1 0x3 DUP2 MSTORE PUSH1 0x20 ADD PUSH3 0x594553 PUSH1 0xE8 SHL DUP2 MSTORE POP JUMPDEST SWAP1 POP CALLER PUSH1 0x1 PUSH1 0x1 PUSH1 0xA0 SHL SUB AND PUSH32 0x59BEC262F3E5C00D172330919288747F1356AECC686AF7CAA21A3BAF473550D7 CALLVALUE DUP5 PUSH1 0x8 SLOAD PUSH1 0x9 SLOAD PUSH1 0x2 DUP8 PUSH1 0x40 MLOAD PUSH2 0xE7B SWAP7 SWAP6 SWAP5 SWAP4 SWAP3 SWAP2 SWAP1 PUSH2 0x264E JUMP JUMPDEST PUSH1 0x40 MLOAD DUP1 SWAP2 SUB SWAP1 LOG2 POP POP JUMP JUMPDEST PUSH1 0xC DUP2 DUP2 SLOAD DUP2 LT PUSH2 0xE96 JUMPI PUSH0 DUP1 REVERT JUMPDEST PUSH0 SWAP2 DUP3 MSTORE PUSH1 0x20 SWAP1 SWAP2 KECCAK256 ADD SLOAD PUSH1 0x1 PUSH1 0x1 PUSH1 0xA0 SHL SUB AND SWAP1 POP DUP2 JUMP JUMPDEST PUSH2 0xEB7 PUSH2 0x226A JUMP JUMPDEST PUSH1 0x7 SLOAD PUSH1 0x1 PUSH1 0xC0 SHL SWAP1 DIV PUSH1 0xFF AND DUP1 PUSH2 0xED8 JUMPI POP PUSH1 0x7 SLOAD PUSH1 0x1 PUSH1 0xA8 SHL SWAP1 DIV PUSH1 0xFF AND JUMPDEST PUSH2 0xF2F JUMPI PUSH1 0x40 MLOAD PUSH3 0x461BCD PUSH1 0xE5 SHL DUP2 MSTORE PUSH1 0x20 PUSH1 0x4 DUP3 ADD MSTORE PUSH1 0x22 PUSH1 0x24 DUP3 ADD MSTORE PUSH32 0x506F6F6C206D7573742062652063616E63656C6C6564206F72207265736F6C76 PUSH1 0x44 DUP3 ADD MSTORE PUSH2 0x1959 PUSH1 0xF2 SHL PUSH1 0x64 DUP3 ADD MSTORE PUSH1 0x84 ADD PUSH2 0x93E JUMP JUMPDEST SELFBALANCE DUP1 PUSH2 0xF72 JUMPI PUSH1 0x40 MLOAD PUSH3 0x461BCD PUSH1 0xE5 SHL DUP2 MSTORE PUSH1 0x20 PUSH1 0x4 DUP3 ADD MSTORE PUSH1 0x12 PUSH1 0x24 DUP3 ADD MSTORE PUSH18 0x4E6F2072656D61696E696E672066756E6473 PUSH1 0x70 SHL PUSH1 0x44 DUP3 ADD MSTORE PUSH1 0x64 ADD PUSH2 0x93E JUMP JUMPDEST PUSH1 0xF SLOAD PUSH1 0x40 MLOAD PUSH0 SWAP2 PUSH1 0x1 PUSH1 0x1 PUSH1 0xA0 SHL SUB AND SWAP1 DUP4 SWAP1 DUP4 DUP2 DUP2 DUP2 DUP6 DUP8 GAS CALL SWAP3 POP POP POP RETURNDATASIZE DUP1 PUSH0 DUP2 EQ PUSH2 0xFBC JUMPI PUSH1 0x40 MLOAD SWAP2 POP PUSH1 0x1F NOT PUSH1 0x3F RETURNDATASIZE ADD AND DUP3 ADD PUSH1 0x40 MSTORE RETURNDATASIZE DUP3 MSTORE RETURNDATASIZE PUSH0 PUSH1 0x20 DUP5 ADD RETURNDATACOPY PUSH2 0xFC1 JUMP JUMPDEST PUSH1 0x60 SWAP2 POP JUMPDEST POP POP SWAP1 POP DUP1 PUSH2 0x1004 JUMPI PUSH1 0x40 MLOAD PUSH3 0x461BCD PUSH1 0xE5 SHL DUP2 MSTORE PUSH1 0x20 PUSH1 0x4 DUP3 ADD MSTORE PUSH1 0xF PUSH1 0x24 DUP3 ADD MSTORE PUSH15 0x151C985B9CD9995C8819985A5B1959 PUSH1 0x8A SHL PUSH1 0x44 DUP3 ADD MSTORE PUSH1 0x64 ADD PUSH2 0x93E JUMP JUMPDEST PUSH1 0xF SLOAD PUSH1 0xC SLOAD PUSH1 0x40 DUP1 MLOAD DUP6 DUP2 MSTORE PUSH1 0x20 DUP2 ADD SWAP3 SWAP1 SWAP3 MSTORE PUSH1 0x1 PUSH1 0x1 PUSH1 0xA0 SHL SUB SWAP1 SWAP3 AND SWAP2 PUSH32 0xF0A97973A49275DB27BC3C7D20205D3F004FB1F9E662E879BE26CCAEAD739C08 SWAP2 ADD PUSH2 0xE7B JUMP JUMPDEST PUSH1 0x7 SLOAD PUSH0 SWAP1 PUSH1 0x1 PUSH1 0xB0 SHL SWAP1 DIV PUSH1 0xFF AND PUSH2 0x1067 JUMPI POP PUSH1 0x8 SLOAD SWAP1 JUMP JUMPDEST PUSH1 0x9 SLOAD JUMPDEST SWAP1 POP SWAP1 JUMP JUMPDEST PUSH1 0x2 DUP1 SLOAD PUSH2 0x107D SWAP1 PUSH2 0x2616 JUMP JUMPDEST DUP1 PUSH1 0x1F ADD PUSH1 0x20 DUP1 SWAP2 DIV MUL PUSH1 0x20 ADD PUSH1 0x40 MLOAD SWAP1 DUP2 ADD PUSH1 0x40 MSTORE DUP1 SWAP3 SWAP2 SWAP1 DUP2 DUP2 MSTORE PUSH1 0x20 ADD DUP3 DUP1 SLOAD PUSH2 0x10A9 SWAP1 PUSH2 0x2616 JUMP JUMPDEST DUP1 ISZERO PUSH2 0x10F4 JUMPI DUP1 PUSH1 0x1F LT PUSH2 0x10CB JUMPI PUSH2 0x100 DUP1 DUP4 SLOAD DIV MUL DUP4 MSTORE SWAP2 PUSH1 0x20 ADD SWAP2 PUSH2 0x10F4 JUMP JUMPDEST DUP3 ADD SWAP2 SWAP1 PUSH0 MSTORE PUSH1 0x20 PUSH0 KECCAK256 SWAP1 JUMPDEST DUP2 SLOAD DUP2 MSTORE SWAP1 PUSH1 0x1 ADD SWAP1 PUSH1 0x20 ADD DUP1 DUP4 GT PUSH2 0x10D7 JUMPI DUP3 SWAP1 SUB PUSH1 0x1F AND DUP3 ADD SWAP2 JUMPDEST POP POP POP POP POP DUP2 JUMP JUMPDEST PUSH1 0x7 SLOAD PUSH0 SWAP1 PUSH1 0x1 PUSH1 0xA8 SHL SWAP1 DIV PUSH1 0xFF AND PUSH2 0x114C JUMPI PUSH1 0x40 MLOAD PUSH3 0x461BCD PUSH1 0xE5 SHL DUP2 MSTORE PUSH1 0x20 PUSH1 0x4 DUP3 ADD MSTORE PUSH1 0x12 PUSH1 0x24 DUP3 ADD MSTORE PUSH18 0x15DA5B9B995C881B9BDD081CD95D081E595D PUSH1 0x72 SHL PUSH1 0x44 DUP3 ADD MSTORE PUSH1 0x64 ADD PUSH2 0x93E JUMP JUMPDEST PUSH0 PUSH1 0x9 SLOAD PUSH1 0x8 SLOAD PUSH2 0x115D SWAP2 SWAP1 PUSH2 0x25B3 JUMP JUMPDEST SWAP1 POP PUSH2 0x2710 PUSH2 0x116D PUSH1 0x96 DUP4 PUSH2 0x25C6 JUMP JUMPDEST PUSH2 0x1177 SWAP2 SWAP1 PUSH2 0x25DD JUMP JUMPDEST SWAP2 POP POP SWAP1 JUMP JUMPDEST PUSH2 0x1185 PUSH2 0x226A JUMP JUMPDEST PUSH1 0x7 SLOAD PUSH1 0x1 PUSH1 0xA0 SHL SWAP1 DIV PUSH1 0xFF AND ISZERO PUSH2 0x11D5 JUMPI PUSH1 0x40 MLOAD PUSH3 0x461BCD PUSH1 0xE5 SHL DUP2 MSTORE PUSH1 0x20 PUSH1 0x4 DUP3 ADD MSTORE PUSH1 0x13 PUSH1 0x24 DUP3 ADD MSTORE PUSH19 0x141BDBDB08185B1C9958591E4818DB1BDCD959 PUSH1 0x6A SHL PUSH1 0x44 DUP3 ADD MSTORE PUSH1 0x64 ADD PUSH2 0x93E JUMP JUMPDEST PUSH1 0x7 SLOAD PUSH1 0x1 PUSH1 0xC0 SHL SWAP1 DIV PUSH1 0xFF AND ISZERO PUSH2 0x122F JUMPI PUSH1 0x40 MLOAD PUSH3 0x461BCD PUSH1 0xE5 SHL DUP2 MSTORE PUSH1 0x20 PUSH1 0x4 DUP3 ADD MSTORE PUSH1 0x1D PUSH1 0x24 DUP3 ADD MSTORE PUSH32 0x43616E6E6F7420636C6F736520612063616E63656C6C656420706F6F6C000000 PUSH1 0x44 DUP3 ADD MSTORE PUSH1 0x64 ADD PUSH2 0x93E JUMP JUMPDEST PUSH1 0x7 DUP1 SLOAD PUSH1 0xFF PUSH1 0xA0 SHL NOT AND PUSH1 0x1 PUSH1 0xA0 SHL OR SWAP1 SSTORE JUMP JUMPDEST PUSH2 0x124C PUSH2 0x226A JUMP JUMPDEST PUSH2 0x1255 PUSH0 PUSH2 0x22C3 JUMP JUMPDEST JUMP JUMPDEST PUSH1 0x3 DUP1 SLOAD PUSH2 0x107D SWAP1 PUSH2 0x2616 JUMP JUMPDEST PUSH1 0x7 SLOAD PUSH0 SWAP1 PUSH1 0x1 PUSH1 0xC0 SHL SWAP1 DIV PUSH1 0xFF AND DUP1 ISZERO PUSH2 0x1298 JUMPI POP PUSH1 0x1 PUSH1 0x1 PUSH1 0xA0 SHL SUB DUP3 AND PUSH0 SWAP1 DUP2 MSTORE PUSH1 0xB PUSH1 0x20 MSTORE PUSH1 0x40 SWAP1 KECCAK256 PUSH1 0x1 ADD SLOAD ISZERO ISZERO JUMPDEST DUP1 ISZERO PUSH2 0x12BF JUMPI POP PUSH1 0x1 PUSH1 0x1 PUSH1 0xA0 SHL SUB DUP3 AND PUSH0 SWAP1 DUP2 MSTORE PUSH1 0xB PUSH1 0x20 MSTORE PUSH1 0x40 SWAP1 KECCAK256 PUSH1 0x2 ADD SLOAD PUSH1 0xFF AND ISZERO JUMPDEST SWAP3 SWAP2 POP POP JUMP JUMPDEST PUSH2 0x12CD PUSH2 0x226A JUMP JUMPDEST PUSH1 0x7 SLOAD PUSH1 0x1 PUSH1 0xA0 SHL SWAP1 DIV PUSH1 0xFF AND PUSH2 0x1322 JUMPI PUSH1 0x40 MLOAD PUSH3 0x461BCD PUSH1 0xE5 SHL DUP2 MSTORE PUSH1 0x20 PUSH1 0x4 DUP3 ADD MSTORE PUSH1 0x19 PUSH1 0x24 DUP3 ADD MSTORE PUSH25 0x141BDBDB081B5D5CDD0818994818DB1BDCD95908199A5C9CDD PUSH1 0x3A SHL PUSH1 0x44 DUP3 ADD MSTORE PUSH1 0x64 ADD PUSH2 0x93E JUMP JUMPDEST PUSH1 0x7 SLOAD PUSH1 0x1 PUSH1 0xA8 SHL SWAP1 DIV PUSH1 0xFF AND ISZERO PUSH2 0x1386 JUMPI PUSH1 0x40 MLOAD PUSH3 0x461BCD PUSH1 0xE5 SHL DUP2 MSTORE PUSH1 0x20 PUSH1 0x4 DUP3 ADD MSTORE PUSH1 0x21 PUSH1 0x24 DUP3 ADD MSTORE PUSH32 0x43616E6E6F742072656F70656E2061667465722077696E6E6572206973207365 PUSH1 0x44 DUP3 ADD MSTORE PUSH1 0x1D PUSH1 0xFA SHL PUSH1 0x64 DUP3 ADD MSTORE PUSH1 0x84 ADD PUSH2 0x93E JUMP JUMPDEST PUSH1 0x7 SLOAD PUSH1 0x1 PUSH1 0xC0 SHL SWAP1 DIV PUSH1 0xFF AND ISZERO PUSH2 0x13E0 JUMPI PUSH1 0x40 MLOAD PUSH3 0x461BCD PUSH1 0xE5 SHL DUP2 MSTORE PUSH1 0x20 PUSH1 0x4 DUP3 ADD MSTORE PUSH1 0x1E PUSH1 0x24 DUP3 ADD MSTORE PUSH32 0x43616E6E6F742072656F70656E20612063616E63656C6C656420706F6F6C0000 PUSH1 0x44 DUP3 ADD MSTORE PUSH1 0x64 ADD PUSH2 0x93E JUMP JUMPDEST PUSH1 0x7 DUP1 SLOAD PUSH1 0xFF PUSH1 0xA0 SHL NOT AND SWAP1 SSTORE PUSH1 0x40 MLOAD PUSH32 0xF54F54A062F88FC2B512F355402F79B5856D0A8A037B08C31A94A7E5239528DC SWAP1 PUSH0 SWAP1 LOG1 JUMP JUMPDEST PUSH2 0x141F PUSH2 0x226A JUMP JUMPDEST PUSH1 0x1 PUSH1 0x1 PUSH1 0xA0 SHL SUB DUP2 AND PUSH2 0x1475 JUMPI PUSH1 0x40 MLOAD PUSH3 0x461BCD PUSH1 0xE5 SHL DUP2 MSTORE PUSH1 0x20 PUSH1 0x4 DUP3 ADD MSTORE PUSH1 0x1A PUSH1 0x24 DUP3 ADD MSTORE PUSH32 0x496E76616C6964206665652077616C6C65742061646472657373000000000000 PUSH1 0x44 DUP3 ADD MSTORE PUSH1 0x64 ADD PUSH2 0x93E JUMP JUMPDEST PUSH1 0xF SLOAD PUSH1 0x1 PUSH1 0x1 PUSH1 0xA0 SHL SUB SWAP1 DUP2 AND SWAP1 DUP3 AND SUB PUSH2 0x14D3 JUMPI PUSH1 0x40 MLOAD PUSH3 0x461BCD PUSH1 0xE5 SHL DUP2 MSTORE PUSH1 0x20 PUSH1 0x4 DUP3 ADD MSTORE PUSH1 0x17 PUSH1 0x24 DUP3 ADD MSTORE PUSH32 0x53616D65206665652077616C6C65742061646472657373000000000000000000 PUSH1 0x44 DUP3 ADD MSTORE PUSH1 0x64 ADD PUSH2 0x93E JUMP JUMPDEST PUSH1 0xF DUP1 SLOAD PUSH1 0x1 PUSH1 0x1 PUSH1 0xA0 SHL SUB NOT AND PUSH1 0x1 PUSH1 0x1 PUSH1 0xA0 SHL SUB SWAP3 SWAP1 SWAP3 AND SWAP2 SWAP1 SWAP2 OR SWAP1 SSTORE JUMP JUMPDEST PUSH1 0x7 SLOAD PUSH0 SWAP1 PUSH1 0x1 PUSH1 0xB0 SHL SWAP1 DIV PUSH1 0xFF AND PUSH2 0x150F JUMPI POP PUSH1 0x9 SLOAD SWAP1 JUMP JUMPDEST POP PUSH1 0x8 SLOAD SWAP1 JUMP JUMPDEST PUSH2 0x151E PUSH2 0x226A JUMP JUMPDEST PUSH1 0x7 SLOAD PUSH1 0x1 PUSH1 0xA8 SHL SWAP1 DIV PUSH1 0xFF AND ISZERO PUSH2 0x1582 JUMPI PUSH1 0x40 MLOAD PUSH3 0x461BCD PUSH1 0xE5 SHL DUP2 MSTORE PUSH1 0x20 PUSH1 0x4 DUP3 ADD MSTORE PUSH1 0x21 PUSH1 0x24 DUP3 ADD MSTORE PUSH32 0x43616E6E6F742063616E63656C2061667465722077696E6E6572206973207365 PUSH1 0x44 DUP3 ADD MSTORE PUSH1 0x1D PUSH1 0xFA SHL PUSH1 0x64 DUP3 ADD MSTORE PUSH1 0x84 ADD PUSH2 0x93E JUMP JUMPDEST PUSH1 0x7 SLOAD PUSH1 0x1 PUSH1 0xC0 SHL SWAP1 DIV PUSH1 0xFF AND ISZERO PUSH2 0x15D5 JUMPI PUSH1 0x40 MLOAD PUSH3 0x461BCD PUSH1 0xE5 SHL DUP2 MSTORE PUSH1 0x20 PUSH1 0x4 DUP3 ADD MSTORE PUSH1 0x16 PUSH1 0x24 DUP3 ADD MSTORE PUSH22 0x141BDBDB08185B1C9958591E4818D85B98D95B1B1959 PUSH1 0x52 SHL PUSH1 0x44 DUP3 ADD MSTORE PUSH1 0x64 ADD PUSH2 0x93E JUMP JUMPDEST PUSH1 0x7 DUP1 SLOAD PUSH1 0xFF PUSH1 0xC0 SHL NOT AND PUSH1 0x1 PUSH1 0xC0 SHL OR SWAP1 SSTORE PUSH1 0x40 MLOAD PUSH32 0xB8201D4FE5C71CC4BF444ACAF4124EDF462BDA026C79355261A71D9F40D5CD0A SWAP1 PUSH2 0x1618 SWAP1 DUP4 SWAP1 PUSH2 0x24E1 JUMP JUMPDEST PUSH1 0x40 MLOAD DUP1 SWAP2 SUB SWAP1 LOG1 POP JUMP JUMPDEST PUSH2 0x162B PUSH2 0x2312 JUMP JUMPDEST PUSH1 0x7 SLOAD PUSH1 0x1 PUSH1 0xA8 SHL SWAP1 DIV PUSH1 0xFF AND PUSH2 0x1679 JUMPI PUSH1 0x40 MLOAD PUSH3 0x461BCD PUSH1 0xE5 SHL DUP2 MSTORE PUSH1 0x20 PUSH1 0x4 DUP3 ADD MSTORE PUSH1 0x12 PUSH1 0x24 DUP3 ADD MSTORE PUSH18 0x15DA5B9B995C881B9BDD081CD95D081E595D PUSH1 0x72 SHL PUSH1 0x44 DUP3 ADD MSTORE PUSH1 0x64 ADD PUSH2 0x93E JUMP JUMPDEST CALLER PUSH0 SWAP1 DUP2 MSTORE PUSH1 0xB PUSH1 0x20 MSTORE PUSH1 0x40 SWAP1 KECCAK256 PUSH1 0x1 ADD SLOAD PUSH2 0x16C7 JUMPI PUSH1 0x40 MLOAD PUSH3 0x461BCD PUSH1 0xE5 SHL DUP2 MSTORE PUSH1 0x20 PUSH1 0x4 DUP3 ADD MSTORE PUSH1 0xD PUSH1 0x24 DUP3 ADD MSTORE PUSH13 0x139BC818995D081C1B1858D959 PUSH1 0x9A SHL PUSH1 0x44 DUP3 ADD MSTORE PUSH1 0x64 ADD PUSH2 0x93E JUMP JUMPDEST CALLER PUSH0 SWAP1 DUP2 MSTORE PUSH1 0xB PUSH1 0x20 MSTORE PUSH1 0x40 SWAP1 KECCAK256 PUSH1 0x2 ADD SLOAD PUSH1 0xFF AND ISZERO PUSH2 0x171B JUMPI PUSH1 0x40 MLOAD PUSH3 0x461BCD PUSH1 0xE5 SHL DUP2 MSTORE PUSH1 0x20 PUSH1 0x4 DUP3 ADD MSTORE PUSH1 0xF PUSH1 0x24 DUP3 ADD MSTORE PUSH15 0x105B1C9958591E4818DB185A5B5959 PUSH1 0x8A SHL PUSH1 0x44 DUP3 ADD MSTORE PUSH1 0x64 ADD PUSH2 0x93E JUMP JUMPDEST PUSH1 0x7 SLOAD CALLER PUSH0 SWAP1 DUP2 MSTORE PUSH1 0xB PUSH1 0x20 MSTORE PUSH1 0x40 SWAP1 KECCAK256 SLOAD PUSH1 0xFF SWAP1 DUP2 AND ISZERO ISZERO PUSH1 0x1 PUSH1 0xB0 SHL SWAP1 SWAP3 DIV AND ISZERO ISZERO EQ PUSH2 0x1780 JUMPI PUSH1 0x40 MLOAD PUSH3 0x461BCD PUSH1 0xE5 SHL DUP2 MSTORE PUSH1 0x20 PUSH1 0x4 DUP3 ADD MSTORE PUSH1 0x11 PUSH1 0x24 DUP3 ADD MSTORE PUSH17 0x139BDD0818481DDA5B9B9A5B99C818995D PUSH1 0x7A SHL PUSH1 0x44 DUP3 ADD MSTORE PUSH1 0x64 ADD PUSH2 0x93E JUMP JUMPDEST CALLER PUSH0 SWAP1 DUP2 MSTORE PUSH1 0xB PUSH1 0x20 MSTORE PUSH1 0x40 DUP2 KECCAK256 PUSH1 0x2 DUP2 ADD DUP1 SLOAD PUSH1 0xFF NOT AND PUSH1 0x1 SWAP1 DUP2 OR SWAP1 SWAP2 SSTORE ADD SLOAD PUSH1 0x7 SLOAD SWAP1 SWAP2 SWAP1 PUSH1 0x1 PUSH1 0xB0 SHL SWAP1 DIV PUSH1 0xFF AND PUSH2 0x17BE JUMPI PUSH1 0x9 SLOAD PUSH2 0x17C2 JUMP JUMPDEST PUSH1 0x8 SLOAD JUMPDEST SWAP1 POP PUSH0 PUSH1 0x9 SLOAD PUSH1 0x8 SLOAD PUSH2 0x17D5 SWAP2 SWAP1 PUSH2 0x25B3 JUMP JUMPDEST SWAP1 POP PUSH0 PUSH2 0x2710 PUSH2 0x17E6 PUSH1 0x96 DUP5 PUSH2 0x25C6 JUMP JUMPDEST PUSH2 0x17F0 SWAP2 SWAP1 PUSH2 0x25DD JUMP JUMPDEST SWAP1 POP PUSH0 PUSH2 0x17FD DUP3 DUP5 PUSH2 0x272D JUMP JUMPDEST SWAP1 POP PUSH0 DUP5 PUSH2 0x180B DUP4 DUP9 PUSH2 0x25C6 JUMP JUMPDEST PUSH2 0x1815 SWAP2 SWAP1 PUSH2 0x25DD JUMP JUMPDEST SWAP1 POP PUSH0 DUP4 GT DUP1 ISZERO PUSH2 0x1850 JUMPI POP PUSH0 DUP1 MSTORE PUSH1 0xD PUSH1 0x20 MSTORE PUSH32 0x81955A0A11E65EAC625C29E8882660BAE4E165A75D72780094ACAE8ECE9A29EE SLOAD PUSH1 0xFF AND ISZERO JUMPDEST ISZERO PUSH2 0x1B7B JUMPI PUSH0 PUSH1 0x11 SLOAD GT DUP1 ISZERO PUSH2 0x1870 JUMPI POP PUSH1 0x10 SLOAD PUSH1 0x1 PUSH1 0x1 PUSH1 0xA0 SHL SUB AND ISZERO ISZERO JUMPDEST ISZERO PUSH2 0x1A6C JUMPI PUSH0 PUSH2 0x2710 PUSH1 0x11 SLOAD PUSH2 0x2710 PUSH2 0x1889 SWAP2 SWAP1 PUSH2 0x272D JUMP JUMPDEST PUSH2 0x1893 SWAP1 DUP7 PUSH2 0x25C6 JUMP JUMPDEST PUSH2 0x189D SWAP2 SWAP1 PUSH2 0x25DD JUMP JUMPDEST SWAP1 POP PUSH0 PUSH2 0x18AA DUP3 DUP7 PUSH2 0x272D JUMP JUMPDEST PUSH1 0xF SLOAD PUSH1 0x40 MLOAD SWAP2 SWAP3 POP PUSH0 SWAP2 PUSH1 0x1 PUSH1 0x1 PUSH1 0xA0 SHL SUB SWAP1 SWAP2 AND SWAP1 DUP5 SWAP1 DUP4 DUP2 DUP2 DUP2 DUP6 DUP8 GAS CALL SWAP3 POP POP POP RETURNDATASIZE DUP1 PUSH0 DUP2 EQ PUSH2 0x18F9 JUMPI PUSH1 0x40 MLOAD SWAP2 POP PUSH1 0x1F NOT PUSH1 0x3F RETURNDATASIZE ADD AND DUP3 ADD PUSH1 0x40 MSTORE RETURNDATASIZE DUP3 MSTORE RETURNDATASIZE PUSH0 PUSH1 0x20 DUP5 ADD RETURNDATACOPY PUSH2 0x18FE JUMP JUMPDEST PUSH1 0x60 SWAP2 POP JUMPDEST POP POP SWAP1 POP DUP1 PUSH2 0x1947 JUMPI PUSH1 0x40 MLOAD PUSH3 0x461BCD PUSH1 0xE5 SHL DUP2 MSTORE PUSH1 0x20 PUSH1 0x4 DUP3 ADD MSTORE PUSH1 0x15 PUSH1 0x24 DUP3 ADD MSTORE PUSH21 0x119959481D1C985B9CD9995C880C4819985A5B1959 PUSH1 0x5A SHL PUSH1 0x44 DUP3 ADD MSTORE PUSH1 0x64 ADD PUSH2 0x93E JUMP JUMPDEST PUSH1 0x10 SLOAD PUSH1 0x40 MLOAD PUSH0 SWAP2 PUSH1 0x1 PUSH1 0x1 PUSH1 0xA0 SHL SUB AND SWAP1 DUP5 SWAP1 DUP4 DUP2 DUP2 DUP2 DUP6 DUP8 GAS CALL SWAP3 POP POP POP RETURNDATASIZE DUP1 PUSH0 DUP2 EQ PUSH2 0x1991 JUMPI PUSH1 0x40 MLOAD SWAP2 POP PUSH1 0x1F NOT PUSH1 0x3F RETURNDATASIZE ADD AND DUP3 ADD PUSH1 0x40 MSTORE RETURNDATASIZE DUP3 MSTORE RETURNDATASIZE PUSH0 PUSH1 0x20 DUP5 ADD RETURNDATACOPY PUSH2 0x1996 JUMP JUMPDEST PUSH1 0x60 SWAP2 POP JUMPDEST POP POP SWAP1 POP DUP1 PUSH2 0x19DF JUMPI PUSH1 0x40 MLOAD PUSH3 0x461BCD PUSH1 0xE5 SHL DUP2 MSTORE PUSH1 0x20 PUSH1 0x4 DUP3 ADD MSTORE PUSH1 0x15 PUSH1 0x24 DUP3 ADD MSTORE PUSH21 0x119959481D1C985B9CD9995C880C8819985A5B1959 PUSH1 0x5A SHL PUSH1 0x44 DUP3 ADD MSTORE PUSH1 0x64 ADD PUSH2 0x93E JUMP JUMPDEST PUSH1 0xF SLOAD PUSH1 0x40 MLOAD DUP6 DUP2 MSTORE PUSH1 0x1 PUSH1 0x1 PUSH1 0xA0 SHL SUB SWAP1 SWAP2 AND SWAP1 PUSH32 0x34E8A84E537ED93D93DDF39A78816DCBC74DF8397C635838B8CC973D4FA943F8 SWAP1 PUSH1 0x20 ADD PUSH1 0x40 MLOAD DUP1 SWAP2 SUB SWAP1 LOG2 PUSH1 0x10 SLOAD PUSH1 0x40 MLOAD DUP5 DUP2 MSTORE PUSH1 0x1 PUSH1 0x1 PUSH1 0xA0 SHL SUB SWAP1 SWAP2 AND SWAP1 PUSH32 0x34E8A84E537ED93D93DDF39A78816DCBC74DF8397C635838B8CC973D4FA943F8 SWAP1 PUSH1 0x20 ADD PUSH1 0x40 MLOAD DUP1 SWAP2 SUB SWAP1 LOG2 POP POP POP POP PUSH2 0x1B46 JUMP JUMPDEST PUSH1 0xF SLOAD PUSH1 0x40 MLOAD PUSH0 SWAP2 PUSH1 0x1 PUSH1 0x1 PUSH1 0xA0 SHL SUB AND SWAP1 DUP6 SWAP1 DUP4 DUP2 DUP2 DUP2 DUP6 DUP8 GAS CALL SWAP3 POP POP POP RETURNDATASIZE DUP1 PUSH0 DUP2 EQ PUSH2 0x1AB6 JUMPI PUSH1 0x40 MLOAD SWAP2 POP PUSH1 0x1F NOT PUSH1 0x3F RETURNDATASIZE ADD AND DUP3 ADD PUSH1 0x40 MSTORE RETURNDATASIZE DUP3 MSTORE RETURNDATASIZE PUSH0 PUSH1 0x20 DUP5 ADD RETURNDATACOPY PUSH2 0x1ABB JUMP JUMPDEST PUSH1 0x60 SWAP2 POP JUMPDEST POP POP SWAP1 POP DUP1 PUSH2 0x1B02 JUMPI PUSH1 0x40 MLOAD PUSH3 0x461BCD PUSH1 0xE5 SHL DUP2 MSTORE PUSH1 0x20 PUSH1 0x4 DUP3 ADD MSTORE PUSH1 0x13 PUSH1 0x24 DUP3 ADD MSTORE PUSH19 0x119959481D1C985B9CD9995C8819985A5B1959 PUSH1 0x6A SHL PUSH1 0x44 DUP3 ADD MSTORE PUSH1 0x64 ADD PUSH2 0x93E JUMP JUMPDEST PUSH1 0xF SLOAD PUSH1 0x40 MLOAD DUP6 DUP2 MSTORE PUSH1 0x1 PUSH1 0x1 PUSH1 0xA0 SHL SUB SWAP1 SWAP2 AND SWAP1 PUSH32 0x34E8A84E537ED93D93DDF39A78816DCBC74DF8397C635838B8CC973D4FA943F8 SWAP1 PUSH1 0x20 ADD PUSH1 0x40 MLOAD DUP1 SWAP2 SUB SWAP1 LOG2 POP JUMPDEST PUSH0 DUP1 MSTORE PUSH1 0xD PUSH1 0x20 MSTORE PUSH32 0x81955A0A11E65EAC625C29E8882660BAE4E165A75D72780094ACAE8ECE9A29EE DUP1 SLOAD PUSH1 0xFF NOT AND PUSH1 0x1 OR SWAP1 SSTORE JUMPDEST PUSH1 0x40 MLOAD PUSH0 SWAP1 CALLER SWAP1 DUP4 SWAP1 DUP4 DUP2 DUP2 DUP2 DUP6 DUP8 GAS CALL SWAP3 POP POP POP RETURNDATASIZE DUP1 PUSH0 DUP2 EQ PUSH2 0x1BBA JUMPI PUSH1 0x40 MLOAD SWAP2 POP PUSH1 0x1F NOT PUSH1 0x3F RETURNDATASIZE ADD AND DUP3 ADD PUSH1 0x40 MSTORE RETURNDATASIZE DUP3 MSTORE RETURNDATASIZE PUSH0 PUSH1 0x20 DUP5 ADD RETURNDATACOPY PUSH2 0x1BBF JUMP JUMPDEST PUSH1 0x60 SWAP2 POP JUMPDEST POP POP SWAP1 POP DUP1 PUSH2 0x1C09 JUMPI PUSH1 0x40 MLOAD PUSH3 0x461BCD PUSH1 0xE5 SHL DUP2 MSTORE PUSH1 0x20 PUSH1 0x4 DUP3 ADD MSTORE PUSH1 0x16 PUSH1 0x24 DUP3 ADD MSTORE PUSH22 0x14995DD85C99081D1C985B9CD9995C8819985A5B1959 PUSH1 0x52 SHL PUSH1 0x44 DUP3 ADD MSTORE PUSH1 0x64 ADD PUSH2 0x93E JUMP JUMPDEST DUP2 PUSH1 0xE PUSH0 DUP3 DUP3 SLOAD PUSH2 0x1C1A SWAP2 SWAP1 PUSH2 0x25B3 JUMP JUMPDEST SWAP1 SWAP2 SSTORE POP POP PUSH1 0x40 MLOAD DUP3 DUP2 MSTORE CALLER SWAP1 PUSH32 0x106F923F993C2149D49B4255FF723ACAFA1F2D94393F561D3EDA32AE348F7241 SWAP1 PUSH1 0x20 ADD PUSH1 0x40 MLOAD DUP1 SWAP2 SUB SWAP1 LOG2 POP POP POP POP POP POP POP PUSH2 0x1255 PUSH1 0x1 DUP1 SSTORE JUMP JUMPDEST PUSH2 0x1C6C PUSH2 0x2312 JUMP JUMPDEST PUSH1 0x7 SLOAD PUSH1 0x1 PUSH1 0xC0 SHL SWAP1 DIV PUSH1 0xFF AND PUSH2 0x1CBA JUMPI PUSH1 0x40 MLOAD PUSH3 0x461BCD PUSH1 0xE5 SHL DUP2 MSTORE PUSH1 0x20 PUSH1 0x4 DUP3 ADD MSTORE PUSH1 0x12 PUSH1 0x24 DUP3 ADD MSTORE PUSH18 0x141BDBDB081B9BDD0818D85B98D95B1B1959 PUSH1 0x72 SHL PUSH1 0x44 DUP3 ADD MSTORE PUSH1 0x64 ADD PUSH2 0x93E JUMP JUMPDEST CALLER PUSH0 SWAP1 DUP2 MSTORE PUSH1 0xB PUSH1 0x20 MSTORE PUSH1 0x40 SWAP1 KECCAK256 PUSH1 0x1 ADD SLOAD PUSH2 0x1D08 JUMPI PUSH1 0x40 MLOAD PUSH3 0x461BCD PUSH1 0xE5 SHL DUP2 MSTORE PUSH1 0x20 PUSH1 0x4 DUP3 ADD MSTORE PUSH1 0xD PUSH1 0x24 DUP3 ADD MSTORE PUSH13 0x139BC818995D081C1B1858D959 PUSH1 0x9A SHL PUSH1 0x44 DUP3 ADD MSTORE PUSH1 0x64 ADD PUSH2 0x93E JUMP JUMPDEST CALLER PUSH0 SWAP1 DUP2 MSTORE PUSH1 0xB PUSH1 0x20 MSTORE PUSH1 0x40 SWAP1 KECCAK256 PUSH1 0x2 ADD SLOAD PUSH1 0xFF AND ISZERO PUSH2 0x1D5C JUMPI PUSH1 0x40 MLOAD PUSH3 0x461BCD PUSH1 0xE5 SHL DUP2 MSTORE PUSH1 0x20 PUSH1 0x4 DUP3 ADD MSTORE PUSH1 0xF PUSH1 0x24 DUP3 ADD MSTORE PUSH15 0x105B1C9958591E4818DB185A5B5959 PUSH1 0x8A SHL PUSH1 0x44 DUP3 ADD MSTORE PUSH1 0x64 ADD PUSH2 0x93E JUMP JUMPDEST CALLER PUSH0 DUP2 DUP2 MSTORE PUSH1 0xB PUSH1 0x20 MSTORE PUSH1 0x40 DUP1 DUP3 KECCAK256 PUSH1 0x2 DUP2 ADD DUP1 SLOAD PUSH1 0xFF NOT AND PUSH1 0x1 SWAP1 DUP2 OR SWAP1 SWAP2 SSTORE ADD SLOAD SWAP1 MLOAD SWAP1 SWAP3 SWAP1 DUP4 SWAP1 DUP4 DUP2 DUP2 DUP2 DUP6 DUP8 GAS CALL SWAP3 POP POP POP RETURNDATASIZE DUP1 PUSH0 DUP2 EQ PUSH2 0x1DBC JUMPI PUSH1 0x40 MLOAD SWAP2 POP PUSH1 0x1F NOT PUSH1 0x3F RETURNDATASIZE ADD AND DUP3 ADD PUSH1 0x40 MSTORE RETURNDATASIZE DUP3 MSTORE RETURNDATASIZE PUSH0 PUSH1 0x20 DUP5 ADD RETURNDATACOPY PUSH2 0x1DC1 JUMP JUMPDEST PUSH1 0x60 SWAP2 POP JUMPDEST POP POP SWAP1 POP DUP1 PUSH2 0x1E0B JUMPI PUSH1 0x40 MLOAD PUSH3 0x461BCD PUSH1 0xE5 SHL DUP2 MSTORE PUSH1 0x20 PUSH1 0x4 DUP3 ADD MSTORE PUSH1 0x16 PUSH1 0x24 DUP3 ADD MSTORE PUSH22 0x1499599D5B99081D1C985B9CD9995C8819985A5B1959 PUSH1 0x52 SHL PUSH1 0x44 DUP3 ADD MSTORE PUSH1 0x64 ADD PUSH2 0x93E JUMP JUMPDEST PUSH1 0x40 MLOAD DUP3 DUP2 MSTORE CALLER SWAP1 PUSH32 0x358FE4192934D3BF28AE181FEDA1F4BD08CA67F5E2FAD55582CCE5EB67304AE9 SWAP1 PUSH1 0x20 ADD PUSH1 0x40 MLOAD DUP1 SWAP2 SUB SWAP1 LOG2 POP POP PUSH2 0x1255 PUSH1 0x1 DUP1 SSTORE JUMP JUMPDEST PUSH2 0x1E53 PUSH2 0x226A JUMP JUMPDEST PUSH1 0x1 PUSH1 0x1 PUSH1 0xA0 SHL SUB DUP2 AND PUSH2 0x1EA9 JUMPI PUSH1 0x40 MLOAD PUSH3 0x461BCD PUSH1 0xE5 SHL DUP2 MSTORE PUSH1 0x20 PUSH1 0x4 DUP3 ADD MSTORE PUSH1 0x1A PUSH1 0x24 DUP3 ADD MSTORE PUSH32 0x496E76616C6964206665652077616C6C65742061646472657373000000000000 PUSH1 0x44 DUP3 ADD MSTORE PUSH1 0x64 ADD PUSH2 0x93E JUMP JUMPDEST PUSH1 0x10 DUP1 SLOAD PUSH1 0x1 PUSH1 0x1 PUSH1 0xA0 SHL SUB NOT AND PUSH1 0x1 PUSH1 0x1 PUSH1 0xA0 SHL SUB SWAP3 SWAP1 SWAP3 AND SWAP2 SWAP1 SWAP2 OR SWAP1 SSTORE JUMP JUMPDEST PUSH2 0x1ED3 PUSH2 0x226A JUMP JUMPDEST PUSH1 0x7 SLOAD PUSH1 0x1 PUSH1 0xC0 SHL SWAP1 DIV PUSH1 0xFF AND ISZERO PUSH2 0x1F46 JUMPI PUSH1 0x40 MLOAD PUSH3 0x461BCD PUSH1 0xE5 SHL DUP2 MSTORE PUSH1 0x20 PUSH1 0x4 DUP3 ADD MSTORE PUSH1 0x30 PUSH1 0x24 DUP3 ADD MSTORE PUSH32 0x43616E6E6F7420746F67676C6520656D657267656E63792073746F70206F6E20 PUSH1 0x44 DUP3 ADD MSTORE PUSH16 0x184818D85B98D95B1B1959081C1BDBDB PUSH1 0x82 SHL PUSH1 0x64 DUP3 ADD MSTORE PUSH1 0x84 ADD PUSH2 0x93E JUMP JUMPDEST PUSH1 0x7 DUP1 SLOAD DUP3 ISZERO ISZERO PUSH1 0x1 PUSH1 0xB8 SHL MUL PUSH1 0xFF PUSH1 0xB8 SHL NOT SWAP1 SWAP2 AND OR SWAP1 SSTORE PUSH1 0x40 MLOAD PUSH32 0x5B88D23D9A60B7924FCCC370E1E0C1CCF49989E3B2968CAFAF7DB7FC13BD13F SWAP1 PUSH2 0x1618 SWAP1 DUP4 ISZERO ISZERO DUP2 MSTORE PUSH1 0x20 ADD SWAP1 JUMP JUMPDEST PUSH2 0x1F9B PUSH2 0x226A JUMP JUMPDEST PUSH2 0x2710 DUP2 GT ISZERO PUSH2 0x1FE2 JUMPI PUSH1 0x40 MLOAD PUSH3 0x461BCD PUSH1 0xE5 SHL DUP2 MSTORE PUSH1 0x20 PUSH1 0x4 DUP3 ADD MSTORE PUSH1 0x12 PUSH1 0x24 DUP3 ADD MSTORE PUSH18 0x496E76616C69642070657263656E74616765 PUSH1 0x70 SHL PUSH1 0x44 DUP3 ADD MSTORE PUSH1 0x64 ADD PUSH2 0x93E JUMP JUMPDEST PUSH1 0x11 SSTORE JUMP JUMPDEST PUSH1 0x7 SLOAD PUSH0 SWAP1 PUSH1 0x1 PUSH1 0xA0 SHL SWAP1 DIV PUSH1 0xFF AND ISZERO DUP1 ISZERO PUSH2 0x200D JUMPI POP PUSH1 0x7 SLOAD PUSH1 0x1 PUSH1 0xB8 SHL SWAP1 DIV PUSH1 0xFF AND ISZERO JUMPDEST DUP1 ISZERO PUSH2 0x2023 JUMPI POP PUSH1 0x7 SLOAD PUSH1 0x1 PUSH1 0xC0 SHL SWAP1 DIV PUSH1 0xFF AND ISZERO JUMPDEST DUP1 ISZERO PUSH2 0x106B JUMPI POP POP PUSH1 0x5 SLOAD TIMESTAMP LT SWAP1 JUMP JUMPDEST PUSH1 0x4 DUP1 SLOAD PUSH2 0x107D SWAP1 PUSH2 0x2616 JUMP JUMPDEST PUSH2 0x2048 PUSH2 0x226A JUMP JUMPDEST PUSH1 0x7 SLOAD PUSH1 0x1 PUSH1 0xA0 SHL SWAP1 DIV PUSH1 0xFF AND PUSH2 0x209D JUMPI PUSH1 0x40 MLOAD PUSH3 0x461BCD PUSH1 0xE5 SHL DUP2 MSTORE PUSH1 0x20 PUSH1 0x4 DUP3 ADD MSTORE PUSH1 0x19 PUSH1 0x24 DUP3 ADD MSTORE PUSH25 0x141BDBDB081B5D5CDD0818994818DB1BDCD95908199A5C9CDD PUSH1 0x3A SHL PUSH1 0x44 DUP3 ADD MSTORE PUSH1 0x64 ADD PUSH2 0x93E JUMP JUMPDEST PUSH1 0x7 SLOAD PUSH1 0x1 PUSH1 0xA8 SHL SWAP1 DIV PUSH1 0xFF AND ISZERO PUSH2 0x20EC JUMPI PUSH1 0x40 MLOAD PUSH3 0x461BCD PUSH1 0xE5 SHL DUP2 MSTORE PUSH1 0x20 PUSH1 0x4 DUP3 ADD MSTORE PUSH1 0x12 PUSH1 0x24 DUP3 ADD MSTORE PUSH18 0x15DA5B9B995C88185B1C9958591E481CD95D PUSH1 0x72 SHL PUSH1 0x44 DUP3 ADD MSTORE PUSH1 0x64 ADD PUSH2 0x93E JUMP JUMPDEST PUSH1 0x7 DUP1 SLOAD PUSH1 0xFF PUSH1 0xA8 SHL NOT DUP4 ISZERO ISZERO PUSH1 0x1 PUSH1 0xB0 SHL MUL AND PUSH2 0xFFFF PUSH1 0xA8 SHL NOT SWAP1 SWAP2 AND OR PUSH1 0x1 PUSH1 0xA8 SHL OR SWAP1 SSTORE PUSH0 DUP2 PUSH2 0x213D JUMPI PUSH1 0x40 MLOAD DUP1 PUSH1 0x40 ADD PUSH1 0x40 MSTORE DUP1 PUSH1 0x6 DUP2 MSTORE PUSH1 0x20 ADD PUSH6 0x2727903BB7B7 PUSH1 0xD1 SHL DUP2 MSTORE POP PUSH2 0x215E JUMP JUMPDEST PUSH1 0x40 MLOAD DUP1 PUSH1 0x40 ADD PUSH1 0x40 MSTORE DUP1 PUSH1 0x7 DUP2 MSTORE PUSH1 0x20 ADD PUSH7 0x2CA2A9903BB7B7 PUSH1 0xC9 SHL DUP2 MSTORE POP JUMPDEST SWAP1 POP PUSH32 0x9F1ED7EC730B47AA440B5EDE52772362BE32571A818CD31AC36A295E8393B98E DUP3 DUP3 PUSH1 0x40 MLOAD PUSH2 0x9EF SWAP3 SWAP2 SWAP1 PUSH2 0x25FC JUMP JUMPDEST PUSH2 0x2199 PUSH2 0x226A JUMP JUMPDEST PUSH1 0x1 PUSH1 0x1 PUSH1 0xA0 SHL SUB DUP2 AND PUSH2 0x21FE JUMPI PUSH1 0x40 MLOAD PUSH3 0x461BCD PUSH1 0xE5 SHL DUP2 MSTORE PUSH1 0x20 PUSH1 0x4 DUP3 ADD MSTORE PUSH1 0x26 PUSH1 0x24 DUP3 ADD MSTORE PUSH32 0x4F776E61626C653A206E6577206F776E657220697320746865207A65726F2061 PUSH1 0x44 DUP3 ADD MSTORE PUSH6 0x646472657373 PUSH1 0xD0 SHL PUSH1 0x64 DUP3 ADD MSTORE PUSH1 0x84 ADD PUSH2 0x93E JUMP JUMPDEST PUSH2 0x2207 DUP2 PUSH2 0x22C3 JUMP JUMPDEST POP JUMP JUMPDEST PUSH1 0x60 PUSH1 0xC DUP1 SLOAD DUP1 PUSH1 0x20 MUL PUSH1 0x20 ADD PUSH1 0x40 MLOAD SWAP1 DUP2 ADD PUSH1 0x40 MSTORE DUP1 SWAP3 SWAP2 SWAP1 DUP2 DUP2 MSTORE PUSH1 0x20 ADD DUP3 DUP1 SLOAD DUP1 ISZERO PUSH2 0x2260 JUMPI PUSH1 0x20 MUL DUP3 ADD SWAP2 SWAP1 PUSH0 MSTORE PUSH1 0x20 PUSH0 KECCAK256 SWAP1 JUMPDEST DUP2 SLOAD PUSH1 0x1 PUSH1 0x1 PUSH1 0xA0 SHL SUB AND DUP2 MSTORE PUSH1 0x1 SWAP1 SWAP2 ADD SWAP1 PUSH1 0x20 ADD DUP1 DUP4 GT PUSH2 0x2242 JUMPI JUMPDEST POP POP POP POP POP SWAP1 POP SWAP1 JUMP JUMPDEST PUSH0 SLOAD PUSH1 0x1 PUSH1 0x1 PUSH1 0xA0 SHL SUB AND CALLER EQ PUSH2 0x1255 JUMPI PUSH1 0x40 MLOAD PUSH3 0x461BCD PUSH1 0xE5 SHL DUP2 MSTORE PUSH1 0x20 PUSH1 0x4 DUP3 ADD DUP2 SWAP1 MSTORE PUSH1 0x24 DUP3 ADD MSTORE PUSH32 0x4F776E61626C653A2063616C6C6572206973206E6F7420746865206F776E6572 PUSH1 0x44 DUP3 ADD MSTORE PUSH1 0x64 ADD PUSH2 0x93E JUMP JUMPDEST PUSH0 DUP1 SLOAD PUSH1 0x1 PUSH1 0x1 PUSH1 0xA0 SHL SUB DUP4 DUP2 AND PUSH1 0x1 PUSH1 0x1 PUSH1 0xA0 SHL SUB NOT DUP4 AND DUP2 OR DUP5 SSTORE PUSH1 0x40 MLOAD SWAP2 SWAP1 SWAP3 AND SWAP3 DUP4 SWAP2 PUSH32 0x8BE0079C531659141344CD1FD0A4F28419497F9722A3DAAFE3B4186F6B6457E0 SWAP2 SWAP1 LOG3 POP POP JUMP JUMPDEST PUSH1 0x2 PUSH1 0x1 SLOAD SUB PUSH2 0x2364 JUMPI PUSH1 0x40 MLOAD PUSH3 0x461BCD PUSH1 0xE5 SHL DUP2 MSTORE PUSH1 0x20 PUSH1 0x4 DUP3 ADD MSTORE PUSH1 0x1F PUSH1 0x24 DUP3 ADD MSTORE PUSH32 0x5265656E7472616E637947756172643A207265656E7472616E742063616C6C00 PUSH1 0x44 DUP3 ADD MSTORE PUSH1 0x64 ADD PUSH2 0x93E JUMP JUMPDEST PUSH1 0x2 PUSH1 0x1 SSTORE JUMP JUMPDEST DUP1 CALLDATALOAD DUP1 ISZERO ISZERO DUP2 EQ PUSH2 0x237A JUMPI PUSH0 DUP1 REVERT JUMPDEST SWAP2 SWAP1 POP JUMP JUMPDEST PUSH4 0x4E487B71 PUSH1 0xE0 SHL PUSH0 MSTORE PUSH1 0x41 PUSH1 0x4 MSTORE PUSH1 0x24 PUSH0 REVERT JUMPDEST PUSH0 DUP3 PUSH1 0x1F DUP4 ADD SLT PUSH2 0x23A2 JUMPI PUSH0 DUP1 REVERT JUMPDEST DUP2 CALLDATALOAD PUSH8 0xFFFFFFFFFFFFFFFF DUP1 DUP3 GT ISZERO PUSH2 0x23BD JUMPI PUSH2 0x23BD PUSH2 0x237F JUMP JUMPDEST PUSH1 0x40 MLOAD PUSH1 0x1F DUP4 ADD PUSH1 0x1F NOT SWAP1 DUP2 AND PUSH1 0x3F ADD AND DUP2 ADD SWAP1 DUP3 DUP3 GT DUP2 DUP4 LT OR ISZERO PUSH2 0x23E5 JUMPI PUSH2 0x23E5 PUSH2 0x237F JUMP JUMPDEST DUP2 PUSH1 0x40 MSTORE DUP4 DUP2 MSTORE DUP7 PUSH1 0x20 DUP6 DUP9 ADD ADD GT ISZERO PUSH2 0x23FD JUMPI PUSH0 DUP1 REVERT JUMPDEST DUP4 PUSH1 0x20 DUP8 ADD PUSH1 0x20 DUP4 ADD CALLDATACOPY PUSH0 PUSH1 0x20 DUP6 DUP4 ADD ADD MSTORE DUP1 SWAP5 POP POP POP POP POP SWAP3 SWAP2 POP POP JUMP JUMPDEST PUSH0 DUP1 PUSH1 0x40 DUP4 DUP6 SUB SLT ISZERO PUSH2 0x242D JUMPI PUSH0 DUP1 REVERT JUMPDEST PUSH2 0x2436 DUP4 PUSH2 0x236B JUMP JUMPDEST SWAP2 POP PUSH1 0x20 DUP4 ADD CALLDATALOAD PUSH8 0xFFFFFFFFFFFFFFFF DUP2 GT ISZERO PUSH2 0x2451 JUMPI PUSH0 DUP1 REVERT JUMPDEST PUSH2 0x245D DUP6 DUP3 DUP7 ADD PUSH2 0x2393 JUMP JUMPDEST SWAP2 POP POP SWAP3 POP SWAP3 SWAP1 POP JUMP JUMPDEST PUSH0 PUSH1 0x20 DUP3 DUP5 SUB SLT ISZERO PUSH2 0x2477 JUMPI PUSH0 DUP1 REVERT JUMPDEST PUSH2 0x2480 DUP3 PUSH2 0x236B JUMP JUMPDEST SWAP4 SWAP3 POP POP POP JUMP JUMPDEST PUSH0 PUSH1 0x20 DUP3 DUP5 SUB SLT ISZERO PUSH2 0x2497 JUMPI PUSH0 DUP1 REVERT JUMPDEST POP CALLDATALOAD SWAP2 SWAP1 POP JUMP JUMPDEST PUSH0 DUP2 MLOAD DUP1 DUP5 MSTORE PUSH0 JUMPDEST DUP2 DUP2 LT ISZERO PUSH2 0x24C2 JUMPI PUSH1 0x20 DUP2 DUP6 ADD DUP2 ADD MLOAD DUP7 DUP4 ADD DUP3 ADD MSTORE ADD PUSH2 0x24A6 JUMP JUMPDEST POP PUSH0 PUSH1 0x20 DUP3 DUP7 ADD ADD MSTORE PUSH1 0x20 PUSH1 0x1F NOT PUSH1 0x1F DUP4 ADD AND DUP6 ADD ADD SWAP2 POP POP SWAP3 SWAP2 POP POP JUMP JUMPDEST PUSH1 0x20 DUP2 MSTORE PUSH0 PUSH2 0x2480 PUSH1 0x20 DUP4 ADD DUP5 PUSH2 0x249E JUMP JUMPDEST PUSH0 PUSH1 0x20 DUP3 DUP5 SUB SLT ISZERO PUSH2 0x2503 JUMPI PUSH0 DUP1 REVERT JUMPDEST DUP2 CALLDATALOAD PUSH1 0x1 PUSH1 0x1 PUSH1 0xA0 SHL SUB DUP2 AND DUP2 EQ PUSH2 0x2480 JUMPI PUSH0 DUP1 REVERT JUMPDEST PUSH0 PUSH1 0x20 DUP3 DUP5 SUB SLT ISZERO PUSH2 0x2529 JUMPI PUSH0 DUP1 REVERT JUMPDEST DUP2 CALLDATALOAD PUSH8 0xFFFFFFFFFFFFFFFF DUP2 GT ISZERO PUSH2 0x253F JUMPI PUSH0 DUP1 REVERT JUMPDEST PUSH2 0x254B DUP5 DUP3 DUP6 ADD PUSH2 0x2393 JUMP JUMPDEST SWAP5 SWAP4 POP POP POP POP JUMP JUMPDEST PUSH1 0x20 DUP1 DUP3 MSTORE DUP3 MLOAD DUP3 DUP3 ADD DUP2 SWAP1 MSTORE PUSH0 SWAP2 SWAP1 DUP5 DUP3 ADD SWAP1 PUSH1 0x40 DUP6 ADD SWAP1 DUP5 JUMPDEST DUP2 DUP2 LT ISZERO PUSH2 0x2593 JUMPI DUP4 MLOAD PUSH1 0x1 PUSH1 0x1 PUSH1 0xA0 SHL SUB AND DUP4 MSTORE SWAP3 DUP5 ADD SWAP3 SWAP2 DUP5 ADD SWAP2 PUSH1 0x1 ADD PUSH2 0x256E JUMP JUMPDEST POP SWAP1 SWAP7 SWAP6 POP POP POP POP POP POP JUMP JUMPDEST PUSH4 0x4E487B71 PUSH1 0xE0 SHL PUSH0 MSTORE PUSH1 0x11 PUSH1 0x4 MSTORE PUSH1 0x24 PUSH0 REVERT JUMPDEST DUP1 DUP3 ADD DUP1 DUP3 GT ISZERO PUSH2 0x12BF JUMPI PUSH2 0x12BF PUSH2 0x259F JUMP JUMPDEST DUP1 DUP3 MUL DUP2 ISZERO DUP3 DUP3 DIV DUP5 EQ OR PUSH2 0x12BF JUMPI PUSH2 0x12BF PUSH2 0x259F JUMP JUMPDEST PUSH0 DUP3 PUSH2 0x25F7 JUMPI PUSH4 0x4E487B71 PUSH1 0xE0 SHL PUSH0 MSTORE PUSH1 0x12 PUSH1 0x4 MSTORE PUSH1 0x24 PUSH0 REVERT JUMPDEST POP DIV SWAP1 JUMP JUMPDEST DUP3 ISZERO ISZERO DUP2 MSTORE PUSH1 0x40 PUSH1 0x20 DUP3 ADD MSTORE PUSH0 PUSH2 0x254B PUSH1 0x40 DUP4 ADD DUP5 PUSH2 0x249E JUMP JUMPDEST PUSH1 0x1 DUP2 DUP2 SHR SWAP1 DUP3 AND DUP1 PUSH2 0x262A JUMPI PUSH1 0x7F DUP3 AND SWAP2 POP JUMPDEST PUSH1 0x20 DUP3 LT DUP2 SUB PUSH2 0x2648 JUMPI PUSH4 0x4E487B71 PUSH1 0xE0 SHL PUSH0 MSTORE PUSH1 0x22 PUSH1 0x4 MSTORE PUSH1 0x24 PUSH0 REVERT JUMPDEST POP SWAP2 SWAP1 POP JUMP JUMPDEST DUP7 DUP2 MSTORE PUSH0 PUSH1 0x20 DUP8 ISZERO ISZERO PUSH1 0x20 DUP5 ADD MSTORE DUP7 PUSH1 0x40 DUP5 ADD MSTORE DUP6 PUSH1 0x60 DUP5 ADD MSTORE PUSH1 0xC0 PUSH1 0x80 DUP5 ADD MSTORE PUSH0 DUP6 SLOAD PUSH0 PUSH1 0x1 DUP3 PUSH1 0x1 SHR SWAP2 POP PUSH1 0x1 DUP4 AND DUP1 PUSH2 0x268B JUMPI PUSH1 0x7F DUP4 AND SWAP3 POP JUMPDEST PUSH1 0x20 DUP4 LT DUP2 SUB PUSH2 0x26A9 JUMPI PUSH4 0x4E487B71 PUSH1 0xE0 SHL PUSH0 MSTORE PUSH1 0x22 PUSH1 0x4 MSTORE PUSH1 0x24 PUSH0 REVERT JUMPDEST PUSH1 0xC0 DUP9 ADD DUP4 SWAP1 MSTORE PUSH1 0xE0 DUP9 ADD DUP2 DUP1 ISZERO PUSH2 0x26C8 JUMPI PUSH1 0x1 DUP2 EQ PUSH2 0x26DE JUMPI PUSH2 0x2707 JUMP JUMPDEST PUSH1 0xFF NOT DUP7 AND DUP3 MSTORE DUP5 ISZERO ISZERO PUSH1 0x5 SHL DUP3 ADD SWAP7 POP PUSH2 0x2707 JUMP JUMPDEST PUSH0 DUP13 DUP2 MSTORE PUSH1 0x20 SWAP1 KECCAK256 PUSH0 JUMPDEST DUP7 DUP2 LT ISZERO PUSH2 0x2701 JUMPI DUP2 SLOAD DUP5 DUP3 ADD MSTORE SWAP1 DUP6 ADD SWAP1 DUP10 ADD PUSH2 0x26E8 JUMP JUMPDEST DUP4 ADD SWAP8 POP POP JUMPDEST POP POP POP POP POP POP DUP4 DUP2 SUB PUSH1 0xA0 DUP6 ADD MSTORE PUSH2 0x271F DUP2 DUP7 PUSH2 0x249E JUMP JUMPDEST SWAP11 SWAP10 POP POP POP POP POP POP POP POP POP POP JUMP JUMPDEST DUP2 DUP2 SUB DUP2 DUP2 GT ISZERO PUSH2 0x12BF JUMPI PUSH2 0x12BF PUSH2 0x259F JUMP INVALID LOG2 PUSH5 0x6970667358 0x22 SLT KECCAK256 AND 0xC6 0xCB SWAP11 PUSH8 0x16A910C8A8177C9C 0xB4 PUSH16 0x642D4619BB3CC406279B8606C030F637 0xB5 PUSH5 0x736F6C6343 STOP ADDMOD XOR STOP CALLER "},"methodIdentifiers":{"BASIS_POINTS()":"e1f1c4a7","FEE_PERCENTAGE()":"000b46f8","bettors(uint256)":"3482b644","canClaimRefund(address)":"8cca8f64","cancelPool(string)":"a8ae8e05","cancelled()":"9a82a09a","category()":"ef430aa6","claimRefund()":"b5545a3c","claimWinnings()":"b401faf1","closePool()":"66805de5","closingBid()":"b84ff262","closingDate()":"a628828f","description()":"7284e416","emergencyRecoverFunds()":"41271b00","emergencyResolve(bool,string)":"06f6bce9","emergencyStop()":"63a599a4","factory()":"c45a0155","feeSplitPercentage()":"fd388be2","feeWallet()":"f25f4b56","feeWallet2()":"936e1d83","getBettors()":"ffd4493c","getFeeInfo()":"0002eab7","getLosingPot()":"43c322ba","getPoolStats()":"bbb85188","getTotalFees()":"626e1ae7","getWinnerPot()":"a0b43a4e","hasClaimed(address)":"73b2e80e","isBettingOpen()":"ee4eb586","isClosed()":"c2b6b58c","owner()":"8da5cb5b","placeBet(bool)":"096a3778","renounceOwnership()":"715018a6","reopenPool()":"8ebce3f8","setEmergencyStop(bool)":"c73d7c7b","setFeeSplit(uint256)":"cd962a06","setFeeWallet(address)":"90d49b9d","setFeeWallet2(address)":"c50c96b6","setWinner(bool)":"ef9ea486","title()":"4a79d50c","totalBets()":"befa1e2f","totalClaimed()":"d54ad2a1","totalNo()":"af008883","totalYes()":"88ba8dd6","transferOwnership(address)":"f2fde38b","userBets(address)":"4e92a646","winner()":"dfbf53ae","winnerSet()":"78e73ff8"}}}}}