{"project/contractweb3/TimeConfig.sol":{"TimeConfig":{"abi":[{"inputs":[],"name":"BTC_150K_BETTING_CLOSE","outputs":[{"internalType":"uint256","name":"","type":"uint256"}],"stateMutability":"view","type":"function"},{"inputs":[],"name":"BTC_150K_PREDICTION_END","outputs":[{"internalType":"uint256","name":"","type":"uint256"}],"stateMutability":"view","type":"function"}],"evm":{"bytecode":{"linkReferences":{},"object":"609c610033600b8282823980515f1a607314602757634e487b7160e01b5f525f60045260245ffd5b305f52607381538281f3fe7300000000000000000000000000000000000000003014608060405260043610603c575f3560e01c8063c84bb35a146040578063e46d260014605c575b5f80fd5b604a636918db8481565b60405190815260200160405180910390f35b604a63695580848156fea2646970667358221220590b03cfb2f835c218fd6230b578c77359c60830ece1b8edb11b9935bad9014f64736f6c63430008180033","opcodes":"PUSH1 0x9C PUSH2 0x33 PUSH1 0xB DUP3 DUP3 DUP3 CODECOPY DUP1 MLOAD PUSH0 BYTE PUSH1 0x73 EQ PUSH1 0x27 JUMPI PUSH4 0x4E487B71 PUSH1 0xE0 SHL PUSH0 MSTORE PUSH0 PUSH1 0x4 MSTORE PUSH1 0x24 PUSH0 REVERT JUMPDEST ADDRESS PUSH0 MSTORE PUSH1 0x73 DUP2 MSTORE8 DUP3 DUP2 RETURN INVALID PUSH20 0x0 ADDRESS EQ PUSH1 0x80 PUSH1 0x40 MSTORE PUSH1 0x4 CALLDATASIZE LT PUSH1 0x3C JUMPI PUSH0 CALLDATALOAD PUSH1 0xE0 SHR DUP1 PUSH4 0xC84BB35A EQ PUSH1 0x40 JUMPI DUP1 PUSH4 0xE46D2600 EQ PUSH1 0x5C JUMPI JUMPDEST PUSH0 DUP1 REVERT JUMPDEST PUSH1 0x4A PUSH4 0x6918DB84 DUP2 JUMP JUMPDEST PUSH1 0x40 MLOAD SWAP1 DUP2 MSTORE PUSH1 0x20 ADD PUSH1 0x40 MLOAD DUP1 SWAP2 SUB SWAP1 RETURN JUMPDEST PUSH1 0x4A PUSH4 0x69558084 DUP2 JUMP INVALID LOG2 PUSH5 0x6970667358 0x22 SLT KECCAK256 MSIZE SIGNEXTEND SUB 0xCF 0xB2 0xF8 CALLDATALOAD 0xC2 XOR REVERT PUSH3 0x30B578 0xC7 PUSH20 0x59C60830ECE1B8EDB11B9935BAD9014F64736F6C PUSH4 0x43000818 STOP CALLER "},"methodIdentifiers":{"BTC_150K_BETTING_CLOSE()":"c84bb35a","BTC_150K_PREDICTION_END()":"e46d2600"}}}}}