{"project/contracts/BellaNapoliPredictionFactory.sol":{"BellaNapoliPredictionFactory":{"abi":[{"inputs":[],"stateMutability":"nonpayable","type":"constructor"},{"anonymous":false,"inputs":[{"indexed":true,"internalType":"address","name":"poolAddress","type":"address"},{"indexed":false,"internalType":"uint256","name":"amount","type":"uint256"}],"name":"FeesCollected","type":"event"},{"anonymous":false,"inputs":[{"indexed":true,"internalType":"address","name":"previousOwner","type":"address"},{"indexed":true,"internalType":"address","name":"newOwner","type":"address"}],"name":"OwnershipTransferred","type":"event"},{"anonymous":false,"inputs":[{"indexed":true,"internalType":"address","name":"poolAddress","type":"address"},{"indexed":false,"internalType":"string","name":"reason","type":"string"}],"name":"PoolCancelled","type":"event"},{"anonymous":false,"inputs":[{"indexed":true,"internalType":"address","name":"poolAddress","type":"address"},{"indexed":false,"internalType":"bool","name":"isActive","type":"bool"}],"name":"PoolClosed","type":"event"},{"anonymous":false,"inputs":[{"indexed":true,"internalType":"address","name":"poolAddress","type":"address"},{"indexed":false,"internalType":"string","name":"title","type":"string"},{"indexed":false,"internalType":"string","name":"category","type":"string"},{"indexed":true,"internalType":"address","name":"creator","type":"address"},{"indexed":false,"internalType":"uint256","name":"closingDate","type":"uint256"},{"indexed":false,"internalType":"uint256","name":"closingBid","type":"uint256"}],"name":"PoolCreated","type":"event"},{"anonymous":false,"inputs":[{"indexed":true,"internalType":"address","name":"poolAddress","type":"address"},{"indexed":false,"internalType":"bool","name":"winner","type":"bool"},{"indexed":false,"internalType":"string","name":"reason","type":"string"}],"name":"PoolEmergencyResolved","type":"event"},{"anonymous":false,"inputs":[{"indexed":true,"internalType":"address","name":"poolAddress","type":"address"},{"indexed":false,"internalType":"bool","name":"stopped","type":"bool"}],"name":"PoolEmergencyStopToggled","type":"event"},{"anonymous":false,"inputs":[{"indexed":true,"internalType":"address","name":"poolAddress","type":"address"},{"indexed":false,"internalType":"bool","name":"winner","type":"bool"}],"name":"PoolWinnerSet","type":"event"},{"inputs":[],"name":"BASIS_POINTS","outputs":[{"internalType":"uint256","name":"","type":"uint256"}],"stateMutability":"view","type":"function"},{"inputs":[],"name":"FEE_PERCENTAGE","outputs":[{"internalType":"uint256","name":"","type":"uint256"}],"stateMutability":"view","type":"function"},{"inputs":[{"internalType":"uint256","name":"","type":"uint256"}],"name":"allPools","outputs":[{"internalType":"address","name":"","type":"address"}],"stateMutability":"view","type":"function"},{"inputs":[{"internalType":"address","name":"_poolAddress","type":"address"},{"internalType":"string","name":"_reason","type":"string"}],"name":"cancelPoolPrediction","outputs":[],"stateMutability":"nonpayable","type":"function"},{"inputs":[{"internalType":"address","name":"_poolAddress","type":"address"}],"name":"closePool","outputs":[],"stateMutability":"nonpayable","type":"function"},{"inputs":[{"internalType":"address","name":"_poolAddress","type":"address"}],"name":"collectFees","outputs":[{"internalType":"uint256","name":"feeAmount","type":"uint256"}],"stateMutability":"nonpayable","type":"function"},{"inputs":[{"internalType":"string","name":"_title","type":"string"},{"internalType":"string","name":"_description","type":"string"},{"internalType":"string","name":"_category","type":"string"},{"internalType":"uint256","name":"_closingDate","type":"uint256"},{"internalType":"uint256","name":"_closingBid","type":"uint256"}],"name":"createPool","outputs":[{"internalType":"address","name":"poolAddress","type":"address"}],"stateMutability":"nonpayable","type":"function"},{"inputs":[{"internalType":"address","name":"_poolAddress","type":"address"},{"internalType":"bool","name":"_winner","type":"bool"},{"internalType":"string","name":"_reason","type":"string"}],"name":"emergencyResolvePool","outputs":[],"stateMutability":"nonpayable","type":"function"},{"inputs":[],"name":"getAllPools","outputs":[{"internalType":"address[]","name":"pools","type":"address[]"}],"stateMutability":"view","type":"function"},{"inputs":[],"name":"getPoolCount","outputs":[{"internalType":"uint256","name":"count","type":"uint256"}],"stateMutability":"view","type":"function"},{"inputs":[{"internalType":"address","name":"_poolAddress","type":"address"}],"name":"getPoolInfo","outputs":[{"components":[{"internalType":"string","name":"title","type":"string"},{"internalType":"string","name":"description","type":"string"},{"internalType":"string","name":"category","type":"string"},{"internalType":"uint256","name":"closingDate","type":"uint256"},{"internalType":"uint256","name":"closingBid","type":"uint256"},{"internalType":"address","name":"creator","type":"address"},{"internalType":"bool","name":"isActive","type":"bool"},{"internalType":"uint256","name":"createdAt","type":"uint256"}],"internalType":"struct BellaNapoliPredictionFactory.PoolInfo","name":"info","type":"tuple"}],"stateMutability":"view","type":"function"},{"inputs":[{"internalType":"string","name":"_category","type":"string"}],"name":"getPoolsByCategory","outputs":[{"internalType":"address[]","name":"pools","type":"address[]"}],"stateMutability":"view","type":"function"},{"inputs":[],"name":"owner","outputs":[{"internalType":"address","name":"","type":"address"}],"stateMutability":"view","type":"function"},{"inputs":[{"internalType":"address","name":"","type":"address"}],"name":"poolInfo","outputs":[{"internalType":"string","name":"title","type":"string"},{"internalType":"string","name":"description","type":"string"},{"internalType":"string","name":"category","type":"string"},{"internalType":"uint256","name":"closingDate","type":"uint256"},{"internalType":"uint256","name":"closingBid","type":"uint256"},{"internalType":"address","name":"creator","type":"address"},{"internalType":"bool","name":"isActive","type":"bool"},{"internalType":"uint256","name":"createdAt","type":"uint256"}],"stateMutability":"view","type":"function"},{"inputs":[],"name":"renounceOwnership","outputs":[],"stateMutability":"nonpayable","type":"function"},{"inputs":[{"internalType":"address","name":"_poolAddress","type":"address"},{"internalType":"bool","name":"_stop","type":"bool"}],"name":"setPoolEmergencyStop","outputs":[],"stateMutability":"nonpayable","type":"function"},{"inputs":[{"internalType":"address","name":"_poolAddress","type":"address"},{"internalType":"bool","name":"_winner","type":"bool"}],"name":"setPoolWinner","outputs":[],"stateMutability":"nonpayable","type":"function"},{"inputs":[],"name":"totalFeesCollected","outputs":[{"internalType":"uint256","name":"","type":"uint256"}],"stateMutability":"view","type":"function"},{"inputs":[{"internalType":"address","name":"newOwner","type":"address"}],"name":"transferOwnership","outputs":[],"stateMutability":"nonpayable","type":"function"},{"inputs":[],"name":"withdrawFees","outputs":[],"stateMutability":"nonpayable","type":"function"},{"stateMutability":"payable","type":"receive"}],"evm":{"bytecode":{"linkReferences":{},"object":"608060405234801561000f575f80fd5b5061001933610022565b60018055610071565b5f80546001600160a01b038381166001600160a01b0319831681178455604051919092169283917f8be0079c531659141344cd1fd0a4f28419497f9722a3daafe3b4186f6b6457e09190a35050565b6144b38061007e5f395ff3fe60806040526004361062000135575f3560e01c80638da5cb5b11620000aa578063d88ff1f4116200006a578063d88ff1f41462000376578063df75debf146200038d578063e1f1c4a714620003b1578063e8fc511514620003c8578063f2fde38b14620003ec575f80fd5b80638da5cb5b14620002c05780638eec5d7014620002de5780639a7b5f1114620002f4578063a480ca79146200032e578063ae288ab11462000352575f80fd5b806341d1de9711620000f657806341d1de971462000233578063476343ee146200025757806347fc142d146200026e57806360c6d8ae1462000292578063715018a614620002a9575f80fd5b80620b46f8146200014157806306bfa938146200016a5780631e073978146200019d57806329d0cdf414620001d05780634194b6f014620001f6575f80fd5b366200013d57005b5f80fd5b3480156200014d575f80fd5b5062000157609681565b6040519081526020015b60405180910390f35b34801562000176575f80fd5b506200018e6200018836600462001838565b62000410565b604051620001619190620018a0565b348015620001a9575f80fd5b50620001c1620001bb366004620019f9565b62000693565b60405162000161919062001a2f565b348015620001dc575f80fd5b50620001f4620001ee36600462001838565b62000873565b005b34801562000202575f80fd5b506200021a6200021436600462001a7d565b62000985565b6040516001600160a01b03909116815260200162000161565b3480156200023f575f80fd5b506200021a6200025136600462001b1a565b62000e17565b34801562000263575f80fd5b50620001f462000e40565b3480156200027a575f80fd5b50620001f46200028c36600462001b42565b62000f03565b3480156200029e575f80fd5b506200015760045481565b348015620002b5575f80fd5b50620001f462000fee565b348015620002cc575f80fd5b505f546001600160a01b03166200021a565b348015620002ea575f80fd5b5060025462000157565b34801562000300575f80fd5b50620003186200031236600462001838565b62001005565b6040516200016198979695949392919062001b78565b3480156200033a575f80fd5b50620001576200034c36600462001838565b620011ff565b3480156200035e575f80fd5b50620001f46200037036600462001bf0565b6200137d565b34801562000382575f80fd5b50620001c16200145d565b34801562000399575f80fd5b50620001f4620003ab36600462001b42565b620014bf565b348015620003bd575f80fd5b506200015761271081565b348015620003d4575f80fd5b50620001f4620003e636600462001c41565b6200159d565b348015620003f8575f80fd5b50620001f46200040a36600462001838565b6200168f565b6200045f6040518061010001604052806060815260200160608152602001606081526020015f81526020015f81526020015f6001600160a01b031681526020015f151581526020015f81525090565b6001600160a01b0382165f908152600360205260409081902081516101008101909252805482908290620004939062001ca3565b80601f0160208091040260200160405190810160405280929190818152602001828054620004c19062001ca3565b8015620005105780601f10620004e65761010080835404028352916020019162000510565b820191905f5260205f20905b815481529060010190602001808311620004f257829003601f168201915b505050505081526020016001820180546200052b9062001ca3565b80601f0160208091040260200160405190810160405280929190818152602001828054620005599062001ca3565b8015620005a85780601f106200057e57610100808354040283529160200191620005a8565b820191905f5260205f20905b8154815290600101906020018083116200058a57829003601f168201915b50505050508152602001600282018054620005c39062001ca3565b80601f0160208091040260200160405190810160405280929190818152602001828054620005f19062001ca3565b8015620006405780601f10620006165761010080835404028352916020019162000640565b820191905f5260205f20905b8154815290600101906020018083116200062257829003601f168201915b5050509183525050600382015460208201526004820154604082015260058201546001600160a01b0381166060830152600160a01b900460ff161515608082015260069091015460a09091015292915050565b6002546060905f90815b818110156200072557848051906020012060035f60028481548110620006c757620006c762001cdd565b5f9182526020808320909101546001600160a01b0316835282019290925260409081019091209051620006fe916002019062001cf1565b6040518091039020036200071c5782620007188162001d7f565b9350505b6001016200069d565b505f8267ffffffffffffffff81111562000743576200074362001954565b6040519080825280602002602001820160405280156200076d578160200160208202803683370190505b50905082156200086b575f805b838110156200086857868051906020012060035f60028481548110620007a457620007a462001cdd565b5f9182526020808320909101546001600160a01b0316835282019290925260409081019091209051620007db916002019062001cf1565b6040518091039020036200085f5760028181548110620007ff57620007ff62001cdd565b905f5260205f20015f9054906101000a90046001600160a01b03168383815181106200082f576200082f62001cdd565b6001600160a01b039092166020928302919091019091015281620008538162001d7f565b92505084821462000868575b6001016200077a565b50505b949350505050565b6200087d6200170e565b6001600160a01b038181165f9081526003602052604090206005015416620008c25760405162461bcd60e51b8152600401620008b99062001d9a565b60405180910390fd5b6001600160a01b0381165f90815260036020526040902060050154600160a01b900460ff166200092b5760405162461bcd60e51b8152602060048201526013602482015272141bdbdb08185b1c9958591e4818db1bdcd959606a1b6044820152606401620008b9565b6001600160a01b0381165f818152600360209081526040808320600501805460ff60a01b19169055519182527fcd5aa1599ad157f72c3187da57310232f1ef8d5a9c9cd5f8a650f0f4cae1a9fd910160405180910390a250565b5f620009906200170e565b5f865111620009da5760405162461bcd60e51b81526020600482015260156024820152745469746c652063616e6e6f7420626520656d70747960581b6044820152606401620008b9565b60648651111562000a1f5760405162461bcd60e51b815260206004820152600e60248201526d5469746c6520746f6f206c6f6e6760901b6044820152606401620008b9565b6101f48551111562000a6b5760405162461bcd60e51b81526020600482015260146024820152734465736372697074696f6e20746f6f206c6f6e6760601b6044820152606401620008b9565b5f84511162000abd5760405162461bcd60e51b815260206004820152601860248201527f43617465676f72792063616e6e6f7420626520656d70747900000000000000006044820152606401620008b9565b42831162000b195760405162461bcd60e51b815260206004820152602260248201527f436c6f73696e672064617465206d75737420626520696e207468652066757475604482015261726560f01b6064820152608401620008b9565b62000b29426301e1338062001dc7565b83111562000b855760405162461bcd60e51b815260206004820152602260248201527f436c6f73696e67206461746520746f6f2066617220696e207468652066757475604482015261726560f01b6064820152608401620008b9565b82821162000be55760405162461bcd60e51b815260206004820152602660248201527f436c6f73696e6720626964206d75737420626520616674657220636c6f73696e60448201526567206461746560d01b6064820152608401620008b9565b62000bf48362278d0062001dc7565b82111562000c545760405162461bcd60e51b815260206004820152602660248201527f436c6f73696e672062696420746f6f2066617220616674657220636c6f73696e60448201526567206461746560d01b6064820152608401620008b9565b5f86868686863060405162000c699062001813565b62000c7a9695949392919062001de3565b604051809103905ff08015801562000c94573d5f803e3d5ffd5b50604080516101008101825289815260208082018a905281830189905260608201889052608082018790523360a0830152600160c08301524260e08301526001600160a01b0384165f90815260039091529190912081519294508493509091819062000d01908262001e99565b506020820151600182019062000d18908262001e99565b506040820151600282019062000d2f908262001e99565b50606082015160038201556080820151600482015560a082015160058201805460c08501511515600160a01b026001600160a81b03199091166001600160a01b039384161717905560e090920151600690910155600280546001810182555f919091527f405787fa12a823e0f2b7631cc41b3ba8828b3321ca811111fa75cd3aa3bb5ace0180549184166001600160a01b031992909216821790556040513391907fc2cae3d9a09774c7b89ab31040f4b8704244791874b092e2e1678be9e54596ce9062000e05908b908a908a908a9062001f66565b60405180910390a35095945050505050565b6002818154811062000e27575f80fd5b5f918252602090912001546001600160a01b0316905081565b62000e4a6200170e565b600480545f918290559062000e665f546001600160a01b031690565b6001600160a01b0316826040515f6040518083038185875af1925050503d805f811462000eaf576040519150601f19603f3d011682016040523d82523d5f602084013e62000eb4565b606091505b505090508062000eff5760405162461bcd60e51b8152602060048201526015602482015274119959481dda5d1a191c985dd85b0819985a5b1959605a1b6044820152606401620008b9565b5050565b62000f0d6200170e565b6001600160a01b038281165f908152600360205260409020600501541662000f495760405162461bcd60e51b8152600401620008b99062001d9a565b6040516377cf524360e11b8152811515600482015282906001600160a01b0382169063ef9ea486906024015f604051808303815f87803b15801562000f8c575f80fd5b505af115801562000f9f573d5f803e3d5ffd5b50505050826001600160a01b03167fe806a42164e4b9efa26d69d97929204fa306b97d37ec0f081682a8b8df9da05a8360405162000fe1911515815260200190565b60405180910390a2505050565b62000ff86200170e565b620010035f62001769565b565b60036020525f9081526040902080548190620010219062001ca3565b80601f01602080910402602001604051908101604052809291908181526020018280546200104f9062001ca3565b80156200109e5780601f1062001074576101008083540402835291602001916200109e565b820191905f5260205f20905b8154815290600101906020018083116200108057829003601f168201915b505050505090806001018054620010b59062001ca3565b80601f0160208091040260200160405190810160405280929190818152602001828054620010e39062001ca3565b8015620011325780601f10620011085761010080835404028352916020019162001132565b820191905f5260205f20905b8154815290600101906020018083116200111457829003601f168201915b505050505090806002018054620011499062001ca3565b80601f0160208091040260200160405190810160405280929190818152602001828054620011779062001ca3565b8015620011c65780601f106200119c57610100808354040283529160200191620011c6565b820191905f5260205f20905b815481529060010190602001808311620011a857829003601f168201915b50505050600383015460048401546005850154600690950154939491939092506001600160a01b03821691600160a01b900460ff169088565b5f6200120a620017b8565b6001600160a01b038281165f9081526003602052604090206005015416620012465760405162461bcd60e51b8152600401620008b99062001d9a565b6001600160a01b0382165f90815260036020526040902060050154600160a01b900460ff16620012ae5760405162461bcd60e51b8152602060048201526012602482015271506f6f6c206973206e6f742061637469766560701b6044820152606401620008b9565b5f829050806001600160a01b031663626e1ae76040518163ffffffff1660e01b8152600401602060405180830381865afa158015620012ef573d5f803e3d5ffd5b505050506040513d601f19601f8201168201806040525081019062001315919062001fa2565b91508160045f8282546200132a919062001dc7565b90915550506040518281526001600160a01b038416907f9dc46f23cfb5ddcad0ae7ea2be38d47fec07bb9382ec7e564efc69e036dd66ce9060200160405180910390a2506200137860018055565b919050565b620013876200170e565b6001600160a01b038281165f9081526003602052604090206005015416620013c35760405162461bcd60e51b8152600401620008b99062001d9a565b60405163a8ae8e0560e01b815282906001600160a01b0382169063a8ae8e0590620013f390859060040162001fba565b5f604051808303815f87803b1580156200140b575f80fd5b505af11580156200141e573d5f803e3d5ffd5b50505050826001600160a01b03167f86adc9cca5c5cd1905965dc7787b279c13beda0dce1154c327062381911876e38360405162000fe1919062001fba565b60606002805480602002602001604051908101604052809291908181526020018280548015620014b557602002820191905f5260205f20905b81546001600160a01b0316815260019091019060200180831162001496575b5050505050905090565b620014c96200170e565b6001600160a01b038281165f9081526003602052604090206005015416620015055760405162461bcd60e51b8152600401620008b99062001d9a565b60405163c73d7c7b60e01b8152811515600482015282906001600160a01b0382169063c73d7c7b906024015f604051808303815f87803b15801562001548575f80fd5b505af11580156200155b573d5f803e3d5ffd5b50505050826001600160a01b03167fddf7c227a01394f42d3f7f7c764edf35c6b40e477dba7b32616c223e6e88c07d8360405162000fe1911515815260200190565b620015a76200170e565b6001600160a01b038381165f9081526003602052604090206005015416620015e35760405162461bcd60e51b8152600401620008b99062001d9a565b6040516306f6bce960e01b815283906001600160a01b038216906306f6bce99062001615908690869060040162001fce565b5f604051808303815f87803b1580156200162d575f80fd5b505af115801562001640573d5f803e3d5ffd5b50505050836001600160a01b03167f2546a907c55750ee6839e20beaa46fa9be80d633613d346e797c86f235c0c0bd84846040516200168192919062001fce565b60405180910390a250505050565b620016996200170e565b6001600160a01b038116620017005760405162461bcd60e51b815260206004820152602660248201527f4f776e61626c653a206e6577206f776e657220697320746865207a65726f206160448201526564647265737360d01b6064820152608401620008b9565b6200170b8162001769565b50565b5f546001600160a01b03163314620010035760405162461bcd60e51b815260206004820181905260248201527f4f776e61626c653a2063616c6c6572206973206e6f7420746865206f776e65726044820152606401620008b9565b5f80546001600160a01b038381166001600160a01b0319831681178455604051919092169283917f8be0079c531659141344cd1fd0a4f28419497f9722a3daafe3b4186f6b6457e09190a35050565b6002600154036200180c5760405162461bcd60e51b815260206004820152601f60248201527f5265656e7472616e637947756172643a207265656e7472616e742063616c6c006044820152606401620008b9565b6002600155565b6124938062001feb83390190565b80356001600160a01b038116811462001378575f80fd5b5f6020828403121562001849575f80fd5b620018548262001821565b9392505050565b5f81518084525f5b81811015620018815760208185018101518683018201520162001863565b505f602082860101526020601f19601f83011685010191505092915050565b602081525f8251610100806020850152620018c06101208501836200185b565b91506020850151601f1980868503016040870152620018e084836200185b565b93506040870151915080868503016060870152506200190083826200185b565b92505060608501516080850152608085015160a085015260a08501516200193260c08601826001600160a01b03169052565b5060c085015180151560e08601525060e0949094015192909301919091525090565b634e487b7160e01b5f52604160045260245ffd5b5f82601f83011262001978575f80fd5b813567ffffffffffffffff8082111562001996576200199662001954565b604051601f8301601f19908116603f01168101908282118183101715620019c157620019c162001954565b81604052838152866020858801011115620019da575f80fd5b836020870160208301375f602085830101528094505050505092915050565b5f6020828403121562001a0a575f80fd5b813567ffffffffffffffff81111562001a21575f80fd5b6200086b8482850162001968565b602080825282518282018190525f9190848201906040850190845b8181101562001a715783516001600160a01b03168352928401929184019160010162001a4a565b50909695505050505050565b5f805f805f60a0868803121562001a92575f80fd5b853567ffffffffffffffff8082111562001aaa575f80fd5b62001ab889838a0162001968565b9650602088013591508082111562001ace575f80fd5b62001adc89838a0162001968565b9550604088013591508082111562001af2575f80fd5b5062001b018882890162001968565b9598949750949560608101359550608001359392505050565b5f6020828403121562001b2b575f80fd5b5035919050565b8035801515811462001378575f80fd5b5f806040838503121562001b54575f80fd5b62001b5f8362001821565b915062001b6f6020840162001b32565b90509250929050565b5f61010080835262001b8d8184018c6200185b565b9050828103602084015262001ba3818b6200185b565b9050828103604084015262001bb9818a6200185b565b6060840198909852505060808101949094526001600160a01b039290921660a0840152151560c083015260e0909101529392505050565b5f806040838503121562001c02575f80fd5b62001c0d8362001821565b9150602083013567ffffffffffffffff81111562001c29575f80fd5b62001c378582860162001968565b9150509250929050565b5f805f6060848603121562001c54575f80fd5b62001c5f8462001821565b925062001c6f6020850162001b32565b9150604084013567ffffffffffffffff81111562001c8b575f80fd5b62001c998682870162001968565b9150509250925092565b600181811c9082168062001cb857607f821691505b60208210810362001cd757634e487b7160e01b5f52602260045260245ffd5b50919050565b634e487b7160e01b5f52603260045260245ffd5b5f80835462001d008162001ca3565b6001828116801562001d1b576001811462001d315762001d5f565b60ff198416875282151583028701945062001d5f565b875f526020805f205f5b8581101562001d565781548a82015290840190820162001d3b565b50505082870194505b50929695505050505050565b634e487b7160e01b5f52601160045260245ffd5b5f6001820162001d935762001d9362001d6b565b5060010190565b602080825260139082015272141bdbdb08191bd95cc81b9bdd08195e1a5cdd606a1b604082015260600190565b8082018082111562001ddd5762001ddd62001d6b565b92915050565b60c081525f62001df760c08301896200185b565b828103602084015262001e0b81896200185b565b9050828103604084015262001e2181886200185b565b6060840196909652505060808101929092526001600160a01b031660a0909101529392505050565b601f82111562001e9457805f5260205f20601f840160051c8101602085101562001e705750805b601f840160051c820191505b8181101562001e91575f815560010162001e7c565b50505b505050565b815167ffffffffffffffff81111562001eb65762001eb662001954565b62001ece8162001ec7845462001ca3565b8462001e49565b602080601f83116001811462001f04575f841562001eec5750858301515b5f19600386901b1c1916600185901b17855562001f5e565b5f85815260208120601f198616915b8281101562001f345788860151825594840194600190910190840162001f13565b508582101562001f5257878501515f19600388901b60f8161c191681555b505060018460011b0185555b505050505050565b608081525f62001f7a60808301876200185b565b828103602084015262001f8e81876200185b565b604084019590955250506060015292915050565b5f6020828403121562001fb3575f80fd5b5051919050565b602081525f6200185460208301846200185b565b8215158152604060208201525f6200086b60408301846200185b56fe60806040526007805464ffff00ffff60a01b19169055600f80546001600160a01b031916738e49800f0aa47e68ba9e46d97481679d0337929417905534801562000047575f80fd5b5060405162002493380380620024938339810160408190526200006a91620001e8565b6200007533620000d8565b60018055600262000087878262000332565b50600362000096868262000332565b506004620000a5858262000332565b50600592909255600655600780546001600160a01b0319166001600160a01b0390921691909117905550620003fe915050565b5f80546001600160a01b038381166001600160a01b0319831681178455604051919092169283917f8be0079c531659141344cd1fd0a4f28419497f9722a3daafe3b4186f6b6457e09190a35050565b634e487b7160e01b5f52604160045260245ffd5b5f82601f8301126200014b575f80fd5b81516001600160401b038082111562000168576200016862000127565b604051601f8301601f19908116603f0116810190828211818310171562000193576200019362000127565b8160405283815260209250866020858801011115620001b0575f80fd5b5f91505b83821015620001d35785820183015181830184015290820190620001b4565b5f602085830101528094505050505092915050565b5f805f805f8060c08789031215620001fe575f80fd5b86516001600160401b038082111562000215575f80fd5b620002238a838b016200013b565b9750602089015191508082111562000239575f80fd5b620002478a838b016200013b565b965060408901519150808211156200025d575f80fd5b506200026c89828a016200013b565b606089015160808a015160a08b0151929750909550935090506001600160a01b03811681146200029a575f80fd5b809150509295509295509295565b600181811c90821680620002bd57607f821691505b602082108103620002dc57634e487b7160e01b5f52602260045260245ffd5b50919050565b601f8211156200032d57805f5260205f20601f840160051c81016020851015620003095750805b601f840160051c820191505b818110156200032a575f815560010162000315565b50505b505050565b81516001600160401b038111156200034e576200034e62000127565b62000366816200035f8454620002a8565b84620002e2565b602080601f8311600181146200039c575f8415620003845750858301515b5f19600386901b1c1916600185901b178555620003f6565b5f85815260208120601f198616915b82811015620003cc57888601518255948401946001909101908401620003ab565b5085821015620003ea57878501515f19600388901b60f8161c191681555b505060018460011b0185555b505050505050565b612087806200040c5f395ff3fe60806040526004361061023f575f3560e01c8063a0b43a4e11610134578063c45a0155116100b3578063ee4eb58611610078578063ee4eb586146106e5578063ef430aa6146106f9578063ef9ea4861461070d578063f25f4b561461072c578063f2fde38b1461074b578063ffd4493c1461076a575f80fd5b8063c45a01551461065d578063c73d7c7b1461067c578063d54ad2a11461069b578063dfbf53ae146106b0578063e1f1c4a7146106d0575f80fd5b8063b5545a3c116100f9578063b5545a3c1461058f578063b84ff262146105a3578063bbb85188146105b8578063befa1e2f14610628578063c2b6b58c1461063d575f80fd5b8063a0b43a4e1461051e578063a628828f14610532578063a8ae8e0514610547578063af00888314610566578063b401faf11461057b575f80fd5b806366805de5116101c057806388ba8dd61161018557806388ba8dd61461048f5780638cca8f64146104a45780638da5cb5b146104c357806390d49b9d146104df5780639a82a09a146104fe575f80fd5b806366805de514610405578063715018a6146104195780637284e4161461042d57806373b2e80e1461044157806378e73ff81461046f575f80fd5b806343c322ba1161020657806343c322ba1461031c5780634a79d50c146103305780634e92a64614610351578063626e1ae7146103c157806363a599a4146103d5575f80fd5b806202eab71461024a5780620b46f81461028f57806306f6bce9146102b1578063096a3778146102d25780633482b644146102e5575f80fd5b3661024657005b5f80fd5b348015610255575f80fd5b5061025e61078b565b604080516001600160a01b039095168552602085019390935291830152151560608201526080015b60405180910390f35b34801561029a575f80fd5b506102a3609681565b604051908152602001610286565b3480156102bc575f80fd5b506102d06102cb366004611d2d565b61081b565b005b6102d06102e0366004611d78565b610935565b3480156102f0575f80fd5b506103046102ff366004611d98565b610dc1565b6040516001600160a01b039091168152602001610286565b348015610327575f80fd5b506102a3610de9565b34801561033b575f80fd5b50610344610e0c565b6040516102869190611df2565b34801561035c575f80fd5b5061039961036b366004611e04565b600b6020525f9081526040902080546001820154600283015460039093015460ff9283169391929091169084565b6040805194151585526020850193909352901515918301919091526060820152608001610286565b3480156103cc575f80fd5b506102a3610e98565b3480156103e0575f80fd5b506007546103f590600160b81b900460ff1681565b6040519015158152602001610286565b348015610410575f80fd5b506102d0610f27565b348015610424575f80fd5b506102d0610fe6565b348015610438575f80fd5b50610344610ff9565b34801561044c575f80fd5b506103f561045b366004611e04565b600d6020525f908152604090205460ff1681565b34801561047a575f80fd5b506007546103f590600160a81b900460ff1681565b34801561049a575f80fd5b506102a360085481565b3480156104af575f80fd5b506103f56104be366004611e04565b611006565b3480156104ce575f80fd5b505f546001600160a01b0316610304565b3480156104ea575f80fd5b506102d06104f9366004611e04565b611067565b348015610509575f80fd5b506007546103f590600160c01b900460ff1681565b348015610529575f80fd5b506102a3611145565b34801561053d575f80fd5b506102a360055481565b348015610552575f80fd5b506102d0610561366004611e2a565b611166565b348015610571575f80fd5b506102a360095481565b348015610586575f80fd5b506102d0611273565b34801561059a575f80fd5b506102d06116b8565b3480156105ae575f80fd5b506102a360065481565b3480156105c3575f80fd5b50600854600954600a54600c5460075460408051958652602086019490945292840191909152606083015260ff600160a01b8204811615156080840152600160a81b82048116151560a0840152600160c01b90910416151560c082015260e001610286565b348015610633575f80fd5b506102a3600a5481565b348015610648575f80fd5b506007546103f590600160a01b900460ff1681565b348015610668575f80fd5b50600754610304906001600160a01b031681565b348015610687575f80fd5b506102d0610696366004611d78565b61189f565b3480156106a6575f80fd5b506102a3600e5481565b3480156106bb575f80fd5b506007546103f590600160b01b900460ff1681565b3480156106db575f80fd5b506102a361271081565b3480156106f0575f80fd5b506103f56118f4565b348015610704575f80fd5b50610344611940565b348015610718575f80fd5b506102d0610727366004611d78565b61194d565b348015610737575f80fd5b50600f54610304906001600160a01b031681565b348015610756575f80fd5b506102d0610765366004611e04565b611aa2565b348015610775575f80fd5b5061077e611b1b565b6040516102869190611e64565b5f805f80600f5f9054906101000a90046001600160a01b031660966127106096600760169054906101000a900460ff166107c7576008546107cb565b6009545b6107d59190611ec4565b6107df9190611edb565b5f8052600d6020527f81955a0a11e65eac625c29e8882660bae4e165a75d72780094acae8ece9a29ee549297919650945060ff90911692509050565b610823611b7b565b600754600160b81b900460ff166108815760405162461bcd60e51b815260206004820152601c60248201527f456d657267656e63792073746f70206e6f74206163746976617465640000000060448201526064015b60405180910390fd5b600754600160a81b900460ff16156108d05760405162461bcd60e51b815260206004820152601260248201527115da5b9b995c88185b1c9958591e481cd95d60721b6044820152606401610878565b6007805460ff60a81b19841515600160b01b021661ffff60a81b1990911617600160a81b1790556040517f9f1ed7ec730b47aa440b5ede52772362be32571a818cd31ac36a295e8393b98e906109299084908490611efa565b60405180910390a15050565b600754600160a01b900460ff16156109805760405162461bcd60e51b815260206004820152600e60248201526d141bdbdb081a5cc818db1bdcd95960921b6044820152606401610878565b600754600160b81b900460ff16156109da5760405162461bcd60e51b815260206004820152601a60248201527f42657474696e67206973207061757365642062792061646d696e0000000000006044820152606401610878565b600754600160c01b900460ff1615610a345760405162461bcd60e51b815260206004820152601760248201527f506f6f6c20686173206265656e2063616e63656c6c65640000000000000000006044820152606401610878565b6005544210610a855760405162461bcd60e51b815260206004820152601860248201527f42657474696e6720706572696f642068617320656e64656400000000000000006044820152606401610878565b5f3411610ade5760405162461bcd60e51b815260206004820152602160248201527f42657420616d6f756e74206d7573742062652067726561746572207468616e206044820152600360fc1b6064820152608401610878565b66038d7ea4c68000341015610b355760405162461bcd60e51b815260206004820152601860248201527f4d696e696d756d2062657420697320302e30303120424e4200000000000000006044820152606401610878565b68056bc75e2d63100000341115610b875760405162461bcd60e51b815260206004820152601660248201527526b0bc34b6bab6903132ba1034b9901898181021272160511b6044820152606401610878565b335f908152600b602052604090206001015415610be65760405162461bcd60e51b815260206004820152601d60248201527f557365722068617320616c726561647920706c616365642061206265740000006044820152606401610878565b33610c2c5760405162461bcd60e51b8152602060048201526016602482015275496e76616c69642073656e646572206164647265737360501b6044820152606401610878565b604080516080810182528215801582523460208084019182525f848601818152426060870190815233808452600b9094529682209551865490151560ff199182161787559351600187810191909155905160028701805491151591909516179093559451600390940193909355600c805491820181559093527fdf6966c971051c3d54ec59162606531493a51404a002842f56009d7e5cf4a8c790920180546001600160a01b0319169091179055610cfa573460085f828254610cef9190611f14565b90915550610d119050565b3460095f828254610d0b9190611f14565b90915550505b34600a5f828254610d229190611f14565b909155505f905081610d4e57604051806040016040528060028152602001614e4f60f01b815250610d6b565b6040518060400160405280600381526020016259455360e81b8152505b9050336001600160a01b03167f59bec262f3e5c00d172330919288747f1356aecc686af7caa21a3baf473550d73484600854600954600287604051610db596959493929190611f5f565b60405180910390a25050565b600c8181548110610dd0575f80fd5b5f918252602090912001546001600160a01b0316905081565b6007545f90600160b01b900460ff16610e03575060085490565b6009545b905090565b60028054610e1990611f27565b80601f0160208091040260200160405190810160405280929190818152602001828054610e4590611f27565b8015610e905780601f10610e6757610100808354040283529160200191610e90565b820191905f5260205f20905b815481529060010190602001808311610e7357829003601f168201915b505050505081565b6007545f90600160a81b900460ff16610ee85760405162461bcd60e51b815260206004820152601260248201527115da5b9b995c881b9bdd081cd95d081e595d60721b6044820152606401610878565b6007545f90600160b01b900460ff16610f0357600854610f07565b6009545b9050612710610f17609683611ec4565b610f219190611edb565b91505090565b610f2f611b7b565b600754600160a01b900460ff1615610f7f5760405162461bcd60e51b8152602060048201526013602482015272141bdbdb08185b1c9958591e4818db1bdcd959606a1b6044820152606401610878565b600554421015610fd15760405162461bcd60e51b815260206004820181905260248201527f43616e6e6f7420636c6f7365206265666f726520636c6f73696e6720646174656044820152606401610878565b6007805460ff60a01b1916600160a01b179055565b610fee611b7b565b610ff75f611bd4565b565b60038054610e1990611f27565b6007545f90600160c01b900460ff16801561103a57506001600160a01b0382165f908152600b602052604090206001015415155b801561106157506001600160a01b0382165f908152600b602052604090206002015460ff16155b92915050565b61106f611b7b565b6001600160a01b0381166110c55760405162461bcd60e51b815260206004820152601a60248201527f496e76616c6964206665652077616c6c657420616464726573730000000000006044820152606401610878565b600f546001600160a01b03908116908216036111235760405162461bcd60e51b815260206004820152601760248201527f53616d65206665652077616c6c657420616464726573730000000000000000006044820152606401610878565b600f80546001600160a01b0319166001600160a01b0392909216919091179055565b6007545f90600160b01b900460ff1661115f575060095490565b5060085490565b61116e611b7b565b600754600160a81b900460ff16156111d25760405162461bcd60e51b815260206004820152602160248201527f43616e6e6f742063616e63656c2061667465722077696e6e65722069732073656044820152601d60fa1b6064820152608401610878565b600754600160c01b900460ff16156112255760405162461bcd60e51b8152602060048201526016602482015275141bdbdb08185b1c9958591e4818d85b98d95b1b195960521b6044820152606401610878565b6007805460ff60c01b1916600160c01b1790556040517fb8201d4fe5c71cc4bf444acaf4124edf462bda026c79355261a71d9f40d5cd0a90611268908390611df2565b60405180910390a150565b61127b611c23565b600754600160a81b900460ff166112c95760405162461bcd60e51b815260206004820152601260248201527115da5b9b995c881b9bdd081cd95d081e595d60721b6044820152606401610878565b335f908152600b60205260409020600101546113175760405162461bcd60e51b815260206004820152600d60248201526c139bc818995d081c1b1858d959609a1b6044820152606401610878565b335f908152600b602052604090206002015460ff161561136b5760405162461bcd60e51b815260206004820152600f60248201526e105b1c9958591e4818db185a5b5959608a1b6044820152606401610878565b600754335f908152600b602052604090205460ff9081161515600160b01b909204161515146113d05760405162461bcd60e51b8152602060048201526011602482015270139bdd0818481dda5b9b9a5b99c818995d607a1b6044820152606401610878565b335f908152600b6020526040812060028101805460ff191660019081179091550154600754909190600160b01b900460ff1661140e57600954611412565b6008545b6007549091505f90600160b01b900460ff1661143057600854611434565b6009545b600a549091505f612710611449609685611ec4565b6114539190611edb565b90505f611460828461203e565b90505f8561146e8389611ec4565b6114789190611edb565b90505f831180156114b357505f8052600d6020527f81955a0a11e65eac625c29e8882660bae4e165a75d72780094acae8ece9a29ee5460ff16155b156115ce57600f546040515f916001600160a01b03169085908381818185875af1925050503d805f8114611502576040519150601f19603f3d011682016040523d82523d5f602084013e611507565b606091505b505090508061154e5760405162461bcd60e51b8152602060048201526013602482015272119959481d1c985b9cd9995c8819985a5b1959606a1b6044820152606401610878565b5f8052600d6020527f81955a0a11e65eac625c29e8882660bae4e165a75d72780094acae8ece9a29ee805460ff19166001179055600f546040516001600160a01b0391909116907f34e8a84e537ed93d93ddf39a78816dcbc74df8397c635838b8cc973d4fa943f8906115c49087815260200190565b60405180910390a2505b6040515f90339083908381818185875af1925050503d805f811461160d576040519150601f19603f3d011682016040523d82523d5f602084013e611612565b606091505b505090508061165c5760405162461bcd60e51b815260206004820152601660248201527514995dd85c99081d1c985b9cd9995c8819985a5b195960521b6044820152606401610878565b81600e5f82825461166d9190611f14565b909155505060405182815233907f106f923f993c2149d49b4255ff723acafa1f2d94393f561d3eda32ae348f72419060200160405180910390a25050505050505050610ff760018055565b6116c0611c23565b600754600160c01b900460ff1661170e5760405162461bcd60e51b8152602060048201526012602482015271141bdbdb081b9bdd0818d85b98d95b1b195960721b6044820152606401610878565b335f908152600b602052604090206001015461175c5760405162461bcd60e51b815260206004820152600d60248201526c139bc818995d081c1b1858d959609a1b6044820152606401610878565b335f908152600b602052604090206002015460ff16156117b05760405162461bcd60e51b815260206004820152600f60248201526e105b1c9958591e4818db185a5b5959608a1b6044820152606401610878565b335f818152600b602052604080822060028101805460ff191660019081179091550154905190929083908381818185875af1925050503d805f8114611810576040519150601f19603f3d011682016040523d82523d5f602084013e611815565b606091505b505090508061185f5760405162461bcd60e51b81526020600482015260166024820152751499599d5b99081d1c985b9cd9995c8819985a5b195960521b6044820152606401610878565b60405182815233907f358fe4192934d3bf28ae181feda1f4bd08ca67f5e2fad55582cce5eb67304ae99060200160405180910390a25050610ff760018055565b6118a7611b7b565b60078054821515600160b81b0260ff60b81b199091161790556040517f05b88d23d9a60b7924fccc370e1e0c1ccf49989e3b2968cafaf7db7fc13bd13f9061126890831515815260200190565b6007545f90600160a01b900460ff1615801561191a5750600754600160b81b900460ff16155b80156119305750600754600160c01b900460ff16155b8015610e07575050600554421090565b60048054610e1990611f27565b611955611b7b565b600754600160a01b900460ff166119ae5760405162461bcd60e51b815260206004820152601960248201527f506f6f6c206d75737420626520636c6f736564206669727374000000000000006044820152606401610878565b600754600160a81b900460ff16156119fd5760405162461bcd60e51b815260206004820152601260248201527115da5b9b995c88185b1c9958591e481cd95d60721b6044820152606401610878565b6007805460ff60a81b19831515600160b01b021661ffff60a81b1990911617600160a81b1790555f81611a4e57604051806040016040528060068152602001652727903bb7b760d11b815250611a6f565b604051806040016040528060078152602001662ca2a9903bb7b760c91b8152505b90507f9f1ed7ec730b47aa440b5ede52772362be32571a818cd31ac36a295e8393b98e8282604051610929929190611efa565b611aaa611b7b565b6001600160a01b038116611b0f5760405162461bcd60e51b815260206004820152602660248201527f4f776e61626c653a206e6577206f776e657220697320746865207a65726f206160448201526564647265737360d01b6064820152608401610878565b611b1881611bd4565b50565b6060600c805480602002602001604051908101604052809291908181526020018280548015611b7157602002820191905f5260205f20905b81546001600160a01b03168152600190910190602001808311611b53575b5050505050905090565b5f546001600160a01b03163314610ff75760405162461bcd60e51b815260206004820181905260248201527f4f776e61626c653a2063616c6c6572206973206e6f7420746865206f776e65726044820152606401610878565b5f80546001600160a01b038381166001600160a01b0319831681178455604051919092169283917f8be0079c531659141344cd1fd0a4f28419497f9722a3daafe3b4186f6b6457e09190a35050565b600260015403611c755760405162461bcd60e51b815260206004820152601f60248201527f5265656e7472616e637947756172643a207265656e7472616e742063616c6c006044820152606401610878565b6002600155565b80358015158114611c8b575f80fd5b919050565b634e487b7160e01b5f52604160045260245ffd5b5f82601f830112611cb3575f80fd5b813567ffffffffffffffff80821115611cce57611cce611c90565b604051601f8301601f19908116603f01168101908282118183101715611cf657611cf6611c90565b81604052838152866020858801011115611d0e575f80fd5b836020870160208301375f602085830101528094505050505092915050565b5f8060408385031215611d3e575f80fd5b611d4783611c7c565b9150602083013567ffffffffffffffff811115611d62575f80fd5b611d6e85828601611ca4565b9150509250929050565b5f60208284031215611d88575f80fd5b611d9182611c7c565b9392505050565b5f60208284031215611da8575f80fd5b5035919050565b5f81518084525f5b81811015611dd357602081850181015186830182015201611db7565b505f602082860101526020601f19601f83011685010191505092915050565b602081525f611d916020830184611daf565b5f60208284031215611e14575f80fd5b81356001600160a01b0381168114611d91575f80fd5b5f60208284031215611e3a575f80fd5b813567ffffffffffffffff811115611e50575f80fd5b611e5c84828501611ca4565b949350505050565b602080825282518282018190525f9190848201906040850190845b81811015611ea45783516001600160a01b031683529284019291840191600101611e7f565b50909695505050505050565b634e487b7160e01b5f52601160045260245ffd5b808202811582820484141761106157611061611eb0565b5f82611ef557634e487b7160e01b5f52601260045260245ffd5b500490565b8215158152604060208201525f611e5c6040830184611daf565b8082018082111561106157611061611eb0565b600181811c90821680611f3b57607f821691505b602082108103611f5957634e487b7160e01b5f52602260045260245ffd5b50919050565b8681525f6020871515602084015286604084015285606084015260c060808401525f85545f60018260011c91506001831680611f9c57607f831692505b602083108103611fba57634e487b7160e01b5f52602260045260245ffd5b60c0880183905260e08801818015611fd95760018114611fef57612018565b60ff198616825284151560051b82019650612018565b5f8c8152602090205f5b8681101561201257815484820152908501908901611ff9565b83019750505b50505050505083810360a08501526120308186611daf565b9a9950505050505050505050565b8181038181111561106157611061611eb056fea26469706673582212204114cbe4bfd1b577f8448a040b91905cfff735590d45661e6c97d446e1c9b89264736f6c63430008180033a2646970667358221220b104456ae65168787344a50bfb34cf546a95f5761b7c3080453fc715a196646564736f6c63430008180033","opcodes":"PUSH1 0x80 PUSH1 0x40 MSTORE CALLVALUE DUP1 ISZERO PUSH2 0xF JUMPI PUSH0 DUP1 REVERT JUMPDEST POP PUSH2 0x19 CALLER PUSH2 0x22 JUMP JUMPDEST PUSH1 0x1 DUP1 SSTORE PUSH2 0x71 JUMP JUMPDEST PUSH0 DUP1 SLOAD PUSH1 0x1 PUSH1 0x1 PUSH1 0xA0 SHL SUB DUP4 DUP2 AND PUSH1 0x1 PUSH1 0x1 PUSH1 0xA0 SHL SUB NOT DUP4 AND DUP2 OR DUP5 SSTORE PUSH1 0x40 MLOAD SWAP2 SWAP1 SWAP3 AND SWAP3 DUP4 SWAP2 PUSH32 0x8BE0079C531659141344CD1FD0A4F28419497F9722A3DAAFE3B4186F6B6457E0 SWAP2 SWAP1 LOG3 POP POP JUMP JUMPDEST PUSH2 0x44B3 DUP1 PUSH2 0x7E PUSH0 CODECOPY PUSH0 RETURN INVALID PUSH1 0x80 PUSH1 0x40 MSTORE PUSH1 0x4 CALLDATASIZE LT PUSH3 0x135 JUMPI PUSH0 CALLDATALOAD PUSH1 0xE0 SHR DUP1 PUSH4 0x8DA5CB5B GT PUSH3 0xAA JUMPI DUP1 PUSH4 0xD88FF1F4 GT PUSH3 0x6A JUMPI DUP1 PUSH4 0xD88FF1F4 EQ PUSH3 0x376 JUMPI DUP1 PUSH4 0xDF75DEBF EQ PUSH3 0x38D JUMPI DUP1 PUSH4 0xE1F1C4A7 EQ PUSH3 0x3B1 JUMPI DUP1 PUSH4 0xE8FC5115 EQ PUSH3 0x3C8 JUMPI DUP1 PUSH4 0xF2FDE38B EQ PUSH3 0x3EC JUMPI PUSH0 DUP1 REVERT JUMPDEST DUP1 PUSH4 0x8DA5CB5B EQ PUSH3 0x2C0 JUMPI DUP1 PUSH4 0x8EEC5D70 EQ PUSH3 0x2DE JUMPI DUP1 PUSH4 0x9A7B5F11 EQ PUSH3 0x2F4 JUMPI DUP1 PUSH4 0xA480CA79 EQ PUSH3 0x32E JUMPI DUP1 PUSH4 0xAE288AB1 EQ PUSH3 0x352 JUMPI PUSH0 DUP1 REVERT JUMPDEST DUP1 PUSH4 0x41D1DE97 GT PUSH3 0xF6 JUMPI DUP1 PUSH4 0x41D1DE97 EQ PUSH3 0x233 JUMPI DUP1 PUSH4 0x476343EE EQ PUSH3 0x257 JUMPI DUP1 PUSH4 0x47FC142D EQ PUSH3 0x26E JUMPI DUP1 PUSH4 0x60C6D8AE EQ PUSH3 0x292 JUMPI DUP1 PUSH4 0x715018A6 EQ PUSH3 0x2A9 JUMPI PUSH0 DUP1 REVERT JUMPDEST DUP1 PUSH3 0xB46F8 EQ PUSH3 0x141 JUMPI DUP1 PUSH4 0x6BFA938 EQ PUSH3 0x16A JUMPI DUP1 PUSH4 0x1E073978 EQ PUSH3 0x19D JUMPI DUP1 PUSH4 0x29D0CDF4 EQ PUSH3 0x1D0 JUMPI DUP1 PUSH4 0x4194B6F0 EQ PUSH3 0x1F6 JUMPI PUSH0 DUP1 REVERT JUMPDEST CALLDATASIZE PUSH3 0x13D JUMPI STOP JUMPDEST PUSH0 DUP1 REVERT JUMPDEST CALLVALUE DUP1 ISZERO PUSH3 0x14D JUMPI PUSH0 DUP1 REVERT JUMPDEST POP PUSH3 0x157 PUSH1 0x96 DUP2 JUMP JUMPDEST PUSH1 0x40 MLOAD SWAP1 DUP2 MSTORE PUSH1 0x20 ADD JUMPDEST PUSH1 0x40 MLOAD DUP1 SWAP2 SUB SWAP1 RETURN JUMPDEST CALLVALUE DUP1 ISZERO PUSH3 0x176 JUMPI PUSH0 DUP1 REVERT JUMPDEST POP PUSH3 0x18E PUSH3 0x188 CALLDATASIZE PUSH1 0x4 PUSH3 0x1838 JUMP JUMPDEST PUSH3 0x410 JUMP JUMPDEST PUSH1 0x40 MLOAD PUSH3 0x161 SWAP2 SWAP1 PUSH3 0x18A0 JUMP JUMPDEST CALLVALUE DUP1 ISZERO PUSH3 0x1A9 JUMPI PUSH0 DUP1 REVERT JUMPDEST POP PUSH3 0x1C1 PUSH3 0x1BB CALLDATASIZE PUSH1 0x4 PUSH3 0x19F9 JUMP JUMPDEST PUSH3 0x693 JUMP JUMPDEST PUSH1 0x40 MLOAD PUSH3 0x161 SWAP2 SWAP1 PUSH3 0x1A2F JUMP JUMPDEST CALLVALUE DUP1 ISZERO PUSH3 0x1DC JUMPI PUSH0 DUP1 REVERT JUMPDEST POP PUSH3 0x1F4 PUSH3 0x1EE CALLDATASIZE PUSH1 0x4 PUSH3 0x1838 JUMP JUMPDEST PUSH3 0x873 JUMP JUMPDEST STOP JUMPDEST CALLVALUE DUP1 ISZERO PUSH3 0x202 JUMPI PUSH0 DUP1 REVERT JUMPDEST POP PUSH3 0x21A PUSH3 0x214 CALLDATASIZE PUSH1 0x4 PUSH3 0x1A7D JUMP JUMPDEST PUSH3 0x985 JUMP JUMPDEST PUSH1 0x40 MLOAD PUSH1 0x1 PUSH1 0x1 PUSH1 0xA0 SHL SUB SWAP1 SWAP2 AND DUP2 MSTORE PUSH1 0x20 ADD PUSH3 0x161 JUMP JUMPDEST CALLVALUE DUP1 ISZERO PUSH3 0x23F JUMPI PUSH0 DUP1 REVERT JUMPDEST POP PUSH3 0x21A PUSH3 0x251 CALLDATASIZE PUSH1 0x4 PUSH3 0x1B1A JUMP JUMPDEST PUSH3 0xE17 JUMP JUMPDEST CALLVALUE DUP1 ISZERO PUSH3 0x263 JUMPI PUSH0 DUP1 REVERT JUMPDEST POP PUSH3 0x1F4 PUSH3 0xE40 JUMP JUMPDEST CALLVALUE DUP1 ISZERO PUSH3 0x27A JUMPI PUSH0 DUP1 REVERT JUMPDEST POP PUSH3 0x1F4 PUSH3 0x28C CALLDATASIZE PUSH1 0x4 PUSH3 0x1B42 JUMP JUMPDEST PUSH3 0xF03 JUMP JUMPDEST CALLVALUE DUP1 ISZERO PUSH3 0x29E JUMPI PUSH0 DUP1 REVERT JUMPDEST POP PUSH3 0x157 PUSH1 0x4 SLOAD DUP2 JUMP JUMPDEST CALLVALUE DUP1 ISZERO PUSH3 0x2B5 JUMPI PUSH0 DUP1 REVERT JUMPDEST POP PUSH3 0x1F4 PUSH3 0xFEE JUMP JUMPDEST CALLVALUE DUP1 ISZERO PUSH3 0x2CC JUMPI PUSH0 DUP1 REVERT JUMPDEST POP PUSH0 SLOAD PUSH1 0x1 PUSH1 0x1 PUSH1 0xA0 SHL SUB AND PUSH3 0x21A JUMP JUMPDEST CALLVALUE DUP1 ISZERO PUSH3 0x2EA JUMPI PUSH0 DUP1 REVERT JUMPDEST POP PUSH1 0x2 SLOAD PUSH3 0x157 JUMP JUMPDEST CALLVALUE DUP1 ISZERO PUSH3 0x300 JUMPI PUSH0 DUP1 REVERT JUMPDEST POP PUSH3 0x318 PUSH3 0x312 CALLDATASIZE PUSH1 0x4 PUSH3 0x1838 JUMP JUMPDEST PUSH3 0x1005 JUMP JUMPDEST PUSH1 0x40 MLOAD PUSH3 0x161 SWAP9 SWAP8 SWAP7 SWAP6 SWAP5 SWAP4 SWAP3 SWAP2 SWAP1 PUSH3 0x1B78 JUMP JUMPDEST CALLVALUE DUP1 ISZERO PUSH3 0x33A JUMPI PUSH0 DUP1 REVERT JUMPDEST POP PUSH3 0x157 PUSH3 0x34C CALLDATASIZE PUSH1 0x4 PUSH3 0x1838 JUMP JUMPDEST PUSH3 0x11FF JUMP JUMPDEST CALLVALUE DUP1 ISZERO PUSH3 0x35E JUMPI PUSH0 DUP1 REVERT JUMPDEST POP PUSH3 0x1F4 PUSH3 0x370 CALLDATASIZE PUSH1 0x4 PUSH3 0x1BF0 JUMP JUMPDEST PUSH3 0x137D JUMP JUMPDEST CALLVALUE DUP1 ISZERO PUSH3 0x382 JUMPI PUSH0 DUP1 REVERT JUMPDEST POP PUSH3 0x1C1 PUSH3 0x145D JUMP JUMPDEST CALLVALUE DUP1 ISZERO PUSH3 0x399 JUMPI PUSH0 DUP1 REVERT JUMPDEST POP PUSH3 0x1F4 PUSH3 0x3AB CALLDATASIZE PUSH1 0x4 PUSH3 0x1B42 JUMP JUMPDEST PUSH3 0x14BF JUMP JUMPDEST CALLVALUE DUP1 ISZERO PUSH3 0x3BD JUMPI PUSH0 DUP1 REVERT JUMPDEST POP PUSH3 0x157 PUSH2 0x2710 DUP2 JUMP JUMPDEST CALLVALUE DUP1 ISZERO PUSH3 0x3D4 JUMPI PUSH0 DUP1 REVERT JUMPDEST POP PUSH3 0x1F4 PUSH3 0x3E6 CALLDATASIZE PUSH1 0x4 PUSH3 0x1C41 JUMP JUMPDEST PUSH3 0x159D JUMP JUMPDEST CALLVALUE DUP1 ISZERO PUSH3 0x3F8 JUMPI PUSH0 DUP1 REVERT JUMPDEST POP PUSH3 0x1F4 PUSH3 0x40A CALLDATASIZE PUSH1 0x4 PUSH3 0x1838 JUMP JUMPDEST PUSH3 0x168F JUMP JUMPDEST PUSH3 0x45F PUSH1 0x40 MLOAD DUP1 PUSH2 0x100 ADD PUSH1 0x40 MSTORE DUP1 PUSH1 0x60 DUP2 MSTORE PUSH1 0x20 ADD PUSH1 0x60 DUP2 MSTORE PUSH1 0x20 ADD PUSH1 0x60 DUP2 MSTORE PUSH1 0x20 ADD PUSH0 DUP2 MSTORE PUSH1 0x20 ADD PUSH0 DUP2 MSTORE PUSH1 0x20 ADD PUSH0 PUSH1 0x1 PUSH1 0x1 PUSH1 0xA0 SHL SUB AND DUP2 MSTORE PUSH1 0x20 ADD PUSH0 ISZERO ISZERO DUP2 MSTORE PUSH1 0x20 ADD PUSH0 DUP2 MSTORE POP SWAP1 JUMP JUMPDEST PUSH1 0x1 PUSH1 0x1 PUSH1 0xA0 SHL SUB DUP3 AND PUSH0 SWAP1 DUP2 MSTORE PUSH1 0x3 PUSH1 0x20 MSTORE PUSH1 0x40 SWAP1 DUP2 SWAP1 KECCAK256 DUP2 MLOAD PUSH2 0x100 DUP2 ADD SWAP1 SWAP3 MSTORE DUP1 SLOAD DUP3 SWAP1 DUP3 SWAP1 PUSH3 0x493 SWAP1 PUSH3 0x1CA3 JUMP JUMPDEST DUP1 PUSH1 0x1F ADD PUSH1 0x20 DUP1 SWAP2 DIV MUL PUSH1 0x20 ADD PUSH1 0x40 MLOAD SWAP1 DUP2 ADD PUSH1 0x40 MSTORE DUP1 SWAP3 SWAP2 SWAP1 DUP2 DUP2 MSTORE PUSH1 0x20 ADD DUP3 DUP1 SLOAD PUSH3 0x4C1 SWAP1 PUSH3 0x1CA3 JUMP JUMPDEST DUP1 ISZERO PUSH3 0x510 JUMPI DUP1 PUSH1 0x1F LT PUSH3 0x4E6 JUMPI PUSH2 0x100 DUP1 DUP4 SLOAD DIV MUL DUP4 MSTORE SWAP2 PUSH1 0x20 ADD SWAP2 PUSH3 0x510 JUMP JUMPDEST DUP3 ADD SWAP2 SWAP1 PUSH0 MSTORE PUSH1 0x20 PUSH0 KECCAK256 SWAP1 JUMPDEST DUP2 SLOAD DUP2 MSTORE SWAP1 PUSH1 0x1 ADD SWAP1 PUSH1 0x20 ADD DUP1 DUP4 GT PUSH3 0x4F2 JUMPI DUP3 SWAP1 SUB PUSH1 0x1F AND DUP3 ADD SWAP2 JUMPDEST POP POP POP POP POP DUP2 MSTORE PUSH1 0x20 ADD PUSH1 0x1 DUP3 ADD DUP1 SLOAD PUSH3 0x52B SWAP1 PUSH3 0x1CA3 JUMP JUMPDEST DUP1 PUSH1 0x1F ADD PUSH1 0x20 DUP1 SWAP2 DIV MUL PUSH1 0x20 ADD PUSH1 0x40 MLOAD SWAP1 DUP2 ADD PUSH1 0x40 MSTORE DUP1 SWAP3 SWAP2 SWAP1 DUP2 DUP2 MSTORE PUSH1 0x20 ADD DUP3 DUP1 SLOAD PUSH3 0x559 SWAP1 PUSH3 0x1CA3 JUMP JUMPDEST DUP1 ISZERO PUSH3 0x5A8 JUMPI DUP1 PUSH1 0x1F LT PUSH3 0x57E JUMPI PUSH2 0x100 DUP1 DUP4 SLOAD DIV MUL DUP4 MSTORE SWAP2 PUSH1 0x20 ADD SWAP2 PUSH3 0x5A8 JUMP JUMPDEST DUP3 ADD SWAP2 SWAP1 PUSH0 MSTORE PUSH1 0x20 PUSH0 KECCAK256 SWAP1 JUMPDEST DUP2 SLOAD DUP2 MSTORE SWAP1 PUSH1 0x1 ADD SWAP1 PUSH1 0x20 ADD DUP1 DUP4 GT PUSH3 0x58A JUMPI DUP3 SWAP1 SUB PUSH1 0x1F AND DUP3 ADD SWAP2 JUMPDEST POP POP POP POP POP DUP2 MSTORE PUSH1 0x20 ADD PUSH1 0x2 DUP3 ADD DUP1 SLOAD PUSH3 0x5C3 SWAP1 PUSH3 0x1CA3 JUMP JUMPDEST DUP1 PUSH1 0x1F ADD PUSH1 0x20 DUP1 SWAP2 DIV MUL PUSH1 0x20 ADD PUSH1 0x40 MLOAD SWAP1 DUP2 ADD PUSH1 0x40 MSTORE DUP1 SWAP3 SWAP2 SWAP1 DUP2 DUP2 MSTORE PUSH1 0x20 ADD DUP3 DUP1 SLOAD PUSH3 0x5F1 SWAP1 PUSH3 0x1CA3 JUMP JUMPDEST DUP1 ISZERO PUSH3 0x640 JUMPI DUP1 PUSH1 0x1F LT PUSH3 0x616 JUMPI PUSH2 0x100 DUP1 DUP4 SLOAD DIV MUL DUP4 MSTORE SWAP2 PUSH1 0x20 ADD SWAP2 PUSH3 0x640 JUMP JUMPDEST DUP3 ADD SWAP2 SWAP1 PUSH0 MSTORE PUSH1 0x20 PUSH0 KECCAK256 SWAP1 JUMPDEST DUP2 SLOAD DUP2 MSTORE SWAP1 PUSH1 0x1 ADD SWAP1 PUSH1 0x20 ADD DUP1 DUP4 GT PUSH3 0x622 JUMPI DUP3 SWAP1 SUB PUSH1 0x1F AND DUP3 ADD SWAP2 JUMPDEST POP POP POP SWAP2 DUP4 MSTORE POP POP PUSH1 0x3 DUP3 ADD SLOAD PUSH1 0x20 DUP3 ADD MSTORE PUSH1 0x4 DUP3 ADD SLOAD PUSH1 0x40 DUP3 ADD MSTORE PUSH1 0x5 DUP3 ADD SLOAD PUSH1 0x1 PUSH1 0x1 PUSH1 0xA0 SHL SUB DUP2 AND PUSH1 0x60 DUP4 ADD MSTORE PUSH1 0x1 PUSH1 0xA0 SHL SWAP1 DIV PUSH1 0xFF AND ISZERO ISZERO PUSH1 0x80 DUP3 ADD MSTORE PUSH1 0x6 SWAP1 SWAP2 ADD SLOAD PUSH1 0xA0 SWAP1 SWAP2 ADD MSTORE SWAP3 SWAP2 POP POP JUMP JUMPDEST PUSH1 0x2 SLOAD PUSH1 0x60 SWAP1 PUSH0 SWAP1 DUP2 JUMPDEST DUP2 DUP2 LT ISZERO PUSH3 0x725 JUMPI DUP5 DUP1 MLOAD SWAP1 PUSH1 0x20 ADD KECCAK256 PUSH1 0x3 PUSH0 PUSH1 0x2 DUP5 DUP2 SLOAD DUP2 LT PUSH3 0x6C7 JUMPI PUSH3 0x6C7 PUSH3 0x1CDD JUMP JUMPDEST PUSH0 SWAP2 DUP3 MSTORE PUSH1 0x20 DUP1 DUP4 KECCAK256 SWAP1 SWAP2 ADD SLOAD PUSH1 0x1 PUSH1 0x1 PUSH1 0xA0 SHL SUB AND DUP4 MSTORE DUP3 ADD SWAP3 SWAP1 SWAP3 MSTORE PUSH1 0x40 SWAP1 DUP2 ADD SWAP1 SWAP2 KECCAK256 SWAP1 MLOAD PUSH3 0x6FE SWAP2 PUSH1 0x2 ADD SWAP1 PUSH3 0x1CF1 JUMP JUMPDEST PUSH1 0x40 MLOAD DUP1 SWAP2 SUB SWAP1 KECCAK256 SUB PUSH3 0x71C JUMPI DUP3 PUSH3 0x718 DUP2 PUSH3 0x1D7F JUMP JUMPDEST SWAP4 POP POP JUMPDEST PUSH1 0x1 ADD PUSH3 0x69D JUMP JUMPDEST POP PUSH0 DUP3 PUSH8 0xFFFFFFFFFFFFFFFF DUP2 GT ISZERO PUSH3 0x743 JUMPI PUSH3 0x743 PUSH3 0x1954 JUMP JUMPDEST PUSH1 0x40 MLOAD SWAP1 DUP1 DUP3 MSTORE DUP1 PUSH1 0x20 MUL PUSH1 0x20 ADD DUP3 ADD PUSH1 0x40 MSTORE DUP1 ISZERO PUSH3 0x76D JUMPI DUP2 PUSH1 0x20 ADD PUSH1 0x20 DUP3 MUL DUP1 CALLDATASIZE DUP4 CALLDATACOPY ADD SWAP1 POP JUMPDEST POP SWAP1 POP DUP3 ISZERO PUSH3 0x86B JUMPI PUSH0 DUP1 JUMPDEST DUP4 DUP2 LT ISZERO PUSH3 0x868 JUMPI DUP7 DUP1 MLOAD SWAP1 PUSH1 0x20 ADD KECCAK256 PUSH1 0x3 PUSH0 PUSH1 0x2 DUP5 DUP2 SLOAD DUP2 LT PUSH3 0x7A4 JUMPI PUSH3 0x7A4 PUSH3 0x1CDD JUMP JUMPDEST PUSH0 SWAP2 DUP3 MSTORE PUSH1 0x20 DUP1 DUP4 KECCAK256 SWAP1 SWAP2 ADD SLOAD PUSH1 0x1 PUSH1 0x1 PUSH1 0xA0 SHL SUB AND DUP4 MSTORE DUP3 ADD SWAP3 SWAP1 SWAP3 MSTORE PUSH1 0x40 SWAP1 DUP2 ADD SWAP1 SWAP2 KECCAK256 SWAP1 MLOAD PUSH3 0x7DB SWAP2 PUSH1 0x2 ADD SWAP1 PUSH3 0x1CF1 JUMP JUMPDEST PUSH1 0x40 MLOAD DUP1 SWAP2 SUB SWAP1 KECCAK256 SUB PUSH3 0x85F JUMPI PUSH1 0x2 DUP2 DUP2 SLOAD DUP2 LT PUSH3 0x7FF JUMPI PUSH3 0x7FF PUSH3 0x1CDD JUMP JUMPDEST SWAP1 PUSH0 MSTORE PUSH1 0x20 PUSH0 KECCAK256 ADD PUSH0 SWAP1 SLOAD SWAP1 PUSH2 0x100 EXP SWAP1 DIV PUSH1 0x1 PUSH1 0x1 PUSH1 0xA0 SHL SUB AND DUP4 DUP4 DUP2 MLOAD DUP2 LT PUSH3 0x82F JUMPI PUSH3 0x82F PUSH3 0x1CDD JUMP JUMPDEST PUSH1 0x1 PUSH1 0x1 PUSH1 0xA0 SHL SUB SWAP1 SWAP3 AND PUSH1 0x20 SWAP3 DUP4 MUL SWAP2 SWAP1 SWAP2 ADD SWAP1 SWAP2 ADD MSTORE DUP2 PUSH3 0x853 DUP2 PUSH3 0x1D7F JUMP JUMPDEST SWAP3 POP POP DUP5 DUP3 EQ PUSH3 0x868 JUMPI JUMPDEST PUSH1 0x1 ADD PUSH3 0x77A JUMP JUMPDEST POP POP JUMPDEST SWAP5 SWAP4 POP POP POP POP JUMP JUMPDEST PUSH3 0x87D PUSH3 0x170E JUMP JUMPDEST PUSH1 0x1 PUSH1 0x1 PUSH1 0xA0 SHL SUB DUP2 DUP2 AND PUSH0 SWAP1 DUP2 MSTORE PUSH1 0x3 PUSH1 0x20 MSTORE PUSH1 0x40 SWAP1 KECCAK256 PUSH1 0x5 ADD SLOAD AND PUSH3 0x8C2 JUMPI PUSH1 0x40 MLOAD PUSH3 0x461BCD PUSH1 0xE5 SHL DUP2 MSTORE PUSH1 0x4 ADD PUSH3 0x8B9 SWAP1 PUSH3 0x1D9A JUMP JUMPDEST PUSH1 0x40 MLOAD DUP1 SWAP2 SUB SWAP1 REVERT JUMPDEST PUSH1 0x1 PUSH1 0x1 PUSH1 0xA0 SHL SUB DUP2 AND PUSH0 SWAP1 DUP2 MSTORE PUSH1 0x3 PUSH1 0x20 MSTORE PUSH1 0x40 SWAP1 KECCAK256 PUSH1 0x5 ADD SLOAD PUSH1 0x1 PUSH1 0xA0 SHL SWAP1 DIV PUSH1 0xFF AND PUSH3 0x92B JUMPI PUSH1 0x40 MLOAD PUSH3 0x461BCD PUSH1 0xE5 SHL DUP2 MSTORE PUSH1 0x20 PUSH1 0x4 DUP3 ADD MSTORE PUSH1 0x13 PUSH1 0x24 DUP3 ADD MSTORE PUSH19 0x141BDBDB08185B1C9958591E4818DB1BDCD959 PUSH1 0x6A SHL PUSH1 0x44 DUP3 ADD MSTORE PUSH1 0x64 ADD PUSH3 0x8B9 JUMP JUMPDEST PUSH1 0x1 PUSH1 0x1 PUSH1 0xA0 SHL SUB DUP2 AND PUSH0 DUP2 DUP2 MSTORE PUSH1 0x3 PUSH1 0x20 SWAP1 DUP2 MSTORE PUSH1 0x40 DUP1 DUP4 KECCAK256 PUSH1 0x5 ADD DUP1 SLOAD PUSH1 0xFF PUSH1 0xA0 SHL NOT AND SWAP1 SSTORE MLOAD SWAP2 DUP3 MSTORE PUSH32 0xCD5AA1599AD157F72C3187DA57310232F1EF8D5A9C9CD5F8A650F0F4CAE1A9FD SWAP2 ADD PUSH1 0x40 MLOAD DUP1 SWAP2 SUB SWAP1 LOG2 POP JUMP JUMPDEST PUSH0 PUSH3 0x990 PUSH3 0x170E JUMP JUMPDEST PUSH0 DUP7 MLOAD GT PUSH3 0x9DA JUMPI PUSH1 0x40 MLOAD PUSH3 0x461BCD PUSH1 0xE5 SHL DUP2 MSTORE PUSH1 0x20 PUSH1 0x4 DUP3 ADD MSTORE PUSH1 0x15 PUSH1 0x24 DUP3 ADD MSTORE PUSH21 0x5469746C652063616E6E6F7420626520656D707479 PUSH1 0x58 SHL PUSH1 0x44 DUP3 ADD MSTORE PUSH1 0x64 ADD PUSH3 0x8B9 JUMP JUMPDEST PUSH1 0x64 DUP7 MLOAD GT ISZERO PUSH3 0xA1F JUMPI PUSH1 0x40 MLOAD PUSH3 0x461BCD PUSH1 0xE5 SHL DUP2 MSTORE PUSH1 0x20 PUSH1 0x4 DUP3 ADD MSTORE PUSH1 0xE PUSH1 0x24 DUP3 ADD MSTORE PUSH14 0x5469746C6520746F6F206C6F6E67 PUSH1 0x90 SHL PUSH1 0x44 DUP3 ADD MSTORE PUSH1 0x64 ADD PUSH3 0x8B9 JUMP JUMPDEST PUSH2 0x1F4 DUP6 MLOAD GT ISZERO PUSH3 0xA6B JUMPI PUSH1 0x40 MLOAD PUSH3 0x461BCD PUSH1 0xE5 SHL DUP2 MSTORE PUSH1 0x20 PUSH1 0x4 DUP3 ADD MSTORE PUSH1 0x14 PUSH1 0x24 DUP3 ADD MSTORE PUSH20 0x4465736372697074696F6E20746F6F206C6F6E67 PUSH1 0x60 SHL PUSH1 0x44 DUP3 ADD MSTORE PUSH1 0x64 ADD PUSH3 0x8B9 JUMP JUMPDEST PUSH0 DUP5 MLOAD GT PUSH3 0xABD JUMPI PUSH1 0x40 MLOAD PUSH3 0x461BCD PUSH1 0xE5 SHL DUP2 MSTORE PUSH1 0x20 PUSH1 0x4 DUP3 ADD MSTORE PUSH1 0x18 PUSH1 0x24 DUP3 ADD MSTORE PUSH32 0x43617465676F72792063616E6E6F7420626520656D7074790000000000000000 PUSH1 0x44 DUP3 ADD MSTORE PUSH1 0x64 ADD PUSH3 0x8B9 JUMP JUMPDEST TIMESTAMP DUP4 GT PUSH3 0xB19 JUMPI PUSH1 0x40 MLOAD PUSH3 0x461BCD PUSH1 0xE5 SHL DUP2 MSTORE PUSH1 0x20 PUSH1 0x4 DUP3 ADD MSTORE PUSH1 0x22 PUSH1 0x24 DUP3 ADD MSTORE PUSH32 0x436C6F73696E672064617465206D75737420626520696E207468652066757475 PUSH1 0x44 DUP3 ADD MSTORE PUSH2 0x7265 PUSH1 0xF0 SHL PUSH1 0x64 DUP3 ADD MSTORE PUSH1 0x84 ADD PUSH3 0x8B9 JUMP JUMPDEST PUSH3 0xB29 TIMESTAMP PUSH4 0x1E13380 PUSH3 0x1DC7 JUMP JUMPDEST DUP4 GT ISZERO PUSH3 0xB85 JUMPI PUSH1 0x40 MLOAD PUSH3 0x461BCD PUSH1 0xE5 SHL DUP2 MSTORE PUSH1 0x20 PUSH1 0x4 DUP3 ADD MSTORE PUSH1 0x22 PUSH1 0x24 DUP3 ADD MSTORE PUSH32 0x436C6F73696E67206461746520746F6F2066617220696E207468652066757475 PUSH1 0x44 DUP3 ADD MSTORE PUSH2 0x7265 PUSH1 0xF0 SHL PUSH1 0x64 DUP3 ADD MSTORE PUSH1 0x84 ADD PUSH3 0x8B9 JUMP JUMPDEST DUP3 DUP3 GT PUSH3 0xBE5 JUMPI PUSH1 0x40 MLOAD PUSH3 0x461BCD PUSH1 0xE5 SHL DUP2 MSTORE PUSH1 0x20 PUSH1 0x4 DUP3 ADD MSTORE PUSH1 0x26 PUSH1 0x24 DUP3 ADD MSTORE PUSH32 0x436C6F73696E6720626964206D75737420626520616674657220636C6F73696E PUSH1 0x44 DUP3 ADD MSTORE PUSH6 0x672064617465 PUSH1 0xD0 SHL PUSH1 0x64 DUP3 ADD MSTORE PUSH1 0x84 ADD PUSH3 0x8B9 JUMP JUMPDEST PUSH3 0xBF4 DUP4 PUSH3 0x278D00 PUSH3 0x1DC7 JUMP JUMPDEST DUP3 GT ISZERO PUSH3 0xC54 JUMPI PUSH1 0x40 MLOAD PUSH3 0x461BCD PUSH1 0xE5 SHL DUP2 MSTORE PUSH1 0x20 PUSH1 0x4 DUP3 ADD MSTORE PUSH1 0x26 PUSH1 0x24 DUP3 ADD MSTORE PUSH32 0x436C6F73696E672062696420746F6F2066617220616674657220636C6F73696E PUSH1 0x44 DUP3 ADD MSTORE PUSH6 0x672064617465 PUSH1 0xD0 SHL PUSH1 0x64 DUP3 ADD MSTORE PUSH1 0x84 ADD PUSH3 0x8B9 JUMP JUMPDEST PUSH0 DUP7 DUP7 DUP7 DUP7 DUP7 ADDRESS PUSH1 0x40 MLOAD PUSH3 0xC69 SWAP1 PUSH3 0x1813 JUMP JUMPDEST PUSH3 0xC7A SWAP7 SWAP6 SWAP5 SWAP4 SWAP3 SWAP2 SWAP1 PUSH3 0x1DE3 JUMP JUMPDEST PUSH1 0x40 MLOAD DUP1 SWAP2 SUB SWAP1 PUSH0 CREATE DUP1 ISZERO DUP1 ISZERO PUSH3 0xC94 JUMPI RETURNDATASIZE PUSH0 DUP1 RETURNDATACOPY RETURNDATASIZE PUSH0 REVERT JUMPDEST POP PUSH1 0x40 DUP1 MLOAD PUSH2 0x100 DUP2 ADD DUP3 MSTORE DUP10 DUP2 MSTORE PUSH1 0x20 DUP1 DUP3 ADD DUP11 SWAP1 MSTORE DUP2 DUP4 ADD DUP10 SWAP1 MSTORE PUSH1 0x60 DUP3 ADD DUP9 SWAP1 MSTORE PUSH1 0x80 DUP3 ADD DUP8 SWAP1 MSTORE CALLER PUSH1 0xA0 DUP4 ADD MSTORE PUSH1 0x1 PUSH1 0xC0 DUP4 ADD MSTORE TIMESTAMP PUSH1 0xE0 DUP4 ADD MSTORE PUSH1 0x1 PUSH1 0x1 PUSH1 0xA0 SHL SUB DUP5 AND PUSH0 SWAP1 DUP2 MSTORE PUSH1 0x3 SWAP1 SWAP2 MSTORE SWAP2 SWAP1 SWAP2 KECCAK256 DUP2 MLOAD SWAP3 SWAP5 POP DUP5 SWAP4 POP SWAP1 SWAP2 DUP2 SWAP1 PUSH3 0xD01 SWAP1 DUP3 PUSH3 0x1E99 JUMP JUMPDEST POP PUSH1 0x20 DUP3 ADD MLOAD PUSH1 0x1 DUP3 ADD SWAP1 PUSH3 0xD18 SWAP1 DUP3 PUSH3 0x1E99 JUMP JUMPDEST POP PUSH1 0x40 DUP3 ADD MLOAD PUSH1 0x2 DUP3 ADD SWAP1 PUSH3 0xD2F SWAP1 DUP3 PUSH3 0x1E99 JUMP JUMPDEST POP PUSH1 0x60 DUP3 ADD MLOAD PUSH1 0x3 DUP3 ADD SSTORE PUSH1 0x80 DUP3 ADD MLOAD PUSH1 0x4 DUP3 ADD SSTORE PUSH1 0xA0 DUP3 ADD MLOAD PUSH1 0x5 DUP3 ADD DUP1 SLOAD PUSH1 0xC0 DUP6 ADD MLOAD ISZERO ISZERO PUSH1 0x1 PUSH1 0xA0 SHL MUL PUSH1 0x1 PUSH1 0x1 PUSH1 0xA8 SHL SUB NOT SWAP1 SWAP2 AND PUSH1 0x1 PUSH1 0x1 PUSH1 0xA0 SHL SUB SWAP4 DUP5 AND OR OR SWAP1 SSTORE PUSH1 0xE0 SWAP1 SWAP3 ADD MLOAD PUSH1 0x6 SWAP1 SWAP2 ADD SSTORE PUSH1 0x2 DUP1 SLOAD PUSH1 0x1 DUP2 ADD DUP3 SSTORE PUSH0 SWAP2 SWAP1 SWAP2 MSTORE PUSH32 0x405787FA12A823E0F2B7631CC41B3BA8828B3321CA811111FA75CD3AA3BB5ACE ADD DUP1 SLOAD SWAP2 DUP5 AND PUSH1 0x1 PUSH1 0x1 PUSH1 0xA0 SHL SUB NOT SWAP3 SWAP1 SWAP3 AND DUP3 OR SWAP1 SSTORE PUSH1 0x40 MLOAD CALLER SWAP2 SWAP1 PUSH32 0xC2CAE3D9A09774C7B89AB31040F4B8704244791874B092E2E1678BE9E54596CE SWAP1 PUSH3 0xE05 SWAP1 DUP12 SWAP1 DUP11 SWAP1 DUP11 SWAP1 DUP11 SWAP1 PUSH3 0x1F66 JUMP JUMPDEST PUSH1 0x40 MLOAD DUP1 SWAP2 SUB SWAP1 LOG3 POP SWAP6 SWAP5 POP POP POP POP POP JUMP JUMPDEST PUSH1 0x2 DUP2 DUP2 SLOAD DUP2 LT PUSH3 0xE27 JUMPI PUSH0 DUP1 REVERT JUMPDEST PUSH0 SWAP2 DUP3 MSTORE PUSH1 0x20 SWAP1 SWAP2 KECCAK256 ADD SLOAD PUSH1 0x1 PUSH1 0x1 PUSH1 0xA0 SHL SUB AND SWAP1 POP DUP2 JUMP JUMPDEST PUSH3 0xE4A PUSH3 0x170E JUMP JUMPDEST PUSH1 0x4 DUP1 SLOAD PUSH0 SWAP2 DUP3 SWAP1 SSTORE SWAP1 PUSH3 0xE66 PUSH0 SLOAD PUSH1 0x1 PUSH1 0x1 PUSH1 0xA0 SHL SUB AND SWAP1 JUMP JUMPDEST PUSH1 0x1 PUSH1 0x1 PUSH1 0xA0 SHL SUB AND DUP3 PUSH1 0x40 MLOAD PUSH0 PUSH1 0x40 MLOAD DUP1 DUP4 SUB DUP2 DUP6 DUP8 GAS CALL SWAP3 POP POP POP RETURNDATASIZE DUP1 PUSH0 DUP2 EQ PUSH3 0xEAF JUMPI PUSH1 0x40 MLOAD SWAP2 POP PUSH1 0x1F NOT PUSH1 0x3F RETURNDATASIZE ADD AND DUP3 ADD PUSH1 0x40 MSTORE RETURNDATASIZE DUP3 MSTORE RETURNDATASIZE PUSH0 PUSH1 0x20 DUP5 ADD RETURNDATACOPY PUSH3 0xEB4 JUMP JUMPDEST PUSH1 0x60 SWAP2 POP JUMPDEST POP POP SWAP1 POP DUP1 PUSH3 0xEFF JUMPI PUSH1 0x40 MLOAD PUSH3 0x461BCD PUSH1 0xE5 SHL DUP2 MSTORE PUSH1 0x20 PUSH1 0x4 DUP3 ADD MSTORE PUSH1 0x15 PUSH1 0x24 DUP3 ADD MSTORE PUSH21 0x119959481DDA5D1A191C985DD85B0819985A5B1959 PUSH1 0x5A SHL PUSH1 0x44 DUP3 ADD MSTORE PUSH1 0x64 ADD PUSH3 0x8B9 JUMP JUMPDEST POP POP JUMP JUMPDEST PUSH3 0xF0D PUSH3 0x170E JUMP JUMPDEST PUSH1 0x1 PUSH1 0x1 PUSH1 0xA0 SHL SUB DUP3 DUP2 AND PUSH0 SWAP1 DUP2 MSTORE PUSH1 0x3 PUSH1 0x20 MSTORE PUSH1 0x40 SWAP1 KECCAK256 PUSH1 0x5 ADD SLOAD AND PUSH3 0xF49 JUMPI PUSH1 0x40 MLOAD PUSH3 0x461BCD PUSH1 0xE5 SHL DUP2 MSTORE PUSH1 0x4 ADD PUSH3 0x8B9 SWAP1 PUSH3 0x1D9A JUMP JUMPDEST PUSH1 0x40 MLOAD PUSH4 0x77CF5243 PUSH1 0xE1 SHL DUP2 MSTORE DUP2 ISZERO ISZERO PUSH1 0x4 DUP3 ADD MSTORE DUP3 SWAP1 PUSH1 0x1 PUSH1 0x1 PUSH1 0xA0 SHL SUB DUP3 AND SWAP1 PUSH4 0xEF9EA486 SWAP1 PUSH1 0x24 ADD PUSH0 PUSH1 0x40 MLOAD DUP1 DUP4 SUB DUP2 PUSH0 DUP8 DUP1 EXTCODESIZE ISZERO DUP1 ISZERO PUSH3 0xF8C JUMPI PUSH0 DUP1 REVERT JUMPDEST POP GAS CALL ISZERO DUP1 ISZERO PUSH3 0xF9F JUMPI RETURNDATASIZE PUSH0 DUP1 RETURNDATACOPY RETURNDATASIZE PUSH0 REVERT JUMPDEST POP POP POP POP DUP3 PUSH1 0x1 PUSH1 0x1 PUSH1 0xA0 SHL SUB AND PUSH32 0xE806A42164E4B9EFA26D69D97929204FA306B97D37EC0F081682A8B8DF9DA05A DUP4 PUSH1 0x40 MLOAD PUSH3 0xFE1 SWAP2 ISZERO ISZERO DUP2 MSTORE PUSH1 0x20 ADD SWAP1 JUMP JUMPDEST PUSH1 0x40 MLOAD DUP1 SWAP2 SUB SWAP1 LOG2 POP POP POP JUMP JUMPDEST PUSH3 0xFF8 PUSH3 0x170E JUMP JUMPDEST PUSH3 0x1003 PUSH0 PUSH3 0x1769 JUMP JUMPDEST JUMP JUMPDEST PUSH1 0x3 PUSH1 0x20 MSTORE PUSH0 SWAP1 DUP2 MSTORE PUSH1 0x40 SWAP1 KECCAK256 DUP1 SLOAD DUP2 SWAP1 PUSH3 0x1021 SWAP1 PUSH3 0x1CA3 JUMP JUMPDEST DUP1 PUSH1 0x1F ADD PUSH1 0x20 DUP1 SWAP2 DIV MUL PUSH1 0x20 ADD PUSH1 0x40 MLOAD SWAP1 DUP2 ADD PUSH1 0x40 MSTORE DUP1 SWAP3 SWAP2 SWAP1 DUP2 DUP2 MSTORE PUSH1 0x20 ADD DUP3 DUP1 SLOAD PUSH3 0x104F SWAP1 PUSH3 0x1CA3 JUMP JUMPDEST DUP1 ISZERO PUSH3 0x109E JUMPI DUP1 PUSH1 0x1F LT PUSH3 0x1074 JUMPI PUSH2 0x100 DUP1 DUP4 SLOAD DIV MUL DUP4 MSTORE SWAP2 PUSH1 0x20 ADD SWAP2 PUSH3 0x109E JUMP JUMPDEST DUP3 ADD SWAP2 SWAP1 PUSH0 MSTORE PUSH1 0x20 PUSH0 KECCAK256 SWAP1 JUMPDEST DUP2 SLOAD DUP2 MSTORE SWAP1 PUSH1 0x1 ADD SWAP1 PUSH1 0x20 ADD DUP1 DUP4 GT PUSH3 0x1080 JUMPI DUP3 SWAP1 SUB PUSH1 0x1F AND DUP3 ADD SWAP2 JUMPDEST POP POP POP POP POP SWAP1 DUP1 PUSH1 0x1 ADD DUP1 SLOAD PUSH3 0x10B5 SWAP1 PUSH3 0x1CA3 JUMP JUMPDEST DUP1 PUSH1 0x1F ADD PUSH1 0x20 DUP1 SWAP2 DIV MUL PUSH1 0x20 ADD PUSH1 0x40 MLOAD SWAP1 DUP2 ADD PUSH1 0x40 MSTORE DUP1 SWAP3 SWAP2 SWAP1 DUP2 DUP2 MSTORE PUSH1 0x20 ADD DUP3 DUP1 SLOAD PUSH3 0x10E3 SWAP1 PUSH3 0x1CA3 JUMP JUMPDEST DUP1 ISZERO PUSH3 0x1132 JUMPI DUP1 PUSH1 0x1F LT PUSH3 0x1108 JUMPI PUSH2 0x100 DUP1 DUP4 SLOAD DIV MUL DUP4 MSTORE SWAP2 PUSH1 0x20 ADD SWAP2 PUSH3 0x1132 JUMP JUMPDEST DUP3 ADD SWAP2 SWAP1 PUSH0 MSTORE PUSH1 0x20 PUSH0 KECCAK256 SWAP1 JUMPDEST DUP2 SLOAD DUP2 MSTORE SWAP1 PUSH1 0x1 ADD SWAP1 PUSH1 0x20 ADD DUP1 DUP4 GT PUSH3 0x1114 JUMPI DUP3 SWAP1 SUB PUSH1 0x1F AND DUP3 ADD SWAP2 JUMPDEST POP POP POP POP POP SWAP1 DUP1 PUSH1 0x2 ADD DUP1 SLOAD PUSH3 0x1149 SWAP1 PUSH3 0x1CA3 JUMP JUMPDEST DUP1 PUSH1 0x1F ADD PUSH1 0x20 DUP1 SWAP2 DIV MUL PUSH1 0x20 ADD PUSH1 0x40 MLOAD SWAP1 DUP2 ADD PUSH1 0x40 MSTORE DUP1 SWAP3 SWAP2 SWAP1 DUP2 DUP2 MSTORE PUSH1 0x20 ADD DUP3 DUP1 SLOAD PUSH3 0x1177 SWAP1 PUSH3 0x1CA3 JUMP JUMPDEST DUP1 ISZERO PUSH3 0x11C6 JUMPI DUP1 PUSH1 0x1F LT PUSH3 0x119C JUMPI PUSH2 0x100 DUP1 DUP4 SLOAD DIV MUL DUP4 MSTORE SWAP2 PUSH1 0x20 ADD SWAP2 PUSH3 0x11C6 JUMP JUMPDEST DUP3 ADD SWAP2 SWAP1 PUSH0 MSTORE PUSH1 0x20 PUSH0 KECCAK256 SWAP1 JUMPDEST DUP2 SLOAD DUP2 MSTORE SWAP1 PUSH1 0x1 ADD SWAP1 PUSH1 0x20 ADD DUP1 DUP4 GT PUSH3 0x11A8 JUMPI DUP3 SWAP1 SUB PUSH1 0x1F AND DUP3 ADD SWAP2 JUMPDEST POP POP POP POP PUSH1 0x3 DUP4 ADD SLOAD PUSH1 0x4 DUP5 ADD SLOAD PUSH1 0x5 DUP6 ADD SLOAD PUSH1 0x6 SWAP1 SWAP6 ADD SLOAD SWAP4 SWAP5 SWAP2 SWAP4 SWAP1 SWAP3 POP PUSH1 0x1 PUSH1 0x1 PUSH1 0xA0 SHL SUB DUP3 AND SWAP2 PUSH1 0x1 PUSH1 0xA0 SHL SWAP1 DIV PUSH1 0xFF AND SWAP1 DUP9 JUMP JUMPDEST PUSH0 PUSH3 0x120A PUSH3 0x17B8 JUMP JUMPDEST PUSH1 0x1 PUSH1 0x1 PUSH1 0xA0 SHL SUB DUP3 DUP2 AND PUSH0 SWAP1 DUP2 MSTORE PUSH1 0x3 PUSH1 0x20 MSTORE PUSH1 0x40 SWAP1 KECCAK256 PUSH1 0x5 ADD SLOAD AND PUSH3 0x1246 JUMPI PUSH1 0x40 MLOAD PUSH3 0x461BCD PUSH1 0xE5 SHL DUP2 MSTORE PUSH1 0x4 ADD PUSH3 0x8B9 SWAP1 PUSH3 0x1D9A JUMP JUMPDEST PUSH1 0x1 PUSH1 0x1 PUSH1 0xA0 SHL SUB DUP3 AND PUSH0 SWAP1 DUP2 MSTORE PUSH1 0x3 PUSH1 0x20 MSTORE PUSH1 0x40 SWAP1 KECCAK256 PUSH1 0x5 ADD SLOAD PUSH1 0x1 PUSH1 0xA0 SHL SWAP1 DIV PUSH1 0xFF AND PUSH3 0x12AE JUMPI PUSH1 0x40 MLOAD PUSH3 0x461BCD PUSH1 0xE5 SHL DUP2 MSTORE PUSH1 0x20 PUSH1 0x4 DUP3 ADD MSTORE PUSH1 0x12 PUSH1 0x24 DUP3 ADD MSTORE PUSH18 0x506F6F6C206973206E6F7420616374697665 PUSH1 0x70 SHL PUSH1 0x44 DUP3 ADD MSTORE PUSH1 0x64 ADD PUSH3 0x8B9 JUMP JUMPDEST PUSH0 DUP3 SWAP1 POP DUP1 PUSH1 0x1 PUSH1 0x1 PUSH1 0xA0 SHL SUB AND PUSH4 0x626E1AE7 PUSH1 0x40 MLOAD DUP2 PUSH4 0xFFFFFFFF AND PUSH1 0xE0 SHL DUP2 MSTORE PUSH1 0x4 ADD PUSH1 0x20 PUSH1 0x40 MLOAD DUP1 DUP4 SUB DUP2 DUP7 GAS STATICCALL ISZERO DUP1 ISZERO PUSH3 0x12EF JUMPI RETURNDATASIZE PUSH0 DUP1 RETURNDATACOPY RETURNDATASIZE PUSH0 REVERT JUMPDEST POP POP POP POP PUSH1 0x40 MLOAD RETURNDATASIZE PUSH1 0x1F NOT PUSH1 0x1F DUP3 ADD AND DUP3 ADD DUP1 PUSH1 0x40 MSTORE POP DUP2 ADD SWAP1 PUSH3 0x1315 SWAP2 SWAP1 PUSH3 0x1FA2 JUMP JUMPDEST SWAP2 POP DUP2 PUSH1 0x4 PUSH0 DUP3 DUP3 SLOAD PUSH3 0x132A SWAP2 SWAP1 PUSH3 0x1DC7 JUMP JUMPDEST SWAP1 SWAP2 SSTORE POP POP PUSH1 0x40 MLOAD DUP3 DUP2 MSTORE PUSH1 0x1 PUSH1 0x1 PUSH1 0xA0 SHL SUB DUP5 AND SWAP1 PUSH32 0x9DC46F23CFB5DDCAD0AE7EA2BE38D47FEC07BB9382EC7E564EFC69E036DD66CE SWAP1 PUSH1 0x20 ADD PUSH1 0x40 MLOAD DUP1 SWAP2 SUB SWAP1 LOG2 POP PUSH3 0x1378 PUSH1 0x1 DUP1 SSTORE JUMP JUMPDEST SWAP2 SWAP1 POP JUMP JUMPDEST PUSH3 0x1387 PUSH3 0x170E JUMP JUMPDEST PUSH1 0x1 PUSH1 0x1 PUSH1 0xA0 SHL SUB DUP3 DUP2 AND PUSH0 SWAP1 DUP2 MSTORE PUSH1 0x3 PUSH1 0x20 MSTORE PUSH1 0x40 SWAP1 KECCAK256 PUSH1 0x5 ADD SLOAD AND PUSH3 0x13C3 JUMPI PUSH1 0x40 MLOAD PUSH3 0x461BCD PUSH1 0xE5 SHL DUP2 MSTORE PUSH1 0x4 ADD PUSH3 0x8B9 SWAP1 PUSH3 0x1D9A JUMP JUMPDEST PUSH1 0x40 MLOAD PUSH4 0xA8AE8E05 PUSH1 0xE0 SHL DUP2 MSTORE DUP3 SWAP1 PUSH1 0x1 PUSH1 0x1 PUSH1 0xA0 SHL SUB DUP3 AND SWAP1 PUSH4 0xA8AE8E05 SWAP1 PUSH3 0x13F3 SWAP1 DUP6 SWAP1 PUSH1 0x4 ADD PUSH3 0x1FBA JUMP JUMPDEST PUSH0 PUSH1 0x40 MLOAD DUP1 DUP4 SUB DUP2 PUSH0 DUP8 DUP1 EXTCODESIZE ISZERO DUP1 ISZERO PUSH3 0x140B JUMPI PUSH0 DUP1 REVERT JUMPDEST POP GAS CALL ISZERO DUP1 ISZERO PUSH3 0x141E JUMPI RETURNDATASIZE PUSH0 DUP1 RETURNDATACOPY RETURNDATASIZE PUSH0 REVERT JUMPDEST POP POP POP POP DUP3 PUSH1 0x1 PUSH1 0x1 PUSH1 0xA0 SHL SUB AND PUSH32 0x86ADC9CCA5C5CD1905965DC7787B279C13BEDA0DCE1154C327062381911876E3 DUP4 PUSH1 0x40 MLOAD PUSH3 0xFE1 SWAP2 SWAP1 PUSH3 0x1FBA JUMP JUMPDEST PUSH1 0x60 PUSH1 0x2 DUP1 SLOAD DUP1 PUSH1 0x20 MUL PUSH1 0x20 ADD PUSH1 0x40 MLOAD SWAP1 DUP2 ADD PUSH1 0x40 MSTORE DUP1 SWAP3 SWAP2 SWAP1 DUP2 DUP2 MSTORE PUSH1 0x20 ADD DUP3 DUP1 SLOAD DUP1 ISZERO PUSH3 0x14B5 JUMPI PUSH1 0x20 MUL DUP3 ADD SWAP2 SWAP1 PUSH0 MSTORE PUSH1 0x20 PUSH0 KECCAK256 SWAP1 JUMPDEST DUP2 SLOAD PUSH1 0x1 PUSH1 0x1 PUSH1 0xA0 SHL SUB AND DUP2 MSTORE PUSH1 0x1 SWAP1 SWAP2 ADD SWAP1 PUSH1 0x20 ADD DUP1 DUP4 GT PUSH3 0x1496 JUMPI JUMPDEST POP POP POP POP POP SWAP1 POP SWAP1 JUMP JUMPDEST PUSH3 0x14C9 PUSH3 0x170E JUMP JUMPDEST PUSH1 0x1 PUSH1 0x1 PUSH1 0xA0 SHL SUB DUP3 DUP2 AND PUSH0 SWAP1 DUP2 MSTORE PUSH1 0x3 PUSH1 0x20 MSTORE PUSH1 0x40 SWAP1 KECCAK256 PUSH1 0x5 ADD SLOAD AND PUSH3 0x1505 JUMPI PUSH1 0x40 MLOAD PUSH3 0x461BCD PUSH1 0xE5 SHL DUP2 MSTORE PUSH1 0x4 ADD PUSH3 0x8B9 SWAP1 PUSH3 0x1D9A JUMP JUMPDEST PUSH1 0x40 MLOAD PUSH4 0xC73D7C7B PUSH1 0xE0 SHL DUP2 MSTORE DUP2 ISZERO ISZERO PUSH1 0x4 DUP3 ADD MSTORE DUP3 SWAP1 PUSH1 0x1 PUSH1 0x1 PUSH1 0xA0 SHL SUB DUP3 AND SWAP1 PUSH4 0xC73D7C7B SWAP1 PUSH1 0x24 ADD PUSH0 PUSH1 0x40 MLOAD DUP1 DUP4 SUB DUP2 PUSH0 DUP8 DUP1 EXTCODESIZE ISZERO DUP1 ISZERO PUSH3 0x1548 JUMPI PUSH0 DUP1 REVERT JUMPDEST POP GAS CALL ISZERO DUP1 ISZERO PUSH3 0x155B JUMPI RETURNDATASIZE PUSH0 DUP1 RETURNDATACOPY RETURNDATASIZE PUSH0 REVERT JUMPDEST POP POP POP POP DUP3 PUSH1 0x1 PUSH1 0x1 PUSH1 0xA0 SHL SUB AND PUSH32 0xDDF7C227A01394F42D3F7F7C764EDF35C6B40E477DBA7B32616C223E6E88C07D DUP4 PUSH1 0x40 MLOAD PUSH3 0xFE1 SWAP2 ISZERO ISZERO DUP2 MSTORE PUSH1 0x20 ADD SWAP1 JUMP JUMPDEST PUSH3 0x15A7 PUSH3 0x170E JUMP JUMPDEST PUSH1 0x1 PUSH1 0x1 PUSH1 0xA0 SHL SUB DUP4 DUP2 AND PUSH0 SWAP1 DUP2 MSTORE PUSH1 0x3 PUSH1 0x20 MSTORE PUSH1 0x40 SWAP1 KECCAK256 PUSH1 0x5 ADD SLOAD AND PUSH3 0x15E3 JUMPI PUSH1 0x40 MLOAD PUSH3 0x461BCD PUSH1 0xE5 SHL DUP2 MSTORE PUSH1 0x4 ADD PUSH3 0x8B9 SWAP1 PUSH3 0x1D9A JUMP JUMPDEST PUSH1 0x40 MLOAD PUSH4 0x6F6BCE9 PUSH1 0xE0 SHL DUP2 MSTORE DUP4 SWAP1 PUSH1 0x1 PUSH1 0x1 PUSH1 0xA0 SHL SUB DUP3 AND SWAP1 PUSH4 0x6F6BCE9 SWAP1 PUSH3 0x1615 SWAP1 DUP7 SWAP1 DUP7 SWAP1 PUSH1 0x4 ADD PUSH3 0x1FCE JUMP JUMPDEST PUSH0 PUSH1 0x40 MLOAD DUP1 DUP4 SUB DUP2 PUSH0 DUP8 DUP1 EXTCODESIZE ISZERO DUP1 ISZERO PUSH3 0x162D JUMPI PUSH0 DUP1 REVERT JUMPDEST POP GAS CALL ISZERO DUP1 ISZERO PUSH3 0x1640 JUMPI RETURNDATASIZE PUSH0 DUP1 RETURNDATACOPY RETURNDATASIZE PUSH0 REVERT JUMPDEST POP POP POP POP DUP4 PUSH1 0x1 PUSH1 0x1 PUSH1 0xA0 SHL SUB AND PUSH32 0x2546A907C55750EE6839E20BEAA46FA9BE80D633613D346E797C86F235C0C0BD DUP5 DUP5 PUSH1 0x40 MLOAD PUSH3 0x1681 SWAP3 SWAP2 SWAP1 PUSH3 0x1FCE JUMP JUMPDEST PUSH1 0x40 MLOAD DUP1 SWAP2 SUB SWAP1 LOG2 POP POP POP POP JUMP JUMPDEST PUSH3 0x1699 PUSH3 0x170E JUMP JUMPDEST PUSH1 0x1 PUSH1 0x1 PUSH1 0xA0 SHL SUB DUP2 AND PUSH3 0x1700 JUMPI PUSH1 0x40 MLOAD PUSH3 0x461BCD PUSH1 0xE5 SHL DUP2 MSTORE PUSH1 0x20 PUSH1 0x4 DUP3 ADD MSTORE PUSH1 0x26 PUSH1 0x24 DUP3 ADD MSTORE PUSH32 0x4F776E61626C653A206E6577206F776E657220697320746865207A65726F2061 PUSH1 0x44 DUP3 ADD MSTORE PUSH6 0x646472657373 PUSH1 0xD0 SHL PUSH1 0x64 DUP3 ADD MSTORE PUSH1 0x84 ADD PUSH3 0x8B9 JUMP JUMPDEST PUSH3 0x170B DUP2 PUSH3 0x1769 JUMP JUMPDEST POP JUMP JUMPDEST PUSH0 SLOAD PUSH1 0x1 PUSH1 0x1 PUSH1 0xA0 SHL SUB AND CALLER EQ PUSH3 0x1003 JUMPI PUSH1 0x40 MLOAD PUSH3 0x461BCD PUSH1 0xE5 SHL DUP2 MSTORE PUSH1 0x20 PUSH1 0x4 DUP3 ADD DUP2 SWAP1 MSTORE PUSH1 0x24 DUP3 ADD MSTORE PUSH32 0x4F776E61626C653A2063616C6C6572206973206E6F7420746865206F776E6572 PUSH1 0x44 DUP3 ADD MSTORE PUSH1 0x64 ADD PUSH3 0x8B9 JUMP JUMPDEST PUSH0 DUP1 SLOAD PUSH1 0x1 PUSH1 0x1 PUSH1 0xA0 SHL SUB DUP4 DUP2 AND PUSH1 0x1 PUSH1 0x1 PUSH1 0xA0 SHL SUB NOT DUP4 AND DUP2 OR DUP5 SSTORE PUSH1 0x40 MLOAD SWAP2 SWAP1 SWAP3 AND SWAP3 DUP4 SWAP2 PUSH32 0x8BE0079C531659141344CD1FD0A4F28419497F9722A3DAAFE3B4186F6B6457E0 SWAP2 SWAP1 LOG3 POP POP JUMP JUMPDEST PUSH1 0x2 PUSH1 0x1 SLOAD SUB PUSH3 0x180C JUMPI PUSH1 0x40 MLOAD PUSH3 0x461BCD PUSH1 0xE5 SHL DUP2 MSTORE PUSH1 0x20 PUSH1 0x4 DUP3 ADD MSTORE PUSH1 0x1F PUSH1 0x24 DUP3 ADD MSTORE PUSH32 0x5265656E7472616E637947756172643A207265656E7472616E742063616C6C00 PUSH1 0x44 DUP3 ADD MSTORE PUSH1 0x64 ADD PUSH3 0x8B9 JUMP JUMPDEST PUSH1 0x2 PUSH1 0x1 SSTORE JUMP JUMPDEST PUSH2 0x2493 DUP1 PUSH3 0x1FEB DUP4 CODECOPY ADD SWAP1 JUMP JUMPDEST DUP1 CALLDATALOAD PUSH1 0x1 PUSH1 0x1 PUSH1 0xA0 SHL SUB DUP2 AND DUP2 EQ PUSH3 0x1378 JUMPI PUSH0 DUP1 REVERT JUMPDEST PUSH0 PUSH1 0x20 DUP3 DUP5 SUB SLT ISZERO PUSH3 0x1849 JUMPI PUSH0 DUP1 REVERT JUMPDEST PUSH3 0x1854 DUP3 PUSH3 0x1821 JUMP JUMPDEST SWAP4 SWAP3 POP POP POP JUMP JUMPDEST PUSH0 DUP2 MLOAD DUP1 DUP5 MSTORE PUSH0 JUMPDEST DUP2 DUP2 LT ISZERO PUSH3 0x1881 JUMPI PUSH1 0x20 DUP2 DUP6 ADD DUP2 ADD MLOAD DUP7 DUP4 ADD DUP3 ADD MSTORE ADD PUSH3 0x1863 JUMP JUMPDEST POP PUSH0 PUSH1 0x20 DUP3 DUP7 ADD ADD MSTORE PUSH1 0x20 PUSH1 0x1F NOT PUSH1 0x1F DUP4 ADD AND DUP6 ADD ADD SWAP2 POP POP SWAP3 SWAP2 POP POP JUMP JUMPDEST PUSH1 0x20 DUP2 MSTORE PUSH0 DUP3 MLOAD PUSH2 0x100 DUP1 PUSH1 0x20 DUP6 ADD MSTORE PUSH3 0x18C0 PUSH2 0x120 DUP6 ADD DUP4 PUSH3 0x185B JUMP JUMPDEST SWAP2 POP PUSH1 0x20 DUP6 ADD MLOAD PUSH1 0x1F NOT DUP1 DUP7 DUP6 SUB ADD PUSH1 0x40 DUP8 ADD MSTORE PUSH3 0x18E0 DUP5 DUP4 PUSH3 0x185B JUMP JUMPDEST SWAP4 POP PUSH1 0x40 DUP8 ADD MLOAD SWAP2 POP DUP1 DUP7 DUP6 SUB ADD PUSH1 0x60 DUP8 ADD MSTORE POP PUSH3 0x1900 DUP4 DUP3 PUSH3 0x185B JUMP JUMPDEST SWAP3 POP POP PUSH1 0x60 DUP6 ADD MLOAD PUSH1 0x80 DUP6 ADD MSTORE PUSH1 0x80 DUP6 ADD MLOAD PUSH1 0xA0 DUP6 ADD MSTORE PUSH1 0xA0 DUP6 ADD MLOAD PUSH3 0x1932 PUSH1 0xC0 DUP7 ADD DUP3 PUSH1 0x1 PUSH1 0x1 PUSH1 0xA0 SHL SUB AND SWAP1 MSTORE JUMP JUMPDEST POP PUSH1 0xC0 DUP6 ADD MLOAD DUP1 ISZERO ISZERO PUSH1 0xE0 DUP7 ADD MSTORE POP PUSH1 0xE0 SWAP5 SWAP1 SWAP5 ADD MLOAD SWAP3 SWAP1 SWAP4 ADD SWAP2 SWAP1 SWAP2 MSTORE POP SWAP1 JUMP JUMPDEST PUSH4 0x4E487B71 PUSH1 0xE0 SHL PUSH0 MSTORE PUSH1 0x41 PUSH1 0x4 MSTORE PUSH1 0x24 PUSH0 REVERT JUMPDEST PUSH0 DUP3 PUSH1 0x1F DUP4 ADD SLT PUSH3 0x1978 JUMPI PUSH0 DUP1 REVERT JUMPDEST DUP2 CALLDATALOAD PUSH8 0xFFFFFFFFFFFFFFFF DUP1 DUP3 GT ISZERO PUSH3 0x1996 JUMPI PUSH3 0x1996 PUSH3 0x1954 JUMP JUMPDEST PUSH1 0x40 MLOAD PUSH1 0x1F DUP4 ADD PUSH1 0x1F NOT SWAP1 DUP2 AND PUSH1 0x3F ADD AND DUP2 ADD SWAP1 DUP3 DUP3 GT DUP2 DUP4 LT OR ISZERO PUSH3 0x19C1 JUMPI PUSH3 0x19C1 PUSH3 0x1954 JUMP JUMPDEST DUP2 PUSH1 0x40 MSTORE DUP4 DUP2 MSTORE DUP7 PUSH1 0x20 DUP6 DUP9 ADD ADD GT ISZERO PUSH3 0x19DA JUMPI PUSH0 DUP1 REVERT JUMPDEST DUP4 PUSH1 0x20 DUP8 ADD PUSH1 0x20 DUP4 ADD CALLDATACOPY PUSH0 PUSH1 0x20 DUP6 DUP4 ADD ADD MSTORE DUP1 SWAP5 POP POP POP POP POP SWAP3 SWAP2 POP POP JUMP JUMPDEST PUSH0 PUSH1 0x20 DUP3 DUP5 SUB SLT ISZERO PUSH3 0x1A0A JUMPI PUSH0 DUP1 REVERT JUMPDEST DUP2 CALLDATALOAD PUSH8 0xFFFFFFFFFFFFFFFF DUP2 GT ISZERO PUSH3 0x1A21 JUMPI PUSH0 DUP1 REVERT JUMPDEST PUSH3 0x86B DUP5 DUP3 DUP6 ADD PUSH3 0x1968 JUMP JUMPDEST PUSH1 0x20 DUP1 DUP3 MSTORE DUP3 MLOAD DUP3 DUP3 ADD DUP2 SWAP1 MSTORE PUSH0 SWAP2 SWAP1 DUP5 DUP3 ADD SWAP1 PUSH1 0x40 DUP6 ADD SWAP1 DUP5 JUMPDEST DUP2 DUP2 LT ISZERO PUSH3 0x1A71 JUMPI DUP4 MLOAD PUSH1 0x1 PUSH1 0x1 PUSH1 0xA0 SHL SUB AND DUP4 MSTORE SWAP3 DUP5 ADD SWAP3 SWAP2 DUP5 ADD SWAP2 PUSH1 0x1 ADD PUSH3 0x1A4A JUMP JUMPDEST POP SWAP1 SWAP7 SWAP6 POP POP POP POP POP POP JUMP JUMPDEST PUSH0 DUP1 PUSH0 DUP1 PUSH0 PUSH1 0xA0 DUP7 DUP9 SUB SLT ISZERO PUSH3 0x1A92 JUMPI PUSH0 DUP1 REVERT JUMPDEST DUP6 CALLDATALOAD PUSH8 0xFFFFFFFFFFFFFFFF DUP1 DUP3 GT ISZERO PUSH3 0x1AAA JUMPI PUSH0 DUP1 REVERT JUMPDEST PUSH3 0x1AB8 DUP10 DUP4 DUP11 ADD PUSH3 0x1968 JUMP JUMPDEST SWAP7 POP PUSH1 0x20 DUP9 ADD CALLDATALOAD SWAP2 POP DUP1 DUP3 GT ISZERO PUSH3 0x1ACE JUMPI PUSH0 DUP1 REVERT JUMPDEST PUSH3 0x1ADC DUP10 DUP4 DUP11 ADD PUSH3 0x1968 JUMP JUMPDEST SWAP6 POP PUSH1 0x40 DUP9 ADD CALLDATALOAD SWAP2 POP DUP1 DUP3 GT ISZERO PUSH3 0x1AF2 JUMPI PUSH0 DUP1 REVERT JUMPDEST POP PUSH3 0x1B01 DUP9 DUP3 DUP10 ADD PUSH3 0x1968 JUMP JUMPDEST SWAP6 SWAP9 SWAP5 SWAP8 POP SWAP5 SWAP6 PUSH1 0x60 DUP2 ADD CALLDATALOAD SWAP6 POP PUSH1 0x80 ADD CALLDATALOAD SWAP4 SWAP3 POP POP POP JUMP JUMPDEST PUSH0 PUSH1 0x20 DUP3 DUP5 SUB SLT ISZERO PUSH3 0x1B2B JUMPI PUSH0 DUP1 REVERT JUMPDEST POP CALLDATALOAD SWAP2 SWAP1 POP JUMP JUMPDEST DUP1 CALLDATALOAD DUP1 ISZERO ISZERO DUP2 EQ PUSH3 0x1378 JUMPI PUSH0 DUP1 REVERT JUMPDEST PUSH0 DUP1 PUSH1 0x40 DUP4 DUP6 SUB SLT ISZERO PUSH3 0x1B54 JUMPI PUSH0 DUP1 REVERT JUMPDEST PUSH3 0x1B5F DUP4 PUSH3 0x1821 JUMP JUMPDEST SWAP2 POP PUSH3 0x1B6F PUSH1 0x20 DUP5 ADD PUSH3 0x1B32 JUMP JUMPDEST SWAP1 POP SWAP3 POP SWAP3 SWAP1 POP JUMP JUMPDEST PUSH0 PUSH2 0x100 DUP1 DUP4 MSTORE PUSH3 0x1B8D DUP2 DUP5 ADD DUP13 PUSH3 0x185B JUMP JUMPDEST SWAP1 POP DUP3 DUP2 SUB PUSH1 0x20 DUP5 ADD MSTORE PUSH3 0x1BA3 DUP2 DUP12 PUSH3 0x185B JUMP JUMPDEST SWAP1 POP DUP3 DUP2 SUB PUSH1 0x40 DUP5 ADD MSTORE PUSH3 0x1BB9 DUP2 DUP11 PUSH3 0x185B JUMP JUMPDEST PUSH1 0x60 DUP5 ADD SWAP9 SWAP1 SWAP9 MSTORE POP POP PUSH1 0x80 DUP2 ADD SWAP5 SWAP1 SWAP5 MSTORE PUSH1 0x1 PUSH1 0x1 PUSH1 0xA0 SHL SUB SWAP3 SWAP1 SWAP3 AND PUSH1 0xA0 DUP5 ADD MSTORE ISZERO ISZERO PUSH1 0xC0 DUP4 ADD MSTORE PUSH1 0xE0 SWAP1 SWAP2 ADD MSTORE SWAP4 SWAP3 POP POP POP JUMP JUMPDEST PUSH0 DUP1 PUSH1 0x40 DUP4 DUP6 SUB SLT ISZERO PUSH3 0x1C02 JUMPI PUSH0 DUP1 REVERT JUMPDEST PUSH3 0x1C0D DUP4 PUSH3 0x1821 JUMP JUMPDEST SWAP2 POP PUSH1 0x20 DUP4 ADD CALLDATALOAD PUSH8 0xFFFFFFFFFFFFFFFF DUP2 GT ISZERO PUSH3 0x1C29 JUMPI PUSH0 DUP1 REVERT JUMPDEST PUSH3 0x1C37 DUP6 DUP3 DUP7 ADD PUSH3 0x1968 JUMP JUMPDEST SWAP2 POP POP SWAP3 POP SWAP3 SWAP1 POP JUMP JUMPDEST PUSH0 DUP1 PUSH0 PUSH1 0x60 DUP5 DUP7 SUB SLT ISZERO PUSH3 0x1C54 JUMPI PUSH0 DUP1 REVERT JUMPDEST PUSH3 0x1C5F DUP5 PUSH3 0x1821 JUMP JUMPDEST SWAP3 POP PUSH3 0x1C6F PUSH1 0x20 DUP6 ADD PUSH3 0x1B32 JUMP JUMPDEST SWAP2 POP PUSH1 0x40 DUP5 ADD CALLDATALOAD PUSH8 0xFFFFFFFFFFFFFFFF DUP2 GT ISZERO PUSH3 0x1C8B JUMPI PUSH0 DUP1 REVERT JUMPDEST PUSH3 0x1C99 DUP7 DUP3 DUP8 ADD PUSH3 0x1968 JUMP JUMPDEST SWAP2 POP POP SWAP3 POP SWAP3 POP SWAP3 JUMP JUMPDEST PUSH1 0x1 DUP2 DUP2 SHR SWAP1 DUP3 AND DUP1 PUSH3 0x1CB8 JUMPI PUSH1 0x7F DUP3 AND SWAP2 POP JUMPDEST PUSH1 0x20 DUP3 LT DUP2 SUB PUSH3 0x1CD7 JUMPI PUSH4 0x4E487B71 PUSH1 0xE0 SHL PUSH0 MSTORE PUSH1 0x22 PUSH1 0x4 MSTORE PUSH1 0x24 PUSH0 REVERT JUMPDEST POP SWAP2 SWAP1 POP JUMP JUMPDEST PUSH4 0x4E487B71 PUSH1 0xE0 SHL PUSH0 MSTORE PUSH1 0x32 PUSH1 0x4 MSTORE PUSH1 0x24 PUSH0 REVERT JUMPDEST PUSH0 DUP1 DUP4 SLOAD PUSH3 0x1D00 DUP2 PUSH3 0x1CA3 JUMP JUMPDEST PUSH1 0x1 DUP3 DUP2 AND DUP1 ISZERO PUSH3 0x1D1B JUMPI PUSH1 0x1 DUP2 EQ PUSH3 0x1D31 JUMPI PUSH3 0x1D5F JUMP JUMPDEST PUSH1 0xFF NOT DUP5 AND DUP8 MSTORE DUP3 ISZERO ISZERO DUP4 MUL DUP8 ADD SWAP5 POP PUSH3 0x1D5F JUMP JUMPDEST DUP8 PUSH0 MSTORE PUSH1 0x20 DUP1 PUSH0 KECCAK256 PUSH0 JUMPDEST DUP6 DUP2 LT ISZERO PUSH3 0x1D56 JUMPI DUP2 SLOAD DUP11 DUP3 ADD MSTORE SWAP1 DUP5 ADD SWAP1 DUP3 ADD PUSH3 0x1D3B JUMP JUMPDEST POP POP POP DUP3 DUP8 ADD SWAP5 POP JUMPDEST POP SWAP3 SWAP7 SWAP6 POP POP POP POP POP POP JUMP JUMPDEST PUSH4 0x4E487B71 PUSH1 0xE0 SHL PUSH0 MSTORE PUSH1 0x11 PUSH1 0x4 MSTORE PUSH1 0x24 PUSH0 REVERT JUMPDEST PUSH0 PUSH1 0x1 DUP3 ADD PUSH3 0x1D93 JUMPI PUSH3 0x1D93 PUSH3 0x1D6B JUMP JUMPDEST POP PUSH1 0x1 ADD SWAP1 JUMP JUMPDEST PUSH1 0x20 DUP1 DUP3 MSTORE PUSH1 0x13 SWAP1 DUP3 ADD MSTORE PUSH19 0x141BDBDB08191BD95CC81B9BDD08195E1A5CDD PUSH1 0x6A SHL PUSH1 0x40 DUP3 ADD MSTORE PUSH1 0x60 ADD SWAP1 JUMP JUMPDEST DUP1 DUP3 ADD DUP1 DUP3 GT ISZERO PUSH3 0x1DDD JUMPI PUSH3 0x1DDD PUSH3 0x1D6B JUMP JUMPDEST SWAP3 SWAP2 POP POP JUMP JUMPDEST PUSH1 0xC0 DUP2 MSTORE PUSH0 PUSH3 0x1DF7 PUSH1 0xC0 DUP4 ADD DUP10 PUSH3 0x185B JUMP JUMPDEST DUP3 DUP2 SUB PUSH1 0x20 DUP5 ADD MSTORE PUSH3 0x1E0B DUP2 DUP10 PUSH3 0x185B JUMP JUMPDEST SWAP1 POP DUP3 DUP2 SUB PUSH1 0x40 DUP5 ADD MSTORE PUSH3 0x1E21 DUP2 DUP9 PUSH3 0x185B JUMP JUMPDEST PUSH1 0x60 DUP5 ADD SWAP7 SWAP1 SWAP7 MSTORE POP POP PUSH1 0x80 DUP2 ADD SWAP3 SWAP1 SWAP3 MSTORE PUSH1 0x1 PUSH1 0x1 PUSH1 0xA0 SHL SUB AND PUSH1 0xA0 SWAP1 SWAP2 ADD MSTORE SWAP4 SWAP3 POP POP POP JUMP JUMPDEST PUSH1 0x1F DUP3 GT ISZERO PUSH3 0x1E94 JUMPI DUP1 PUSH0 MSTORE PUSH1 0x20 PUSH0 KECCAK256 PUSH1 0x1F DUP5 ADD PUSH1 0x5 SHR DUP2 ADD PUSH1 0x20 DUP6 LT ISZERO PUSH3 0x1E70 JUMPI POP DUP1 JUMPDEST PUSH1 0x1F DUP5 ADD PUSH1 0x5 SHR DUP3 ADD SWAP2 POP JUMPDEST DUP2 DUP2 LT ISZERO PUSH3 0x1E91 JUMPI PUSH0 DUP2 SSTORE PUSH1 0x1 ADD PUSH3 0x1E7C JUMP JUMPDEST POP POP JUMPDEST POP POP POP JUMP JUMPDEST DUP2 MLOAD PUSH8 0xFFFFFFFFFFFFFFFF DUP2 GT ISZERO PUSH3 0x1EB6 JUMPI PUSH3 0x1EB6 PUSH3 0x1954 JUMP JUMPDEST PUSH3 0x1ECE DUP2 PUSH3 0x1EC7 DUP5 SLOAD PUSH3 0x1CA3 JUMP JUMPDEST DUP5 PUSH3 0x1E49 JUMP JUMPDEST PUSH1 0x20 DUP1 PUSH1 0x1F DUP4 GT PUSH1 0x1 DUP2 EQ PUSH3 0x1F04 JUMPI PUSH0 DUP5 ISZERO PUSH3 0x1EEC JUMPI POP DUP6 DUP4 ADD MLOAD JUMPDEST PUSH0 NOT PUSH1 0x3 DUP7 SWAP1 SHL SHR NOT AND PUSH1 0x1 DUP6 SWAP1 SHL OR DUP6 SSTORE PUSH3 0x1F5E JUMP JUMPDEST PUSH0 DUP6 DUP2 MSTORE PUSH1 0x20 DUP2 KECCAK256 PUSH1 0x1F NOT DUP7 AND SWAP2 JUMPDEST DUP3 DUP2 LT ISZERO PUSH3 0x1F34 JUMPI DUP9 DUP7 ADD MLOAD DUP3 SSTORE SWAP5 DUP5 ADD SWAP5 PUSH1 0x1 SWAP1 SWAP2 ADD SWAP1 DUP5 ADD PUSH3 0x1F13 JUMP JUMPDEST POP DUP6 DUP3 LT ISZERO PUSH3 0x1F52 JUMPI DUP8 DUP6 ADD MLOAD PUSH0 NOT PUSH1 0x3 DUP9 SWAP1 SHL PUSH1 0xF8 AND SHR NOT AND DUP2 SSTORE JUMPDEST POP POP PUSH1 0x1 DUP5 PUSH1 0x1 SHL ADD DUP6 SSTORE JUMPDEST POP POP POP POP POP POP JUMP JUMPDEST PUSH1 0x80 DUP2 MSTORE PUSH0 PUSH3 0x1F7A PUSH1 0x80 DUP4 ADD DUP8 PUSH3 0x185B JUMP JUMPDEST DUP3 DUP2 SUB PUSH1 0x20 DUP5 ADD MSTORE PUSH3 0x1F8E DUP2 DUP8 PUSH3 0x185B JUMP JUMPDEST PUSH1 0x40 DUP5 ADD SWAP6 SWAP1 SWAP6 MSTORE POP POP PUSH1 0x60 ADD MSTORE SWAP3 SWAP2 POP POP JUMP JUMPDEST PUSH0 PUSH1 0x20 DUP3 DUP5 SUB SLT ISZERO PUSH3 0x1FB3 JUMPI PUSH0 DUP1 REVERT JUMPDEST POP MLOAD SWAP2 SWAP1 POP JUMP JUMPDEST PUSH1 0x20 DUP2 MSTORE PUSH0 PUSH3 0x1854 PUSH1 0x20 DUP4 ADD DUP5 PUSH3 0x185B JUMP JUMPDEST DUP3 ISZERO ISZERO DUP2 MSTORE PUSH1 0x40 PUSH1 0x20 DUP3 ADD MSTORE PUSH0 PUSH3 0x86B PUSH1 0x40 DUP4 ADD DUP5 PUSH3 0x185B JUMP INVALID PUSH1 0x80 PUSH1 0x40 MSTORE PUSH1 0x7 DUP1 SLOAD PUSH5 0xFFFF00FFFF PUSH1 0xA0 SHL NOT AND SWAP1 SSTORE PUSH1 0xF DUP1 SLOAD PUSH1 0x1 PUSH1 0x1 PUSH1 0xA0 SHL SUB NOT AND PUSH20 0x8E49800F0AA47E68BA9E46D97481679D03379294 OR SWAP1 SSTORE CALLVALUE DUP1 ISZERO PUSH3 0x47 JUMPI PUSH0 DUP1 REVERT JUMPDEST POP PUSH1 0x40 MLOAD PUSH3 0x2493 CODESIZE SUB DUP1 PUSH3 0x2493 DUP4 CODECOPY DUP2 ADD PUSH1 0x40 DUP2 SWAP1 MSTORE PUSH3 0x6A SWAP2 PUSH3 0x1E8 JUMP JUMPDEST PUSH3 0x75 CALLER PUSH3 0xD8 JUMP JUMPDEST PUSH1 0x1 DUP1 SSTORE PUSH1 0x2 PUSH3 0x87 DUP8 DUP3 PUSH3 0x332 JUMP JUMPDEST POP PUSH1 0x3 PUSH3 0x96 DUP7 DUP3 PUSH3 0x332 JUMP JUMPDEST POP PUSH1 0x4 PUSH3 0xA5 DUP6 DUP3 PUSH3 0x332 JUMP JUMPDEST POP PUSH1 0x5 SWAP3 SWAP1 SWAP3 SSTORE PUSH1 0x6 SSTORE PUSH1 0x7 DUP1 SLOAD PUSH1 0x1 PUSH1 0x1 PUSH1 0xA0 SHL SUB NOT AND PUSH1 0x1 PUSH1 0x1 PUSH1 0xA0 SHL SUB SWAP1 SWAP3 AND SWAP2 SWAP1 SWAP2 OR SWAP1 SSTORE POP PUSH3 0x3FE SWAP2 POP POP JUMP JUMPDEST PUSH0 DUP1 SLOAD PUSH1 0x1 PUSH1 0x1 PUSH1 0xA0 SHL SUB DUP4 DUP2 AND PUSH1 0x1 PUSH1 0x1 PUSH1 0xA0 SHL SUB NOT DUP4 AND DUP2 OR DUP5 SSTORE PUSH1 0x40 MLOAD SWAP2 SWAP1 SWAP3 AND SWAP3 DUP4 SWAP2 PUSH32 0x8BE0079C531659141344CD1FD0A4F28419497F9722A3DAAFE3B4186F6B6457E0 SWAP2 SWAP1 LOG3 POP POP JUMP JUMPDEST PUSH4 0x4E487B71 PUSH1 0xE0 SHL PUSH0 MSTORE PUSH1 0x41 PUSH1 0x4 MSTORE PUSH1 0x24 PUSH0 REVERT JUMPDEST PUSH0 DUP3 PUSH1 0x1F DUP4 ADD SLT PUSH3 0x14B JUMPI PUSH0 DUP1 REVERT JUMPDEST DUP2 MLOAD PUSH1 0x1 PUSH1 0x1 PUSH1 0x40 SHL SUB DUP1 DUP3 GT ISZERO PUSH3 0x168 JUMPI PUSH3 0x168 PUSH3 0x127 JUMP JUMPDEST PUSH1 0x40 MLOAD PUSH1 0x1F DUP4 ADD PUSH1 0x1F NOT SWAP1 DUP2 AND PUSH1 0x3F ADD AND DUP2 ADD SWAP1 DUP3 DUP3 GT DUP2 DUP4 LT OR ISZERO PUSH3 0x193 JUMPI PUSH3 0x193 PUSH3 0x127 JUMP JUMPDEST DUP2 PUSH1 0x40 MSTORE DUP4 DUP2 MSTORE PUSH1 0x20 SWAP3 POP DUP7 PUSH1 0x20 DUP6 DUP9 ADD ADD GT ISZERO PUSH3 0x1B0 JUMPI PUSH0 DUP1 REVERT JUMPDEST PUSH0 SWAP2 POP JUMPDEST DUP4 DUP3 LT ISZERO PUSH3 0x1D3 JUMPI DUP6 DUP3 ADD DUP4 ADD MLOAD DUP2 DUP4 ADD DUP5 ADD MSTORE SWAP1 DUP3 ADD SWAP1 PUSH3 0x1B4 JUMP JUMPDEST PUSH0 PUSH1 0x20 DUP6 DUP4 ADD ADD MSTORE DUP1 SWAP5 POP POP POP POP POP SWAP3 SWAP2 POP POP JUMP JUMPDEST PUSH0 DUP1 PUSH0 DUP1 PUSH0 DUP1 PUSH1 0xC0 DUP8 DUP10 SUB SLT ISZERO PUSH3 0x1FE JUMPI PUSH0 DUP1 REVERT JUMPDEST DUP7 MLOAD PUSH1 0x1 PUSH1 0x1 PUSH1 0x40 SHL SUB DUP1 DUP3 GT ISZERO PUSH3 0x215 JUMPI PUSH0 DUP1 REVERT JUMPDEST PUSH3 0x223 DUP11 DUP4 DUP12 ADD PUSH3 0x13B JUMP JUMPDEST SWAP8 POP PUSH1 0x20 DUP10 ADD MLOAD SWAP2 POP DUP1 DUP3 GT ISZERO PUSH3 0x239 JUMPI PUSH0 DUP1 REVERT JUMPDEST PUSH3 0x247 DUP11 DUP4 DUP12 ADD PUSH3 0x13B JUMP JUMPDEST SWAP7 POP PUSH1 0x40 DUP10 ADD MLOAD SWAP2 POP DUP1 DUP3 GT ISZERO PUSH3 0x25D JUMPI PUSH0 DUP1 REVERT JUMPDEST POP PUSH3 0x26C DUP10 DUP3 DUP11 ADD PUSH3 0x13B JUMP JUMPDEST PUSH1 0x60 DUP10 ADD MLOAD PUSH1 0x80 DUP11 ADD MLOAD PUSH1 0xA0 DUP12 ADD MLOAD SWAP3 SWAP8 POP SWAP1 SWAP6 POP SWAP4 POP SWAP1 POP PUSH1 0x1 PUSH1 0x1 PUSH1 0xA0 SHL SUB DUP2 AND DUP2 EQ PUSH3 0x29A JUMPI PUSH0 DUP1 REVERT JUMPDEST DUP1 SWAP2 POP POP SWAP3 SWAP6 POP SWAP3 SWAP6 POP SWAP3 SWAP6 JUMP JUMPDEST PUSH1 0x1 DUP2 DUP2 SHR SWAP1 DUP3 AND DUP1 PUSH3 0x2BD JUMPI PUSH1 0x7F DUP3 AND SWAP2 POP JUMPDEST PUSH1 0x20 DUP3 LT DUP2 SUB PUSH3 0x2DC JUMPI PUSH4 0x4E487B71 PUSH1 0xE0 SHL PUSH0 MSTORE PUSH1 0x22 PUSH1 0x4 MSTORE PUSH1 0x24 PUSH0 REVERT JUMPDEST POP SWAP2 SWAP1 POP JUMP JUMPDEST PUSH1 0x1F DUP3 GT ISZERO PUSH3 0x32D JUMPI DUP1 PUSH0 MSTORE PUSH1 0x20 PUSH0 KECCAK256 PUSH1 0x1F DUP5 ADD PUSH1 0x5 SHR DUP2 ADD PUSH1 0x20 DUP6 LT ISZERO PUSH3 0x309 JUMPI POP DUP1 JUMPDEST PUSH1 0x1F DUP5 ADD PUSH1 0x5 SHR DUP3 ADD SWAP2 POP JUMPDEST DUP2 DUP2 LT ISZERO PUSH3 0x32A JUMPI PUSH0 DUP2 SSTORE PUSH1 0x1 ADD PUSH3 0x315 JUMP JUMPDEST POP POP JUMPDEST POP POP POP JUMP JUMPDEST DUP2 MLOAD PUSH1 0x1 PUSH1 0x1 PUSH1 0x40 SHL SUB DUP2 GT ISZERO PUSH3 0x34E JUMPI PUSH3 0x34E PUSH3 0x127 JUMP JUMPDEST PUSH3 0x366 DUP2 PUSH3 0x35F DUP5 SLOAD PUSH3 0x2A8 JUMP JUMPDEST DUP5 PUSH3 0x2E2 JUMP JUMPDEST PUSH1 0x20 DUP1 PUSH1 0x1F DUP4 GT PUSH1 0x1 DUP2 EQ PUSH3 0x39C JUMPI PUSH0 DUP5 ISZERO PUSH3 0x384 JUMPI POP DUP6 DUP4 ADD MLOAD JUMPDEST PUSH0 NOT PUSH1 0x3 DUP7 SWAP1 SHL SHR NOT AND PUSH1 0x1 DUP6 SWAP1 SHL OR DUP6 SSTORE PUSH3 0x3F6 JUMP JUMPDEST PUSH0 DUP6 DUP2 MSTORE PUSH1 0x20 DUP2 KECCAK256 PUSH1 0x1F NOT DUP7 AND SWAP2 JUMPDEST DUP3 DUP2 LT ISZERO PUSH3 0x3CC JUMPI DUP9 DUP7 ADD MLOAD DUP3 SSTORE SWAP5 DUP5 ADD SWAP5 PUSH1 0x1 SWAP1 SWAP2 ADD SWAP1 DUP5 ADD PUSH3 0x3AB JUMP JUMPDEST POP DUP6 DUP3 LT ISZERO PUSH3 0x3EA JUMPI DUP8 DUP6 ADD MLOAD PUSH0 NOT PUSH1 0x3 DUP9 SWAP1 SHL PUSH1 0xF8 AND SHR NOT AND DUP2 SSTORE JUMPDEST POP POP PUSH1 0x1 DUP5 PUSH1 0x1 SHL ADD DUP6 SSTORE JUMPDEST POP POP POP POP POP POP JUMP JUMPDEST PUSH2 0x2087 DUP1 PUSH3 0x40C PUSH0 CODECOPY PUSH0 RETURN INVALID PUSH1 0x80 PUSH1 0x40 MSTORE PUSH1 0x4 CALLDATASIZE LT PUSH2 0x23F JUMPI PUSH0 CALLDATALOAD PUSH1 0xE0 SHR DUP1 PUSH4 0xA0B43A4E GT PUSH2 0x134 JUMPI DUP1 PUSH4 0xC45A0155 GT PUSH2 0xB3 JUMPI DUP1 PUSH4 0xEE4EB586 GT PUSH2 0x78 JUMPI DUP1 PUSH4 0xEE4EB586 EQ PUSH2 0x6E5 JUMPI DUP1 PUSH4 0xEF430AA6 EQ PUSH2 0x6F9 JUMPI DUP1 PUSH4 0xEF9EA486 EQ PUSH2 0x70D JUMPI DUP1 PUSH4 0xF25F4B56 EQ PUSH2 0x72C JUMPI DUP1 PUSH4 0xF2FDE38B EQ PUSH2 0x74B JUMPI DUP1 PUSH4 0xFFD4493C EQ PUSH2 0x76A JUMPI PUSH0 DUP1 REVERT JUMPDEST DUP1 PUSH4 0xC45A0155 EQ PUSH2 0x65D JUMPI DUP1 PUSH4 0xC73D7C7B EQ PUSH2 0x67C JUMPI DUP1 PUSH4 0xD54AD2A1 EQ PUSH2 0x69B JUMPI DUP1 PUSH4 0xDFBF53AE EQ PUSH2 0x6B0 JUMPI DUP1 PUSH4 0xE1F1C4A7 EQ PUSH2 0x6D0 JUMPI PUSH0 DUP1 REVERT JUMPDEST DUP1 PUSH4 0xB5545A3C GT PUSH2 0xF9 JUMPI DUP1 PUSH4 0xB5545A3C EQ PUSH2 0x58F JUMPI DUP1 PUSH4 0xB84FF262 EQ PUSH2 0x5A3 JUMPI DUP1 PUSH4 0xBBB85188 EQ PUSH2 0x5B8 JUMPI DUP1 PUSH4 0xBEFA1E2F EQ PUSH2 0x628 JUMPI DUP1 PUSH4 0xC2B6B58C EQ PUSH2 0x63D JUMPI PUSH0 DUP1 REVERT JUMPDEST DUP1 PUSH4 0xA0B43A4E EQ PUSH2 0x51E JUMPI DUP1 PUSH4 0xA628828F EQ PUSH2 0x532 JUMPI DUP1 PUSH4 0xA8AE8E05 EQ PUSH2 0x547 JUMPI DUP1 PUSH4 0xAF008883 EQ PUSH2 0x566 JUMPI DUP1 PUSH4 0xB401FAF1 EQ PUSH2 0x57B JUMPI PUSH0 DUP1 REVERT JUMPDEST DUP1 PUSH4 0x66805DE5 GT PUSH2 0x1C0 JUMPI DUP1 PUSH4 0x88BA8DD6 GT PUSH2 0x185 JUMPI DUP1 PUSH4 0x88BA8DD6 EQ PUSH2 0x48F JUMPI DUP1 PUSH4 0x8CCA8F64 EQ PUSH2 0x4A4 JUMPI DUP1 PUSH4 0x8DA5CB5B EQ PUSH2 0x4C3 JUMPI DUP1 PUSH4 0x90D49B9D EQ PUSH2 0x4DF JUMPI DUP1 PUSH4 0x9A82A09A EQ PUSH2 0x4FE JUMPI PUSH0 DUP1 REVERT JUMPDEST DUP1 PUSH4 0x66805DE5 EQ PUSH2 0x405 JUMPI DUP1 PUSH4 0x715018A6 EQ PUSH2 0x419 JUMPI DUP1 PUSH4 0x7284E416 EQ PUSH2 0x42D JUMPI DUP1 PUSH4 0x73B2E80E EQ PUSH2 0x441 JUMPI DUP1 PUSH4 0x78E73FF8 EQ PUSH2 0x46F JUMPI PUSH0 DUP1 REVERT JUMPDEST DUP1 PUSH4 0x43C322BA GT PUSH2 0x206 JUMPI DUP1 PUSH4 0x43C322BA EQ PUSH2 0x31C JUMPI DUP1 PUSH4 0x4A79D50C EQ PUSH2 0x330 JUMPI DUP1 PUSH4 0x4E92A646 EQ PUSH2 0x351 JUMPI DUP1 PUSH4 0x626E1AE7 EQ PUSH2 0x3C1 JUMPI DUP1 PUSH4 0x63A599A4 EQ PUSH2 0x3D5 JUMPI PUSH0 DUP1 REVERT JUMPDEST DUP1 PUSH3 0x2EAB7 EQ PUSH2 0x24A JUMPI DUP1 PUSH3 0xB46F8 EQ PUSH2 0x28F JUMPI DUP1 PUSH4 0x6F6BCE9 EQ PUSH2 0x2B1 JUMPI DUP1 PUSH4 0x96A3778 EQ PUSH2 0x2D2 JUMPI DUP1 PUSH4 0x3482B644 EQ PUSH2 0x2E5 JUMPI PUSH0 DUP1 REVERT JUMPDEST CALLDATASIZE PUSH2 0x246 JUMPI STOP JUMPDEST PUSH0 DUP1 REVERT JUMPDEST CALLVALUE DUP1 ISZERO PUSH2 0x255 JUMPI PUSH0 DUP1 REVERT JUMPDEST POP PUSH2 0x25E PUSH2 0x78B JUMP JUMPDEST PUSH1 0x40 DUP1 MLOAD PUSH1 0x1 PUSH1 0x1 PUSH1 0xA0 SHL SUB SWAP1 SWAP6 AND DUP6 MSTORE PUSH1 0x20 DUP6 ADD SWAP4 SWAP1 SWAP4 MSTORE SWAP2 DUP4 ADD MSTORE ISZERO ISZERO PUSH1 0x60 DUP3 ADD MSTORE PUSH1 0x80 ADD JUMPDEST PUSH1 0x40 MLOAD DUP1 SWAP2 SUB SWAP1 RETURN JUMPDEST CALLVALUE DUP1 ISZERO PUSH2 0x29A JUMPI PUSH0 DUP1 REVERT JUMPDEST POP PUSH2 0x2A3 PUSH1 0x96 DUP2 JUMP JUMPDEST PUSH1 0x40 MLOAD SWAP1 DUP2 MSTORE PUSH1 0x20 ADD PUSH2 0x286 JUMP JUMPDEST CALLVALUE DUP1 ISZERO PUSH2 0x2BC JUMPI PUSH0 DUP1 REVERT JUMPDEST POP PUSH2 0x2D0 PUSH2 0x2CB CALLDATASIZE PUSH1 0x4 PUSH2 0x1D2D JUMP JUMPDEST PUSH2 0x81B JUMP JUMPDEST STOP JUMPDEST PUSH2 0x2D0 PUSH2 0x2E0 CALLDATASIZE PUSH1 0x4 PUSH2 0x1D78 JUMP JUMPDEST PUSH2 0x935 JUMP JUMPDEST CALLVALUE DUP1 ISZERO PUSH2 0x2F0 JUMPI PUSH0 DUP1 REVERT JUMPDEST POP PUSH2 0x304 PUSH2 0x2FF CALLDATASIZE PUSH1 0x4 PUSH2 0x1D98 JUMP JUMPDEST PUSH2 0xDC1 JUMP JUMPDEST PUSH1 0x40 MLOAD PUSH1 0x1 PUSH1 0x1 PUSH1 0xA0 SHL SUB SWAP1 SWAP2 AND DUP2 MSTORE PUSH1 0x20 ADD PUSH2 0x286 JUMP JUMPDEST CALLVALUE DUP1 ISZERO PUSH2 0x327 JUMPI PUSH0 DUP1 REVERT JUMPDEST POP PUSH2 0x2A3 PUSH2 0xDE9 JUMP JUMPDEST CALLVALUE DUP1 ISZERO PUSH2 0x33B JUMPI PUSH0 DUP1 REVERT JUMPDEST POP PUSH2 0x344 PUSH2 0xE0C JUMP JUMPDEST PUSH1 0x40 MLOAD PUSH2 0x286 SWAP2 SWAP1 PUSH2 0x1DF2 JUMP JUMPDEST CALLVALUE DUP1 ISZERO PUSH2 0x35C JUMPI PUSH0 DUP1 REVERT JUMPDEST POP PUSH2 0x399 PUSH2 0x36B CALLDATASIZE PUSH1 0x4 PUSH2 0x1E04 JUMP JUMPDEST PUSH1 0xB PUSH1 0x20 MSTORE PUSH0 SWAP1 DUP2 MSTORE PUSH1 0x40 SWAP1 KECCAK256 DUP1 SLOAD PUSH1 0x1 DUP3 ADD SLOAD PUSH1 0x2 DUP4 ADD SLOAD PUSH1 0x3 SWAP1 SWAP4 ADD SLOAD PUSH1 0xFF SWAP3 DUP4 AND SWAP4 SWAP2 SWAP3 SWAP1 SWAP2 AND SWAP1 DUP5 JUMP JUMPDEST PUSH1 0x40 DUP1 MLOAD SWAP5 ISZERO ISZERO DUP6 MSTORE PUSH1 0x20 DUP6 ADD SWAP4 SWAP1 SWAP4 MSTORE SWAP1 ISZERO ISZERO SWAP2 DUP4 ADD SWAP2 SWAP1 SWAP2 MSTORE PUSH1 0x60 DUP3 ADD MSTORE PUSH1 0x80 ADD PUSH2 0x286 JUMP JUMPDEST CALLVALUE DUP1 ISZERO PUSH2 0x3CC JUMPI PUSH0 DUP1 REVERT JUMPDEST POP PUSH2 0x2A3 PUSH2 0xE98 JUMP JUMPDEST CALLVALUE DUP1 ISZERO PUSH2 0x3E0 JUMPI PUSH0 DUP1 REVERT JUMPDEST POP PUSH1 0x7 SLOAD PUSH2 0x3F5 SWAP1 PUSH1 0x1 PUSH1 0xB8 SHL SWAP1 DIV PUSH1 0xFF AND DUP2 JUMP JUMPDEST PUSH1 0x40 MLOAD SWAP1 ISZERO ISZERO DUP2 MSTORE PUSH1 0x20 ADD PUSH2 0x286 JUMP JUMPDEST CALLVALUE DUP1 ISZERO PUSH2 0x410 JUMPI PUSH0 DUP1 REVERT JUMPDEST POP PUSH2 0x2D0 PUSH2 0xF27 JUMP JUMPDEST CALLVALUE DUP1 ISZERO PUSH2 0x424 JUMPI PUSH0 DUP1 REVERT JUMPDEST POP PUSH2 0x2D0 PUSH2 0xFE6 JUMP JUMPDEST CALLVALUE DUP1 ISZERO PUSH2 0x438 JUMPI PUSH0 DUP1 REVERT JUMPDEST POP PUSH2 0x344 PUSH2 0xFF9 JUMP JUMPDEST CALLVALUE DUP1 ISZERO PUSH2 0x44C JUMPI PUSH0 DUP1 REVERT JUMPDEST POP PUSH2 0x3F5 PUSH2 0x45B CALLDATASIZE PUSH1 0x4 PUSH2 0x1E04 JUMP JUMPDEST PUSH1 0xD PUSH1 0x20 MSTORE PUSH0 SWAP1 DUP2 MSTORE PUSH1 0x40 SWAP1 KECCAK256 SLOAD PUSH1 0xFF AND DUP2 JUMP JUMPDEST CALLVALUE DUP1 ISZERO PUSH2 0x47A JUMPI PUSH0 DUP1 REVERT JUMPDEST POP PUSH1 0x7 SLOAD PUSH2 0x3F5 SWAP1 PUSH1 0x1 PUSH1 0xA8 SHL SWAP1 DIV PUSH1 0xFF AND DUP2 JUMP JUMPDEST CALLVALUE DUP1 ISZERO PUSH2 0x49A JUMPI PUSH0 DUP1 REVERT JUMPDEST POP PUSH2 0x2A3 PUSH1 0x8 SLOAD DUP2 JUMP JUMPDEST CALLVALUE DUP1 ISZERO PUSH2 0x4AF JUMPI PUSH0 DUP1 REVERT JUMPDEST POP PUSH2 0x3F5 PUSH2 0x4BE CALLDATASIZE PUSH1 0x4 PUSH2 0x1E04 JUMP JUMPDEST PUSH2 0x1006 JUMP JUMPDEST CALLVALUE DUP1 ISZERO PUSH2 0x4CE JUMPI PUSH0 DUP1 REVERT JUMPDEST POP PUSH0 SLOAD PUSH1 0x1 PUSH1 0x1 PUSH1 0xA0 SHL SUB AND PUSH2 0x304 JUMP JUMPDEST CALLVALUE DUP1 ISZERO PUSH2 0x4EA JUMPI PUSH0 DUP1 REVERT JUMPDEST POP PUSH2 0x2D0 PUSH2 0x4F9 CALLDATASIZE PUSH1 0x4 PUSH2 0x1E04 JUMP JUMPDEST PUSH2 0x1067 JUMP JUMPDEST CALLVALUE DUP1 ISZERO PUSH2 0x509 JUMPI PUSH0 DUP1 REVERT JUMPDEST POP PUSH1 0x7 SLOAD PUSH2 0x3F5 SWAP1 PUSH1 0x1 PUSH1 0xC0 SHL SWAP1 DIV PUSH1 0xFF AND DUP2 JUMP JUMPDEST CALLVALUE DUP1 ISZERO PUSH2 0x529 JUMPI PUSH0 DUP1 REVERT JUMPDEST POP PUSH2 0x2A3 PUSH2 0x1145 JUMP JUMPDEST CALLVALUE DUP1 ISZERO PUSH2 0x53D JUMPI PUSH0 DUP1 REVERT JUMPDEST POP PUSH2 0x2A3 PUSH1 0x5 SLOAD DUP2 JUMP JUMPDEST CALLVALUE DUP1 ISZERO PUSH2 0x552 JUMPI PUSH0 DUP1 REVERT JUMPDEST POP PUSH2 0x2D0 PUSH2 0x561 CALLDATASIZE PUSH1 0x4 PUSH2 0x1E2A JUMP JUMPDEST PUSH2 0x1166 JUMP JUMPDEST CALLVALUE DUP1 ISZERO PUSH2 0x571 JUMPI PUSH0 DUP1 REVERT JUMPDEST POP PUSH2 0x2A3 PUSH1 0x9 SLOAD DUP2 JUMP JUMPDEST CALLVALUE DUP1 ISZERO PUSH2 0x586 JUMPI PUSH0 DUP1 REVERT JUMPDEST POP PUSH2 0x2D0 PUSH2 0x1273 JUMP JUMPDEST CALLVALUE DUP1 ISZERO PUSH2 0x59A JUMPI PUSH0 DUP1 REVERT JUMPDEST POP PUSH2 0x2D0 PUSH2 0x16B8 JUMP JUMPDEST CALLVALUE DUP1 ISZERO PUSH2 0x5AE JUMPI PUSH0 DUP1 REVERT JUMPDEST POP PUSH2 0x2A3 PUSH1 0x6 SLOAD DUP2 JUMP JUMPDEST CALLVALUE DUP1 ISZERO PUSH2 0x5C3 JUMPI PUSH0 DUP1 REVERT JUMPDEST POP PUSH1 0x8 SLOAD PUSH1 0x9 SLOAD PUSH1 0xA SLOAD PUSH1 0xC SLOAD PUSH1 0x7 SLOAD PUSH1 0x40 DUP1 MLOAD SWAP6 DUP7 MSTORE PUSH1 0x20 DUP7 ADD SWAP5 SWAP1 SWAP5 MSTORE SWAP3 DUP5 ADD SWAP2 SWAP1 SWAP2 MSTORE PUSH1 0x60 DUP4 ADD MSTORE PUSH1 0xFF PUSH1 0x1 PUSH1 0xA0 SHL DUP3 DIV DUP2 AND ISZERO ISZERO PUSH1 0x80 DUP5 ADD MSTORE PUSH1 0x1 PUSH1 0xA8 SHL DUP3 DIV DUP2 AND ISZERO ISZERO PUSH1 0xA0 DUP5 ADD MSTORE PUSH1 0x1 PUSH1 0xC0 SHL SWAP1 SWAP2 DIV AND ISZERO ISZERO PUSH1 0xC0 DUP3 ADD MSTORE PUSH1 0xE0 ADD PUSH2 0x286 JUMP JUMPDEST CALLVALUE DUP1 ISZERO PUSH2 0x633 JUMPI PUSH0 DUP1 REVERT JUMPDEST POP PUSH2 0x2A3 PUSH1 0xA SLOAD DUP2 JUMP JUMPDEST CALLVALUE DUP1 ISZERO PUSH2 0x648 JUMPI PUSH0 DUP1 REVERT JUMPDEST POP PUSH1 0x7 SLOAD PUSH2 0x3F5 SWAP1 PUSH1 0x1 PUSH1 0xA0 SHL SWAP1 DIV PUSH1 0xFF AND DUP2 JUMP JUMPDEST CALLVALUE DUP1 ISZERO PUSH2 0x668 JUMPI PUSH0 DUP1 REVERT JUMPDEST POP PUSH1 0x7 SLOAD PUSH2 0x304 SWAP1 PUSH1 0x1 PUSH1 0x1 PUSH1 0xA0 SHL SUB AND DUP2 JUMP JUMPDEST CALLVALUE DUP1 ISZERO PUSH2 0x687 JUMPI PUSH0 DUP1 REVERT JUMPDEST POP PUSH2 0x2D0 PUSH2 0x696 CALLDATASIZE PUSH1 0x4 PUSH2 0x1D78 JUMP JUMPDEST PUSH2 0x189F JUMP JUMPDEST CALLVALUE DUP1 ISZERO PUSH2 0x6A6 JUMPI PUSH0 DUP1 REVERT JUMPDEST POP PUSH2 0x2A3 PUSH1 0xE SLOAD DUP2 JUMP JUMPDEST CALLVALUE DUP1 ISZERO PUSH2 0x6BB JUMPI PUSH0 DUP1 REVERT JUMPDEST POP PUSH1 0x7 SLOAD PUSH2 0x3F5 SWAP1 PUSH1 0x1 PUSH1 0xB0 SHL SWAP1 DIV PUSH1 0xFF AND DUP2 JUMP JUMPDEST CALLVALUE DUP1 ISZERO PUSH2 0x6DB JUMPI PUSH0 DUP1 REVERT JUMPDEST POP PUSH2 0x2A3 PUSH2 0x2710 DUP2 JUMP JUMPDEST CALLVALUE DUP1 ISZERO PUSH2 0x6F0 JUMPI PUSH0 DUP1 REVERT JUMPDEST POP PUSH2 0x3F5 PUSH2 0x18F4 JUMP JUMPDEST CALLVALUE DUP1 ISZERO PUSH2 0x704 JUMPI PUSH0 DUP1 REVERT JUMPDEST POP PUSH2 0x344 PUSH2 0x1940 JUMP JUMPDEST CALLVALUE DUP1 ISZERO PUSH2 0x718 JUMPI PUSH0 DUP1 REVERT JUMPDEST POP PUSH2 0x2D0 PUSH2 0x727 CALLDATASIZE PUSH1 0x4 PUSH2 0x1D78 JUMP JUMPDEST PUSH2 0x194D JUMP JUMPDEST CALLVALUE DUP1 ISZERO PUSH2 0x737 JUMPI PUSH0 DUP1 REVERT JUMPDEST POP PUSH1 0xF SLOAD PUSH2 0x304 SWAP1 PUSH1 0x1 PUSH1 0x1 PUSH1 0xA0 SHL SUB AND DUP2 JUMP JUMPDEST CALLVALUE DUP1 ISZERO PUSH2 0x756 JUMPI PUSH0 DUP1 REVERT JUMPDEST POP PUSH2 0x2D0 PUSH2 0x765 CALLDATASIZE PUSH1 0x4 PUSH2 0x1E04 JUMP JUMPDEST PUSH2 0x1AA2 JUMP JUMPDEST CALLVALUE DUP1 ISZERO PUSH2 0x775 JUMPI PUSH0 DUP1 REVERT JUMPDEST POP PUSH2 0x77E PUSH2 0x1B1B JUMP JUMPDEST PUSH1 0x40 MLOAD PUSH2 0x286 SWAP2 SWAP1 PUSH2 0x1E64 JUMP JUMPDEST PUSH0 DUP1 PUSH0 DUP1 PUSH1 0xF PUSH0 SWAP1 SLOAD SWAP1 PUSH2 0x100 EXP SWAP1 DIV PUSH1 0x1 PUSH1 0x1 PUSH1 0xA0 SHL SUB AND PUSH1 0x96 PUSH2 0x2710 PUSH1 0x96 PUSH1 0x7 PUSH1 0x16 SWAP1 SLOAD SWAP1 PUSH2 0x100 EXP SWAP1 DIV PUSH1 0xFF AND PUSH2 0x7C7 JUMPI PUSH1 0x8 SLOAD PUSH2 0x7CB JUMP JUMPDEST PUSH1 0x9 SLOAD JUMPDEST PUSH2 0x7D5 SWAP2 SWAP1 PUSH2 0x1EC4 JUMP JUMPDEST PUSH2 0x7DF SWAP2 SWAP1 PUSH2 0x1EDB JUMP JUMPDEST PUSH0 DUP1 MSTORE PUSH1 0xD PUSH1 0x20 MSTORE PUSH32 0x81955A0A11E65EAC625C29E8882660BAE4E165A75D72780094ACAE8ECE9A29EE SLOAD SWAP3 SWAP8 SWAP2 SWAP7 POP SWAP5 POP PUSH1 0xFF SWAP1 SWAP2 AND SWAP3 POP SWAP1 POP JUMP JUMPDEST PUSH2 0x823 PUSH2 0x1B7B JUMP JUMPDEST PUSH1 0x7 SLOAD PUSH1 0x1 PUSH1 0xB8 SHL SWAP1 DIV PUSH1 0xFF AND PUSH2 0x881 JUMPI PUSH1 0x40 MLOAD PUSH3 0x461BCD PUSH1 0xE5 SHL DUP2 MSTORE PUSH1 0x20 PUSH1 0x4 DUP3 ADD MSTORE PUSH1 0x1C PUSH1 0x24 DUP3 ADD MSTORE PUSH32 0x456D657267656E63792073746F70206E6F742061637469766174656400000000 PUSH1 0x44 DUP3 ADD MSTORE PUSH1 0x64 ADD JUMPDEST PUSH1 0x40 MLOAD DUP1 SWAP2 SUB SWAP1 REVERT JUMPDEST PUSH1 0x7 SLOAD PUSH1 0x1 PUSH1 0xA8 SHL SWAP1 DIV PUSH1 0xFF AND ISZERO PUSH2 0x8D0 JUMPI PUSH1 0x40 MLOAD PUSH3 0x461BCD PUSH1 0xE5 SHL DUP2 MSTORE PUSH1 0x20 PUSH1 0x4 DUP3 ADD MSTORE PUSH1 0x12 PUSH1 0x24 DUP3 ADD MSTORE PUSH18 0x15DA5B9B995C88185B1C9958591E481CD95D PUSH1 0x72 SHL PUSH1 0x44 DUP3 ADD MSTORE PUSH1 0x64 ADD PUSH2 0x878 JUMP JUMPDEST PUSH1 0x7 DUP1 SLOAD PUSH1 0xFF PUSH1 0xA8 SHL NOT DUP5 ISZERO ISZERO PUSH1 0x1 PUSH1 0xB0 SHL MUL AND PUSH2 0xFFFF PUSH1 0xA8 SHL NOT SWAP1 SWAP2 AND OR PUSH1 0x1 PUSH1 0xA8 SHL OR SWAP1 SSTORE PUSH1 0x40 MLOAD PUSH32 0x9F1ED7EC730B47AA440B5EDE52772362BE32571A818CD31AC36A295E8393B98E SWAP1 PUSH2 0x929 SWAP1 DUP5 SWAP1 DUP5 SWAP1 PUSH2 0x1EFA JUMP JUMPDEST PUSH1 0x40 MLOAD DUP1 SWAP2 SUB SWAP1 LOG1 POP POP JUMP JUMPDEST PUSH1 0x7 SLOAD PUSH1 0x1 PUSH1 0xA0 SHL SWAP1 DIV PUSH1 0xFF AND ISZERO PUSH2 0x980 JUMPI PUSH1 0x40 MLOAD PUSH3 0x461BCD PUSH1 0xE5 SHL DUP2 MSTORE PUSH1 0x20 PUSH1 0x4 DUP3 ADD MSTORE PUSH1 0xE PUSH1 0x24 DUP3 ADD MSTORE PUSH14 0x141BDBDB081A5CC818DB1BDCD959 PUSH1 0x92 SHL PUSH1 0x44 DUP3 ADD MSTORE PUSH1 0x64 ADD PUSH2 0x878 JUMP JUMPDEST PUSH1 0x7 SLOAD PUSH1 0x1 PUSH1 0xB8 SHL SWAP1 DIV PUSH1 0xFF AND ISZERO PUSH2 0x9DA JUMPI PUSH1 0x40 MLOAD PUSH3 0x461BCD PUSH1 0xE5 SHL DUP2 MSTORE PUSH1 0x20 PUSH1 0x4 DUP3 ADD MSTORE PUSH1 0x1A PUSH1 0x24 DUP3 ADD MSTORE PUSH32 0x42657474696E67206973207061757365642062792061646D696E000000000000 PUSH1 0x44 DUP3 ADD MSTORE PUSH1 0x64 ADD PUSH2 0x878 JUMP JUMPDEST PUSH1 0x7 SLOAD PUSH1 0x1 PUSH1 0xC0 SHL SWAP1 DIV PUSH1 0xFF AND ISZERO PUSH2 0xA34 JUMPI PUSH1 0x40 MLOAD PUSH3 0x461BCD PUSH1 0xE5 SHL DUP2 MSTORE PUSH1 0x20 PUSH1 0x4 DUP3 ADD MSTORE PUSH1 0x17 PUSH1 0x24 DUP3 ADD MSTORE PUSH32 0x506F6F6C20686173206265656E2063616E63656C6C6564000000000000000000 PUSH1 0x44 DUP3 ADD MSTORE PUSH1 0x64 ADD PUSH2 0x878 JUMP JUMPDEST PUSH1 0x5 SLOAD TIMESTAMP LT PUSH2 0xA85 JUMPI PUSH1 0x40 MLOAD PUSH3 0x461BCD PUSH1 0xE5 SHL DUP2 MSTORE PUSH1 0x20 PUSH1 0x4 DUP3 ADD MSTORE PUSH1 0x18 PUSH1 0x24 DUP3 ADD MSTORE PUSH32 0x42657474696E6720706572696F642068617320656E6465640000000000000000 PUSH1 0x44 DUP3 ADD MSTORE PUSH1 0x64 ADD PUSH2 0x878 JUMP JUMPDEST PUSH0 CALLVALUE GT PUSH2 0xADE JUMPI PUSH1 0x40 MLOAD PUSH3 0x461BCD PUSH1 0xE5 SHL DUP2 MSTORE PUSH1 0x20 PUSH1 0x4 DUP3 ADD MSTORE PUSH1 0x21 PUSH1 0x24 DUP3 ADD MSTORE PUSH32 0x42657420616D6F756E74206D7573742062652067726561746572207468616E20 PUSH1 0x44 DUP3 ADD MSTORE PUSH1 0x3 PUSH1 0xFC SHL PUSH1 0x64 DUP3 ADD MSTORE PUSH1 0x84 ADD PUSH2 0x878 JUMP JUMPDEST PUSH7 0x38D7EA4C68000 CALLVALUE LT ISZERO PUSH2 0xB35 JUMPI PUSH1 0x40 MLOAD PUSH3 0x461BCD PUSH1 0xE5 SHL DUP2 MSTORE PUSH1 0x20 PUSH1 0x4 DUP3 ADD MSTORE PUSH1 0x18 PUSH1 0x24 DUP3 ADD MSTORE PUSH32 0x4D696E696D756D2062657420697320302E30303120424E420000000000000000 PUSH1 0x44 DUP3 ADD MSTORE PUSH1 0x64 ADD PUSH2 0x878 JUMP JUMPDEST PUSH9 0x56BC75E2D63100000 CALLVALUE GT ISZERO PUSH2 0xB87 JUMPI PUSH1 0x40 MLOAD PUSH3 0x461BCD PUSH1 0xE5 SHL DUP2 MSTORE PUSH1 0x20 PUSH1 0x4 DUP3 ADD MSTORE PUSH1 0x16 PUSH1 0x24 DUP3 ADD MSTORE PUSH22 0x26B0BC34B6BAB6903132BA1034B99018981810212721 PUSH1 0x51 SHL PUSH1 0x44 DUP3 ADD MSTORE PUSH1 0x64 ADD PUSH2 0x878 JUMP JUMPDEST CALLER PUSH0 SWAP1 DUP2 MSTORE PUSH1 0xB PUSH1 0x20 MSTORE PUSH1 0x40 SWAP1 KECCAK256 PUSH1 0x1 ADD SLOAD ISZERO PUSH2 0xBE6 JUMPI PUSH1 0x40 MLOAD PUSH3 0x461BCD PUSH1 0xE5 SHL DUP2 MSTORE PUSH1 0x20 PUSH1 0x4 DUP3 ADD MSTORE PUSH1 0x1D PUSH1 0x24 DUP3 ADD MSTORE PUSH32 0x557365722068617320616C726561647920706C61636564206120626574000000 PUSH1 0x44 DUP3 ADD MSTORE PUSH1 0x64 ADD PUSH2 0x878 JUMP JUMPDEST CALLER PUSH2 0xC2C JUMPI PUSH1 0x40 MLOAD PUSH3 0x461BCD PUSH1 0xE5 SHL DUP2 MSTORE PUSH1 0x20 PUSH1 0x4 DUP3 ADD MSTORE PUSH1 0x16 PUSH1 0x24 DUP3 ADD MSTORE PUSH22 0x496E76616C69642073656E6465722061646472657373 PUSH1 0x50 SHL PUSH1 0x44 DUP3 ADD MSTORE PUSH1 0x64 ADD PUSH2 0x878 JUMP JUMPDEST PUSH1 0x40 DUP1 MLOAD PUSH1 0x80 DUP2 ADD DUP3 MSTORE DUP3 ISZERO DUP1 ISZERO DUP3 MSTORE CALLVALUE PUSH1 0x20 DUP1 DUP5 ADD SWAP2 DUP3 MSTORE PUSH0 DUP5 DUP7 ADD DUP2 DUP2 MSTORE TIMESTAMP PUSH1 0x60 DUP8 ADD SWAP1 DUP2 MSTORE CALLER DUP1 DUP5 MSTORE PUSH1 0xB SWAP1 SWAP5 MSTORE SWAP7 DUP3 KECCAK256 SWAP6 MLOAD DUP7 SLOAD SWAP1 ISZERO ISZERO PUSH1 0xFF NOT SWAP2 DUP3 AND OR DUP8 SSTORE SWAP4 MLOAD PUSH1 0x1 DUP8 DUP2 ADD SWAP2 SWAP1 SWAP2 SSTORE SWAP1 MLOAD PUSH1 0x2 DUP8 ADD DUP1 SLOAD SWAP2 ISZERO ISZERO SWAP2 SWAP1 SWAP6 AND OR SWAP1 SWAP4 SSTORE SWAP5 MLOAD PUSH1 0x3 SWAP1 SWAP5 ADD SWAP4 SWAP1 SWAP4 SSTORE PUSH1 0xC DUP1 SLOAD SWAP2 DUP3 ADD DUP2 SSTORE SWAP1 SWAP4 MSTORE PUSH32 0xDF6966C971051C3D54EC59162606531493A51404A002842F56009D7E5CF4A8C7 SWAP1 SWAP3 ADD DUP1 SLOAD PUSH1 0x1 PUSH1 0x1 PUSH1 0xA0 SHL SUB NOT AND SWAP1 SWAP2 OR SWAP1 SSTORE PUSH2 0xCFA JUMPI CALLVALUE PUSH1 0x8 PUSH0 DUP3 DUP3 SLOAD PUSH2 0xCEF SWAP2 SWAP1 PUSH2 0x1F14 JUMP JUMPDEST SWAP1 SWAP2 SSTORE POP PUSH2 0xD11 SWAP1 POP JUMP JUMPDEST CALLVALUE PUSH1 0x9 PUSH0 DUP3 DUP3 SLOAD PUSH2 0xD0B SWAP2 SWAP1 PUSH2 0x1F14 JUMP JUMPDEST SWAP1 SWAP2 SSTORE POP POP JUMPDEST CALLVALUE PUSH1 0xA PUSH0 DUP3 DUP3 SLOAD PUSH2 0xD22 SWAP2 SWAP1 PUSH2 0x1F14 JUMP JUMPDEST SWAP1 SWAP2 SSTORE POP PUSH0 SWAP1 POP DUP2 PUSH2 0xD4E JUMPI PUSH1 0x40 MLOAD DUP1 PUSH1 0x40 ADD PUSH1 0x40 MSTORE DUP1 PUSH1 0x2 DUP2 MSTORE PUSH1 0x20 ADD PUSH2 0x4E4F PUSH1 0xF0 SHL DUP2 MSTORE POP PUSH2 0xD6B JUMP JUMPDEST PUSH1 0x40 MLOAD DUP1 PUSH1 0x40 ADD PUSH1 0x40 MSTORE DUP1 PUSH1 0x3 DUP2 MSTORE PUSH1 0x20 ADD PUSH3 0x594553 PUSH1 0xE8 SHL DUP2 MSTORE POP JUMPDEST SWAP1 POP CALLER PUSH1 0x1 PUSH1 0x1 PUSH1 0xA0 SHL SUB AND PUSH32 0x59BEC262F3E5C00D172330919288747F1356AECC686AF7CAA21A3BAF473550D7 CALLVALUE DUP5 PUSH1 0x8 SLOAD PUSH1 0x9 SLOAD PUSH1 0x2 DUP8 PUSH1 0x40 MLOAD PUSH2 0xDB5 SWAP7 SWAP6 SWAP5 SWAP4 SWAP3 SWAP2 SWAP1 PUSH2 0x1F5F JUMP JUMPDEST PUSH1 0x40 MLOAD DUP1 SWAP2 SUB SWAP1 LOG2 POP POP JUMP JUMPDEST PUSH1 0xC DUP2 DUP2 SLOAD DUP2 LT PUSH2 0xDD0 JUMPI PUSH0 DUP1 REVERT JUMPDEST PUSH0 SWAP2 DUP3 MSTORE PUSH1 0x20 SWAP1 SWAP2 KECCAK256 ADD SLOAD PUSH1 0x1 PUSH1 0x1 PUSH1 0xA0 SHL SUB AND SWAP1 POP DUP2 JUMP JUMPDEST PUSH1 0x7 SLOAD PUSH0 SWAP1 PUSH1 0x1 PUSH1 0xB0 SHL SWAP1 DIV PUSH1 0xFF AND PUSH2 0xE03 JUMPI POP PUSH1 0x8 SLOAD SWAP1 JUMP JUMPDEST PUSH1 0x9 SLOAD JUMPDEST SWAP1 POP SWAP1 JUMP JUMPDEST PUSH1 0x2 DUP1 SLOAD PUSH2 0xE19 SWAP1 PUSH2 0x1F27 JUMP JUMPDEST DUP1 PUSH1 0x1F ADD PUSH1 0x20 DUP1 SWAP2 DIV MUL PUSH1 0x20 ADD PUSH1 0x40 MLOAD SWAP1 DUP2 ADD PUSH1 0x40 MSTORE DUP1 SWAP3 SWAP2 SWAP1 DUP2 DUP2 MSTORE PUSH1 0x20 ADD DUP3 DUP1 SLOAD PUSH2 0xE45 SWAP1 PUSH2 0x1F27 JUMP JUMPDEST DUP1 ISZERO PUSH2 0xE90 JUMPI DUP1 PUSH1 0x1F LT PUSH2 0xE67 JUMPI PUSH2 0x100 DUP1 DUP4 SLOAD DIV MUL DUP4 MSTORE SWAP2 PUSH1 0x20 ADD SWAP2 PUSH2 0xE90 JUMP JUMPDEST DUP3 ADD SWAP2 SWAP1 PUSH0 MSTORE PUSH1 0x20 PUSH0 KECCAK256 SWAP1 JUMPDEST DUP2 SLOAD DUP2 MSTORE SWAP1 PUSH1 0x1 ADD SWAP1 PUSH1 0x20 ADD DUP1 DUP4 GT PUSH2 0xE73 JUMPI DUP3 SWAP1 SUB PUSH1 0x1F AND DUP3 ADD SWAP2 JUMPDEST POP POP POP POP POP DUP2 JUMP JUMPDEST PUSH1 0x7 SLOAD PUSH0 SWAP1 PUSH1 0x1 PUSH1 0xA8 SHL SWAP1 DIV PUSH1 0xFF AND PUSH2 0xEE8 JUMPI PUSH1 0x40 MLOAD PUSH3 0x461BCD PUSH1 0xE5 SHL DUP2 MSTORE PUSH1 0x20 PUSH1 0x4 DUP3 ADD MSTORE PUSH1 0x12 PUSH1 0x24 DUP3 ADD MSTORE PUSH18 0x15DA5B9B995C881B9BDD081CD95D081E595D PUSH1 0x72 SHL PUSH1 0x44 DUP3 ADD MSTORE PUSH1 0x64 ADD PUSH2 0x878 JUMP JUMPDEST PUSH1 0x7 SLOAD PUSH0 SWAP1 PUSH1 0x1 PUSH1 0xB0 SHL SWAP1 DIV PUSH1 0xFF AND PUSH2 0xF03 JUMPI PUSH1 0x8 SLOAD PUSH2 0xF07 JUMP JUMPDEST PUSH1 0x9 SLOAD JUMPDEST SWAP1 POP PUSH2 0x2710 PUSH2 0xF17 PUSH1 0x96 DUP4 PUSH2 0x1EC4 JUMP JUMPDEST PUSH2 0xF21 SWAP2 SWAP1 PUSH2 0x1EDB JUMP JUMPDEST SWAP2 POP POP SWAP1 JUMP JUMPDEST PUSH2 0xF2F PUSH2 0x1B7B JUMP JUMPDEST PUSH1 0x7 SLOAD PUSH1 0x1 PUSH1 0xA0 SHL SWAP1 DIV PUSH1 0xFF AND ISZERO PUSH2 0xF7F JUMPI PUSH1 0x40 MLOAD PUSH3 0x461BCD PUSH1 0xE5 SHL DUP2 MSTORE PUSH1 0x20 PUSH1 0x4 DUP3 ADD MSTORE PUSH1 0x13 PUSH1 0x24 DUP3 ADD MSTORE PUSH19 0x141BDBDB08185B1C9958591E4818DB1BDCD959 PUSH1 0x6A SHL PUSH1 0x44 DUP3 ADD MSTORE PUSH1 0x64 ADD PUSH2 0x878 JUMP JUMPDEST PUSH1 0x5 SLOAD TIMESTAMP LT ISZERO PUSH2 0xFD1 JUMPI PUSH1 0x40 MLOAD PUSH3 0x461BCD PUSH1 0xE5 SHL DUP2 MSTORE PUSH1 0x20 PUSH1 0x4 DUP3 ADD DUP2 SWAP1 MSTORE PUSH1 0x24 DUP3 ADD MSTORE PUSH32 0x43616E6E6F7420636C6F7365206265666F726520636C6F73696E672064617465 PUSH1 0x44 DUP3 ADD MSTORE PUSH1 0x64 ADD PUSH2 0x878 JUMP JUMPDEST PUSH1 0x7 DUP1 SLOAD PUSH1 0xFF PUSH1 0xA0 SHL NOT AND PUSH1 0x1 PUSH1 0xA0 SHL OR SWAP1 SSTORE JUMP JUMPDEST PUSH2 0xFEE PUSH2 0x1B7B JUMP JUMPDEST PUSH2 0xFF7 PUSH0 PUSH2 0x1BD4 JUMP JUMPDEST JUMP JUMPDEST PUSH1 0x3 DUP1 SLOAD PUSH2 0xE19 SWAP1 PUSH2 0x1F27 JUMP JUMPDEST PUSH1 0x7 SLOAD PUSH0 SWAP1 PUSH1 0x1 PUSH1 0xC0 SHL SWAP1 DIV PUSH1 0xFF AND DUP1 ISZERO PUSH2 0x103A JUMPI POP PUSH1 0x1 PUSH1 0x1 PUSH1 0xA0 SHL SUB DUP3 AND PUSH0 SWAP1 DUP2 MSTORE PUSH1 0xB PUSH1 0x20 MSTORE PUSH1 0x40 SWAP1 KECCAK256 PUSH1 0x1 ADD SLOAD ISZERO ISZERO JUMPDEST DUP1 ISZERO PUSH2 0x1061 JUMPI POP PUSH1 0x1 PUSH1 0x1 PUSH1 0xA0 SHL SUB DUP3 AND PUSH0 SWAP1 DUP2 MSTORE PUSH1 0xB PUSH1 0x20 MSTORE PUSH1 0x40 SWAP1 KECCAK256 PUSH1 0x2 ADD SLOAD PUSH1 0xFF AND ISZERO JUMPDEST SWAP3 SWAP2 POP POP JUMP JUMPDEST PUSH2 0x106F PUSH2 0x1B7B JUMP JUMPDEST PUSH1 0x1 PUSH1 0x1 PUSH1 0xA0 SHL SUB DUP2 AND PUSH2 0x10C5 JUMPI PUSH1 0x40 MLOAD PUSH3 0x461BCD PUSH1 0xE5 SHL DUP2 MSTORE PUSH1 0x20 PUSH1 0x4 DUP3 ADD MSTORE PUSH1 0x1A PUSH1 0x24 DUP3 ADD MSTORE PUSH32 0x496E76616C6964206665652077616C6C65742061646472657373000000000000 PUSH1 0x44 DUP3 ADD MSTORE PUSH1 0x64 ADD PUSH2 0x878 JUMP JUMPDEST PUSH1 0xF SLOAD PUSH1 0x1 PUSH1 0x1 PUSH1 0xA0 SHL SUB SWAP1 DUP2 AND SWAP1 DUP3 AND SUB PUSH2 0x1123 JUMPI PUSH1 0x40 MLOAD PUSH3 0x461BCD PUSH1 0xE5 SHL DUP2 MSTORE PUSH1 0x20 PUSH1 0x4 DUP3 ADD MSTORE PUSH1 0x17 PUSH1 0x24 DUP3 ADD MSTORE PUSH32 0x53616D65206665652077616C6C65742061646472657373000000000000000000 PUSH1 0x44 DUP3 ADD MSTORE PUSH1 0x64 ADD PUSH2 0x878 JUMP JUMPDEST PUSH1 0xF DUP1 SLOAD PUSH1 0x1 PUSH1 0x1 PUSH1 0xA0 SHL SUB NOT AND PUSH1 0x1 PUSH1 0x1 PUSH1 0xA0 SHL SUB SWAP3 SWAP1 SWAP3 AND SWAP2 SWAP1 SWAP2 OR SWAP1 SSTORE JUMP JUMPDEST PUSH1 0x7 SLOAD PUSH0 SWAP1 PUSH1 0x1 PUSH1 0xB0 SHL SWAP1 DIV PUSH1 0xFF AND PUSH2 0x115F JUMPI POP PUSH1 0x9 SLOAD SWAP1 JUMP JUMPDEST POP PUSH1 0x8 SLOAD SWAP1 JUMP JUMPDEST PUSH2 0x116E PUSH2 0x1B7B JUMP JUMPDEST PUSH1 0x7 SLOAD PUSH1 0x1 PUSH1 0xA8 SHL SWAP1 DIV PUSH1 0xFF AND ISZERO PUSH2 0x11D2 JUMPI PUSH1 0x40 MLOAD PUSH3 0x461BCD PUSH1 0xE5 SHL DUP2 MSTORE PUSH1 0x20 PUSH1 0x4 DUP3 ADD MSTORE PUSH1 0x21 PUSH1 0x24 DUP3 ADD MSTORE PUSH32 0x43616E6E6F742063616E63656C2061667465722077696E6E6572206973207365 PUSH1 0x44 DUP3 ADD MSTORE PUSH1 0x1D PUSH1 0xFA SHL PUSH1 0x64 DUP3 ADD MSTORE PUSH1 0x84 ADD PUSH2 0x878 JUMP JUMPDEST PUSH1 0x7 SLOAD PUSH1 0x1 PUSH1 0xC0 SHL SWAP1 DIV PUSH1 0xFF AND ISZERO PUSH2 0x1225 JUMPI PUSH1 0x40 MLOAD PUSH3 0x461BCD PUSH1 0xE5 SHL DUP2 MSTORE PUSH1 0x20 PUSH1 0x4 DUP3 ADD MSTORE PUSH1 0x16 PUSH1 0x24 DUP3 ADD MSTORE PUSH22 0x141BDBDB08185B1C9958591E4818D85B98D95B1B1959 PUSH1 0x52 SHL PUSH1 0x44 DUP3 ADD MSTORE PUSH1 0x64 ADD PUSH2 0x878 JUMP JUMPDEST PUSH1 0x7 DUP1 SLOAD PUSH1 0xFF PUSH1 0xC0 SHL NOT AND PUSH1 0x1 PUSH1 0xC0 SHL OR SWAP1 SSTORE PUSH1 0x40 MLOAD PUSH32 0xB8201D4FE5C71CC4BF444ACAF4124EDF462BDA026C79355261A71D9F40D5CD0A SWAP1 PUSH2 0x1268 SWAP1 DUP4 SWAP1 PUSH2 0x1DF2 JUMP JUMPDEST PUSH1 0x40 MLOAD DUP1 SWAP2 SUB SWAP1 LOG1 POP JUMP JUMPDEST PUSH2 0x127B PUSH2 0x1C23 JUMP JUMPDEST PUSH1 0x7 SLOAD PUSH1 0x1 PUSH1 0xA8 SHL SWAP1 DIV PUSH1 0xFF AND PUSH2 0x12C9 JUMPI PUSH1 0x40 MLOAD PUSH3 0x461BCD PUSH1 0xE5 SHL DUP2 MSTORE PUSH1 0x20 PUSH1 0x4 DUP3 ADD MSTORE PUSH1 0x12 PUSH1 0x24 DUP3 ADD MSTORE PUSH18 0x15DA5B9B995C881B9BDD081CD95D081E595D PUSH1 0x72 SHL PUSH1 0x44 DUP3 ADD MSTORE PUSH1 0x64 ADD PUSH2 0x878 JUMP JUMPDEST CALLER PUSH0 SWAP1 DUP2 MSTORE PUSH1 0xB PUSH1 0x20 MSTORE PUSH1 0x40 SWAP1 KECCAK256 PUSH1 0x1 ADD SLOAD PUSH2 0x1317 JUMPI PUSH1 0x40 MLOAD PUSH3 0x461BCD PUSH1 0xE5 SHL DUP2 MSTORE PUSH1 0x20 PUSH1 0x4 DUP3 ADD MSTORE PUSH1 0xD PUSH1 0x24 DUP3 ADD MSTORE PUSH13 0x139BC818995D081C1B1858D959 PUSH1 0x9A SHL PUSH1 0x44 DUP3 ADD MSTORE PUSH1 0x64 ADD PUSH2 0x878 JUMP JUMPDEST CALLER PUSH0 SWAP1 DUP2 MSTORE PUSH1 0xB PUSH1 0x20 MSTORE PUSH1 0x40 SWAP1 KECCAK256 PUSH1 0x2 ADD SLOAD PUSH1 0xFF AND ISZERO PUSH2 0x136B JUMPI PUSH1 0x40 MLOAD PUSH3 0x461BCD PUSH1 0xE5 SHL DUP2 MSTORE PUSH1 0x20 PUSH1 0x4 DUP3 ADD MSTORE PUSH1 0xF PUSH1 0x24 DUP3 ADD MSTORE PUSH15 0x105B1C9958591E4818DB185A5B5959 PUSH1 0x8A SHL PUSH1 0x44 DUP3 ADD MSTORE PUSH1 0x64 ADD PUSH2 0x878 JUMP JUMPDEST PUSH1 0x7 SLOAD CALLER PUSH0 SWAP1 DUP2 MSTORE PUSH1 0xB PUSH1 0x20 MSTORE PUSH1 0x40 SWAP1 KECCAK256 SLOAD PUSH1 0xFF SWAP1 DUP2 AND ISZERO ISZERO PUSH1 0x1 PUSH1 0xB0 SHL SWAP1 SWAP3 DIV AND ISZERO ISZERO EQ PUSH2 0x13D0 JUMPI PUSH1 0x40 MLOAD PUSH3 0x461BCD PUSH1 0xE5 SHL DUP2 MSTORE PUSH1 0x20 PUSH1 0x4 DUP3 ADD MSTORE PUSH1 0x11 PUSH1 0x24 DUP3 ADD MSTORE PUSH17 0x139BDD0818481DDA5B9B9A5B99C818995D PUSH1 0x7A SHL PUSH1 0x44 DUP3 ADD MSTORE PUSH1 0x64 ADD PUSH2 0x878 JUMP JUMPDEST CALLER PUSH0 SWAP1 DUP2 MSTORE PUSH1 0xB PUSH1 0x20 MSTORE PUSH1 0x40 DUP2 KECCAK256 PUSH1 0x2 DUP2 ADD DUP1 SLOAD PUSH1 0xFF NOT AND PUSH1 0x1 SWAP1 DUP2 OR SWAP1 SWAP2 SSTORE ADD SLOAD PUSH1 0x7 SLOAD SWAP1 SWAP2 SWAP1 PUSH1 0x1 PUSH1 0xB0 SHL SWAP1 DIV PUSH1 0xFF AND PUSH2 0x140E JUMPI PUSH1 0x9 SLOAD PUSH2 0x1412 JUMP JUMPDEST PUSH1 0x8 SLOAD JUMPDEST PUSH1 0x7 SLOAD SWAP1 SWAP2 POP PUSH0 SWAP1 PUSH1 0x1 PUSH1 0xB0 SHL SWAP1 DIV PUSH1 0xFF AND PUSH2 0x1430 JUMPI PUSH1 0x8 SLOAD PUSH2 0x1434 JUMP JUMPDEST PUSH1 0x9 SLOAD JUMPDEST PUSH1 0xA SLOAD SWAP1 SWAP2 POP PUSH0 PUSH2 0x2710 PUSH2 0x1449 PUSH1 0x96 DUP6 PUSH2 0x1EC4 JUMP JUMPDEST PUSH2 0x1453 SWAP2 SWAP1 PUSH2 0x1EDB JUMP JUMPDEST SWAP1 POP PUSH0 PUSH2 0x1460 DUP3 DUP5 PUSH2 0x203E JUMP JUMPDEST SWAP1 POP PUSH0 DUP6 PUSH2 0x146E DUP4 DUP10 PUSH2 0x1EC4 JUMP JUMPDEST PUSH2 0x1478 SWAP2 SWAP1 PUSH2 0x1EDB JUMP JUMPDEST SWAP1 POP PUSH0 DUP4 GT DUP1 ISZERO PUSH2 0x14B3 JUMPI POP PUSH0 DUP1 MSTORE PUSH1 0xD PUSH1 0x20 MSTORE PUSH32 0x81955A0A11E65EAC625C29E8882660BAE4E165A75D72780094ACAE8ECE9A29EE SLOAD PUSH1 0xFF AND ISZERO JUMPDEST ISZERO PUSH2 0x15CE JUMPI PUSH1 0xF SLOAD PUSH1 0x40 MLOAD PUSH0 SWAP2 PUSH1 0x1 PUSH1 0x1 PUSH1 0xA0 SHL SUB AND SWAP1 DUP6 SWAP1 DUP4 DUP2 DUP2 DUP2 DUP6 DUP8 GAS CALL SWAP3 POP POP POP RETURNDATASIZE DUP1 PUSH0 DUP2 EQ PUSH2 0x1502 JUMPI PUSH1 0x40 MLOAD SWAP2 POP PUSH1 0x1F NOT PUSH1 0x3F RETURNDATASIZE ADD AND DUP3 ADD PUSH1 0x40 MSTORE RETURNDATASIZE DUP3 MSTORE RETURNDATASIZE PUSH0 PUSH1 0x20 DUP5 ADD RETURNDATACOPY PUSH2 0x1507 JUMP JUMPDEST PUSH1 0x60 SWAP2 POP JUMPDEST POP POP SWAP1 POP DUP1 PUSH2 0x154E JUMPI PUSH1 0x40 MLOAD PUSH3 0x461BCD PUSH1 0xE5 SHL DUP2 MSTORE PUSH1 0x20 PUSH1 0x4 DUP3 ADD MSTORE PUSH1 0x13 PUSH1 0x24 DUP3 ADD MSTORE PUSH19 0x119959481D1C985B9CD9995C8819985A5B1959 PUSH1 0x6A SHL PUSH1 0x44 DUP3 ADD MSTORE PUSH1 0x64 ADD PUSH2 0x878 JUMP JUMPDEST PUSH0 DUP1 MSTORE PUSH1 0xD PUSH1 0x20 MSTORE PUSH32 0x81955A0A11E65EAC625C29E8882660BAE4E165A75D72780094ACAE8ECE9A29EE DUP1 SLOAD PUSH1 0xFF NOT AND PUSH1 0x1 OR SWAP1 SSTORE PUSH1 0xF SLOAD PUSH1 0x40 MLOAD PUSH1 0x1 PUSH1 0x1 PUSH1 0xA0 SHL SUB SWAP2 SWAP1 SWAP2 AND SWAP1 PUSH32 0x34E8A84E537ED93D93DDF39A78816DCBC74DF8397C635838B8CC973D4FA943F8 SWAP1 PUSH2 0x15C4 SWAP1 DUP8 DUP2 MSTORE PUSH1 0x20 ADD SWAP1 JUMP JUMPDEST PUSH1 0x40 MLOAD DUP1 SWAP2 SUB SWAP1 LOG2 POP JUMPDEST PUSH1 0x40 MLOAD PUSH0 SWAP1 CALLER SWAP1 DUP4 SWAP1 DUP4 DUP2 DUP2 DUP2 DUP6 DUP8 GAS CALL SWAP3 POP POP POP RETURNDATASIZE DUP1 PUSH0 DUP2 EQ PUSH2 0x160D JUMPI PUSH1 0x40 MLOAD SWAP2 POP PUSH1 0x1F NOT PUSH1 0x3F RETURNDATASIZE ADD AND DUP3 ADD PUSH1 0x40 MSTORE RETURNDATASIZE DUP3 MSTORE RETURNDATASIZE PUSH0 PUSH1 0x20 DUP5 ADD RETURNDATACOPY PUSH2 0x1612 JUMP JUMPDEST PUSH1 0x60 SWAP2 POP JUMPDEST POP POP SWAP1 POP DUP1 PUSH2 0x165C JUMPI PUSH1 0x40 MLOAD PUSH3 0x461BCD PUSH1 0xE5 SHL DUP2 MSTORE PUSH1 0x20 PUSH1 0x4 DUP3 ADD MSTORE PUSH1 0x16 PUSH1 0x24 DUP3 ADD MSTORE PUSH22 0x14995DD85C99081D1C985B9CD9995C8819985A5B1959 PUSH1 0x52 SHL PUSH1 0x44 DUP3 ADD MSTORE PUSH1 0x64 ADD PUSH2 0x878 JUMP JUMPDEST DUP2 PUSH1 0xE PUSH0 DUP3 DUP3 SLOAD PUSH2 0x166D SWAP2 SWAP1 PUSH2 0x1F14 JUMP JUMPDEST SWAP1 SWAP2 SSTORE POP POP PUSH1 0x40 MLOAD DUP3 DUP2 MSTORE CALLER SWAP1 PUSH32 0x106F923F993C2149D49B4255FF723ACAFA1F2D94393F561D3EDA32AE348F7241 SWAP1 PUSH1 0x20 ADD PUSH1 0x40 MLOAD DUP1 SWAP2 SUB SWAP1 LOG2 POP POP POP POP POP POP POP POP PUSH2 0xFF7 PUSH1 0x1 DUP1 SSTORE JUMP JUMPDEST PUSH2 0x16C0 PUSH2 0x1C23 JUMP JUMPDEST PUSH1 0x7 SLOAD PUSH1 0x1 PUSH1 0xC0 SHL SWAP1 DIV PUSH1 0xFF AND PUSH2 0x170E JUMPI PUSH1 0x40 MLOAD PUSH3 0x461BCD PUSH1 0xE5 SHL DUP2 MSTORE PUSH1 0x20 PUSH1 0x4 DUP3 ADD MSTORE PUSH1 0x12 PUSH1 0x24 DUP3 ADD MSTORE PUSH18 0x141BDBDB081B9BDD0818D85B98D95B1B1959 PUSH1 0x72 SHL PUSH1 0x44 DUP3 ADD MSTORE PUSH1 0x64 ADD PUSH2 0x878 JUMP JUMPDEST CALLER PUSH0 SWAP1 DUP2 MSTORE PUSH1 0xB PUSH1 0x20 MSTORE PUSH1 0x40 SWAP1 KECCAK256 PUSH1 0x1 ADD SLOAD PUSH2 0x175C JUMPI PUSH1 0x40 MLOAD PUSH3 0x461BCD PUSH1 0xE5 SHL DUP2 MSTORE PUSH1 0x20 PUSH1 0x4 DUP3 ADD MSTORE PUSH1 0xD PUSH1 0x24 DUP3 ADD MSTORE PUSH13 0x139BC818995D081C1B1858D959 PUSH1 0x9A SHL PUSH1 0x44 DUP3 ADD MSTORE PUSH1 0x64 ADD PUSH2 0x878 JUMP JUMPDEST CALLER PUSH0 SWAP1 DUP2 MSTORE PUSH1 0xB PUSH1 0x20 MSTORE PUSH1 0x40 SWAP1 KECCAK256 PUSH1 0x2 ADD SLOAD PUSH1 0xFF AND ISZERO PUSH2 0x17B0 JUMPI PUSH1 0x40 MLOAD PUSH3 0x461BCD PUSH1 0xE5 SHL DUP2 MSTORE PUSH1 0x20 PUSH1 0x4 DUP3 ADD MSTORE PUSH1 0xF PUSH1 0x24 DUP3 ADD MSTORE PUSH15 0x105B1C9958591E4818DB185A5B5959 PUSH1 0x8A SHL PUSH1 0x44 DUP3 ADD MSTORE PUSH1 0x64 ADD PUSH2 0x878 JUMP JUMPDEST CALLER PUSH0 DUP2 DUP2 MSTORE PUSH1 0xB PUSH1 0x20 MSTORE PUSH1 0x40 DUP1 DUP3 KECCAK256 PUSH1 0x2 DUP2 ADD DUP1 SLOAD PUSH1 0xFF NOT AND PUSH1 0x1 SWAP1 DUP2 OR SWAP1 SWAP2 SSTORE ADD SLOAD SWAP1 MLOAD SWAP1 SWAP3 SWAP1 DUP4 SWAP1 DUP4 DUP2 DUP2 DUP2 DUP6 DUP8 GAS CALL SWAP3 POP POP POP RETURNDATASIZE DUP1 PUSH0 DUP2 EQ PUSH2 0x1810 JUMPI PUSH1 0x40 MLOAD SWAP2 POP PUSH1 0x1F NOT PUSH1 0x3F RETURNDATASIZE ADD AND DUP3 ADD PUSH1 0x40 MSTORE RETURNDATASIZE DUP3 MSTORE RETURNDATASIZE PUSH0 PUSH1 0x20 DUP5 ADD RETURNDATACOPY PUSH2 0x1815 JUMP JUMPDEST PUSH1 0x60 SWAP2 POP JUMPDEST POP POP SWAP1 POP DUP1 PUSH2 0x185F JUMPI PUSH1 0x40 MLOAD PUSH3 0x461BCD PUSH1 0xE5 SHL DUP2 MSTORE PUSH1 0x20 PUSH1 0x4 DUP3 ADD MSTORE PUSH1 0x16 PUSH1 0x24 DUP3 ADD MSTORE PUSH22 0x1499599D5B99081D1C985B9CD9995C8819985A5B1959 PUSH1 0x52 SHL PUSH1 0x44 DUP3 ADD MSTORE PUSH1 0x64 ADD PUSH2 0x878 JUMP JUMPDEST PUSH1 0x40 MLOAD DUP3 DUP2 MSTORE CALLER SWAP1 PUSH32 0x358FE4192934D3BF28AE181FEDA1F4BD08CA67F5E2FAD55582CCE5EB67304AE9 SWAP1 PUSH1 0x20 ADD PUSH1 0x40 MLOAD DUP1 SWAP2 SUB SWAP1 LOG2 POP POP PUSH2 0xFF7 PUSH1 0x1 DUP1 SSTORE JUMP JUMPDEST PUSH2 0x18A7 PUSH2 0x1B7B JUMP JUMPDEST PUSH1 0x7 DUP1 SLOAD DUP3 ISZERO ISZERO PUSH1 0x1 PUSH1 0xB8 SHL MUL PUSH1 0xFF PUSH1 0xB8 SHL NOT SWAP1 SWAP2 AND OR SWAP1 SSTORE PUSH1 0x40 MLOAD PUSH32 0x5B88D23D9A60B7924FCCC370E1E0C1CCF49989E3B2968CAFAF7DB7FC13BD13F SWAP1 PUSH2 0x1268 SWAP1 DUP4 ISZERO ISZERO DUP2 MSTORE PUSH1 0x20 ADD SWAP1 JUMP JUMPDEST PUSH1 0x7 SLOAD PUSH0 SWAP1 PUSH1 0x1 PUSH1 0xA0 SHL SWAP1 DIV PUSH1 0xFF AND ISZERO DUP1 ISZERO PUSH2 0x191A JUMPI POP PUSH1 0x7 SLOAD PUSH1 0x1 PUSH1 0xB8 SHL SWAP1 DIV PUSH1 0xFF AND ISZERO JUMPDEST DUP1 ISZERO PUSH2 0x1930 JUMPI POP PUSH1 0x7 SLOAD PUSH1 0x1 PUSH1 0xC0 SHL SWAP1 DIV PUSH1 0xFF AND ISZERO JUMPDEST DUP1 ISZERO PUSH2 0xE07 JUMPI POP POP PUSH1 0x5 SLOAD TIMESTAMP LT SWAP1 JUMP JUMPDEST PUSH1 0x4 DUP1 SLOAD PUSH2 0xE19 SWAP1 PUSH2 0x1F27 JUMP JUMPDEST PUSH2 0x1955 PUSH2 0x1B7B JUMP JUMPDEST PUSH1 0x7 SLOAD PUSH1 0x1 PUSH1 0xA0 SHL SWAP1 DIV PUSH1 0xFF AND PUSH2 0x19AE JUMPI PUSH1 0x40 MLOAD PUSH3 0x461BCD PUSH1 0xE5 SHL DUP2 MSTORE PUSH1 0x20 PUSH1 0x4 DUP3 ADD MSTORE PUSH1 0x19 PUSH1 0x24 DUP3 ADD MSTORE PUSH32 0x506F6F6C206D75737420626520636C6F73656420666972737400000000000000 PUSH1 0x44 DUP3 ADD MSTORE PUSH1 0x64 ADD PUSH2 0x878 JUMP JUMPDEST PUSH1 0x7 SLOAD PUSH1 0x1 PUSH1 0xA8 SHL SWAP1 DIV PUSH1 0xFF AND ISZERO PUSH2 0x19FD JUMPI PUSH1 0x40 MLOAD PUSH3 0x461BCD PUSH1 0xE5 SHL DUP2 MSTORE PUSH1 0x20 PUSH1 0x4 DUP3 ADD MSTORE PUSH1 0x12 PUSH1 0x24 DUP3 ADD MSTORE PUSH18 0x15DA5B9B995C88185B1C9958591E481CD95D PUSH1 0x72 SHL PUSH1 0x44 DUP3 ADD MSTORE PUSH1 0x64 ADD PUSH2 0x878 JUMP JUMPDEST PUSH1 0x7 DUP1 SLOAD PUSH1 0xFF PUSH1 0xA8 SHL NOT DUP4 ISZERO ISZERO PUSH1 0x1 PUSH1 0xB0 SHL MUL AND PUSH2 0xFFFF PUSH1 0xA8 SHL NOT SWAP1 SWAP2 AND OR PUSH1 0x1 PUSH1 0xA8 SHL OR SWAP1 SSTORE PUSH0 DUP2 PUSH2 0x1A4E JUMPI PUSH1 0x40 MLOAD DUP1 PUSH1 0x40 ADD PUSH1 0x40 MSTORE DUP1 PUSH1 0x6 DUP2 MSTORE PUSH1 0x20 ADD PUSH6 0x2727903BB7B7 PUSH1 0xD1 SHL DUP2 MSTORE POP PUSH2 0x1A6F JUMP JUMPDEST PUSH1 0x40 MLOAD DUP1 PUSH1 0x40 ADD PUSH1 0x40 MSTORE DUP1 PUSH1 0x7 DUP2 MSTORE PUSH1 0x20 ADD PUSH7 0x2CA2A9903BB7B7 PUSH1 0xC9 SHL DUP2 MSTORE POP JUMPDEST SWAP1 POP PUSH32 0x9F1ED7EC730B47AA440B5EDE52772362BE32571A818CD31AC36A295E8393B98E DUP3 DUP3 PUSH1 0x40 MLOAD PUSH2 0x929 SWAP3 SWAP2 SWAP1 PUSH2 0x1EFA JUMP JUMPDEST PUSH2 0x1AAA PUSH2 0x1B7B JUMP JUMPDEST PUSH1 0x1 PUSH1 0x1 PUSH1 0xA0 SHL SUB DUP2 AND PUSH2 0x1B0F JUMPI PUSH1 0x40 MLOAD PUSH3 0x461BCD PUSH1 0xE5 SHL DUP2 MSTORE PUSH1 0x20 PUSH1 0x4 DUP3 ADD MSTORE PUSH1 0x26 PUSH1 0x24 DUP3 ADD MSTORE PUSH32 0x4F776E61626C653A206E6577206F776E657220697320746865207A65726F2061 PUSH1 0x44 DUP3 ADD MSTORE PUSH6 0x646472657373 PUSH1 0xD0 SHL PUSH1 0x64 DUP3 ADD MSTORE PUSH1 0x84 ADD PUSH2 0x878 JUMP JUMPDEST PUSH2 0x1B18 DUP2 PUSH2 0x1BD4 JUMP JUMPDEST POP JUMP JUMPDEST PUSH1 0x60 PUSH1 0xC DUP1 SLOAD DUP1 PUSH1 0x20 MUL PUSH1 0x20 ADD PUSH1 0x40 MLOAD SWAP1 DUP2 ADD PUSH1 0x40 MSTORE DUP1 SWAP3 SWAP2 SWAP1 DUP2 DUP2 MSTORE PUSH1 0x20 ADD DUP3 DUP1 SLOAD DUP1 ISZERO PUSH2 0x1B71 JUMPI PUSH1 0x20 MUL DUP3 ADD SWAP2 SWAP1 PUSH0 MSTORE PUSH1 0x20 PUSH0 KECCAK256 SWAP1 JUMPDEST DUP2 SLOAD PUSH1 0x1 PUSH1 0x1 PUSH1 0xA0 SHL SUB AND DUP2 MSTORE PUSH1 0x1 SWAP1 SWAP2 ADD SWAP1 PUSH1 0x20 ADD DUP1 DUP4 GT PUSH2 0x1B53 JUMPI JUMPDEST POP POP POP POP POP SWAP1 POP SWAP1 JUMP JUMPDEST PUSH0 SLOAD PUSH1 0x1 PUSH1 0x1 PUSH1 0xA0 SHL SUB AND CALLER EQ PUSH2 0xFF7 JUMPI PUSH1 0x40 MLOAD PUSH3 0x461BCD PUSH1 0xE5 SHL DUP2 MSTORE PUSH1 0x20 PUSH1 0x4 DUP3 ADD DUP2 SWAP1 MSTORE PUSH1 0x24 DUP3 ADD MSTORE PUSH32 0x4F776E61626C653A2063616C6C6572206973206E6F7420746865206F776E6572 PUSH1 0x44 DUP3 ADD MSTORE PUSH1 0x64 ADD PUSH2 0x878 JUMP JUMPDEST PUSH0 DUP1 SLOAD PUSH1 0x1 PUSH1 0x1 PUSH1 0xA0 SHL SUB DUP4 DUP2 AND PUSH1 0x1 PUSH1 0x1 PUSH1 0xA0 SHL SUB NOT DUP4 AND DUP2 OR DUP5 SSTORE PUSH1 0x40 MLOAD SWAP2 SWAP1 SWAP3 AND SWAP3 DUP4 SWAP2 PUSH32 0x8BE0079C531659141344CD1FD0A4F28419497F9722A3DAAFE3B4186F6B6457E0 SWAP2 SWAP1 LOG3 POP POP JUMP JUMPDEST PUSH1 0x2 PUSH1 0x1 SLOAD SUB PUSH2 0x1C75 JUMPI PUSH1 0x40 MLOAD PUSH3 0x461BCD PUSH1 0xE5 SHL DUP2 MSTORE PUSH1 0x20 PUSH1 0x4 DUP3 ADD MSTORE PUSH1 0x1F PUSH1 0x24 DUP3 ADD MSTORE PUSH32 0x5265656E7472616E637947756172643A207265656E7472616E742063616C6C00 PUSH1 0x44 DUP3 ADD MSTORE PUSH1 0x64 ADD PUSH2 0x878 JUMP JUMPDEST PUSH1 0x2 PUSH1 0x1 SSTORE JUMP JUMPDEST DUP1 CALLDATALOAD DUP1 ISZERO ISZERO DUP2 EQ PUSH2 0x1C8B JUMPI PUSH0 DUP1 REVERT JUMPDEST SWAP2 SWAP1 POP JUMP JUMPDEST PUSH4 0x4E487B71 PUSH1 0xE0 SHL PUSH0 MSTORE PUSH1 0x41 PUSH1 0x4 MSTORE PUSH1 0x24 PUSH0 REVERT JUMPDEST PUSH0 DUP3 PUSH1 0x1F DUP4 ADD SLT PUSH2 0x1CB3 JUMPI PUSH0 DUP1 REVERT JUMPDEST DUP2 CALLDATALOAD PUSH8 0xFFFFFFFFFFFFFFFF DUP1 DUP3 GT ISZERO PUSH2 0x1CCE JUMPI PUSH2 0x1CCE PUSH2 0x1C90 JUMP JUMPDEST PUSH1 0x40 MLOAD PUSH1 0x1F DUP4 ADD PUSH1 0x1F NOT SWAP1 DUP2 AND PUSH1 0x3F ADD AND DUP2 ADD SWAP1 DUP3 DUP3 GT DUP2 DUP4 LT OR ISZERO PUSH2 0x1CF6 JUMPI PUSH2 0x1CF6 PUSH2 0x1C90 JUMP JUMPDEST DUP2 PUSH1 0x40 MSTORE DUP4 DUP2 MSTORE DUP7 PUSH1 0x20 DUP6 DUP9 ADD ADD GT ISZERO PUSH2 0x1D0E JUMPI PUSH0 DUP1 REVERT JUMPDEST DUP4 PUSH1 0x20 DUP8 ADD PUSH1 0x20 DUP4 ADD CALLDATACOPY PUSH0 PUSH1 0x20 DUP6 DUP4 ADD ADD MSTORE DUP1 SWAP5 POP POP POP POP POP SWAP3 SWAP2 POP POP JUMP JUMPDEST PUSH0 DUP1 PUSH1 0x40 DUP4 DUP6 SUB SLT ISZERO PUSH2 0x1D3E JUMPI PUSH0 DUP1 REVERT JUMPDEST PUSH2 0x1D47 DUP4 PUSH2 0x1C7C JUMP JUMPDEST SWAP2 POP PUSH1 0x20 DUP4 ADD CALLDATALOAD PUSH8 0xFFFFFFFFFFFFFFFF DUP2 GT ISZERO PUSH2 0x1D62 JUMPI PUSH0 DUP1 REVERT JUMPDEST PUSH2 0x1D6E DUP6 DUP3 DUP7 ADD PUSH2 0x1CA4 JUMP JUMPDEST SWAP2 POP POP SWAP3 POP SWAP3 SWAP1 POP JUMP JUMPDEST PUSH0 PUSH1 0x20 DUP3 DUP5 SUB SLT ISZERO PUSH2 0x1D88 JUMPI PUSH0 DUP1 REVERT JUMPDEST PUSH2 0x1D91 DUP3 PUSH2 0x1C7C JUMP JUMPDEST SWAP4 SWAP3 POP POP POP JUMP JUMPDEST PUSH0 PUSH1 0x20 DUP3 DUP5 SUB SLT ISZERO PUSH2 0x1DA8 JUMPI PUSH0 DUP1 REVERT JUMPDEST POP CALLDATALOAD SWAP2 SWAP1 POP JUMP JUMPDEST PUSH0 DUP2 MLOAD DUP1 DUP5 MSTORE PUSH0 JUMPDEST DUP2 DUP2 LT ISZERO PUSH2 0x1DD3 JUMPI PUSH1 0x20 DUP2 DUP6 ADD DUP2 ADD MLOAD DUP7 DUP4 ADD DUP3 ADD MSTORE ADD PUSH2 0x1DB7 JUMP JUMPDEST POP PUSH0 PUSH1 0x20 DUP3 DUP7 ADD ADD MSTORE PUSH1 0x20 PUSH1 0x1F NOT PUSH1 0x1F DUP4 ADD AND DUP6 ADD ADD SWAP2 POP POP SWAP3 SWAP2 POP POP JUMP JUMPDEST PUSH1 0x20 DUP2 MSTORE PUSH0 PUSH2 0x1D91 PUSH1 0x20 DUP4 ADD DUP5 PUSH2 0x1DAF JUMP JUMPDEST PUSH0 PUSH1 0x20 DUP3 DUP5 SUB SLT ISZERO PUSH2 0x1E14 JUMPI PUSH0 DUP1 REVERT JUMPDEST DUP2 CALLDATALOAD PUSH1 0x1 PUSH1 0x1 PUSH1 0xA0 SHL SUB DUP2 AND DUP2 EQ PUSH2 0x1D91 JUMPI PUSH0 DUP1 REVERT JUMPDEST PUSH0 PUSH1 0x20 DUP3 DUP5 SUB SLT ISZERO PUSH2 0x1E3A JUMPI PUSH0 DUP1 REVERT JUMPDEST DUP2 CALLDATALOAD PUSH8 0xFFFFFFFFFFFFFFFF DUP2 GT ISZERO PUSH2 0x1E50 JUMPI PUSH0 DUP1 REVERT JUMPDEST PUSH2 0x1E5C DUP5 DUP3 DUP6 ADD PUSH2 0x1CA4 JUMP JUMPDEST SWAP5 SWAP4 POP POP POP POP JUMP JUMPDEST PUSH1 0x20 DUP1 DUP3 MSTORE DUP3 MLOAD DUP3 DUP3 ADD DUP2 SWAP1 MSTORE PUSH0 SWAP2 SWAP1 DUP5 DUP3 ADD SWAP1 PUSH1 0x40 DUP6 ADD SWAP1 DUP5 JUMPDEST DUP2 DUP2 LT ISZERO PUSH2 0x1EA4 JUMPI DUP4 MLOAD PUSH1 0x1 PUSH1 0x1 PUSH1 0xA0 SHL SUB AND DUP4 MSTORE SWAP3 DUP5 ADD SWAP3 SWAP2 DUP5 ADD SWAP2 PUSH1 0x1 ADD PUSH2 0x1E7F JUMP JUMPDEST POP SWAP1 SWAP7 SWAP6 POP POP POP POP POP POP JUMP JUMPDEST PUSH4 0x4E487B71 PUSH1 0xE0 SHL PUSH0 MSTORE PUSH1 0x11 PUSH1 0x4 MSTORE PUSH1 0x24 PUSH0 REVERT JUMPDEST DUP1 DUP3 MUL DUP2 ISZERO DUP3 DUP3 DIV DUP5 EQ OR PUSH2 0x1061 JUMPI PUSH2 0x1061 PUSH2 0x1EB0 JUMP JUMPDEST PUSH0 DUP3 PUSH2 0x1EF5 JUMPI PUSH4 0x4E487B71 PUSH1 0xE0 SHL PUSH0 MSTORE PUSH1 0x12 PUSH1 0x4 MSTORE PUSH1 0x24 PUSH0 REVERT JUMPDEST POP DIV SWAP1 JUMP JUMPDEST DUP3 ISZERO ISZERO DUP2 MSTORE PUSH1 0x40 PUSH1 0x20 DUP3 ADD MSTORE PUSH0 PUSH2 0x1E5C PUSH1 0x40 DUP4 ADD DUP5 PUSH2 0x1DAF JUMP JUMPDEST DUP1 DUP3 ADD DUP1 DUP3 GT ISZERO PUSH2 0x1061 JUMPI PUSH2 0x1061 PUSH2 0x1EB0 JUMP JUMPDEST PUSH1 0x1 DUP2 DUP2 SHR SWAP1 DUP3 AND DUP1 PUSH2 0x1F3B JUMPI PUSH1 0x7F DUP3 AND SWAP2 POP JUMPDEST PUSH1 0x20 DUP3 LT DUP2 SUB PUSH2 0x1F59 JUMPI PUSH4 0x4E487B71 PUSH1 0xE0 SHL PUSH0 MSTORE PUSH1 0x22 PUSH1 0x4 MSTORE PUSH1 0x24 PUSH0 REVERT JUMPDEST POP SWAP2 SWAP1 POP JUMP JUMPDEST DUP7 DUP2 MSTORE PUSH0 PUSH1 0x20 DUP8 ISZERO ISZERO PUSH1 0x20 DUP5 ADD MSTORE DUP7 PUSH1 0x40 DUP5 ADD MSTORE DUP6 PUSH1 0x60 DUP5 ADD MSTORE PUSH1 0xC0 PUSH1 0x80 DUP5 ADD MSTORE PUSH0 DUP6 SLOAD PUSH0 PUSH1 0x1 DUP3 PUSH1 0x1 SHR SWAP2 POP PUSH1 0x1 DUP4 AND DUP1 PUSH2 0x1F9C JUMPI PUSH1 0x7F DUP4 AND SWAP3 POP JUMPDEST PUSH1 0x20 DUP4 LT DUP2 SUB PUSH2 0x1FBA JUMPI PUSH4 0x4E487B71 PUSH1 0xE0 SHL PUSH0 MSTORE PUSH1 0x22 PUSH1 0x4 MSTORE PUSH1 0x24 PUSH0 REVERT JUMPDEST PUSH1 0xC0 DUP9 ADD DUP4 SWAP1 MSTORE PUSH1 0xE0 DUP9 ADD DUP2 DUP1 ISZERO PUSH2 0x1FD9 JUMPI PUSH1 0x1 DUP2 EQ PUSH2 0x1FEF JUMPI PUSH2 0x2018 JUMP JUMPDEST PUSH1 0xFF NOT DUP7 AND DUP3 MSTORE DUP5 ISZERO ISZERO PUSH1 0x5 SHL DUP3 ADD SWAP7 POP PUSH2 0x2018 JUMP JUMPDEST PUSH0 DUP13 DUP2 MSTORE PUSH1 0x20 SWAP1 KECCAK256 PUSH0 JUMPDEST DUP7 DUP2 LT ISZERO PUSH2 0x2012 JUMPI DUP2 SLOAD DUP5 DUP3 ADD MSTORE SWAP1 DUP6 ADD SWAP1 DUP10 ADD PUSH2 0x1FF9 JUMP JUMPDEST DUP4 ADD SWAP8 POP POP JUMPDEST POP POP POP POP POP POP DUP4 DUP2 SUB PUSH1 0xA0 DUP6 ADD MSTORE PUSH2 0x2030 DUP2 DUP7 PUSH2 0x1DAF JUMP JUMPDEST SWAP11 SWAP10 POP POP POP POP POP POP POP POP POP POP JUMP JUMPDEST DUP2 DUP2 SUB DUP2 DUP2 GT ISZERO PUSH2 0x1061 JUMPI PUSH2 0x1061 PUSH2 0x1EB0 JUMP INVALID LOG2 PUSH5 0x6970667358 0x22 SLT KECCAK256 COINBASE EQ 0xCB 0xE4 0xBF 0xD1 0xB5 PUSH24 0xF8448A040B91905CFFF735590D45661E6C97D446E1C9B892 PUSH5 0x736F6C6343 STOP ADDMOD XOR STOP CALLER LOG2 PUSH5 0x6970667358 0x22 SLT KECCAK256 0xB1 DIV GASLIMIT PUSH11 0xE65168787344A50BFB34CF SLOAD PUSH11 0x95F5761B7C3080453FC715 LOG1 SWAP7 PUSH5 0x6564736F6C PUSH4 0x43000818 STOP CALLER "},"methodIdentifiers":{"BASIS_POINTS()":"e1f1c4a7","FEE_PERCENTAGE()":"000b46f8","allPools(uint256)":"41d1de97","cancelPoolPrediction(address,string)":"ae288ab1","closePool(address)":"29d0cdf4","collectFees(address)":"a480ca79","createPool(string,string,string,uint256,uint256)":"4194b6f0","emergencyResolvePool(address,bool,string)":"e8fc5115","getAllPools()":"d88ff1f4","getPoolCount()":"8eec5d70","getPoolInfo(address)":"06bfa938","getPoolsByCategory(string)":"1e073978","owner()":"8da5cb5b","poolInfo(address)":"9a7b5f11","renounceOwnership()":"715018a6","setPoolEmergencyStop(address,bool)":"df75debf","setPoolWinner(address,bool)":"47fc142d","totalFeesCollected()":"60c6d8ae","transferOwnership(address)":"f2fde38b","withdrawFees()":"476343ee"}}}}}