{
  "_format": "hh3-artifact-1",
  "contractName": "PredictionPool",
  "sourceName": "contracts/BellaNapoliPredictionFactory-flattened-v4.sol",
  "abi": [
    {
      "inputs": [
        {
          "internalType": "string",
          "name": "_title",
          "type": "string"
        },
        {
          "internalType": "string",
          "name": "_description",
          "type": "string"
        },
        {
          "internalType": "string",
          "name": "_category",
          "type": "string"
        },
        {
          "internalType": "uint256",
          "name": "_closingDate",
          "type": "uint256"
        },
        {
          "internalType": "uint256",
          "name": "_closingBid",
          "type": "uint256"
        },
        {
          "internalType": "address",
          "name": "_factory",
          "type": "address"
        }
      ],
      "stateMutability": "nonpayable",
      "type": "constructor"
    },
    {
      "anonymous": false,
      "inputs": [
        {
          "indexed": true,
          "internalType": "address",
          "name": "bettor",
          "type": "address"
        },
        {
          "indexed": false,
          "internalType": "uint256",
          "name": "amount",
          "type": "uint256"
        },
        {
          "indexed": false,
          "internalType": "bool",
          "name": "choice",
          "type": "bool"
        },
        {
          "indexed": false,
          "internalType": "uint256",
          "name": "totalYes",
          "type": "uint256"
        },
        {
          "indexed": false,
          "internalType": "uint256",
          "name": "totalNo",
          "type": "uint256"
        },
        {
          "indexed": false,
          "internalType": "string",
          "name": "predictionTitle",
          "type": "string"
        },
        {
          "indexed": false,
          "internalType": "string",
          "name": "userChoice",
          "type": "string"
        }
      ],
      "name": "BetPlaced",
      "type": "event"
    },
    {
      "anonymous": false,
      "inputs": [
        {
          "indexed": true,
          "internalType": "address",
          "name": "to",
          "type": "address"
        },
        {
          "indexed": false,
          "internalType": "uint256",
          "name": "amount",
          "type": "uint256"
        },
        {
          "indexed": false,
          "internalType": "uint256",
          "name": "userCount",
          "type": "uint256"
        }
      ],
      "name": "EmergencyFundsRecovered",
      "type": "event"
    },
    {
      "anonymous": false,
      "inputs": [
        {
          "indexed": false,
          "internalType": "bool",
          "name": "stopped",
          "type": "bool"
        }
      ],
      "name": "EmergencyStopToggled",
      "type": "event"
    },
    {
      "anonymous": false,
      "inputs": [
        {
          "indexed": true,
          "internalType": "address",
          "name": "feeWallet",
          "type": "address"
        },
        {
          "indexed": false,
          "internalType": "uint256",
          "name": "amount",
          "type": "uint256"
        }
      ],
      "name": "FeeTransferred",
      "type": "event"
    },
    {
      "anonymous": false,
      "inputs": [
        {
          "indexed": true,
          "internalType": "address",
          "name": "previousOwner",
          "type": "address"
        },
        {
          "indexed": true,
          "internalType": "address",
          "name": "newOwner",
          "type": "address"
        }
      ],
      "name": "OwnershipTransferred",
      "type": "event"
    },
    {
      "anonymous": false,
      "inputs": [
        {
          "indexed": false,
          "internalType": "string",
          "name": "reason",
          "type": "string"
        }
      ],
      "name": "PoolCancelled",
      "type": "event"
    },
    {
      "anonymous": false,
      "inputs": [],
      "name": "PoolReopened",
      "type": "event"
    },
    {
      "anonymous": false,
      "inputs": [
        {
          "indexed": true,
          "internalType": "address",
          "name": "user",
          "type": "address"
        },
        {
          "indexed": false,
          "internalType": "uint256",
          "name": "amount",
          "type": "uint256"
        }
      ],
      "name": "RefundClaimed",
      "type": "event"
    },
    {
      "anonymous": false,
      "inputs": [
        {
          "indexed": true,
          "internalType": "address",
          "name": "winner",
          "type": "address"
        },
        {
          "indexed": false,
          "internalType": "uint256",
          "name": "amount",
          "type": "uint256"
        }
      ],
      "name": "RewardClaimed",
      "type": "event"
    },
    {
      "anonymous": false,
      "inputs": [
        {
          "indexed": false,
          "internalType": "bool",
          "name": "winnerChoice",
          "type": "bool"
        },
        {
          "indexed": false,
          "internalType": "string",
          "name": "reason",
          "type": "string"
        }
      ],
      "name": "WinnerSet",
      "type": "event"
    },
    {
      "inputs": [],
      "name": "BASIS_POINTS",
      "outputs": [
        {
          "internalType": "uint256",
          "name": "",
          "type": "uint256"
        }
      ],
      "stateMutability": "view",
      "type": "function"
    },
    {
      "inputs": [],
      "name": "FEE_PERCENTAGE",
      "outputs": [
        {
          "internalType": "uint256",
          "name": "",
          "type": "uint256"
        }
      ],
      "stateMutability": "view",
      "type": "function"
    },
    {
      "inputs": [
        {
          "internalType": "uint256",
          "name": "",
          "type": "uint256"
        }
      ],
      "name": "bettors",
      "outputs": [
        {
          "internalType": "address",
          "name": "",
          "type": "address"
        }
      ],
      "stateMutability": "view",
      "type": "function"
    },
    {
      "inputs": [
        {
          "internalType": "address",
          "name": "_user",
          "type": "address"
        }
      ],
      "name": "canClaimRefund",
      "outputs": [
        {
          "internalType": "bool",
          "name": "",
          "type": "bool"
        }
      ],
      "stateMutability": "view",
      "type": "function"
    },
    {
      "inputs": [
        {
          "internalType": "string",
          "name": "_reason",
          "type": "string"
        }
      ],
      "name": "cancelPool",
      "outputs": [],
      "stateMutability": "nonpayable",
      "type": "function"
    },
    {
      "inputs": [],
      "name": "cancelled",
      "outputs": [
        {
          "internalType": "bool",
          "name": "",
          "type": "bool"
        }
      ],
      "stateMutability": "view",
      "type": "function"
    },
    {
      "inputs": [],
      "name": "category",
      "outputs": [
        {
          "internalType": "string",
          "name": "",
          "type": "string"
        }
      ],
      "stateMutability": "view",
      "type": "function"
    },
    {
      "inputs": [],
      "name": "claimRefund",
      "outputs": [],
      "stateMutability": "nonpayable",
      "type": "function"
    },
    {
      "inputs": [],
      "name": "claimWinnings",
      "outputs": [],
      "stateMutability": "nonpayable",
      "type": "function"
    },
    {
      "inputs": [],
      "name": "closePool",
      "outputs": [],
      "stateMutability": "nonpayable",
      "type": "function"
    },
    {
      "inputs": [],
      "name": "closingBid",
      "outputs": [
        {
          "internalType": "uint256",
          "name": "",
          "type": "uint256"
        }
      ],
      "stateMutability": "view",
      "type": "function"
    },
    {
      "inputs": [],
      "name": "closingDate",
      "outputs": [
        {
          "internalType": "uint256",
          "name": "",
          "type": "uint256"
        }
      ],
      "stateMutability": "view",
      "type": "function"
    },
    {
      "inputs": [],
      "name": "description",
      "outputs": [
        {
          "internalType": "string",
          "name": "",
          "type": "string"
        }
      ],
      "stateMutability": "view",
      "type": "function"
    },
    {
      "inputs": [],
      "name": "emergencyRecoverFunds",
      "outputs": [],
      "stateMutability": "nonpayable",
      "type": "function"
    },
    {
      "inputs": [
        {
          "internalType": "bool",
          "name": "_winner",
          "type": "bool"
        },
        {
          "internalType": "string",
          "name": "_reason",
          "type": "string"
        }
      ],
      "name": "emergencyResolve",
      "outputs": [],
      "stateMutability": "nonpayable",
      "type": "function"
    },
    {
      "inputs": [],
      "name": "emergencyStop",
      "outputs": [
        {
          "internalType": "bool",
          "name": "",
          "type": "bool"
        }
      ],
      "stateMutability": "view",
      "type": "function"
    },
    {
      "inputs": [],
      "name": "factory",
      "outputs": [
        {
          "internalType": "address payable",
          "name": "",
          "type": "address"
        }
      ],
      "stateMutability": "view",
      "type": "function"
    },
    {
      "inputs": [],
      "name": "feeSplitPercentage",
      "outputs": [
        {
          "internalType": "uint256",
          "name": "",
          "type": "uint256"
        }
      ],
      "stateMutability": "view",
      "type": "function"
    },
    {
      "inputs": [],
      "name": "feeWallet",
      "outputs": [
        {
          "internalType": "address",
          "name": "",
          "type": "address"
        }
      ],
      "stateMutability": "view",
      "type": "function"
    },
    {
      "inputs": [],
      "name": "feeWallet2",
      "outputs": [
        {
          "internalType": "address",
          "name": "",
          "type": "address"
        }
      ],
      "stateMutability": "view",
      "type": "function"
    },
    {
      "inputs": [],
      "name": "getBettors",
      "outputs": [
        {
          "internalType": "address[]",
          "name": "",
          "type": "address[]"
        }
      ],
      "stateMutability": "view",
      "type": "function"
    },
    {
      "inputs": [],
      "name": "getFeeInfo",
      "outputs": [
        {
          "internalType": "address",
          "name": "_feeWallet",
          "type": "address"
        },
        {
          "internalType": "uint256",
          "name": "_feePercentage",
          "type": "uint256"
        },
        {
          "internalType": "uint256",
          "name": "_totalFees",
          "type": "uint256"
        },
        {
          "internalType": "bool",
          "name": "_feesClaimed",
          "type": "bool"
        }
      ],
      "stateMutability": "view",
      "type": "function"
    },
    {
      "inputs": [],
      "name": "getLosingPot",
      "outputs": [
        {
          "internalType": "uint256",
          "name": "",
          "type": "uint256"
        }
      ],
      "stateMutability": "view",
      "type": "function"
    },
    {
      "inputs": [],
      "name": "getPoolStats",
      "outputs": [
        {
          "internalType": "uint256",
          "name": "_totalYes",
          "type": "uint256"
        },
        {
          "internalType": "uint256",
          "name": "_totalNo",
          "type": "uint256"
        },
        {
          "internalType": "uint256",
          "name": "_totalBets",
          "type": "uint256"
        },
        {
          "internalType": "uint256",
          "name": "_bettorCount",
          "type": "uint256"
        },
        {
          "internalType": "bool",
          "name": "_isClosed",
          "type": "bool"
        },
        {
          "internalType": "bool",
          "name": "_winnerSet",
          "type": "bool"
        },
        {
          "internalType": "bool",
          "name": "_cancelled",
          "type": "bool"
        }
      ],
      "stateMutability": "view",
      "type": "function"
    },
    {
      "inputs": [],
      "name": "getTotalFees",
      "outputs": [
        {
          "internalType": "uint256",
          "name": "",
          "type": "uint256"
        }
      ],
      "stateMutability": "view",
      "type": "function"
    },
    {
      "inputs": [],
      "name": "getWinnerPot",
      "outputs": [
        {
          "internalType": "uint256",
          "name": "",
          "type": "uint256"
        }
      ],
      "stateMutability": "view",
      "type": "function"
    },
    {
      "inputs": [
        {
          "internalType": "address",
          "name": "",
          "type": "address"
        }
      ],
      "name": "hasClaimed",
      "outputs": [
        {
          "internalType": "bool",
          "name": "",
          "type": "bool"
        }
      ],
      "stateMutability": "view",
      "type": "function"
    },
    {
      "inputs": [],
      "name": "isBettingOpen",
      "outputs": [
        {
          "internalType": "bool",
          "name": "",
          "type": "bool"
        }
      ],
      "stateMutability": "view",
      "type": "function"
    },
    {
      "inputs": [],
      "name": "isClosed",
      "outputs": [
        {
          "internalType": "bool",
          "name": "",
          "type": "bool"
        }
      ],
      "stateMutability": "view",
      "type": "function"
    },
    {
      "inputs": [],
      "name": "owner",
      "outputs": [
        {
          "internalType": "address",
          "name": "",
          "type": "address"
        }
      ],
      "stateMutability": "view",
      "type": "function"
    },
    {
      "inputs": [
        {
          "internalType": "bool",
          "name": "_choice",
          "type": "bool"
        }
      ],
      "name": "placeBet",
      "outputs": [],
      "stateMutability": "payable",
      "type": "function"
    },
    {
      "inputs": [],
      "name": "renounceOwnership",
      "outputs": [],
      "stateMutability": "nonpayable",
      "type": "function"
    },
    {
      "inputs": [],
      "name": "reopenPool",
      "outputs": [],
      "stateMutability": "nonpayable",
      "type": "function"
    },
    {
      "inputs": [
        {
          "internalType": "bool",
          "name": "_stop",
          "type": "bool"
        }
      ],
      "name": "setEmergencyStop",
      "outputs": [],
      "stateMutability": "nonpayable",
      "type": "function"
    },
    {
      "inputs": [
        {
          "internalType": "uint256",
          "name": "_percentage",
          "type": "uint256"
        }
      ],
      "name": "setFeeSplit",
      "outputs": [],
      "stateMutability": "nonpayable",
      "type": "function"
    },
    {
      "inputs": [
        {
          "internalType": "address",
          "name": "_newFeeWallet",
          "type": "address"
        }
      ],
      "name": "setFeeWallet",
      "outputs": [],
      "stateMutability": "nonpayable",
      "type": "function"
    },
    {
      "inputs": [
        {
          "internalType": "address",
          "name": "_newFeeWallet2",
          "type": "address"
        }
      ],
      "name": "setFeeWallet2",
      "outputs": [],
      "stateMutability": "nonpayable",
      "type": "function"
    },
    {
      "inputs": [
        {
          "internalType": "bool",
          "name": "_winner",
          "type": "bool"
        }
      ],
      "name": "setWinner",
      "outputs": [],
      "stateMutability": "nonpayable",
      "type": "function"
    },
    {
      "inputs": [],
      "name": "title",
      "outputs": [
        {
          "internalType": "string",
          "name": "",
          "type": "string"
        }
      ],
      "stateMutability": "view",
      "type": "function"
    },
    {
      "inputs": [],
      "name": "totalBets",
      "outputs": [
        {
          "internalType": "uint256",
          "name": "",
          "type": "uint256"
        }
      ],
      "stateMutability": "view",
      "type": "function"
    },
    {
      "inputs": [],
      "name": "totalClaimed",
      "outputs": [
        {
          "internalType": "uint256",
          "name": "",
          "type": "uint256"
        }
      ],
      "stateMutability": "view",
      "type": "function"
    },
    {
      "inputs": [],
      "name": "totalNo",
      "outputs": [
        {
          "internalType": "uint256",
          "name": "",
          "type": "uint256"
        }
      ],
      "stateMutability": "view",
      "type": "function"
    },
    {
      "inputs": [],
      "name": "totalYes",
      "outputs": [
        {
          "internalType": "uint256",
          "name": "",
          "type": "uint256"
        }
      ],
      "stateMutability": "view",
      "type": "function"
    },
    {
      "inputs": [
        {
          "internalType": "address",
          "name": "newOwner",
          "type": "address"
        }
      ],
      "name": "transferOwnership",
      "outputs": [],
      "stateMutability": "nonpayable",
      "type": "function"
    },
    {
      "inputs": [
        {
          "internalType": "address",
          "name": "",
          "type": "address"
        }
      ],
      "name": "userBets",
      "outputs": [
        {
          "internalType": "bool",
          "name": "choice",
          "type": "bool"
        },
        {
          "internalType": "uint256",
          "name": "amount",
          "type": "uint256"
        },
        {
          "internalType": "bool",
          "name": "claimed",
          "type": "bool"
        },
        {
          "internalType": "uint256",
          "name": "timestamp",
          "type": "uint256"
        }
      ],
      "stateMutability": "view",
      "type": "function"
    },
    {
      "inputs": [],
      "name": "winner",
      "outputs": [
        {
          "internalType": "bool",
          "name": "",
          "type": "bool"
        }
      ],
      "stateMutability": "view",
      "type": "function"
    },
    {
      "inputs": [],
      "name": "winnerSet",
      "outputs": [
        {
          "internalType": "bool",
          "name": "",
          "type": "bool"
        }
      ],
      "stateMutability": "view",
      "type": "function"
    },
    {
      "stateMutability": "payable",
      "type": "receive"
    }
  ],
  "bytecode": "0x60806040526007805464ffff00ffff60a01b19169055600f80546001600160a01b031916738e49800f0aa47e68ba9e46d97481679d033792941790555f6011553480156200004b575f80fd5b5060405162002b8638038062002b868339810160408190526200006e91620001ec565b6200007933620000dc565b6001805560026200008b878262000336565b5060036200009a868262000336565b506004620000a9858262000336565b50600592909255600655600780546001600160a01b0319166001600160a01b039092169190911790555062000402915050565b5f80546001600160a01b038381166001600160a01b0319831681178455604051919092169283917f8be0079c531659141344cd1fd0a4f28419497f9722a3daafe3b4186f6b6457e09190a35050565b634e487b7160e01b5f52604160045260245ffd5b5f82601f8301126200014f575f80fd5b81516001600160401b03808211156200016c576200016c6200012b565b604051601f8301601f19908116603f011681019082821181831017156200019757620001976200012b565b8160405283815260209250866020858801011115620001b4575f80fd5b5f91505b83821015620001d75785820183015181830184015290820190620001b8565b5f602085830101528094505050505092915050565b5f805f805f8060c0878903121562000202575f80fd5b86516001600160401b038082111562000219575f80fd5b620002278a838b016200013f565b975060208901519150808211156200023d575f80fd5b6200024b8a838b016200013f565b9650604089015191508082111562000261575f80fd5b506200027089828a016200013f565b606089015160808a015160a08b0151929750909550935090506001600160a01b03811681146200029e575f80fd5b809150509295509295509295565b600181811c90821680620002c157607f821691505b602082108103620002e057634e487b7160e01b5f52602260045260245ffd5b50919050565b601f8211156200033157805f5260205f20601f840160051c810160208510156200030d5750805b601f840160051c820191505b818110156200032e575f815560010162000319565b50505b505050565b81516001600160401b038111156200035257620003526200012b565b6200036a81620003638454620002ac565b84620002e6565b602080601f831160018114620003a0575f8415620003885750858301515b5f19600386901b1c1916600185901b178555620003fa565b5f85815260208120601f198616915b82811015620003d057888601518255948401946001909101908401620003af565b5085821015620003ee57878501515f19600388901b60f8161c191681555b505060018460011b0185555b505050505050565b61277680620004105f395ff3fe608060405260043610610281575f3560e01c8063a0b43a4e11610155578063c73d7c7b116100be578063ef430aa611610078578063ef430aa6146107c0578063ef9ea486146107d4578063f25f4b56146107f3578063f2fde38b14610812578063fd388be214610831578063ffd4493c14610846575f80fd5b8063c73d7c7b14610724578063cd962a0614610743578063d54ad2a114610762578063dfbf53ae14610777578063e1f1c4a714610797578063ee4eb586146107ac575f80fd5b8063b84ff2621161010f578063b84ff2621461062c578063bbb8518814610641578063befa1e2f146106b1578063c2b6b58c146106c6578063c45a0155146106e6578063c50c96b614610705575f80fd5b8063a0b43a4e146105a7578063a628828f146105bb578063a8ae8e05146105d0578063af008883146105ef578063b401faf114610604578063b5545a3c14610618575f80fd5b806366805de5116101f75780638cca8f64116101b15780638cca8f64146104fa5780638da5cb5b146105195780638ebce3f81461053557806390d49b9d14610549578063936e1d83146105685780639a82a09a14610587575f80fd5b806366805de51461045b578063715018a61461046f5780637284e4161461048357806373b2e80e1461049757806378e73ff8146104c557806388ba8dd6146104e5575f80fd5b806341271b001161024857806341271b001461035e57806343c322ba146103725780634a79d50c146103865780634e92a646146103a7578063626e1ae71461041757806363a599a41461042b575f80fd5b806202eab71461028c5780620b46f8146102d157806306f6bce9146102f3578063096a3778146103145780633482b64414610327575f80fd5b3661028857005b5f80fd5b348015610297575f80fd5b506102a0610867565b604080516001600160a01b039095168552602085019390935291830152151560608201526080015b60405180910390f35b3480156102dc575f80fd5b506102e5609681565b6040519081526020016102c8565b3480156102fe575f80fd5b5061031261030d36600461241c565b6108e1565b005b610312610322366004612467565b6109fb565b348015610332575f80fd5b50610346610341366004612487565b610e87565b6040516001600160a01b0390911681526020016102c8565b348015610369575f80fd5b50610312610eaf565b34801561037d575f80fd5b506102e561104d565b348015610391575f80fd5b5061039a611070565b6040516102c891906124e1565b3480156103b2575f80fd5b506103ef6103c13660046124f3565b600b6020525f9081526040902080546001820154600283015460039093015460ff9283169391929091169084565b60408051941515855260208501939093529015159183019190915260608201526080016102c8565b348015610422575f80fd5b506102e56110fc565b348015610436575f80fd5b5060075461044b90600160b81b900460ff1681565b60405190151581526020016102c8565b348015610466575f80fd5b5061031261117d565b34801561047a575f80fd5b50610312611244565b34801561048e575f80fd5b5061039a611257565b3480156104a2575f80fd5b5061044b6104b13660046124f3565b600d6020525f908152604090205460ff1681565b3480156104d0575f80fd5b5060075461044b90600160a81b900460ff1681565b3480156104f0575f80fd5b506102e560085481565b348015610505575f80fd5b5061044b6105143660046124f3565b611264565b348015610524575f80fd5b505f546001600160a01b0316610346565b348015610540575f80fd5b506103126112c5565b348015610554575f80fd5b506103126105633660046124f3565b611417565b348015610573575f80fd5b50601054610346906001600160a01b031681565b348015610592575f80fd5b5060075461044b90600160c01b900460ff1681565b3480156105b2575f80fd5b506102e56114f5565b3480156105c6575f80fd5b506102e560055481565b3480156105db575f80fd5b506103126105ea366004612519565b611516565b3480156105fa575f80fd5b506102e560095481565b34801561060f575f80fd5b50610312611623565b348015610623575f80fd5b50610312611c64565b348015610637575f80fd5b506102e560065481565b34801561064c575f80fd5b50600854600954600a54600c5460075460408051958652602086019490945292840191909152606083015260ff600160a01b8204811615156080840152600160a81b82048116151560a0840152600160c01b90910416151560c082015260e0016102c8565b3480156106bc575f80fd5b506102e5600a5481565b3480156106d1575f80fd5b5060075461044b90600160a01b900460ff1681565b3480156106f1575f80fd5b50600754610346906001600160a01b031681565b348015610710575f80fd5b5061031261071f3660046124f3565b611e4b565b34801561072f575f80fd5b5061031261073e366004612467565b611ecb565b34801561074e575f80fd5b5061031261075d366004612487565b611f93565b34801561076d575f80fd5b506102e5600e5481565b348015610782575f80fd5b5060075461044b90600160b01b900460ff1681565b3480156107a2575f80fd5b506102e561271081565b3480156107b7575f80fd5b5061044b611fe7565b3480156107cb575f80fd5b5061039a612033565b3480156107df575f80fd5b506103126107ee366004612467565b612040565b3480156107fe575f80fd5b50600f54610346906001600160a01b031681565b34801561081d575f80fd5b5061031261082c3660046124f3565b612191565b34801561083c575f80fd5b506102e560115481565b348015610851575f80fd5b5061085a61220a565b6040516102c89190612553565b5f805f805f60095460085461087c91906125b3565b600f549091506001600160a01b0316609661271061089a82856125c6565b6108a491906125dd565b5f8052600d6020527f81955a0a11e65eac625c29e8882660bae4e165a75d72780094acae8ece9a29ee549298919750955060ff9091169350915050565b6108e961226a565b600754600160b81b900460ff166109475760405162461bcd60e51b815260206004820152601c60248201527f456d657267656e63792073746f70206e6f74206163746976617465640000000060448201526064015b60405180910390fd5b600754600160a81b900460ff16156109965760405162461bcd60e51b815260206004820152601260248201527115da5b9b995c88185b1c9958591e481cd95d60721b604482015260640161093e565b6007805460ff60a81b19841515600160b01b021661ffff60a81b1990911617600160a81b1790556040517f9f1ed7ec730b47aa440b5ede52772362be32571a818cd31ac36a295e8393b98e906109ef90849084906125fc565b60405180910390a15050565b600754600160a01b900460ff1615610a465760405162461bcd60e51b815260206004820152600e60248201526d141bdbdb081a5cc818db1bdcd95960921b604482015260640161093e565b600754600160b81b900460ff1615610aa05760405162461bcd60e51b815260206004820152601a60248201527f42657474696e67206973207061757365642062792061646d696e000000000000604482015260640161093e565b600754600160c01b900460ff1615610afa5760405162461bcd60e51b815260206004820152601760248201527f506f6f6c20686173206265656e2063616e63656c6c6564000000000000000000604482015260640161093e565b6005544210610b4b5760405162461bcd60e51b815260206004820152601860248201527f42657474696e6720706572696f642068617320656e6465640000000000000000604482015260640161093e565b5f3411610ba45760405162461bcd60e51b815260206004820152602160248201527f42657420616d6f756e74206d7573742062652067726561746572207468616e206044820152600360fc1b606482015260840161093e565b66038d7ea4c68000341015610bfb5760405162461bcd60e51b815260206004820152601860248201527f4d696e696d756d2062657420697320302e30303120424e420000000000000000604482015260640161093e565b68056bc75e2d63100000341115610c4d5760405162461bcd60e51b815260206004820152601660248201527526b0bc34b6bab6903132ba1034b9901898181021272160511b604482015260640161093e565b335f908152600b602052604090206001015415610cac5760405162461bcd60e51b815260206004820152601d60248201527f557365722068617320616c726561647920706c61636564206120626574000000604482015260640161093e565b33610cf25760405162461bcd60e51b8152602060048201526016602482015275496e76616c69642073656e646572206164647265737360501b604482015260640161093e565b604080516080810182528215801582523460208084019182525f848601818152426060870190815233808452600b9094529682209551865490151560ff199182161787559351600187810191909155905160028701805491151591909516179093559451600390940193909355600c805491820181559093527fdf6966c971051c3d54ec59162606531493a51404a002842f56009d7e5cf4a8c790920180546001600160a01b0319169091179055610dc0573460085f828254610db591906125b3565b90915550610dd79050565b3460095f828254610dd191906125b3565b90915550505b34600a5f828254610de891906125b3565b909155505f905081610e1457604051806040016040528060028152602001614e4f60f01b815250610e31565b6040518060400160405280600381526020016259455360e81b8152505b9050336001600160a01b03167f59bec262f3e5c00d172330919288747f1356aecc686af7caa21a3baf473550d73484600854600954600287604051610e7b9695949392919061264e565b60405180910390a25050565b600c8181548110610e96575f80fd5b5f918252602090912001546001600160a01b0316905081565b610eb761226a565b600754600160c01b900460ff1680610ed85750600754600160a81b900460ff165b610f2f5760405162461bcd60e51b815260206004820152602260248201527f506f6f6c206d7573742062652063616e63656c6c6564206f72207265736f6c76604482015261195960f21b606482015260840161093e565b4780610f725760405162461bcd60e51b81526020600482015260126024820152714e6f2072656d61696e696e672066756e647360701b604482015260640161093e565b600f546040515f916001600160a01b03169083908381818185875af1925050503d805f8114610fbc576040519150601f19603f3d011682016040523d82523d5f602084013e610fc1565b606091505b50509050806110045760405162461bcd60e51b815260206004820152600f60248201526e151c985b9cd9995c8819985a5b1959608a1b604482015260640161093e565b600f54600c546040805185815260208101929092526001600160a01b03909216917ff0a97973a49275db27bc3c7d20205d3f004fb1f9e662e879be26ccaead739c089101610e7b565b6007545f90600160b01b900460ff16611067575060085490565b6009545b905090565b6002805461107d90612616565b80601f01602080910402602001604051908101604052809291908181526020018280546110a990612616565b80156110f45780601f106110cb576101008083540402835291602001916110f4565b820191905f5260205f20905b8154815290600101906020018083116110d757829003601f168201915b505050505081565b6007545f90600160a81b900460ff1661114c5760405162461bcd60e51b815260206004820152601260248201527115da5b9b995c881b9bdd081cd95d081e595d60721b604482015260640161093e565b5f60095460085461115d91906125b3565b905061271061116d6096836125c6565b61117791906125dd565b91505090565b61118561226a565b600754600160a01b900460ff16156111d55760405162461bcd60e51b8152602060048201526013602482015272141bdbdb08185b1c9958591e4818db1bdcd959606a1b604482015260640161093e565b600754600160c01b900460ff161561122f5760405162461bcd60e51b815260206004820152601d60248201527f43616e6e6f7420636c6f736520612063616e63656c6c656420706f6f6c000000604482015260640161093e565b6007805460ff60a01b1916600160a01b179055565b61124c61226a565b6112555f6122c3565b565b6003805461107d90612616565b6007545f90600160c01b900460ff16801561129857506001600160a01b0382165f908152600b602052604090206001015415155b80156112bf57506001600160a01b0382165f908152600b602052604090206002015460ff16155b92915050565b6112cd61226a565b600754600160a01b900460ff166113225760405162461bcd60e51b8152602060048201526019602482015278141bdbdb081b5d5cdd0818994818db1bdcd95908199a5c9cdd603a1b604482015260640161093e565b600754600160a81b900460ff16156113865760405162461bcd60e51b815260206004820152602160248201527f43616e6e6f742072656f70656e2061667465722077696e6e65722069732073656044820152601d60fa1b606482015260840161093e565b600754600160c01b900460ff16156113e05760405162461bcd60e51b815260206004820152601e60248201527f43616e6e6f742072656f70656e20612063616e63656c6c656420706f6f6c0000604482015260640161093e565b6007805460ff60a01b191690556040517ff54f54a062f88fc2b512f355402f79b5856d0a8a037b08c31a94a7e5239528dc905f90a1565b61141f61226a565b6001600160a01b0381166114755760405162461bcd60e51b815260206004820152601a60248201527f496e76616c6964206665652077616c6c65742061646472657373000000000000604482015260640161093e565b600f546001600160a01b03908116908216036114d35760405162461bcd60e51b815260206004820152601760248201527f53616d65206665652077616c6c65742061646472657373000000000000000000604482015260640161093e565b600f80546001600160a01b0319166001600160a01b0392909216919091179055565b6007545f90600160b01b900460ff1661150f575060095490565b5060085490565b61151e61226a565b600754600160a81b900460ff16156115825760405162461bcd60e51b815260206004820152602160248201527f43616e6e6f742063616e63656c2061667465722077696e6e65722069732073656044820152601d60fa1b606482015260840161093e565b600754600160c01b900460ff16156115d55760405162461bcd60e51b8152602060048201526016602482015275141bdbdb08185b1c9958591e4818d85b98d95b1b195960521b604482015260640161093e565b6007805460ff60c01b1916600160c01b1790556040517fb8201d4fe5c71cc4bf444acaf4124edf462bda026c79355261a71d9f40d5cd0a906116189083906124e1565b60405180910390a150565b61162b612312565b600754600160a81b900460ff166116795760405162461bcd60e51b815260206004820152601260248201527115da5b9b995c881b9bdd081cd95d081e595d60721b604482015260640161093e565b335f908152600b60205260409020600101546116c75760405162461bcd60e51b815260206004820152600d60248201526c139bc818995d081c1b1858d959609a1b604482015260640161093e565b335f908152600b602052604090206002015460ff161561171b5760405162461bcd60e51b815260206004820152600f60248201526e105b1c9958591e4818db185a5b5959608a1b604482015260640161093e565b600754335f908152600b602052604090205460ff9081161515600160b01b909204161515146117805760405162461bcd60e51b8152602060048201526011602482015270139bdd0818481dda5b9b9a5b99c818995d607a1b604482015260640161093e565b335f908152600b6020526040812060028101805460ff191660019081179091550154600754909190600160b01b900460ff166117be576009546117c2565b6008545b90505f6009546008546117d591906125b3565b90505f6127106117e66096846125c6565b6117f091906125dd565b90505f6117fd828461272d565b90505f8461180b83886125c6565b61181591906125dd565b90505f8311801561185057505f8052600d6020527f81955a0a11e65eac625c29e8882660bae4e165a75d72780094acae8ece9a29ee5460ff16155b15611b7b575f60115411801561187057506010546001600160a01b031615155b15611a6c575f612710601154612710611889919061272d565b61189390866125c6565b61189d91906125dd565b90505f6118aa828661272d565b600f546040519192505f916001600160a01b039091169084908381818185875af1925050503d805f81146118f9576040519150601f19603f3d011682016040523d82523d5f602084013e6118fe565b606091505b50509050806119475760405162461bcd60e51b8152602060048201526015602482015274119959481d1c985b9cd9995c880c4819985a5b1959605a1b604482015260640161093e565b6010546040515f916001600160a01b03169084908381818185875af1925050503d805f8114611991576040519150601f19603f3d011682016040523d82523d5f602084013e611996565b606091505b50509050806119df5760405162461bcd60e51b8152602060048201526015602482015274119959481d1c985b9cd9995c880c8819985a5b1959605a1b604482015260640161093e565b600f546040518581526001600160a01b03909116907f34e8a84e537ed93d93ddf39a78816dcbc74df8397c635838b8cc973d4fa943f89060200160405180910390a26010546040518481526001600160a01b03909116907f34e8a84e537ed93d93ddf39a78816dcbc74df8397c635838b8cc973d4fa943f89060200160405180910390a250505050611b46565b600f546040515f916001600160a01b03169085908381818185875af1925050503d805f8114611ab6576040519150601f19603f3d011682016040523d82523d5f602084013e611abb565b606091505b5050905080611b025760405162461bcd60e51b8152602060048201526013602482015272119959481d1c985b9cd9995c8819985a5b1959606a1b604482015260640161093e565b600f546040518581526001600160a01b03909116907f34e8a84e537ed93d93ddf39a78816dcbc74df8397c635838b8cc973d4fa943f89060200160405180910390a2505b5f8052600d6020527f81955a0a11e65eac625c29e8882660bae4e165a75d72780094acae8ece9a29ee805460ff191660011790555b6040515f90339083908381818185875af1925050503d805f8114611bba576040519150601f19603f3d011682016040523d82523d5f602084013e611bbf565b606091505b5050905080611c095760405162461bcd60e51b815260206004820152601660248201527514995dd85c99081d1c985b9cd9995c8819985a5b195960521b604482015260640161093e565b81600e5f828254611c1a91906125b3565b909155505060405182815233907f106f923f993c2149d49b4255ff723acafa1f2d94393f561d3eda32ae348f72419060200160405180910390a25050505050505061125560018055565b611c6c612312565b600754600160c01b900460ff16611cba5760405162461bcd60e51b8152602060048201526012602482015271141bdbdb081b9bdd0818d85b98d95b1b195960721b604482015260640161093e565b335f908152600b6020526040902060010154611d085760405162461bcd60e51b815260206004820152600d60248201526c139bc818995d081c1b1858d959609a1b604482015260640161093e565b335f908152600b602052604090206002015460ff1615611d5c5760405162461bcd60e51b815260206004820152600f60248201526e105b1c9958591e4818db185a5b5959608a1b604482015260640161093e565b335f818152600b602052604080822060028101805460ff191660019081179091550154905190929083908381818185875af1925050503d805f8114611dbc576040519150601f19603f3d011682016040523d82523d5f602084013e611dc1565b606091505b5050905080611e0b5760405162461bcd60e51b81526020600482015260166024820152751499599d5b99081d1c985b9cd9995c8819985a5b195960521b604482015260640161093e565b60405182815233907f358fe4192934d3bf28ae181feda1f4bd08ca67f5e2fad55582cce5eb67304ae99060200160405180910390a2505061125560018055565b611e5361226a565b6001600160a01b038116611ea95760405162461bcd60e51b815260206004820152601a60248201527f496e76616c6964206665652077616c6c65742061646472657373000000000000604482015260640161093e565b601080546001600160a01b0319166001600160a01b0392909216919091179055565b611ed361226a565b600754600160c01b900460ff1615611f465760405162461bcd60e51b815260206004820152603060248201527f43616e6e6f7420746f67676c6520656d657267656e63792073746f70206f6e2060448201526f184818d85b98d95b1b1959081c1bdbdb60821b606482015260840161093e565b60078054821515600160b81b0260ff60b81b199091161790556040517f05b88d23d9a60b7924fccc370e1e0c1ccf49989e3b2968cafaf7db7fc13bd13f9061161890831515815260200190565b611f9b61226a565b612710811115611fe25760405162461bcd60e51b8152602060048201526012602482015271496e76616c69642070657263656e7461676560701b604482015260640161093e565b601155565b6007545f90600160a01b900460ff1615801561200d5750600754600160b81b900460ff16155b80156120235750600754600160c01b900460ff16155b801561106b575050600554421090565b6004805461107d90612616565b61204861226a565b600754600160a01b900460ff1661209d5760405162461bcd60e51b8152602060048201526019602482015278141bdbdb081b5d5cdd0818994818db1bdcd95908199a5c9cdd603a1b604482015260640161093e565b600754600160a81b900460ff16156120ec5760405162461bcd60e51b815260206004820152601260248201527115da5b9b995c88185b1c9958591e481cd95d60721b604482015260640161093e565b6007805460ff60a81b19831515600160b01b021661ffff60a81b1990911617600160a81b1790555f8161213d57604051806040016040528060068152602001652727903bb7b760d11b81525061215e565b604051806040016040528060078152602001662ca2a9903bb7b760c91b8152505b90507f9f1ed7ec730b47aa440b5ede52772362be32571a818cd31ac36a295e8393b98e82826040516109ef9291906125fc565b61219961226a565b6001600160a01b0381166121fe5760405162461bcd60e51b815260206004820152602660248201527f4f776e61626c653a206e6577206f776e657220697320746865207a65726f206160448201526564647265737360d01b606482015260840161093e565b612207816122c3565b50565b6060600c80548060200260200160405190810160405280929190818152602001828054801561226057602002820191905f5260205f20905b81546001600160a01b03168152600190910190602001808311612242575b5050505050905090565b5f546001600160a01b031633146112555760405162461bcd60e51b815260206004820181905260248201527f4f776e61626c653a2063616c6c6572206973206e6f7420746865206f776e6572604482015260640161093e565b5f80546001600160a01b038381166001600160a01b0319831681178455604051919092169283917f8be0079c531659141344cd1fd0a4f28419497f9722a3daafe3b4186f6b6457e09190a35050565b6002600154036123645760405162461bcd60e51b815260206004820152601f60248201527f5265656e7472616e637947756172643a207265656e7472616e742063616c6c00604482015260640161093e565b6002600155565b8035801515811461237a575f80fd5b919050565b634e487b7160e01b5f52604160045260245ffd5b5f82601f8301126123a2575f80fd5b813567ffffffffffffffff808211156123bd576123bd61237f565b604051601f8301601f19908116603f011681019082821181831017156123e5576123e561237f565b816040528381528660208588010111156123fd575f80fd5b836020870160208301375f602085830101528094505050505092915050565b5f806040838503121561242d575f80fd5b6124368361236b565b9150602083013567ffffffffffffffff811115612451575f80fd5b61245d85828601612393565b9150509250929050565b5f60208284031215612477575f80fd5b6124808261236b565b9392505050565b5f60208284031215612497575f80fd5b5035919050565b5f81518084525f5b818110156124c2576020818501810151868301820152016124a6565b505f602082860101526020601f19601f83011685010191505092915050565b602081525f612480602083018461249e565b5f60208284031215612503575f80fd5b81356001600160a01b0381168114612480575f80fd5b5f60208284031215612529575f80fd5b813567ffffffffffffffff81111561253f575f80fd5b61254b84828501612393565b949350505050565b602080825282518282018190525f9190848201906040850190845b818110156125935783516001600160a01b03168352928401929184019160010161256e565b50909695505050505050565b634e487b7160e01b5f52601160045260245ffd5b808201808211156112bf576112bf61259f565b80820281158282048414176112bf576112bf61259f565b5f826125f757634e487b7160e01b5f52601260045260245ffd5b500490565b8215158152604060208201525f61254b604083018461249e565b600181811c9082168061262a57607f821691505b60208210810361264857634e487b7160e01b5f52602260045260245ffd5b50919050565b8681525f6020871515602084015286604084015285606084015260c060808401525f85545f60018260011c9150600183168061268b57607f831692505b6020831081036126a957634e487b7160e01b5f52602260045260245ffd5b60c0880183905260e088018180156126c857600181146126de57612707565b60ff198616825284151560051b82019650612707565b5f8c8152602090205f5b86811015612701578154848201529085019089016126e8565b83019750505b50505050505083810360a085015261271f818661249e565b9a9950505050505050505050565b818103818111156112bf576112bf61259f56fea264697066735822122016c6cb9a6716a910c8a8177c9cb46f642d4619bb3cc406279b8606c030f637b564736f6c63430008180033",
  "linkReferences": {},
  "deployedLinkReferences": {},
  "immutableReferences": {},
  "inputSourceName": "project/contracts/BellaNapoliPredictionFactory-flattened-v4.sol",
  "buildInfoId": "solc-0_8_24-86e18cd624895f0209645d11e689d6d21d08b80a"
}