{
  "_format": "hh3-artifact-1",
  "contractName": "BellaNapoliPredictionFactory",
  "sourceName": "contracts/BellaNapoliPredictionFactory-flattened-v2-old.sol",
  "abi": [
    {
      "inputs": [],
      "stateMutability": "nonpayable",
      "type": "constructor"
    },
    {
      "anonymous": false,
      "inputs": [
        {
          "indexed": true,
          "internalType": "address",
          "name": "previousOwner",
          "type": "address"
        },
        {
          "indexed": true,
          "internalType": "address",
          "name": "newOwner",
          "type": "address"
        }
      ],
      "name": "OwnershipTransferred",
      "type": "event"
    },
    {
      "anonymous": false,
      "inputs": [
        {
          "indexed": true,
          "internalType": "address",
          "name": "poolAddress",
          "type": "address"
        },
        {
          "indexed": false,
          "internalType": "string",
          "name": "reason",
          "type": "string"
        }
      ],
      "name": "PoolCancelled",
      "type": "event"
    },
    {
      "anonymous": false,
      "inputs": [
        {
          "indexed": true,
          "internalType": "address",
          "name": "poolAddress",
          "type": "address"
        },
        {
          "indexed": false,
          "internalType": "bool",
          "name": "isActive",
          "type": "bool"
        }
      ],
      "name": "PoolClosed",
      "type": "event"
    },
    {
      "anonymous": false,
      "inputs": [
        {
          "indexed": true,
          "internalType": "address",
          "name": "poolAddress",
          "type": "address"
        },
        {
          "indexed": false,
          "internalType": "string",
          "name": "title",
          "type": "string"
        },
        {
          "indexed": false,
          "internalType": "string",
          "name": "category",
          "type": "string"
        },
        {
          "indexed": true,
          "internalType": "address",
          "name": "creator",
          "type": "address"
        },
        {
          "indexed": false,
          "internalType": "uint256",
          "name": "closingDate",
          "type": "uint256"
        },
        {
          "indexed": false,
          "internalType": "uint256",
          "name": "closingBid",
          "type": "uint256"
        }
      ],
      "name": "PoolCreated",
      "type": "event"
    },
    {
      "anonymous": false,
      "inputs": [
        {
          "indexed": true,
          "internalType": "address",
          "name": "poolAddress",
          "type": "address"
        },
        {
          "indexed": false,
          "internalType": "bool",
          "name": "winner",
          "type": "bool"
        },
        {
          "indexed": false,
          "internalType": "string",
          "name": "reason",
          "type": "string"
        }
      ],
      "name": "PoolEmergencyResolved",
      "type": "event"
    },
    {
      "anonymous": false,
      "inputs": [
        {
          "indexed": true,
          "internalType": "address",
          "name": "poolAddress",
          "type": "address"
        },
        {
          "indexed": false,
          "internalType": "bool",
          "name": "stopped",
          "type": "bool"
        }
      ],
      "name": "PoolEmergencyStopToggled",
      "type": "event"
    },
    {
      "anonymous": false,
      "inputs": [
        {
          "indexed": true,
          "internalType": "address",
          "name": "poolAddress",
          "type": "address"
        }
      ],
      "name": "PoolFundsRecovered",
      "type": "event"
    },
    {
      "anonymous": false,
      "inputs": [
        {
          "indexed": true,
          "internalType": "address",
          "name": "poolAddress",
          "type": "address"
        }
      ],
      "name": "PoolReopened",
      "type": "event"
    },
    {
      "anonymous": false,
      "inputs": [
        {
          "indexed": true,
          "internalType": "address",
          "name": "poolAddress",
          "type": "address"
        },
        {
          "indexed": false,
          "internalType": "bool",
          "name": "winner",
          "type": "bool"
        }
      ],
      "name": "PoolWinnerSet",
      "type": "event"
    },
    {
      "inputs": [],
      "name": "BASIS_POINTS",
      "outputs": [
        {
          "internalType": "uint256",
          "name": "",
          "type": "uint256"
        }
      ],
      "stateMutability": "view",
      "type": "function"
    },
    {
      "inputs": [],
      "name": "FEE_PERCENTAGE",
      "outputs": [
        {
          "internalType": "uint256",
          "name": "",
          "type": "uint256"
        }
      ],
      "stateMutability": "view",
      "type": "function"
    },
    {
      "inputs": [
        {
          "internalType": "uint256",
          "name": "",
          "type": "uint256"
        }
      ],
      "name": "allPools",
      "outputs": [
        {
          "internalType": "address",
          "name": "",
          "type": "address"
        }
      ],
      "stateMutability": "view",
      "type": "function"
    },
    {
      "inputs": [
        {
          "internalType": "address",
          "name": "_poolAddress",
          "type": "address"
        },
        {
          "internalType": "string",
          "name": "_reason",
          "type": "string"
        }
      ],
      "name": "cancelPoolPrediction",
      "outputs": [],
      "stateMutability": "nonpayable",
      "type": "function"
    },
    {
      "inputs": [
        {
          "internalType": "address",
          "name": "_poolAddress",
          "type": "address"
        }
      ],
      "name": "closePool",
      "outputs": [],
      "stateMutability": "nonpayable",
      "type": "function"
    },
    {
      "inputs": [
        {
          "internalType": "string",
          "name": "_title",
          "type": "string"
        },
        {
          "internalType": "string",
          "name": "_description",
          "type": "string"
        },
        {
          "internalType": "string",
          "name": "_category",
          "type": "string"
        },
        {
          "internalType": "uint256",
          "name": "_closingDate",
          "type": "uint256"
        },
        {
          "internalType": "uint256",
          "name": "_closingBid",
          "type": "uint256"
        }
      ],
      "name": "createPool",
      "outputs": [
        {
          "internalType": "address",
          "name": "poolAddress",
          "type": "address"
        }
      ],
      "stateMutability": "nonpayable",
      "type": "function"
    },
    {
      "inputs": [
        {
          "internalType": "address",
          "name": "_poolAddress",
          "type": "address"
        },
        {
          "internalType": "bool",
          "name": "_winner",
          "type": "bool"
        },
        {
          "internalType": "string",
          "name": "_reason",
          "type": "string"
        }
      ],
      "name": "emergencyResolvePool",
      "outputs": [],
      "stateMutability": "nonpayable",
      "type": "function"
    },
    {
      "inputs": [],
      "name": "getAllPools",
      "outputs": [
        {
          "internalType": "address[]",
          "name": "pools",
          "type": "address[]"
        }
      ],
      "stateMutability": "view",
      "type": "function"
    },
    {
      "inputs": [],
      "name": "getPoolCount",
      "outputs": [
        {
          "internalType": "uint256",
          "name": "count",
          "type": "uint256"
        }
      ],
      "stateMutability": "view",
      "type": "function"
    },
    {
      "inputs": [
        {
          "internalType": "address",
          "name": "_poolAddress",
          "type": "address"
        }
      ],
      "name": "getPoolInfo",
      "outputs": [
        {
          "components": [
            {
              "internalType": "string",
              "name": "title",
              "type": "string"
            },
            {
              "internalType": "string",
              "name": "description",
              "type": "string"
            },
            {
              "internalType": "string",
              "name": "category",
              "type": "string"
            },
            {
              "internalType": "uint256",
              "name": "closingDate",
              "type": "uint256"
            },
            {
              "internalType": "uint256",
              "name": "closingBid",
              "type": "uint256"
            },
            {
              "internalType": "address",
              "name": "creator",
              "type": "address"
            },
            {
              "internalType": "bool",
              "name": "isActive",
              "type": "bool"
            },
            {
              "internalType": "uint256",
              "name": "createdAt",
              "type": "uint256"
            }
          ],
          "internalType": "struct BellaNapoliPredictionFactory.PoolInfo",
          "name": "info",
          "type": "tuple"
        }
      ],
      "stateMutability": "view",
      "type": "function"
    },
    {
      "inputs": [
        {
          "internalType": "string",
          "name": "_category",
          "type": "string"
        }
      ],
      "name": "getPoolsByCategory",
      "outputs": [
        {
          "internalType": "address[]",
          "name": "pools",
          "type": "address[]"
        }
      ],
      "stateMutability": "view",
      "type": "function"
    },
    {
      "inputs": [],
      "name": "owner",
      "outputs": [
        {
          "internalType": "address",
          "name": "",
          "type": "address"
        }
      ],
      "stateMutability": "view",
      "type": "function"
    },
    {
      "inputs": [
        {
          "internalType": "address",
          "name": "",
          "type": "address"
        }
      ],
      "name": "poolInfo",
      "outputs": [
        {
          "internalType": "string",
          "name": "title",
          "type": "string"
        },
        {
          "internalType": "string",
          "name": "description",
          "type": "string"
        },
        {
          "internalType": "string",
          "name": "category",
          "type": "string"
        },
        {
          "internalType": "uint256",
          "name": "closingDate",
          "type": "uint256"
        },
        {
          "internalType": "uint256",
          "name": "closingBid",
          "type": "uint256"
        },
        {
          "internalType": "address",
          "name": "creator",
          "type": "address"
        },
        {
          "internalType": "bool",
          "name": "isActive",
          "type": "bool"
        },
        {
          "internalType": "uint256",
          "name": "createdAt",
          "type": "uint256"
        }
      ],
      "stateMutability": "view",
      "type": "function"
    },
    {
      "inputs": [
        {
          "internalType": "address",
          "name": "_poolAddress",
          "type": "address"
        }
      ],
      "name": "recoverCancelledPoolFunds",
      "outputs": [],
      "stateMutability": "nonpayable",
      "type": "function"
    },
    {
      "inputs": [],
      "name": "renounceOwnership",
      "outputs": [],
      "stateMutability": "nonpayable",
      "type": "function"
    },
    {
      "inputs": [
        {
          "internalType": "address",
          "name": "_poolAddress",
          "type": "address"
        }
      ],
      "name": "reopenPool",
      "outputs": [],
      "stateMutability": "nonpayable",
      "type": "function"
    },
    {
      "inputs": [
        {
          "internalType": "address",
          "name": "_poolAddress",
          "type": "address"
        },
        {
          "internalType": "bool",
          "name": "_stop",
          "type": "bool"
        }
      ],
      "name": "setPoolEmergencyStop",
      "outputs": [],
      "stateMutability": "nonpayable",
      "type": "function"
    },
    {
      "inputs": [
        {
          "internalType": "address",
          "name": "_poolAddress",
          "type": "address"
        },
        {
          "internalType": "bool",
          "name": "_winner",
          "type": "bool"
        }
      ],
      "name": "setPoolWinner",
      "outputs": [],
      "stateMutability": "nonpayable",
      "type": "function"
    },
    {
      "inputs": [
        {
          "internalType": "address",
          "name": "newOwner",
          "type": "address"
        }
      ],
      "name": "transferOwnership",
      "outputs": [],
      "stateMutability": "nonpayable",
      "type": "function"
    },
    {
      "stateMutability": "payable",
      "type": "receive"
    }
  ],
  "bytecode": "0x608060405234801561000f575f80fd5b5061001933610022565b60018055610071565b5f80546001600160a01b038381166001600160a01b0319831681178455604051919092169283917f8be0079c531659141344cd1fd0a4f28419497f9722a3daafe3b4186f6b6457e09190a35050565b6147a48061007e5f395ff3fe60806040526004361062000129575f3560e01c8063715018a611620000aa578063d88ff1f4116200006a578063d88ff1f41462000360578063df75debf1462000377578063e1f1c4a7146200039b578063e8fc511514620003b2578063f2fde38b14620003d6575f80fd5b8063715018a614620002b75780638da5cb5b14620002ce5780638eec5d7014620002ec5780639a7b5f111462000302578063ae288ab1146200033c575f80fd5b80634194b6f011620000f65780634194b6f014620001ea57806341d1de97146200022757806347fc142d146200024b578063564e1183146200026f57806356f15d541462000293575f80fd5b80620b46f8146200013557806306bfa938146200015e5780631e073978146200019157806329d0cdf414620001c4575f80fd5b366200013157005b5f80fd5b34801562000141575f80fd5b506200014b609681565b6040519081526020015b60405180910390f35b3480156200016a575f80fd5b50620001826200017c366004620017b7565b620003fa565b6040516200015591906200181f565b3480156200019d575f80fd5b50620001b5620001af36600462001978565b6200067d565b604051620001559190620019ae565b348015620001d0575f80fd5b50620001e8620001e2366004620017b7565b6200085d565b005b348015620001f6575f80fd5b506200020e62000208366004620019fc565b6200096f565b6040516001600160a01b03909116815260200162000155565b34801562000233575f80fd5b506200020e6200024536600462001a99565b62000e01565b34801562000257575f80fd5b50620001e86200026936600462001ac1565b62000e2a565b3480156200027b575f80fd5b50620001e86200028d366004620017b7565b62000f15565b3480156200029f575f80fd5b50620001e8620002b1366004620017b7565b62000fe6565b348015620002c3575f80fd5b50620001e862001141565b348015620002da575f80fd5b505f546001600160a01b03166200020e565b348015620002f8575f80fd5b506002546200014b565b3480156200030e575f80fd5b506200032662000320366004620017b7565b62001158565b6040516200015598979695949392919062001af7565b34801562000348575f80fd5b50620001e86200035a36600462001b6f565b62001352565b3480156200036c575f80fd5b50620001b562001432565b34801562000383575f80fd5b50620001e86200039536600462001ac1565b62001494565b348015620003a7575f80fd5b506200014b61271081565b348015620003be575f80fd5b50620001e8620003d036600462001bc0565b62001572565b348015620003e2575f80fd5b50620001e8620003f4366004620017b7565b62001664565b620004496040518061010001604052806060815260200160608152602001606081526020015f81526020015f81526020015f6001600160a01b031681526020015f151581526020015f81525090565b6001600160a01b0382165f9081526003602052604090819020815161010081019092528054829082906200047d9062001c22565b80601f0160208091040260200160405190810160405280929190818152602001828054620004ab9062001c22565b8015620004fa5780601f10620004d057610100808354040283529160200191620004fa565b820191905f5260205f20905b815481529060010190602001808311620004dc57829003601f168201915b50505050508152602001600182018054620005159062001c22565b80601f0160208091040260200160405190810160405280929190818152602001828054620005439062001c22565b8015620005925780601f10620005685761010080835404028352916020019162000592565b820191905f5260205f20905b8154815290600101906020018083116200057457829003601f168201915b50505050508152602001600282018054620005ad9062001c22565b80601f0160208091040260200160405190810160405280929190818152602001828054620005db9062001c22565b80156200062a5780601f1062000600576101008083540402835291602001916200062a565b820191905f5260205f20905b8154815290600101906020018083116200060c57829003601f168201915b5050509183525050600382015460208201526004820154604082015260058201546001600160a01b0381166060830152600160a01b900460ff161515608082015260069091015460a09091015292915050565b6002546060905f90815b818110156200070f57848051906020012060035f60028481548110620006b157620006b162001c5c565b5f9182526020808320909101546001600160a01b0316835282019290925260409081019091209051620006e8916002019062001c70565b604051809103902003620007065782620007028162001cfe565b9350505b60010162000687565b505f8267ffffffffffffffff8111156200072d576200072d620018d3565b60405190808252806020026020018201604052801562000757578160200160208202803683370190505b509050821562000855575f805b838110156200085257868051906020012060035f600284815481106200078e576200078e62001c5c565b5f9182526020808320909101546001600160a01b0316835282019290925260409081019091209051620007c5916002019062001c70565b604051809103902003620008495760028181548110620007e957620007e962001c5c565b905f5260205f20015f9054906101000a90046001600160a01b031683838151811062000819576200081962001c5c565b6001600160a01b0390921660209283029190910190910152816200083d8162001cfe565b92505084821462000852575b60010162000764565b50505b949350505050565b62000867620016e3565b6001600160a01b038181165f9081526003602052604090206005015416620008ac5760405162461bcd60e51b8152600401620008a39062001d19565b60405180910390fd5b6001600160a01b0381165f90815260036020526040902060050154600160a01b900460ff16620009155760405162461bcd60e51b8152602060048201526013602482015272141bdbdb08185b1c9958591e4818db1bdcd959606a1b6044820152606401620008a3565b6001600160a01b0381165f818152600360209081526040808320600501805460ff60a01b19169055519182527fcd5aa1599ad157f72c3187da57310232f1ef8d5a9c9cd5f8a650f0f4cae1a9fd910160405180910390a250565b5f6200097a620016e3565b5f865111620009c45760405162461bcd60e51b81526020600482015260156024820152745469746c652063616e6e6f7420626520656d70747960581b6044820152606401620008a3565b60648651111562000a095760405162461bcd60e51b815260206004820152600e60248201526d5469746c6520746f6f206c6f6e6760901b6044820152606401620008a3565b6101f48551111562000a555760405162461bcd60e51b81526020600482015260146024820152734465736372697074696f6e20746f6f206c6f6e6760601b6044820152606401620008a3565b5f84511162000aa75760405162461bcd60e51b815260206004820152601860248201527f43617465676f72792063616e6e6f7420626520656d70747900000000000000006044820152606401620008a3565b42831162000b035760405162461bcd60e51b815260206004820152602260248201527f436c6f73696e672064617465206d75737420626520696e207468652066757475604482015261726560f01b6064820152608401620008a3565b62000b13426301e1338062001d46565b83111562000b6f5760405162461bcd60e51b815260206004820152602260248201527f436c6f73696e67206461746520746f6f2066617220696e207468652066757475604482015261726560f01b6064820152608401620008a3565b82821162000bcf5760405162461bcd60e51b815260206004820152602660248201527f436c6f73696e6720626964206d75737420626520616674657220636c6f73696e60448201526567206461746560d01b6064820152608401620008a3565b62000bde8362278d0062001d46565b82111562000c3e5760405162461bcd60e51b815260206004820152602660248201527f436c6f73696e672062696420746f6f2066617220616674657220636c6f73696e60448201526567206461746560d01b6064820152608401620008a3565b5f86868686863060405162000c53906200178d565b62000c649695949392919062001d62565b604051809103905ff08015801562000c7e573d5f803e3d5ffd5b50604080516101008101825289815260208082018a905281830189905260608201889052608082018790523360a0830152600160c08301524260e08301526001600160a01b0384165f90815260039091529190912081519294508493509091819062000ceb908262001e18565b506020820151600182019062000d02908262001e18565b506040820151600282019062000d19908262001e18565b50606082015160038201556080820151600482015560a082015160058201805460c08501511515600160a01b026001600160a81b03199091166001600160a01b039384161717905560e090920151600690910155600280546001810182555f919091527f405787fa12a823e0f2b7631cc41b3ba8828b3321ca811111fa75cd3aa3bb5ace0180549184166001600160a01b031992909216821790556040513391907fc2cae3d9a09774c7b89ab31040f4b8704244791874b092e2e1678be9e54596ce9062000def908b908a908a908a9062001ee5565b60405180910390a35095945050505050565b6002818154811062000e11575f80fd5b5f918252602090912001546001600160a01b0316905081565b62000e34620016e3565b6001600160a01b038281165f908152600360205260409020600501541662000e705760405162461bcd60e51b8152600401620008a39062001d19565b6040516377cf524360e11b8152811515600482015282906001600160a01b0382169063ef9ea486906024015f604051808303815f87803b15801562000eb3575f80fd5b505af115801562000ec6573d5f803e3d5ffd5b50505050826001600160a01b03167fe806a42164e4b9efa26d69d97929204fa306b97d37ec0f081682a8b8df9da05a8360405162000f08911515815260200190565b60405180910390a2505050565b62000f1f620016e3565b6001600160a01b038181165f908152600360205260409020600501541662000f5b5760405162461bcd60e51b8152600401620008a39062001d19565b5f819050806001600160a01b03166341271b006040518163ffffffff1660e01b81526004015f604051808303815f87803b15801562000f98575f80fd5b505af115801562000fab573d5f803e3d5ffd5b50506040516001600160a01b03851692507fc9424ebea0e1f2264fb28f3233bc6a3cf7d56e298fd8b10b6d4c992c317d67dd91505f90a25050565b62000ff0620016e3565b6001600160a01b038181165f90815260036020526040902060050154166200102c5760405162461bcd60e51b8152600401620008a39062001d19565b6001600160a01b0381165f90815260036020526040902060050154600160a01b900460ff1615620010975760405162461bcd60e51b81526020600482015260146024820152732837b7b61034b99030b63932b0b23c9037b832b760611b6044820152606401620008a3565b5f819050806001600160a01b0316638ebce3f86040518163ffffffff1660e01b81526004015f604051808303815f87803b158015620010d4575f80fd5b505af1158015620010e7573d5f803e3d5ffd5b5050506001600160a01b0383165f81815260036020526040808220600501805460ff60a01b1916600160a01b179055519192507fd3bbbf00b90e7b6a4f24c1036f94cfdfb9eca1bba796e0bb3f7ac15f2d297bbe91a25050565b6200114b620016e3565b620011565f6200173e565b565b60036020525f9081526040902080548190620011749062001c22565b80601f0160208091040260200160405190810160405280929190818152602001828054620011a29062001c22565b8015620011f15780601f10620011c757610100808354040283529160200191620011f1565b820191905f5260205f20905b815481529060010190602001808311620011d357829003601f168201915b505050505090806001018054620012089062001c22565b80601f0160208091040260200160405190810160405280929190818152602001828054620012369062001c22565b8015620012855780601f106200125b5761010080835404028352916020019162001285565b820191905f5260205f20905b8154815290600101906020018083116200126757829003601f168201915b5050505050908060020180546200129c9062001c22565b80601f0160208091040260200160405190810160405280929190818152602001828054620012ca9062001c22565b8015620013195780601f10620012ef5761010080835404028352916020019162001319565b820191905f5260205f20905b815481529060010190602001808311620012fb57829003601f168201915b50505050600383015460048401546005850154600690950154939491939092506001600160a01b03821691600160a01b900460ff169088565b6200135c620016e3565b6001600160a01b038281165f9081526003602052604090206005015416620013985760405162461bcd60e51b8152600401620008a39062001d19565b60405163a8ae8e0560e01b815282906001600160a01b0382169063a8ae8e0590620013c890859060040162001f21565b5f604051808303815f87803b158015620013e0575f80fd5b505af1158015620013f3573d5f803e3d5ffd5b50505050826001600160a01b03167f86adc9cca5c5cd1905965dc7787b279c13beda0dce1154c327062381911876e38360405162000f08919062001f21565b606060028054806020026020016040519081016040528092919081815260200182805480156200148a57602002820191905f5260205f20905b81546001600160a01b031681526001909101906020018083116200146b575b5050505050905090565b6200149e620016e3565b6001600160a01b038281165f9081526003602052604090206005015416620014da5760405162461bcd60e51b8152600401620008a39062001d19565b60405163c73d7c7b60e01b8152811515600482015282906001600160a01b0382169063c73d7c7b906024015f604051808303815f87803b1580156200151d575f80fd5b505af115801562001530573d5f803e3d5ffd5b50505050826001600160a01b03167fddf7c227a01394f42d3f7f7c764edf35c6b40e477dba7b32616c223e6e88c07d8360405162000f08911515815260200190565b6200157c620016e3565b6001600160a01b038381165f9081526003602052604090206005015416620015b85760405162461bcd60e51b8152600401620008a39062001d19565b6040516306f6bce960e01b815283906001600160a01b038216906306f6bce990620015ea908690869060040162001f35565b5f604051808303815f87803b15801562001602575f80fd5b505af115801562001615573d5f803e3d5ffd5b50505050836001600160a01b03167f2546a907c55750ee6839e20beaa46fa9be80d633613d346e797c86f235c0c0bd84846040516200165692919062001f35565b60405180910390a250505050565b6200166e620016e3565b6001600160a01b038116620016d55760405162461bcd60e51b815260206004820152602660248201527f4f776e61626c653a206e6577206f776e657220697320746865207a65726f206160448201526564647265737360d01b6064820152608401620008a3565b620016e0816200173e565b50565b5f546001600160a01b03163314620011565760405162461bcd60e51b815260206004820181905260248201527f4f776e61626c653a2063616c6c6572206973206e6f7420746865206f776e65726044820152606401620008a3565b5f80546001600160a01b038381166001600160a01b0319831681178455604051919092169283917f8be0079c531659141344cd1fd0a4f28419497f9722a3daafe3b4186f6b6457e09190a35050565b61281d8062001f5283390190565b80356001600160a01b0381168114620017b2575f80fd5b919050565b5f60208284031215620017c8575f80fd5b620017d3826200179b565b9392505050565b5f81518084525f5b818110156200180057602081850181015186830182015201620017e2565b505f602082860101526020601f19601f83011685010191505092915050565b602081525f82516101008060208501526200183f610120850183620017da565b91506020850151601f19808685030160408701526200185f8483620017da565b93506040870151915080868503016060870152506200187f8382620017da565b92505060608501516080850152608085015160a085015260a0850151620018b160c08601826001600160a01b03169052565b5060c085015180151560e08601525060e0949094015192909301919091525090565b634e487b7160e01b5f52604160045260245ffd5b5f82601f830112620018f7575f80fd5b813567ffffffffffffffff80821115620019155762001915620018d3565b604051601f8301601f19908116603f01168101908282118183101715620019405762001940620018d3565b8160405283815286602085880101111562001959575f80fd5b836020870160208301375f602085830101528094505050505092915050565b5f6020828403121562001989575f80fd5b813567ffffffffffffffff811115620019a0575f80fd5b6200085584828501620018e7565b602080825282518282018190525f9190848201906040850190845b81811015620019f05783516001600160a01b031683529284019291840191600101620019c9565b50909695505050505050565b5f805f805f60a0868803121562001a11575f80fd5b853567ffffffffffffffff8082111562001a29575f80fd5b62001a3789838a01620018e7565b9650602088013591508082111562001a4d575f80fd5b62001a5b89838a01620018e7565b9550604088013591508082111562001a71575f80fd5b5062001a8088828901620018e7565b9598949750949560608101359550608001359392505050565b5f6020828403121562001aaa575f80fd5b5035919050565b80358015158114620017b2575f80fd5b5f806040838503121562001ad3575f80fd5b62001ade836200179b565b915062001aee6020840162001ab1565b90509250929050565b5f61010080835262001b0c8184018c620017da565b9050828103602084015262001b22818b620017da565b9050828103604084015262001b38818a620017da565b6060840198909852505060808101949094526001600160a01b039290921660a0840152151560c083015260e0909101529392505050565b5f806040838503121562001b81575f80fd5b62001b8c836200179b565b9150602083013567ffffffffffffffff81111562001ba8575f80fd5b62001bb685828601620018e7565b9150509250929050565b5f805f6060848603121562001bd3575f80fd5b62001bde846200179b565b925062001bee6020850162001ab1565b9150604084013567ffffffffffffffff81111562001c0a575f80fd5b62001c1886828701620018e7565b9150509250925092565b600181811c9082168062001c3757607f821691505b60208210810362001c5657634e487b7160e01b5f52602260045260245ffd5b50919050565b634e487b7160e01b5f52603260045260245ffd5b5f80835462001c7f8162001c22565b6001828116801562001c9a576001811462001cb05762001cde565b60ff198416875282151583028701945062001cde565b875f526020805f205f5b8581101562001cd55781548a82015290840190820162001cba565b50505082870194505b50929695505050505050565b634e487b7160e01b5f52601160045260245ffd5b5f6001820162001d125762001d1262001cea565b5060010190565b602080825260139082015272141bdbdb08191bd95cc81b9bdd08195e1a5cdd606a1b604082015260600190565b8082018082111562001d5c5762001d5c62001cea565b92915050565b60c081525f62001d7660c0830189620017da565b828103602084015262001d8a8189620017da565b9050828103604084015262001da08188620017da565b6060840196909652505060808101929092526001600160a01b031660a0909101529392505050565b601f82111562001e1357805f5260205f20601f840160051c8101602085101562001def5750805b601f840160051c820191505b8181101562001e10575f815560010162001dfb565b50505b505050565b815167ffffffffffffffff81111562001e355762001e35620018d3565b62001e4d8162001e46845462001c22565b8462001dc8565b602080601f83116001811462001e83575f841562001e6b5750858301515b5f19600386901b1c1916600185901b17855562001edd565b5f85815260208120601f198616915b8281101562001eb35788860151825594840194600190910190840162001e92565b508582101562001ed157878501515f19600388901b60f8161c191681555b505060018460011b0185555b505050505050565b608081525f62001ef96080830187620017da565b828103602084015262001f0d8187620017da565b604084019590955250506060015292915050565b602081525f620017d36020830184620017da565b8215158152604060208201525f620008556040830184620017da56fe60806040526007805464ffff00ffff60a01b19169055600f80546001600160a01b031916738e49800f0aa47e68ba9e46d97481679d0337929417905534801562000047575f80fd5b506040516200281d3803806200281d8339810160408190526200006a91620001e8565b6200007533620000d8565b60018055600262000087878262000332565b50600362000096868262000332565b506004620000a5858262000332565b50600592909255600655600780546001600160a01b0319166001600160a01b0390921691909117905550620003fe915050565b5f80546001600160a01b038381166001600160a01b0319831681178455604051919092169283917f8be0079c531659141344cd1fd0a4f28419497f9722a3daafe3b4186f6b6457e09190a35050565b634e487b7160e01b5f52604160045260245ffd5b5f82601f8301126200014b575f80fd5b81516001600160401b038082111562000168576200016862000127565b604051601f8301601f19908116603f0116810190828211818310171562000193576200019362000127565b8160405283815260209250866020858801011115620001b0575f80fd5b5f91505b83821015620001d35785820183015181830184015290820190620001b4565b5f602085830101528094505050505092915050565b5f805f805f8060c08789031215620001fe575f80fd5b86516001600160401b038082111562000215575f80fd5b620002238a838b016200013b565b9750602089015191508082111562000239575f80fd5b620002478a838b016200013b565b965060408901519150808211156200025d575f80fd5b506200026c89828a016200013b565b606089015160808a015160a08b0151929750909550935090506001600160a01b03811681146200029a575f80fd5b809150509295509295509295565b600181811c90821680620002bd57607f821691505b602082108103620002dc57634e487b7160e01b5f52602260045260245ffd5b50919050565b601f8211156200032d57805f5260205f20601f840160051c81016020851015620003095750805b601f840160051c820191505b818110156200032a575f815560010162000315565b50505b505050565b81516001600160401b038111156200034e576200034e62000127565b62000366816200035f8454620002a8565b84620002e2565b602080601f8311600181146200039c575f8415620003845750858301515b5f19600386901b1c1916600185901b178555620003f6565b5f85815260208120601f198616915b82811015620003cc57888601518255948401946001909101908401620003ab565b5085821015620003ea57878501515f19600388901b60f8161c191681555b505060018460011b0185555b505050505050565b612411806200040c5f395ff3fe608060405260043610610255575f3560e01c80639a82a09a1161013f578063c45a0155116100b3578063ee4eb58611610078578063ee4eb58614610723578063ef430aa614610737578063ef9ea4861461074b578063f25f4b561461076a578063f2fde38b14610789578063ffd4493c146107a8575f80fd5b8063c45a01551461069b578063c73d7c7b146106ba578063d54ad2a1146106d9578063dfbf53ae146106ee578063e1f1c4a71461070e575f80fd5b8063b401faf111610104578063b401faf1146105b9578063b5545a3c146105cd578063b84ff262146105e1578063bbb85188146105f6578063befa1e2f14610666578063c2b6b58c1461067b575f80fd5b80639a82a09a1461053c578063a0b43a4e1461055c578063a628828f14610570578063a8ae8e0514610585578063af008883146105a4575f80fd5b806363a599a4116101d657806378e73ff81161019b57806378e73ff81461049957806388ba8dd6146104b95780638cca8f64146104ce5780638da5cb5b146104ed5780638ebce3f81461050957806390d49b9d1461051d575f80fd5b806363a599a4146103ff57806366805de51461042f578063715018a6146104435780637284e4161461045757806373b2e80e1461046b575f80fd5b806341271b001161021c57806341271b001461033257806343c322ba146103465780634a79d50c1461035a5780634e92a6461461037b578063626e1ae7146103eb575f80fd5b806202eab7146102605780620b46f8146102a557806306f6bce9146102c7578063096a3778146102e85780633482b644146102fb575f80fd5b3661025c57005b5f80fd5b34801561026b575f80fd5b506102746107c9565b604080516001600160a01b039095168552602085019390935291830152151560608201526080015b60405180910390f35b3480156102b0575f80fd5b506102b9609681565b60405190815260200161029c565b3480156102d2575f80fd5b506102e66102e13660046120b7565b610859565b005b6102e66102f6366004612102565b610973565b348015610306575f80fd5b5061031a610315366004612122565b610dff565b6040516001600160a01b03909116815260200161029c565b34801561033d575f80fd5b506102e6610e27565b348015610351575f80fd5b506102b9610f9b565b348015610365575f80fd5b5061036e610fbe565b60405161029c919061217c565b348015610386575f80fd5b506103c361039536600461218e565b600b6020525f9081526040902080546001820154600283015460039093015460ff9283169391929091169084565b604080519415158552602085019390935290151591830191909152606082015260800161029c565b3480156103f6575f80fd5b506102b961104a565b34801561040a575f80fd5b5060075461041f90600160b81b900460ff1681565b604051901515815260200161029c565b34801561043a575f80fd5b506102e66110d9565b34801561044e575f80fd5b506102e66111a0565b348015610462575f80fd5b5061036e6111b3565b348015610476575f80fd5b5061041f61048536600461218e565b600d6020525f908152604090205460ff1681565b3480156104a4575f80fd5b5060075461041f90600160a81b900460ff1681565b3480156104c4575f80fd5b506102b960085481565b3480156104d9575f80fd5b5061041f6104e836600461218e565b6111c0565b3480156104f8575f80fd5b505f546001600160a01b031661031a565b348015610514575f80fd5b506102e6611221565b348015610528575f80fd5b506102e661053736600461218e565b611373565b348015610547575f80fd5b5060075461041f90600160c01b900460ff1681565b348015610567575f80fd5b506102b9611451565b34801561057b575f80fd5b506102b960055481565b348015610590575f80fd5b506102e661059f3660046121b4565b611472565b3480156105af575f80fd5b506102b960095481565b3480156105c4575f80fd5b506102e661157f565b3480156105d8575f80fd5b506102e66119d3565b3480156105ec575f80fd5b506102b960065481565b348015610601575f80fd5b50600854600954600a54600c5460075460408051958652602086019490945292840191909152606083015260ff600160a01b8204811615156080840152600160a81b82048116151560a0840152600160c01b90910416151560c082015260e00161029c565b348015610671575f80fd5b506102b9600a5481565b348015610686575f80fd5b5060075461041f90600160a01b900460ff1681565b3480156106a6575f80fd5b5060075461031a906001600160a01b031681565b3480156106c5575f80fd5b506102e66106d4366004612102565b611bba565b3480156106e4575f80fd5b506102b9600e5481565b3480156106f9575f80fd5b5060075461041f90600160b01b900460ff1681565b348015610719575f80fd5b506102b961271081565b34801561072e575f80fd5b5061041f611c82565b348015610742575f80fd5b5061036e611cce565b348015610756575f80fd5b506102e6610765366004612102565b611cdb565b348015610775575f80fd5b50600f5461031a906001600160a01b031681565b348015610794575f80fd5b506102e66107a336600461218e565b611e2c565b3480156107b3575f80fd5b506107bc611ea5565b60405161029c91906121ee565b5f805f80600f5f9054906101000a90046001600160a01b031660966127106096600760169054906101000a900460ff1661080557600854610809565b6009545b610813919061224e565b61081d9190612265565b5f8052600d6020527f81955a0a11e65eac625c29e8882660bae4e165a75d72780094acae8ece9a29ee549297919650945060ff90911692509050565b610861611f05565b600754600160b81b900460ff166108bf5760405162461bcd60e51b815260206004820152601c60248201527f456d657267656e63792073746f70206e6f74206163746976617465640000000060448201526064015b60405180910390fd5b600754600160a81b900460ff161561090e5760405162461bcd60e51b815260206004820152601260248201527115da5b9b995c88185b1c9958591e481cd95d60721b60448201526064016108b6565b6007805460ff60a81b19841515600160b01b021661ffff60a81b1990911617600160a81b1790556040517f9f1ed7ec730b47aa440b5ede52772362be32571a818cd31ac36a295e8393b98e906109679084908490612284565b60405180910390a15050565b600754600160a01b900460ff16156109be5760405162461bcd60e51b815260206004820152600e60248201526d141bdbdb081a5cc818db1bdcd95960921b60448201526064016108b6565b600754600160b81b900460ff1615610a185760405162461bcd60e51b815260206004820152601a60248201527f42657474696e67206973207061757365642062792061646d696e00000000000060448201526064016108b6565b600754600160c01b900460ff1615610a725760405162461bcd60e51b815260206004820152601760248201527f506f6f6c20686173206265656e2063616e63656c6c656400000000000000000060448201526064016108b6565b6005544210610ac35760405162461bcd60e51b815260206004820152601860248201527f42657474696e6720706572696f642068617320656e646564000000000000000060448201526064016108b6565b5f3411610b1c5760405162461bcd60e51b815260206004820152602160248201527f42657420616d6f756e74206d7573742062652067726561746572207468616e206044820152600360fc1b60648201526084016108b6565b66038d7ea4c68000341015610b735760405162461bcd60e51b815260206004820152601860248201527f4d696e696d756d2062657420697320302e30303120424e42000000000000000060448201526064016108b6565b68056bc75e2d63100000341115610bc55760405162461bcd60e51b815260206004820152601660248201527526b0bc34b6bab6903132ba1034b9901898181021272160511b60448201526064016108b6565b335f908152600b602052604090206001015415610c245760405162461bcd60e51b815260206004820152601d60248201527f557365722068617320616c726561647920706c6163656420612062657400000060448201526064016108b6565b33610c6a5760405162461bcd60e51b8152602060048201526016602482015275496e76616c69642073656e646572206164647265737360501b60448201526064016108b6565b604080516080810182528215801582523460208084019182525f848601818152426060870190815233808452600b9094529682209551865490151560ff199182161787559351600187810191909155905160028701805491151591909516179093559451600390940193909355600c805491820181559093527fdf6966c971051c3d54ec59162606531493a51404a002842f56009d7e5cf4a8c790920180546001600160a01b0319169091179055610d38573460085f828254610d2d919061229e565b90915550610d4f9050565b3460095f828254610d49919061229e565b90915550505b34600a5f828254610d60919061229e565b909155505f905081610d8c57604051806040016040528060028152602001614e4f60f01b815250610da9565b6040518060400160405280600381526020016259455360e81b8152505b9050336001600160a01b03167f59bec262f3e5c00d172330919288747f1356aecc686af7caa21a3baf473550d73484600854600954600287604051610df3969594939291906122e9565b60405180910390a25050565b600c8181548110610e0e575f80fd5b5f918252602090912001546001600160a01b0316905081565b610e2f611f05565b600754600160c01b900460ff16610e7d5760405162461bcd60e51b8152602060048201526012602482015271141bdbdb081b9bdd0818d85b98d95b1b195960721b60448201526064016108b6565b4780610ec05760405162461bcd60e51b81526020600482015260126024820152714e6f2072656d61696e696e672066756e647360701b60448201526064016108b6565b600f546040515f916001600160a01b03169083908381818185875af1925050503d805f8114610f0a576040519150601f19603f3d011682016040523d82523d5f602084013e610f0f565b606091505b5050905080610f525760405162461bcd60e51b815260206004820152600f60248201526e151c985b9cd9995c8819985a5b1959608a1b60448201526064016108b6565b600f54600c546040805185815260208101929092526001600160a01b03909216917ff0a97973a49275db27bc3c7d20205d3f004fb1f9e662e879be26ccaead739c089101610df3565b6007545f90600160b01b900460ff16610fb5575060085490565b6009545b905090565b60028054610fcb906122b1565b80601f0160208091040260200160405190810160405280929190818152602001828054610ff7906122b1565b80156110425780601f1061101957610100808354040283529160200191611042565b820191905f5260205f20905b81548152906001019060200180831161102557829003601f168201915b505050505081565b6007545f90600160a81b900460ff1661109a5760405162461bcd60e51b815260206004820152601260248201527115da5b9b995c881b9bdd081cd95d081e595d60721b60448201526064016108b6565b6007545f90600160b01b900460ff166110b5576008546110b9565b6009545b90506127106110c960968361224e565b6110d39190612265565b91505090565b6110e1611f05565b600754600160a01b900460ff16156111315760405162461bcd60e51b8152602060048201526013602482015272141bdbdb08185b1c9958591e4818db1bdcd959606a1b60448201526064016108b6565b600754600160c01b900460ff161561118b5760405162461bcd60e51b815260206004820152601d60248201527f43616e6e6f7420636c6f736520612063616e63656c6c656420706f6f6c00000060448201526064016108b6565b6007805460ff60a01b1916600160a01b179055565b6111a8611f05565b6111b15f611f5e565b565b60038054610fcb906122b1565b6007545f90600160c01b900460ff1680156111f457506001600160a01b0382165f908152600b602052604090206001015415155b801561121b57506001600160a01b0382165f908152600b602052604090206002015460ff16155b92915050565b611229611f05565b600754600160a01b900460ff1661127e5760405162461bcd60e51b8152602060048201526019602482015278141bdbdb081b5d5cdd0818994818db1bdcd95908199a5c9cdd603a1b60448201526064016108b6565b600754600160a81b900460ff16156112e25760405162461bcd60e51b815260206004820152602160248201527f43616e6e6f742072656f70656e2061667465722077696e6e65722069732073656044820152601d60fa1b60648201526084016108b6565b600754600160c01b900460ff161561133c5760405162461bcd60e51b815260206004820152601e60248201527f43616e6e6f742072656f70656e20612063616e63656c6c656420706f6f6c000060448201526064016108b6565b6007805460ff60a01b191690556040517ff54f54a062f88fc2b512f355402f79b5856d0a8a037b08c31a94a7e5239528dc905f90a1565b61137b611f05565b6001600160a01b0381166113d15760405162461bcd60e51b815260206004820152601a60248201527f496e76616c6964206665652077616c6c6574206164647265737300000000000060448201526064016108b6565b600f546001600160a01b039081169082160361142f5760405162461bcd60e51b815260206004820152601760248201527f53616d65206665652077616c6c6574206164647265737300000000000000000060448201526064016108b6565b600f80546001600160a01b0319166001600160a01b0392909216919091179055565b6007545f90600160b01b900460ff1661146b575060095490565b5060085490565b61147a611f05565b600754600160a81b900460ff16156114de5760405162461bcd60e51b815260206004820152602160248201527f43616e6e6f742063616e63656c2061667465722077696e6e65722069732073656044820152601d60fa1b60648201526084016108b6565b600754600160c01b900460ff16156115315760405162461bcd60e51b8152602060048201526016602482015275141bdbdb08185b1c9958591e4818d85b98d95b1b195960521b60448201526064016108b6565b6007805460ff60c01b1916600160c01b1790556040517fb8201d4fe5c71cc4bf444acaf4124edf462bda026c79355261a71d9f40d5cd0a9061157490839061217c565b60405180910390a150565b611587611fad565b600754600160a81b900460ff166115d55760405162461bcd60e51b815260206004820152601260248201527115da5b9b995c881b9bdd081cd95d081e595d60721b60448201526064016108b6565b335f908152600b60205260409020600101546116235760405162461bcd60e51b815260206004820152600d60248201526c139bc818995d081c1b1858d959609a1b60448201526064016108b6565b335f908152600b602052604090206002015460ff16156116775760405162461bcd60e51b815260206004820152600f60248201526e105b1c9958591e4818db185a5b5959608a1b60448201526064016108b6565b600754335f908152600b602052604090205460ff9081161515600160b01b909204161515146116dc5760405162461bcd60e51b8152602060048201526011602482015270139bdd0818481dda5b9b9a5b99c818995d607a1b60448201526064016108b6565b335f908152600b6020526040812060028101805460ff191660019081179091550154600754909190600160b01b900460ff1661171a5760095461171e565b6008545b6007549091505f90600160b01b900460ff1661173c57600854611740565b6009545b90505f600954600854611753919061229e565b90505f61271061176460968561224e565b61176e9190612265565b90505f61177b82846123c8565b90505f85611789838961224e565b6117939190612265565b90505f831180156117ce57505f8052600d6020527f81955a0a11e65eac625c29e8882660bae4e165a75d72780094acae8ece9a29ee5460ff16155b156118e957600f546040515f916001600160a01b03169085908381818185875af1925050503d805f811461181d576040519150601f19603f3d011682016040523d82523d5f602084013e611822565b606091505b50509050806118695760405162461bcd60e51b8152602060048201526013602482015272119959481d1c985b9cd9995c8819985a5b1959606a1b60448201526064016108b6565b5f8052600d6020527f81955a0a11e65eac625c29e8882660bae4e165a75d72780094acae8ece9a29ee805460ff19166001179055600f546040516001600160a01b0391909116907f34e8a84e537ed93d93ddf39a78816dcbc74df8397c635838b8cc973d4fa943f8906118df9087815260200190565b60405180910390a2505b6040515f90339083908381818185875af1925050503d805f8114611928576040519150601f19603f3d011682016040523d82523d5f602084013e61192d565b606091505b50509050806119775760405162461bcd60e51b815260206004820152601660248201527514995dd85c99081d1c985b9cd9995c8819985a5b195960521b60448201526064016108b6565b81600e5f828254611988919061229e565b909155505060405182815233907f106f923f993c2149d49b4255ff723acafa1f2d94393f561d3eda32ae348f72419060200160405180910390a250505050505050506111b160018055565b6119db611fad565b600754600160c01b900460ff16611a295760405162461bcd60e51b8152602060048201526012602482015271141bdbdb081b9bdd0818d85b98d95b1b195960721b60448201526064016108b6565b335f908152600b6020526040902060010154611a775760405162461bcd60e51b815260206004820152600d60248201526c139bc818995d081c1b1858d959609a1b60448201526064016108b6565b335f908152600b602052604090206002015460ff1615611acb5760405162461bcd60e51b815260206004820152600f60248201526e105b1c9958591e4818db185a5b5959608a1b60448201526064016108b6565b335f818152600b602052604080822060028101805460ff191660019081179091550154905190929083908381818185875af1925050503d805f8114611b2b576040519150601f19603f3d011682016040523d82523d5f602084013e611b30565b606091505b5050905080611b7a5760405162461bcd60e51b81526020600482015260166024820152751499599d5b99081d1c985b9cd9995c8819985a5b195960521b60448201526064016108b6565b60405182815233907f358fe4192934d3bf28ae181feda1f4bd08ca67f5e2fad55582cce5eb67304ae99060200160405180910390a250506111b160018055565b611bc2611f05565b600754600160c01b900460ff1615611c355760405162461bcd60e51b815260206004820152603060248201527f43616e6e6f7420746f67676c6520656d657267656e63792073746f70206f6e2060448201526f184818d85b98d95b1b1959081c1bdbdb60821b60648201526084016108b6565b60078054821515600160b81b0260ff60b81b199091161790556040517f05b88d23d9a60b7924fccc370e1e0c1ccf49989e3b2968cafaf7db7fc13bd13f9061157490831515815260200190565b6007545f90600160a01b900460ff16158015611ca85750600754600160b81b900460ff16155b8015611cbe5750600754600160c01b900460ff16155b8015610fb9575050600554421090565b60048054610fcb906122b1565b611ce3611f05565b600754600160a01b900460ff16611d385760405162461bcd60e51b8152602060048201526019602482015278141bdbdb081b5d5cdd0818994818db1bdcd95908199a5c9cdd603a1b60448201526064016108b6565b600754600160a81b900460ff1615611d875760405162461bcd60e51b815260206004820152601260248201527115da5b9b995c88185b1c9958591e481cd95d60721b60448201526064016108b6565b6007805460ff60a81b19831515600160b01b021661ffff60a81b1990911617600160a81b1790555f81611dd857604051806040016040528060068152602001652727903bb7b760d11b815250611df9565b604051806040016040528060078152602001662ca2a9903bb7b760c91b8152505b90507f9f1ed7ec730b47aa440b5ede52772362be32571a818cd31ac36a295e8393b98e8282604051610967929190612284565b611e34611f05565b6001600160a01b038116611e995760405162461bcd60e51b815260206004820152602660248201527f4f776e61626c653a206e6577206f776e657220697320746865207a65726f206160448201526564647265737360d01b60648201526084016108b6565b611ea281611f5e565b50565b6060600c805480602002602001604051908101604052809291908181526020018280548015611efb57602002820191905f5260205f20905b81546001600160a01b03168152600190910190602001808311611edd575b5050505050905090565b5f546001600160a01b031633146111b15760405162461bcd60e51b815260206004820181905260248201527f4f776e61626c653a2063616c6c6572206973206e6f7420746865206f776e657260448201526064016108b6565b5f80546001600160a01b038381166001600160a01b0319831681178455604051919092169283917f8be0079c531659141344cd1fd0a4f28419497f9722a3daafe3b4186f6b6457e09190a35050565b600260015403611fff5760405162461bcd60e51b815260206004820152601f60248201527f5265656e7472616e637947756172643a207265656e7472616e742063616c6c0060448201526064016108b6565b6002600155565b80358015158114612015575f80fd5b919050565b634e487b7160e01b5f52604160045260245ffd5b5f82601f83011261203d575f80fd5b813567ffffffffffffffff808211156120585761205861201a565b604051601f8301601f19908116603f011681019082821181831017156120805761208061201a565b81604052838152866020858801011115612098575f80fd5b836020870160208301375f602085830101528094505050505092915050565b5f80604083850312156120c8575f80fd5b6120d183612006565b9150602083013567ffffffffffffffff8111156120ec575f80fd5b6120f88582860161202e565b9150509250929050565b5f60208284031215612112575f80fd5b61211b82612006565b9392505050565b5f60208284031215612132575f80fd5b5035919050565b5f81518084525f5b8181101561215d57602081850181015186830182015201612141565b505f602082860101526020601f19601f83011685010191505092915050565b602081525f61211b6020830184612139565b5f6020828403121561219e575f80fd5b81356001600160a01b038116811461211b575f80fd5b5f602082840312156121c4575f80fd5b813567ffffffffffffffff8111156121da575f80fd5b6121e68482850161202e565b949350505050565b602080825282518282018190525f9190848201906040850190845b8181101561222e5783516001600160a01b031683529284019291840191600101612209565b50909695505050505050565b634e487b7160e01b5f52601160045260245ffd5b808202811582820484141761121b5761121b61223a565b5f8261227f57634e487b7160e01b5f52601260045260245ffd5b500490565b8215158152604060208201525f6121e66040830184612139565b8082018082111561121b5761121b61223a565b600181811c908216806122c557607f821691505b6020821081036122e357634e487b7160e01b5f52602260045260245ffd5b50919050565b8681525f6020871515602084015286604084015285606084015260c060808401525f85545f60018260011c9150600183168061232657607f831692505b60208310810361234457634e487b7160e01b5f52602260045260245ffd5b60c0880183905260e088018180156123635760018114612379576123a2565b60ff198616825284151560051b820196506123a2565b5f8c8152602090205f5b8681101561239c57815484820152908501908901612383565b83019750505b50505050505083810360a08501526123ba8186612139565b9a9950505050505050505050565b8181038181111561121b5761121b61223a56fea264697066735822122086cdbb9199e232300570be76ae6c1fd70e5b3681c59b88d517950ae4059f59a164736f6c63430008180033a26469706673582212206de37232562fdf3fe7b6e4bbf411b1df0d2b5c697b54f540c4aaa53c28a9104764736f6c63430008180033",
  "linkReferences": {},
  "deployedLinkReferences": {},
  "immutableReferences": {},
  "inputSourceName": "project/contracts/BellaNapoliPredictionFactory-flattened-v2-old.sol",
  "buildInfoId": "solc-0_8_24-1df939c5183252680b9e4156b922ed3b44118992"
}