{
  "_format": "hh-sol-artifact-1",
  "contractName": "PredictionPool",
  "sourceName": "contractweb3/PredictionPool.sol",
  "abi": [
    {
      "inputs": [
        {
          "internalType": "string",
          "name": "_title",
          "type": "string"
        },
        {
          "internalType": "string",
          "name": "_description",
          "type": "string"
        },
        {
          "internalType": "string",
          "name": "_category",
          "type": "string"
        },
        {
          "internalType": "uint256",
          "name": "_closingDate",
          "type": "uint256"
        },
        {
          "internalType": "uint256",
          "name": "_closingBid",
          "type": "uint256"
        },
        {
          "internalType": "address",
          "name": "_factory",
          "type": "address"
        }
      ],
      "stateMutability": "nonpayable",
      "type": "constructor"
    },
    {
      "anonymous": false,
      "inputs": [
        {
          "indexed": true,
          "internalType": "address",
          "name": "user",
          "type": "address"
        },
        {
          "indexed": false,
          "internalType": "uint256",
          "name": "amount",
          "type": "uint256"
        },
        {
          "indexed": false,
          "internalType": "bool",
          "name": "choice",
          "type": "bool"
        },
        {
          "indexed": false,
          "internalType": "uint256",
          "name": "totalYes",
          "type": "uint256"
        },
        {
          "indexed": false,
          "internalType": "uint256",
          "name": "totalNo",
          "type": "uint256"
        }
      ],
      "name": "BetPlaced",
      "type": "event"
    },
    {
      "anonymous": false,
      "inputs": [
        {
          "indexed": false,
          "internalType": "bool",
          "name": "winner",
          "type": "bool"
        },
        {
          "indexed": false,
          "internalType": "string",
          "name": "reason",
          "type": "string"
        }
      ],
      "name": "EmergencyResolution",
      "type": "event"
    },
    {
      "anonymous": false,
      "inputs": [
        {
          "indexed": false,
          "internalType": "bool",
          "name": "stopped",
          "type": "bool"
        }
      ],
      "name": "EmergencyStopToggled",
      "type": "event"
    },
    {
      "anonymous": false,
      "inputs": [
        {
          "indexed": true,
          "internalType": "address",
          "name": "feeWallet",
          "type": "address"
        },
        {
          "indexed": false,
          "internalType": "uint256",
          "name": "amount",
          "type": "uint256"
        }
      ],
      "name": "FeeTransferred",
      "type": "event"
    },
    {
      "anonymous": false,
      "inputs": [
        {
          "indexed": true,
          "internalType": "address",
          "name": "previousOwner",
          "type": "address"
        },
        {
          "indexed": true,
          "internalType": "address",
          "name": "newOwner",
          "type": "address"
        }
      ],
      "name": "OwnershipTransferred",
      "type": "event"
    },
    {
      "anonymous": false,
      "inputs": [
        {
          "indexed": false,
          "internalType": "string",
          "name": "reason",
          "type": "string"
        }
      ],
      "name": "PoolCancelled",
      "type": "event"
    },
    {
      "anonymous": false,
      "inputs": [],
      "name": "PoolClosed",
      "type": "event"
    },
    {
      "anonymous": false,
      "inputs": [
        {
          "indexed": true,
          "internalType": "address",
          "name": "user",
          "type": "address"
        },
        {
          "indexed": false,
          "internalType": "uint256",
          "name": "amount",
          "type": "uint256"
        }
      ],
      "name": "RefundClaimed",
      "type": "event"
    },
    {
      "anonymous": false,
      "inputs": [
        {
          "indexed": true,
          "internalType": "address",
          "name": "user",
          "type": "address"
        },
        {
          "indexed": false,
          "internalType": "uint256",
          "name": "amount",
          "type": "uint256"
        }
      ],
      "name": "RewardClaimed",
      "type": "event"
    },
    {
      "anonymous": false,
      "inputs": [
        {
          "indexed": false,
          "internalType": "bool",
          "name": "winner",
          "type": "bool"
        }
      ],
      "name": "WinnerSet",
      "type": "event"
    },
    {
      "inputs": [],
      "name": "BASIS_POINTS",
      "outputs": [
        {
          "internalType": "uint256",
          "name": "",
          "type": "uint256"
        }
      ],
      "stateMutability": "view",
      "type": "function"
    },
    {
      "inputs": [],
      "name": "FEE_PERCENTAGE",
      "outputs": [
        {
          "internalType": "uint256",
          "name": "",
          "type": "uint256"
        }
      ],
      "stateMutability": "view",
      "type": "function"
    },
    {
      "inputs": [],
      "name": "FEE_WALLET",
      "outputs": [
        {
          "internalType": "address",
          "name": "",
          "type": "address"
        }
      ],
      "stateMutability": "view",
      "type": "function"
    },
    {
      "inputs": [
        {
          "internalType": "uint256",
          "name": "",
          "type": "uint256"
        }
      ],
      "name": "bettors",
      "outputs": [
        {
          "internalType": "address",
          "name": "",
          "type": "address"
        }
      ],
      "stateMutability": "view",
      "type": "function"
    },
    {
      "inputs": [
        {
          "internalType": "address",
          "name": "_user",
          "type": "address"
        }
      ],
      "name": "canClaimRefund",
      "outputs": [
        {
          "internalType": "bool",
          "name": "",
          "type": "bool"
        }
      ],
      "stateMutability": "view",
      "type": "function"
    },
    {
      "inputs": [
        {
          "internalType": "string",
          "name": "_reason",
          "type": "string"
        }
      ],
      "name": "cancelPool",
      "outputs": [],
      "stateMutability": "nonpayable",
      "type": "function"
    },
    {
      "inputs": [],
      "name": "cancelled",
      "outputs": [
        {
          "internalType": "bool",
          "name": "",
          "type": "bool"
        }
      ],
      "stateMutability": "view",
      "type": "function"
    },
    {
      "inputs": [],
      "name": "category",
      "outputs": [
        {
          "internalType": "string",
          "name": "",
          "type": "string"
        }
      ],
      "stateMutability": "view",
      "type": "function"
    },
    {
      "inputs": [],
      "name": "claim",
      "outputs": [],
      "stateMutability": "nonpayable",
      "type": "function"
    },
    {
      "inputs": [],
      "name": "claimRefund",
      "outputs": [],
      "stateMutability": "nonpayable",
      "type": "function"
    },
    {
      "inputs": [],
      "name": "closingBid",
      "outputs": [
        {
          "internalType": "uint256",
          "name": "",
          "type": "uint256"
        }
      ],
      "stateMutability": "view",
      "type": "function"
    },
    {
      "inputs": [],
      "name": "closingDate",
      "outputs": [
        {
          "internalType": "uint256",
          "name": "",
          "type": "uint256"
        }
      ],
      "stateMutability": "view",
      "type": "function"
    },
    {
      "inputs": [],
      "name": "description",
      "outputs": [
        {
          "internalType": "string",
          "name": "",
          "type": "string"
        }
      ],
      "stateMutability": "view",
      "type": "function"
    },
    {
      "inputs": [],
      "name": "emergencyClose",
      "outputs": [],
      "stateMutability": "nonpayable",
      "type": "function"
    },
    {
      "inputs": [
        {
          "internalType": "bool",
          "name": "_winner",
          "type": "bool"
        },
        {
          "internalType": "string",
          "name": "_reason",
          "type": "string"
        }
      ],
      "name": "emergencyResolve",
      "outputs": [],
      "stateMutability": "nonpayable",
      "type": "function"
    },
    {
      "inputs": [],
      "name": "emergencyStop",
      "outputs": [
        {
          "internalType": "bool",
          "name": "",
          "type": "bool"
        }
      ],
      "stateMutability": "view",
      "type": "function"
    },
    {
      "inputs": [],
      "name": "factory",
      "outputs": [
        {
          "internalType": "address payable",
          "name": "",
          "type": "address"
        }
      ],
      "stateMutability": "view",
      "type": "function"
    },
    {
      "inputs": [],
      "name": "getBettors",
      "outputs": [
        {
          "internalType": "address[]",
          "name": "",
          "type": "address[]"
        }
      ],
      "stateMutability": "view",
      "type": "function"
    },
    {
      "inputs": [],
      "name": "getFeeInfo",
      "outputs": [
        {
          "internalType": "address",
          "name": "_feeWallet",
          "type": "address"
        },
        {
          "internalType": "uint256",
          "name": "_feePercentage",
          "type": "uint256"
        },
        {
          "internalType": "uint256",
          "name": "_calculatedFee",
          "type": "uint256"
        },
        {
          "internalType": "bool",
          "name": "_feeSent",
          "type": "bool"
        }
      ],
      "stateMutability": "view",
      "type": "function"
    },
    {
      "inputs": [],
      "name": "getLosingPot",
      "outputs": [
        {
          "internalType": "uint256",
          "name": "",
          "type": "uint256"
        }
      ],
      "stateMutability": "view",
      "type": "function"
    },
    {
      "inputs": [],
      "name": "getPoolInfo",
      "outputs": [
        {
          "internalType": "string",
          "name": "_title",
          "type": "string"
        },
        {
          "internalType": "string",
          "name": "_description",
          "type": "string"
        },
        {
          "internalType": "string",
          "name": "_category",
          "type": "string"
        },
        {
          "internalType": "uint256",
          "name": "_closingDate",
          "type": "uint256"
        },
        {
          "internalType": "uint256",
          "name": "_closingBid",
          "type": "uint256"
        }
      ],
      "stateMutability": "view",
      "type": "function"
    },
    {
      "inputs": [],
      "name": "getPoolStats",
      "outputs": [
        {
          "internalType": "uint256",
          "name": "_totalYes",
          "type": "uint256"
        },
        {
          "internalType": "uint256",
          "name": "_totalNo",
          "type": "uint256"
        },
        {
          "internalType": "uint256",
          "name": "_totalBets",
          "type": "uint256"
        },
        {
          "internalType": "uint256",
          "name": "_bettorCount",
          "type": "uint256"
        },
        {
          "internalType": "bool",
          "name": "_isClosed",
          "type": "bool"
        },
        {
          "internalType": "bool",
          "name": "_winnerSet",
          "type": "bool"
        },
        {
          "internalType": "bool",
          "name": "_winner",
          "type": "bool"
        }
      ],
      "stateMutability": "view",
      "type": "function"
    },
    {
      "inputs": [],
      "name": "getRedistributionInfo",
      "outputs": [
        {
          "internalType": "uint256",
          "name": "_winningPot",
          "type": "uint256"
        },
        {
          "internalType": "uint256",
          "name": "_losingPot",
          "type": "uint256"
        },
        {
          "internalType": "uint256",
          "name": "_feeAmount",
          "type": "uint256"
        },
        {
          "internalType": "uint256",
          "name": "_netLosingPot",
          "type": "uint256"
        },
        {
          "internalType": "uint256",
          "name": "_totalRedistribution",
          "type": "uint256"
        }
      ],
      "stateMutability": "view",
      "type": "function"
    },
    {
      "inputs": [
        {
          "internalType": "address",
          "name": "_user",
          "type": "address"
        }
      ],
      "name": "getUserBet",
      "outputs": [
        {
          "components": [
            {
              "internalType": "uint256",
              "name": "amount",
              "type": "uint256"
            },
            {
              "internalType": "bool",
              "name": "choice",
              "type": "bool"
            },
            {
              "internalType": "bool",
              "name": "claimed",
              "type": "bool"
            },
            {
              "internalType": "uint256",
              "name": "timestamp",
              "type": "uint256"
            }
          ],
          "internalType": "struct PredictionPool.Bet",
          "name": "bet",
          "type": "tuple"
        }
      ],
      "stateMutability": "view",
      "type": "function"
    },
    {
      "inputs": [],
      "name": "getWinningPot",
      "outputs": [
        {
          "internalType": "uint256",
          "name": "",
          "type": "uint256"
        }
      ],
      "stateMutability": "view",
      "type": "function"
    },
    {
      "inputs": [
        {
          "internalType": "address",
          "name": "",
          "type": "address"
        }
      ],
      "name": "hasClaimed",
      "outputs": [
        {
          "internalType": "bool",
          "name": "",
          "type": "bool"
        }
      ],
      "stateMutability": "view",
      "type": "function"
    },
    {
      "inputs": [],
      "name": "isBettingCurrentlyOpen",
      "outputs": [
        {
          "internalType": "bool",
          "name": "",
          "type": "bool"
        }
      ],
      "stateMutability": "view",
      "type": "function"
    },
    {
      "inputs": [],
      "name": "isClosed",
      "outputs": [
        {
          "internalType": "bool",
          "name": "",
          "type": "bool"
        }
      ],
      "stateMutability": "view",
      "type": "function"
    },
    {
      "inputs": [],
      "name": "owner",
      "outputs": [
        {
          "internalType": "address",
          "name": "",
          "type": "address"
        }
      ],
      "stateMutability": "view",
      "type": "function"
    },
    {
      "inputs": [
        {
          "internalType": "bool",
          "name": "_choice",
          "type": "bool"
        }
      ],
      "name": "placeBet",
      "outputs": [],
      "stateMutability": "payable",
      "type": "function"
    },
    {
      "inputs": [],
      "name": "renounceOwnership",
      "outputs": [],
      "stateMutability": "nonpayable",
      "type": "function"
    },
    {
      "inputs": [
        {
          "internalType": "bool",
          "name": "_stop",
          "type": "bool"
        }
      ],
      "name": "setEmergencyStop",
      "outputs": [],
      "stateMutability": "nonpayable",
      "type": "function"
    },
    {
      "inputs": [
        {
          "internalType": "bool",
          "name": "_winner",
          "type": "bool"
        }
      ],
      "name": "setWinner",
      "outputs": [],
      "stateMutability": "nonpayable",
      "type": "function"
    },
    {
      "inputs": [],
      "name": "title",
      "outputs": [
        {
          "internalType": "string",
          "name": "",
          "type": "string"
        }
      ],
      "stateMutability": "view",
      "type": "function"
    },
    {
      "inputs": [],
      "name": "totalBets",
      "outputs": [
        {
          "internalType": "uint256",
          "name": "",
          "type": "uint256"
        }
      ],
      "stateMutability": "view",
      "type": "function"
    },
    {
      "inputs": [],
      "name": "totalClaimed",
      "outputs": [
        {
          "internalType": "uint256",
          "name": "",
          "type": "uint256"
        }
      ],
      "stateMutability": "view",
      "type": "function"
    },
    {
      "inputs": [],
      "name": "totalNo",
      "outputs": [
        {
          "internalType": "uint256",
          "name": "",
          "type": "uint256"
        }
      ],
      "stateMutability": "view",
      "type": "function"
    },
    {
      "inputs": [],
      "name": "totalYes",
      "outputs": [
        {
          "internalType": "uint256",
          "name": "",
          "type": "uint256"
        }
      ],
      "stateMutability": "view",
      "type": "function"
    },
    {
      "inputs": [
        {
          "internalType": "address",
          "name": "newOwner",
          "type": "address"
        }
      ],
      "name": "transferOwnership",
      "outputs": [],
      "stateMutability": "nonpayable",
      "type": "function"
    },
    {
      "inputs": [
        {
          "internalType": "address",
          "name": "",
          "type": "address"
        }
      ],
      "name": "userBets",
      "outputs": [
        {
          "internalType": "uint256",
          "name": "amount",
          "type": "uint256"
        },
        {
          "internalType": "bool",
          "name": "choice",
          "type": "bool"
        },
        {
          "internalType": "bool",
          "name": "claimed",
          "type": "bool"
        },
        {
          "internalType": "uint256",
          "name": "timestamp",
          "type": "uint256"
        }
      ],
      "stateMutability": "view",
      "type": "function"
    },
    {
      "inputs": [],
      "name": "winner",
      "outputs": [
        {
          "internalType": "bool",
          "name": "",
          "type": "bool"
        }
      ],
      "stateMutability": "view",
      "type": "function"
    },
    {
      "inputs": [],
      "name": "winnerSet",
      "outputs": [
        {
          "internalType": "bool",
          "name": "",
          "type": "bool"
        }
      ],
      "stateMutability": "view",
      "type": "function"
    },
    {
      "stateMutability": "payable",
      "type": "receive"
    }
  ],
  "bytecode": "0x60806040526007805464ffff00ffff60a01b191690553480156200002257600080fd5b5060405162002784380380620027848339810160408190526200004591620001c8565b6200005033620000b3565b6001805560026200006287826200031f565b5060036200007186826200031f565b5060046200008085826200031f565b50600592909255600655600780546001600160a01b0319166001600160a01b0390921691909117905550620003eb915050565b600080546001600160a01b038381166001600160a01b0319831681178455604051919092169283917f8be0079c531659141344cd1fd0a4f28419497f9722a3daafe3b4186f6b6457e09190a35050565b634e487b7160e01b600052604160045260246000fd5b600082601f8301126200012b57600080fd5b81516001600160401b038082111562000148576200014862000103565b604051601f8301601f19908116603f0116810190828211818310171562000173576200017362000103565b816040528381526020925086838588010111156200019057600080fd5b600091505b83821015620001b4578582018301518183018401529082019062000195565b600093810190920192909252949350505050565b60008060008060008060c08789031215620001e257600080fd5b86516001600160401b0380821115620001fa57600080fd5b620002088a838b0162000119565b975060208901519150808211156200021f57600080fd5b6200022d8a838b0162000119565b965060408901519150808211156200024457600080fd5b506200025389828a0162000119565b606089015160808a015160a08b0151929750909550935090506001600160a01b03811681146200028257600080fd5b809150509295509295509295565b600181811c90821680620002a557607f821691505b602082108103620002c657634e487b7160e01b600052602260045260246000fd5b50919050565b601f8211156200031a57600081815260208120601f850160051c81016020861015620002f55750805b601f850160051c820191505b81811015620003165782815560010162000301565b5050505b505050565b81516001600160401b038111156200033b576200033b62000103565b62000353816200034c845462000290565b84620002cc565b602080601f8311600181146200038b5760008415620003725750858301515b600019600386901b1c1916600185901b17855562000316565b600085815260208120601f198616915b82811015620003bc578886015182559484019460019091019084016200039b565b5085821015620003db5787850151600019600388901b60f8161c191681555b5050505050600190811b01905550565b61238980620003fb6000396000f3fe6080604052600436106102535760003560e01c8063a628828f11610139578063c73d7c7b116100b6578063dfbf53ae1161007a578063dfbf53ae14610820578063e1f1c4a714610841578063ef430aa614610857578063ef9ea4861461086c578063f2fde38b1461088c578063ffd4493c146108ac57600080fd5b8063c73d7c7b146106f0578063c77511ee14610710578063c96adb0114610725578063d54ad2a1146107f5578063da3d91831461080b57600080fd5b8063b84ff262116100fd578063b84ff26214610612578063bbb8518814610628578063befa1e2f14610699578063c2b6b58c146106af578063c45a0155146106d057600080fd5b8063a628828f1461059c578063a8ae8e05146105b2578063a9cc9ae9146105d2578063af008883146105e7578063b5545a3c146105fd57600080fd5b80634e92a646116101d257806373b2e80e1161019657806373b2e80e146104d657806378e73ff81461050657806388ba8dd6146105275780638cca8f641461053d5780638da5cb5b1461055d5780639a82a09a1461057b57600080fd5b80634e92a646146103e657806360246c881461045557806363a599a41461047b578063715018a6146104ac5780637284e416146104c157600080fd5b80633482b644116102195780633482b6441461033a57806343c322ba1461037257806344cd7948146103875780634a79d50c146103af5780634e71d92d146103d157600080fd5b806202eab71461025f5780620b46f8146102a557806306f6bce9146102c8578063096a3778146102ea5780631cc3a0f1146102fd57600080fd5b3661025a57005b600080fd5b34801561026b57600080fd5b506102746108ce565b604080516001600160a01b039095168552602085019390935291830152151560608201526080015b60405180910390f35b3480156102b157600080fd5b506102ba609681565b60405190815260200161029c565b3480156102d457600080fd5b506102e86102e3366004612090565b610965565b005b6102e86102f83660046120de565b610ad0565b34801561030957600080fd5b50610312610e7d565b604080519586526020860194909452928401919091526060830152608082015260a00161029c565b34801561034657600080fd5b5061035a610355366004612100565b610f13565b6040516001600160a01b03909116815260200161029c565b34801561037e57600080fd5b506102ba610f3d565b34801561039357600080fd5b5061035a7317ee2ca31a6811f5d4198bce9afd1c1db3837a3881565b3480156103bb57600080fd5b506103c4610f61565b60405161029c919061215f565b3480156103dd57600080fd5b506102e8610fef565b3480156103f257600080fd5b5061042f610401366004612172565b600b60205260009081526040902080546001820154600290920154909160ff80821692610100909204169084565b60408051948552921515602085015290151591830191909152606082015260800161029c565b34801561046157600080fd5b5061046a6114e0565b60405161029c95949392919061219b565b34801561048757600080fd5b5060075461049c90600160b81b900460ff1681565b604051901515815260200161029c565b3480156104b857600080fd5b506102e86116a9565b3480156104cd57600080fd5b506103c46116bb565b3480156104e257600080fd5b5061049c6104f1366004612172565b600d6020526000908152604090205460ff1681565b34801561051257600080fd5b5060075461049c90600160a81b900460ff1681565b34801561053357600080fd5b506102ba60085481565b34801561054957600080fd5b5061049c610558366004612172565b6116c8565b34801561056957600080fd5b506000546001600160a01b031661035a565b34801561058757600080fd5b5060075461049c90600160c01b900460ff1681565b3480156105a857600080fd5b506102ba60055481565b3480156105be57600080fd5b506102e86105cd3660046121e9565b611726565b3480156105de57600080fd5b506102e861188c565b3480156105f357600080fd5b506102ba60095481565b34801561060957600080fd5b506102e8611974565b34801561061e57600080fd5b506102ba60065481565b34801561063457600080fd5b50600854600954600a54600c5460075460408051958652602086019490945292840191909152606083015260ff600160a01b8204811615156080840152600160a81b82048116151560a0840152600160b01b90910416151560c082015260e00161029c565b3480156106a557600080fd5b506102ba600a5481565b3480156106bb57600080fd5b5060075461049c90600160a01b900460ff1681565b3480156106dc57600080fd5b5060075461035a906001600160a01b031681565b3480156106fc57600080fd5b506102e861070b3660046120de565b611b80565b34801561071c57600080fd5b506102ba611bd5565b34801561073157600080fd5b506107be610740366004612172565b604080516080810182526000808252602082018190529181018290526060810191909152506001600160a01b03166000908152600b6020908152604091829020825160808101845281548152600182015460ff8082161515948301949094526101009004909216151592820192909252600290910154606082015290565b60405161029c9190815181526020808301511515908201526040808301511515908201526060918201519181019190915260800190565b34801561080157600080fd5b506102ba600e5481565b34801561081757600080fd5b5061049c611bf7565b34801561082c57600080fd5b5060075461049c90600160b01b900460ff1681565b34801561084d57600080fd5b506102ba61271081565b34801561086357600080fd5b506103c4611c4a565b34801561087857600080fd5b506102e86108873660046120de565b611c57565b34801561089857600080fd5b506102e86108a7366004612172565b611dfa565b3480156108b857600080fd5b506108c1611e73565b60405161029c9190612226565b6000806000806000600760169054906101000a900460ff166108f2576008546108f6565b6009545b90506000612710610908609684612289565b61091291906122a0565b60008052600d6020527f81955a0a11e65eac625c29e8882660bae4e165a75d72780094acae8ece9a29ee547317ee2ca31a6811f5d4198bce9afd1c1db3837a38986096985091965060ff16945092505050565b61096d611ed5565b600754600160a81b900460ff16156109c15760405162461bcd60e51b815260206004820152601260248201527115da5b9b995c88185b1c9958591e481cd95d60721b60448201526064015b60405180910390fd5b6000815111610a235760405162461bcd60e51b815260206004820152602860248201527f526561736f6e20726571756972656420666f7220656d657267656e637920726560448201526739b7b63aba34b7b760c11b60648201526084016109b8565b60078054600160a81b61ffff60a81b19909116600160b01b8515150260ff60a81b1916171763ff0000ff60a01b1916630100000160a01b1790556040517f5eece6d9b713b073a6bc2416b26a7cf53d8a15c9d90aa4e064eee4cb25707cd990610a8f90849084906122c2565b60405180910390a160405182151581527f9302b6cb5e0903af39b78bed199ff2d57795b0dae6c9de428f46c9d1316b98719060200160405180910390a15050565b600554421115610b225760405162461bcd60e51b815260206004820152601860248201527f42657474696e6720706572696f642068617320656e646564000000000000000060448201526064016109b8565b600754600160a01b900460ff1615610b6d5760405162461bcd60e51b815260206004820152600e60248201526d141bdbdb081a5cc818db1bdcd95960921b60448201526064016109b8565b60003411610bc75760405162461bcd60e51b815260206004820152602160248201527f42657420616d6f756e74206d7573742062652067726561746572207468616e206044820152600360fc1b60648201526084016109b8565b336000908152600b602052604090205415610c245760405162461bcd60e51b815260206004820152601d60248201527f557365722068617320616c726561647920706c6163656420612062657400000060448201526064016109b8565b600754600160b81b900460ff1615610c885760405162461bcd60e51b815260206004820152602160248201527f42657474696e6720686173206265656e2073746f707065642062792061646d696044820152603760f91b60648201526084016109b8565b600754600160c01b900460ff1615610ce25760405162461bcd60e51b815260206004820152601760248201527f506f6f6c20686173206265656e2063616e63656c6c656400000000000000000060448201526064016109b8565b60408051608081018252348152821515602080830191825260008385018181524260608601908152338352600b909352949020925183559051600183018054945115156101000261ff00199215159290921661ffff1990951694909417179092559051600290910155600c541580610d905750600c8054339190610d68906001906122dd565b81548110610d7857610d786122f0565b6000918252602090912001546001600160a01b031614155b15610dd857600c80546001810182556000919091527fdf6966c971051c3d54ec59162606531493a51404a002842f56009d7e5cf4a8c70180546001600160a01b031916331790555b8015610dfb573460086000828254610df09190612306565b90915550610e139050565b3460096000828254610e0d9190612306565b90915550505b34600a6000828254610e259190612306565b909155505060085460095460408051348152841515602082015290810192909252606082015233907f6dac4ebe84932aaf653f9a68ba85946d11b74c250156a0caabbde5c1ef0092c09060800160405180910390a250565b600080600080600080600760169054906101000a900460ff16610ea257600954610ea6565b6008545b600754909150600090600160b01b900460ff16610ec557600854610ec9565b6009545b90506000612710610edb609684612289565b610ee591906122a0565b90506000610ef382846122dd565b90506000610f018286612306565b949a9399509197509550919350915050565b600c8181548110610f2357600080fd5b6000918252602090912001546001600160a01b0316905081565b600754600090600160b01b900460ff16610f58575060085490565b6009545b905090565b60028054610f6e90612319565b80601f0160208091040260200160405190810160405280929190818152602001828054610f9a90612319565b8015610fe75780601f10610fbc57610100808354040283529160200191610fe7565b820191906000526020600020905b815481529060010190602001808311610fca57829003601f168201915b505050505081565b610ff7611f2f565b600754600160a81b900460ff166110455760405162461bcd60e51b815260206004820152601260248201527115da5b9b995c881b9bdd081cd95d081e595d60721b60448201526064016109b8565b600754600160a01b900460ff1615806110675750600754600160a81b900460ff165b6110a95760405162461bcd60e51b8152602060048201526013602482015272141bdbdb081b9bdd0818db1bdcd959081e595d606a1b60448201526064016109b8565b336000908152600b60205260409020546110f55760405162461bcd60e51b815260206004820152600d60248201526c139bc818995d081c1b1858d959609a1b60448201526064016109b8565b336000908152600d602052604090205460ff16156111475760405162461bcd60e51b815260206004820152600f60248201526e105b1c9958591e4818db185a5b5959608a1b60448201526064016109b8565b600754336000908152600b602052604090206001015460ff9081161515600160b01b909204161515146111b05760405162461bcd60e51b8152602060048201526011602482015270139bdd0818481dda5b9b9a5b99c818995d607a1b60448201526064016109b8565b336000908152600d60209081526040808320805460ff19166001908117909155600b909252822001805461ff001916610100179055600754600160b01b900460ff166111fe57600954611202565b6008545b600754909150600090600160b01b900460ff1661122157600854611225565b6009545b90506000612710611237609684612289565b61124191906122a0565b9050600061124f82846122dd565b905060008211801561128c575060008052600d6020527f81955a0a11e65eac625c29e8882660bae4e165a75d72780094acae8ece9a29ee5460ff16155b156113ba576040516000907317ee2ca31a6811f5d4198bce9afd1c1db3837a389084908381818185875af1925050503d80600081146112e7576040519150601f19603f3d011682016040523d82523d6000602084013e6112ec565b606091505b50509050806113335760405162461bcd60e51b8152602060048201526013602482015272119959481d1c985b9cd9995c8819985a5b1959606a1b60448201526064016109b8565b60008052600d6020527f81955a0a11e65eac625c29e8882660bae4e165a75d72780094acae8ece9a29ee805460ff191660011790556040517317ee2ca31a6811f5d4198bce9afd1c1db3837a38907f34e8a84e537ed93d93ddf39a78816dcbc74df8397c635838b8cc973d4fa943f8906113b09086815260200190565b60405180910390a2505b336000908152600b6020526040812054906113d58387612306565b90506000866113e48385612289565b6113ee91906122a0565b905080600e60008282546114029190612306565b9091555050604051600090339083908381818185875af1925050503d8060008114611449576040519150601f19603f3d011682016040523d82523d6000602084013e61144e565b606091505b50509050806114985760405162461bcd60e51b815260206004820152601660248201527514995dd85c99081d1c985b9cd9995c8819985a5b195960521b60448201526064016109b8565b60405182815233907f106f923f993c2149d49b4255ff723acafa1f2d94393f561d3eda32ae348f72419060200160405180910390a250505050505050506114de60018055565b565b606080606060008060026003600460055460065484805461150090612319565b80601f016020809104026020016040519081016040528092919081815260200182805461152c90612319565b80156115795780601f1061154e57610100808354040283529160200191611579565b820191906000526020600020905b81548152906001019060200180831161155c57829003601f168201915b5050505050945083805461158c90612319565b80601f01602080910402602001604051908101604052809291908181526020018280546115b890612319565b80156116055780601f106115da57610100808354040283529160200191611605565b820191906000526020600020905b8154815290600101906020018083116115e857829003601f168201915b5050505050935082805461161890612319565b80601f016020809104026020016040519081016040528092919081815260200182805461164490612319565b80156116915780601f1061166657610100808354040283529160200191611691565b820191906000526020600020905b81548152906001019060200180831161167457829003601f168201915b50505050509250945094509450945094509091929394565b6116b1611ed5565b6114de6000611f88565b60038054610f6e90612319565b600754600090600160c01b900460ff1680156116fb57506001600160a01b0382166000908152600b602052604090205415155b801561172057506001600160a01b0382166000908152600d602052604090205460ff16155b92915050565b61172e611ed5565b600754600160a81b900460ff16156117925760405162461bcd60e51b815260206004820152602160248201527f43616e6e6f742063616e63656c2061667465722077696e6e65722069732073656044820152601d60fa1b60648201526084016109b8565b600754600160c01b900460ff16156117e55760405162461bcd60e51b8152602060048201526016602482015275141bdbdb08185b1c9958591e4818d85b98d95b1b195960521b60448201526064016109b8565b60008151116118365760405162461bcd60e51b815260206004820181905260248201527f526561736f6e20726571756972656420666f722063616e63656c6c6174696f6e60448201526064016109b8565b6007805464ffff0000ff60a01b191664010100000160a01b1790556040517fb8201d4fe5c71cc4bf444acaf4124edf462bda026c79355261a71d9f40d5cd0a9061188190839061215f565b60405180910390a150565b6007546001600160a01b031633146118e65760405162461bcd60e51b815260206004820152601a60248201527f4f6e6c7920666163746f72792063616e2063616c6c207468697300000000000060448201526064016109b8565b600754600160a01b900460ff16156119365760405162461bcd60e51b8152602060048201526013602482015272141bdbdb08185b1c9958591e4818db1bdcd959606a1b60448201526064016109b8565b6007805460ff60a01b1916600160a01b1790556040517fd9fd1a29efbd67e74bbcd110e7344e0a2fbc8efd8334b946c1b805670d8d08ea90600090a1565b61197c611f2f565b600754600160c01b900460ff166119ca5760405162461bcd60e51b8152602060048201526012602482015271141bdbdb081b9bdd0818d85b98d95b1b195960721b60448201526064016109b8565b336000908152600b6020526040902054611a165760405162461bcd60e51b815260206004820152600d60248201526c139bc818995d081c1b1858d959609a1b60448201526064016109b8565b336000908152600d602052604090205460ff1615611a6f5760405162461bcd60e51b8152602060048201526016602482015275105b1c9958591e4818db185a5b5959081c99599d5b9960521b60448201526064016109b8565b336000818152600b602081815260408084208054600d8452828620805460ff191660019081179091559490935292909201805461ff0019166101001790559051909290839060006040518083038185875af1925050503d8060008114611af1576040519150601f19603f3d011682016040523d82523d6000602084013e611af6565b606091505b5050905080611b405760405162461bcd60e51b81526020600482015260166024820152751499599d5b99081d1c985b9cd9995c8819985a5b195960521b60448201526064016109b8565b60405182815233907f358fe4192934d3bf28ae181feda1f4bd08ca67f5e2fad55582cce5eb67304ae99060200160405180910390a250506114de60018055565b611b88611ed5565b60078054821515600160b81b0260ff60b81b199091161790556040517f05b88d23d9a60b7924fccc370e1e0c1ccf49989e3b2968cafaf7db7fc13bd13f9061188190831515815260200190565b600754600090600160b01b900460ff16611bf0575060095490565b5060085490565b6000611c0560055442111590565b8015611c1b5750600754600160b81b900460ff16155b8015611c315750600754600160a01b900460ff16155b8015610f5c575050600754600160c01b900460ff161590565b60048054610f6e90612319565b611c5f611ed5565b6005544211611cb05760405162461bcd60e51b815260206004820152601c60248201527f42657474696e6720706572696f64206973207374696c6c206f70656e0000000060448201526064016109b8565b600754600160a81b900460ff1615611cff5760405162461bcd60e51b815260206004820152601260248201527115da5b9b995c88185b1c9958591e481cd95d60721b60448201526064016109b8565b6006544211611d5b5760405162461bcd60e51b815260206004820152602260248201527f50726564696374696f6e206576656e7420686173206e6f7420656e6465642079604482015261195d60f21b60648201526084016109b8565b6007805460ff60a01b1960ff60a81b19841515600160b01b021661ffff60a81b1990921691909117600160a81b1716600160a01b1790556040517f9302b6cb5e0903af39b78bed199ff2d57795b0dae6c9de428f46c9d1316b987190611dc690831515815260200190565b60405180910390a16040517fd9fd1a29efbd67e74bbcd110e7344e0a2fbc8efd8334b946c1b805670d8d08ea90600090a150565b611e02611ed5565b6001600160a01b038116611e675760405162461bcd60e51b815260206004820152602660248201527f4f776e61626c653a206e6577206f776e657220697320746865207a65726f206160448201526564647265737360d01b60648201526084016109b8565b611e7081611f88565b50565b6060600c805480602002602001604051908101604052809291908181526020018280548015611ecb57602002820191906000526020600020905b81546001600160a01b03168152600190910190602001808311611ead575b5050505050905090565b6000546001600160a01b031633146114de5760405162461bcd60e51b815260206004820181905260248201527f4f776e61626c653a2063616c6c6572206973206e6f7420746865206f776e657260448201526064016109b8565b600260015403611f815760405162461bcd60e51b815260206004820152601f60248201527f5265656e7472616e637947756172643a207265656e7472616e742063616c6c0060448201526064016109b8565b6002600155565b600080546001600160a01b038381166001600160a01b0319831681178455604051919092169283917f8be0079c531659141344cd1fd0a4f28419497f9722a3daafe3b4186f6b6457e09190a35050565b80358015158114611fe857600080fd5b919050565b634e487b7160e01b600052604160045260246000fd5b600082601f83011261201457600080fd5b813567ffffffffffffffff8082111561202f5761202f611fed565b604051601f8301601f19908116603f0116810190828211818310171561205757612057611fed565b8160405283815286602085880101111561207057600080fd5b836020870160208301376000602085830101528094505050505092915050565b600080604083850312156120a357600080fd5b6120ac83611fd8565b9150602083013567ffffffffffffffff8111156120c857600080fd5b6120d485828601612003565b9150509250929050565b6000602082840312156120f057600080fd5b6120f982611fd8565b9392505050565b60006020828403121561211257600080fd5b5035919050565b6000815180845260005b8181101561213f57602081850181015186830182015201612123565b506000602082860101526020601f19601f83011685010191505092915050565b6020815260006120f96020830184612119565b60006020828403121561218457600080fd5b81356001600160a01b03811681146120f957600080fd5b60a0815260006121ae60a0830188612119565b82810360208401526121c08188612119565b905082810360408401526121d48187612119565b60608401959095525050608001529392505050565b6000602082840312156121fb57600080fd5b813567ffffffffffffffff81111561221257600080fd5b61221e84828501612003565b949350505050565b6020808252825182820181905260009190848201906040850190845b818110156122675783516001600160a01b031683529284019291840191600101612242565b50909695505050505050565b634e487b7160e01b600052601160045260246000fd5b808202811582820484141761172057611720612273565b6000826122bd57634e487b7160e01b600052601260045260246000fd5b500490565b821515815260406020820152600061221e6040830184612119565b8181038181111561172057611720612273565b634e487b7160e01b600052603260045260246000fd5b8082018082111561172057611720612273565b600181811c9082168061232d57607f821691505b60208210810361234d57634e487b7160e01b600052602260045260246000fd5b5091905056fea2646970667358221220b05b3c2210700dbd0521d3c73a8fbfc514f657721c3f6191cff86f63cdf6a75164736f6c63430008130033",
  "linkReferences": {},
  "deployedLinkReferences": {}
}