{
  "_format": "hh3-artifact-1",
  "contractName": "PredictionPool",
  "sourceName": "contracts/BellaNapoliPredictionFactory.sol",
  "abi": [
    {
      "inputs": [
        {
          "internalType": "string",
          "name": "_title",
          "type": "string"
        },
        {
          "internalType": "string",
          "name": "_description",
          "type": "string"
        },
        {
          "internalType": "string",
          "name": "_category",
          "type": "string"
        },
        {
          "internalType": "uint256",
          "name": "_closingDate",
          "type": "uint256"
        },
        {
          "internalType": "uint256",
          "name": "_closingBid",
          "type": "uint256"
        },
        {
          "internalType": "address",
          "name": "_factory",
          "type": "address"
        }
      ],
      "stateMutability": "nonpayable",
      "type": "constructor"
    },
    {
      "anonymous": false,
      "inputs": [
        {
          "indexed": true,
          "internalType": "address",
          "name": "bettor",
          "type": "address"
        },
        {
          "indexed": false,
          "internalType": "uint256",
          "name": "amount",
          "type": "uint256"
        },
        {
          "indexed": false,
          "internalType": "bool",
          "name": "choice",
          "type": "bool"
        },
        {
          "indexed": false,
          "internalType": "uint256",
          "name": "totalYes",
          "type": "uint256"
        },
        {
          "indexed": false,
          "internalType": "uint256",
          "name": "totalNo",
          "type": "uint256"
        },
        {
          "indexed": false,
          "internalType": "string",
          "name": "predictionTitle",
          "type": "string"
        },
        {
          "indexed": false,
          "internalType": "string",
          "name": "userChoice",
          "type": "string"
        }
      ],
      "name": "BetPlaced",
      "type": "event"
    },
    {
      "anonymous": false,
      "inputs": [
        {
          "indexed": false,
          "internalType": "bool",
          "name": "stopped",
          "type": "bool"
        }
      ],
      "name": "EmergencyStopToggled",
      "type": "event"
    },
    {
      "anonymous": false,
      "inputs": [
        {
          "indexed": true,
          "internalType": "address",
          "name": "feeWallet",
          "type": "address"
        },
        {
          "indexed": false,
          "internalType": "uint256",
          "name": "amount",
          "type": "uint256"
        }
      ],
      "name": "FeeTransferred",
      "type": "event"
    },
    {
      "anonymous": false,
      "inputs": [
        {
          "indexed": true,
          "internalType": "address",
          "name": "previousOwner",
          "type": "address"
        },
        {
          "indexed": true,
          "internalType": "address",
          "name": "newOwner",
          "type": "address"
        }
      ],
      "name": "OwnershipTransferred",
      "type": "event"
    },
    {
      "anonymous": false,
      "inputs": [
        {
          "indexed": false,
          "internalType": "string",
          "name": "reason",
          "type": "string"
        }
      ],
      "name": "PoolCancelled",
      "type": "event"
    },
    {
      "anonymous": false,
      "inputs": [
        {
          "indexed": true,
          "internalType": "address",
          "name": "user",
          "type": "address"
        },
        {
          "indexed": false,
          "internalType": "uint256",
          "name": "amount",
          "type": "uint256"
        }
      ],
      "name": "RefundClaimed",
      "type": "event"
    },
    {
      "anonymous": false,
      "inputs": [
        {
          "indexed": true,
          "internalType": "address",
          "name": "winner",
          "type": "address"
        },
        {
          "indexed": false,
          "internalType": "uint256",
          "name": "amount",
          "type": "uint256"
        }
      ],
      "name": "RewardClaimed",
      "type": "event"
    },
    {
      "anonymous": false,
      "inputs": [
        {
          "indexed": false,
          "internalType": "bool",
          "name": "winnerChoice",
          "type": "bool"
        },
        {
          "indexed": false,
          "internalType": "string",
          "name": "reason",
          "type": "string"
        }
      ],
      "name": "WinnerSet",
      "type": "event"
    },
    {
      "inputs": [],
      "name": "BASIS_POINTS",
      "outputs": [
        {
          "internalType": "uint256",
          "name": "",
          "type": "uint256"
        }
      ],
      "stateMutability": "view",
      "type": "function"
    },
    {
      "inputs": [],
      "name": "FEE_PERCENTAGE",
      "outputs": [
        {
          "internalType": "uint256",
          "name": "",
          "type": "uint256"
        }
      ],
      "stateMutability": "view",
      "type": "function"
    },
    {
      "inputs": [
        {
          "internalType": "uint256",
          "name": "",
          "type": "uint256"
        }
      ],
      "name": "bettors",
      "outputs": [
        {
          "internalType": "address",
          "name": "",
          "type": "address"
        }
      ],
      "stateMutability": "view",
      "type": "function"
    },
    {
      "inputs": [
        {
          "internalType": "address",
          "name": "_user",
          "type": "address"
        }
      ],
      "name": "canClaimRefund",
      "outputs": [
        {
          "internalType": "bool",
          "name": "",
          "type": "bool"
        }
      ],
      "stateMutability": "view",
      "type": "function"
    },
    {
      "inputs": [
        {
          "internalType": "string",
          "name": "_reason",
          "type": "string"
        }
      ],
      "name": "cancelPool",
      "outputs": [],
      "stateMutability": "nonpayable",
      "type": "function"
    },
    {
      "inputs": [],
      "name": "cancelled",
      "outputs": [
        {
          "internalType": "bool",
          "name": "",
          "type": "bool"
        }
      ],
      "stateMutability": "view",
      "type": "function"
    },
    {
      "inputs": [],
      "name": "category",
      "outputs": [
        {
          "internalType": "string",
          "name": "",
          "type": "string"
        }
      ],
      "stateMutability": "view",
      "type": "function"
    },
    {
      "inputs": [],
      "name": "claimRefund",
      "outputs": [],
      "stateMutability": "nonpayable",
      "type": "function"
    },
    {
      "inputs": [],
      "name": "claimWinnings",
      "outputs": [],
      "stateMutability": "nonpayable",
      "type": "function"
    },
    {
      "inputs": [],
      "name": "closePool",
      "outputs": [],
      "stateMutability": "nonpayable",
      "type": "function"
    },
    {
      "inputs": [],
      "name": "closingBid",
      "outputs": [
        {
          "internalType": "uint256",
          "name": "",
          "type": "uint256"
        }
      ],
      "stateMutability": "view",
      "type": "function"
    },
    {
      "inputs": [],
      "name": "closingDate",
      "outputs": [
        {
          "internalType": "uint256",
          "name": "",
          "type": "uint256"
        }
      ],
      "stateMutability": "view",
      "type": "function"
    },
    {
      "inputs": [],
      "name": "description",
      "outputs": [
        {
          "internalType": "string",
          "name": "",
          "type": "string"
        }
      ],
      "stateMutability": "view",
      "type": "function"
    },
    {
      "inputs": [
        {
          "internalType": "bool",
          "name": "_winner",
          "type": "bool"
        },
        {
          "internalType": "string",
          "name": "_reason",
          "type": "string"
        }
      ],
      "name": "emergencyResolve",
      "outputs": [],
      "stateMutability": "nonpayable",
      "type": "function"
    },
    {
      "inputs": [],
      "name": "emergencyStop",
      "outputs": [
        {
          "internalType": "bool",
          "name": "",
          "type": "bool"
        }
      ],
      "stateMutability": "view",
      "type": "function"
    },
    {
      "inputs": [],
      "name": "factory",
      "outputs": [
        {
          "internalType": "address payable",
          "name": "",
          "type": "address"
        }
      ],
      "stateMutability": "view",
      "type": "function"
    },
    {
      "inputs": [],
      "name": "feeWallet",
      "outputs": [
        {
          "internalType": "address",
          "name": "",
          "type": "address"
        }
      ],
      "stateMutability": "view",
      "type": "function"
    },
    {
      "inputs": [],
      "name": "getBettors",
      "outputs": [
        {
          "internalType": "address[]",
          "name": "",
          "type": "address[]"
        }
      ],
      "stateMutability": "view",
      "type": "function"
    },
    {
      "inputs": [],
      "name": "getFeeInfo",
      "outputs": [
        {
          "internalType": "address",
          "name": "_feeWallet",
          "type": "address"
        },
        {
          "internalType": "uint256",
          "name": "_feePercentage",
          "type": "uint256"
        },
        {
          "internalType": "uint256",
          "name": "_totalFees",
          "type": "uint256"
        },
        {
          "internalType": "bool",
          "name": "_feesClaimed",
          "type": "bool"
        }
      ],
      "stateMutability": "view",
      "type": "function"
    },
    {
      "inputs": [],
      "name": "getLosingPot",
      "outputs": [
        {
          "internalType": "uint256",
          "name": "",
          "type": "uint256"
        }
      ],
      "stateMutability": "view",
      "type": "function"
    },
    {
      "inputs": [],
      "name": "getPoolStats",
      "outputs": [
        {
          "internalType": "uint256",
          "name": "_totalYes",
          "type": "uint256"
        },
        {
          "internalType": "uint256",
          "name": "_totalNo",
          "type": "uint256"
        },
        {
          "internalType": "uint256",
          "name": "_totalBets",
          "type": "uint256"
        },
        {
          "internalType": "uint256",
          "name": "_bettorCount",
          "type": "uint256"
        },
        {
          "internalType": "bool",
          "name": "_isClosed",
          "type": "bool"
        },
        {
          "internalType": "bool",
          "name": "_winnerSet",
          "type": "bool"
        },
        {
          "internalType": "bool",
          "name": "_cancelled",
          "type": "bool"
        }
      ],
      "stateMutability": "view",
      "type": "function"
    },
    {
      "inputs": [],
      "name": "getTotalFees",
      "outputs": [
        {
          "internalType": "uint256",
          "name": "",
          "type": "uint256"
        }
      ],
      "stateMutability": "view",
      "type": "function"
    },
    {
      "inputs": [],
      "name": "getWinnerPot",
      "outputs": [
        {
          "internalType": "uint256",
          "name": "",
          "type": "uint256"
        }
      ],
      "stateMutability": "view",
      "type": "function"
    },
    {
      "inputs": [
        {
          "internalType": "address",
          "name": "",
          "type": "address"
        }
      ],
      "name": "hasClaimed",
      "outputs": [
        {
          "internalType": "bool",
          "name": "",
          "type": "bool"
        }
      ],
      "stateMutability": "view",
      "type": "function"
    },
    {
      "inputs": [],
      "name": "isBettingOpen",
      "outputs": [
        {
          "internalType": "bool",
          "name": "",
          "type": "bool"
        }
      ],
      "stateMutability": "view",
      "type": "function"
    },
    {
      "inputs": [],
      "name": "isClosed",
      "outputs": [
        {
          "internalType": "bool",
          "name": "",
          "type": "bool"
        }
      ],
      "stateMutability": "view",
      "type": "function"
    },
    {
      "inputs": [],
      "name": "owner",
      "outputs": [
        {
          "internalType": "address",
          "name": "",
          "type": "address"
        }
      ],
      "stateMutability": "view",
      "type": "function"
    },
    {
      "inputs": [
        {
          "internalType": "bool",
          "name": "_choice",
          "type": "bool"
        }
      ],
      "name": "placeBet",
      "outputs": [],
      "stateMutability": "payable",
      "type": "function"
    },
    {
      "inputs": [],
      "name": "renounceOwnership",
      "outputs": [],
      "stateMutability": "nonpayable",
      "type": "function"
    },
    {
      "inputs": [
        {
          "internalType": "bool",
          "name": "_stop",
          "type": "bool"
        }
      ],
      "name": "setEmergencyStop",
      "outputs": [],
      "stateMutability": "nonpayable",
      "type": "function"
    },
    {
      "inputs": [
        {
          "internalType": "address",
          "name": "_newFeeWallet",
          "type": "address"
        }
      ],
      "name": "setFeeWallet",
      "outputs": [],
      "stateMutability": "nonpayable",
      "type": "function"
    },
    {
      "inputs": [
        {
          "internalType": "bool",
          "name": "_winner",
          "type": "bool"
        }
      ],
      "name": "setWinner",
      "outputs": [],
      "stateMutability": "nonpayable",
      "type": "function"
    },
    {
      "inputs": [],
      "name": "title",
      "outputs": [
        {
          "internalType": "string",
          "name": "",
          "type": "string"
        }
      ],
      "stateMutability": "view",
      "type": "function"
    },
    {
      "inputs": [],
      "name": "totalBets",
      "outputs": [
        {
          "internalType": "uint256",
          "name": "",
          "type": "uint256"
        }
      ],
      "stateMutability": "view",
      "type": "function"
    },
    {
      "inputs": [],
      "name": "totalClaimed",
      "outputs": [
        {
          "internalType": "uint256",
          "name": "",
          "type": "uint256"
        }
      ],
      "stateMutability": "view",
      "type": "function"
    },
    {
      "inputs": [],
      "name": "totalNo",
      "outputs": [
        {
          "internalType": "uint256",
          "name": "",
          "type": "uint256"
        }
      ],
      "stateMutability": "view",
      "type": "function"
    },
    {
      "inputs": [],
      "name": "totalYes",
      "outputs": [
        {
          "internalType": "uint256",
          "name": "",
          "type": "uint256"
        }
      ],
      "stateMutability": "view",
      "type": "function"
    },
    {
      "inputs": [
        {
          "internalType": "address",
          "name": "newOwner",
          "type": "address"
        }
      ],
      "name": "transferOwnership",
      "outputs": [],
      "stateMutability": "nonpayable",
      "type": "function"
    },
    {
      "inputs": [
        {
          "internalType": "address",
          "name": "",
          "type": "address"
        }
      ],
      "name": "userBets",
      "outputs": [
        {
          "internalType": "bool",
          "name": "choice",
          "type": "bool"
        },
        {
          "internalType": "uint256",
          "name": "amount",
          "type": "uint256"
        },
        {
          "internalType": "bool",
          "name": "claimed",
          "type": "bool"
        },
        {
          "internalType": "uint256",
          "name": "timestamp",
          "type": "uint256"
        }
      ],
      "stateMutability": "view",
      "type": "function"
    },
    {
      "inputs": [],
      "name": "winner",
      "outputs": [
        {
          "internalType": "bool",
          "name": "",
          "type": "bool"
        }
      ],
      "stateMutability": "view",
      "type": "function"
    },
    {
      "inputs": [],
      "name": "winnerSet",
      "outputs": [
        {
          "internalType": "bool",
          "name": "",
          "type": "bool"
        }
      ],
      "stateMutability": "view",
      "type": "function"
    },
    {
      "stateMutability": "payable",
      "type": "receive"
    }
  ],
  "bytecode": "0x60806040526007805464ffff00ffff60a01b19169055600f80546001600160a01b031916738e49800f0aa47e68ba9e46d97481679d0337929417905534801562000047575f80fd5b5060405162002493380380620024938339810160408190526200006a91620001e8565b6200007533620000d8565b60018055600262000087878262000332565b50600362000096868262000332565b506004620000a5858262000332565b50600592909255600655600780546001600160a01b0319166001600160a01b0390921691909117905550620003fe915050565b5f80546001600160a01b038381166001600160a01b0319831681178455604051919092169283917f8be0079c531659141344cd1fd0a4f28419497f9722a3daafe3b4186f6b6457e09190a35050565b634e487b7160e01b5f52604160045260245ffd5b5f82601f8301126200014b575f80fd5b81516001600160401b038082111562000168576200016862000127565b604051601f8301601f19908116603f0116810190828211818310171562000193576200019362000127565b8160405283815260209250866020858801011115620001b0575f80fd5b5f91505b83821015620001d35785820183015181830184015290820190620001b4565b5f602085830101528094505050505092915050565b5f805f805f8060c08789031215620001fe575f80fd5b86516001600160401b038082111562000215575f80fd5b620002238a838b016200013b565b9750602089015191508082111562000239575f80fd5b620002478a838b016200013b565b965060408901519150808211156200025d575f80fd5b506200026c89828a016200013b565b606089015160808a015160a08b0151929750909550935090506001600160a01b03811681146200029a575f80fd5b809150509295509295509295565b600181811c90821680620002bd57607f821691505b602082108103620002dc57634e487b7160e01b5f52602260045260245ffd5b50919050565b601f8211156200032d57805f5260205f20601f840160051c81016020851015620003095750805b601f840160051c820191505b818110156200032a575f815560010162000315565b50505b505050565b81516001600160401b038111156200034e576200034e62000127565b62000366816200035f8454620002a8565b84620002e2565b602080601f8311600181146200039c575f8415620003845750858301515b5f19600386901b1c1916600185901b178555620003f6565b5f85815260208120601f198616915b82811015620003cc57888601518255948401946001909101908401620003ab565b5085821015620003ea57878501515f19600388901b60f8161c191681555b505060018460011b0185555b505050505050565b612087806200040c5f395ff3fe60806040526004361061023f575f3560e01c8063a0b43a4e11610134578063c45a0155116100b3578063ee4eb58611610078578063ee4eb586146106e5578063ef430aa6146106f9578063ef9ea4861461070d578063f25f4b561461072c578063f2fde38b1461074b578063ffd4493c1461076a575f80fd5b8063c45a01551461065d578063c73d7c7b1461067c578063d54ad2a11461069b578063dfbf53ae146106b0578063e1f1c4a7146106d0575f80fd5b8063b5545a3c116100f9578063b5545a3c1461058f578063b84ff262146105a3578063bbb85188146105b8578063befa1e2f14610628578063c2b6b58c1461063d575f80fd5b8063a0b43a4e1461051e578063a628828f14610532578063a8ae8e0514610547578063af00888314610566578063b401faf11461057b575f80fd5b806366805de5116101c057806388ba8dd61161018557806388ba8dd61461048f5780638cca8f64146104a45780638da5cb5b146104c357806390d49b9d146104df5780639a82a09a146104fe575f80fd5b806366805de514610405578063715018a6146104195780637284e4161461042d57806373b2e80e1461044157806378e73ff81461046f575f80fd5b806343c322ba1161020657806343c322ba1461031c5780634a79d50c146103305780634e92a64614610351578063626e1ae7146103c157806363a599a4146103d5575f80fd5b806202eab71461024a5780620b46f81461028f57806306f6bce9146102b1578063096a3778146102d25780633482b644146102e5575f80fd5b3661024657005b5f80fd5b348015610255575f80fd5b5061025e61078b565b604080516001600160a01b039095168552602085019390935291830152151560608201526080015b60405180910390f35b34801561029a575f80fd5b506102a3609681565b604051908152602001610286565b3480156102bc575f80fd5b506102d06102cb366004611d2d565b61081b565b005b6102d06102e0366004611d78565b610935565b3480156102f0575f80fd5b506103046102ff366004611d98565b610dc1565b6040516001600160a01b039091168152602001610286565b348015610327575f80fd5b506102a3610de9565b34801561033b575f80fd5b50610344610e0c565b6040516102869190611df2565b34801561035c575f80fd5b5061039961036b366004611e04565b600b6020525f9081526040902080546001820154600283015460039093015460ff9283169391929091169084565b6040805194151585526020850193909352901515918301919091526060820152608001610286565b3480156103cc575f80fd5b506102a3610e98565b3480156103e0575f80fd5b506007546103f590600160b81b900460ff1681565b6040519015158152602001610286565b348015610410575f80fd5b506102d0610f27565b348015610424575f80fd5b506102d0610fe6565b348015610438575f80fd5b50610344610ff9565b34801561044c575f80fd5b506103f561045b366004611e04565b600d6020525f908152604090205460ff1681565b34801561047a575f80fd5b506007546103f590600160a81b900460ff1681565b34801561049a575f80fd5b506102a360085481565b3480156104af575f80fd5b506103f56104be366004611e04565b611006565b3480156104ce575f80fd5b505f546001600160a01b0316610304565b3480156104ea575f80fd5b506102d06104f9366004611e04565b611067565b348015610509575f80fd5b506007546103f590600160c01b900460ff1681565b348015610529575f80fd5b506102a3611145565b34801561053d575f80fd5b506102a360055481565b348015610552575f80fd5b506102d0610561366004611e2a565b611166565b348015610571575f80fd5b506102a360095481565b348015610586575f80fd5b506102d0611273565b34801561059a575f80fd5b506102d06116b8565b3480156105ae575f80fd5b506102a360065481565b3480156105c3575f80fd5b50600854600954600a54600c5460075460408051958652602086019490945292840191909152606083015260ff600160a01b8204811615156080840152600160a81b82048116151560a0840152600160c01b90910416151560c082015260e001610286565b348015610633575f80fd5b506102a3600a5481565b348015610648575f80fd5b506007546103f590600160a01b900460ff1681565b348015610668575f80fd5b50600754610304906001600160a01b031681565b348015610687575f80fd5b506102d0610696366004611d78565b61189f565b3480156106a6575f80fd5b506102a3600e5481565b3480156106bb575f80fd5b506007546103f590600160b01b900460ff1681565b3480156106db575f80fd5b506102a361271081565b3480156106f0575f80fd5b506103f56118f4565b348015610704575f80fd5b50610344611940565b348015610718575f80fd5b506102d0610727366004611d78565b61194d565b348015610737575f80fd5b50600f54610304906001600160a01b031681565b348015610756575f80fd5b506102d0610765366004611e04565b611aa2565b348015610775575f80fd5b5061077e611b1b565b6040516102869190611e64565b5f805f80600f5f9054906101000a90046001600160a01b031660966127106096600760169054906101000a900460ff166107c7576008546107cb565b6009545b6107d59190611ec4565b6107df9190611edb565b5f8052600d6020527f81955a0a11e65eac625c29e8882660bae4e165a75d72780094acae8ece9a29ee549297919650945060ff90911692509050565b610823611b7b565b600754600160b81b900460ff166108815760405162461bcd60e51b815260206004820152601c60248201527f456d657267656e63792073746f70206e6f74206163746976617465640000000060448201526064015b60405180910390fd5b600754600160a81b900460ff16156108d05760405162461bcd60e51b815260206004820152601260248201527115da5b9b995c88185b1c9958591e481cd95d60721b6044820152606401610878565b6007805460ff60a81b19841515600160b01b021661ffff60a81b1990911617600160a81b1790556040517f9f1ed7ec730b47aa440b5ede52772362be32571a818cd31ac36a295e8393b98e906109299084908490611efa565b60405180910390a15050565b600754600160a01b900460ff16156109805760405162461bcd60e51b815260206004820152600e60248201526d141bdbdb081a5cc818db1bdcd95960921b6044820152606401610878565b600754600160b81b900460ff16156109da5760405162461bcd60e51b815260206004820152601a60248201527f42657474696e67206973207061757365642062792061646d696e0000000000006044820152606401610878565b600754600160c01b900460ff1615610a345760405162461bcd60e51b815260206004820152601760248201527f506f6f6c20686173206265656e2063616e63656c6c65640000000000000000006044820152606401610878565b6005544210610a855760405162461bcd60e51b815260206004820152601860248201527f42657474696e6720706572696f642068617320656e64656400000000000000006044820152606401610878565b5f3411610ade5760405162461bcd60e51b815260206004820152602160248201527f42657420616d6f756e74206d7573742062652067726561746572207468616e206044820152600360fc1b6064820152608401610878565b66038d7ea4c68000341015610b355760405162461bcd60e51b815260206004820152601860248201527f4d696e696d756d2062657420697320302e30303120424e4200000000000000006044820152606401610878565b68056bc75e2d63100000341115610b875760405162461bcd60e51b815260206004820152601660248201527526b0bc34b6bab6903132ba1034b9901898181021272160511b6044820152606401610878565b335f908152600b602052604090206001015415610be65760405162461bcd60e51b815260206004820152601d60248201527f557365722068617320616c726561647920706c616365642061206265740000006044820152606401610878565b33610c2c5760405162461bcd60e51b8152602060048201526016602482015275496e76616c69642073656e646572206164647265737360501b6044820152606401610878565b604080516080810182528215801582523460208084019182525f848601818152426060870190815233808452600b9094529682209551865490151560ff199182161787559351600187810191909155905160028701805491151591909516179093559451600390940193909355600c805491820181559093527fdf6966c971051c3d54ec59162606531493a51404a002842f56009d7e5cf4a8c790920180546001600160a01b0319169091179055610cfa573460085f828254610cef9190611f14565b90915550610d119050565b3460095f828254610d0b9190611f14565b90915550505b34600a5f828254610d229190611f14565b909155505f905081610d4e57604051806040016040528060028152602001614e4f60f01b815250610d6b565b6040518060400160405280600381526020016259455360e81b8152505b9050336001600160a01b03167f59bec262f3e5c00d172330919288747f1356aecc686af7caa21a3baf473550d73484600854600954600287604051610db596959493929190611f5f565b60405180910390a25050565b600c8181548110610dd0575f80fd5b5f918252602090912001546001600160a01b0316905081565b6007545f90600160b01b900460ff16610e03575060085490565b6009545b905090565b60028054610e1990611f27565b80601f0160208091040260200160405190810160405280929190818152602001828054610e4590611f27565b8015610e905780601f10610e6757610100808354040283529160200191610e90565b820191905f5260205f20905b815481529060010190602001808311610e7357829003601f168201915b505050505081565b6007545f90600160a81b900460ff16610ee85760405162461bcd60e51b815260206004820152601260248201527115da5b9b995c881b9bdd081cd95d081e595d60721b6044820152606401610878565b6007545f90600160b01b900460ff16610f0357600854610f07565b6009545b9050612710610f17609683611ec4565b610f219190611edb565b91505090565b610f2f611b7b565b600754600160a01b900460ff1615610f7f5760405162461bcd60e51b8152602060048201526013602482015272141bdbdb08185b1c9958591e4818db1bdcd959606a1b6044820152606401610878565b600554421015610fd15760405162461bcd60e51b815260206004820181905260248201527f43616e6e6f7420636c6f7365206265666f726520636c6f73696e6720646174656044820152606401610878565b6007805460ff60a01b1916600160a01b179055565b610fee611b7b565b610ff75f611bd4565b565b60038054610e1990611f27565b6007545f90600160c01b900460ff16801561103a57506001600160a01b0382165f908152600b602052604090206001015415155b801561106157506001600160a01b0382165f908152600b602052604090206002015460ff16155b92915050565b61106f611b7b565b6001600160a01b0381166110c55760405162461bcd60e51b815260206004820152601a60248201527f496e76616c6964206665652077616c6c657420616464726573730000000000006044820152606401610878565b600f546001600160a01b03908116908216036111235760405162461bcd60e51b815260206004820152601760248201527f53616d65206665652077616c6c657420616464726573730000000000000000006044820152606401610878565b600f80546001600160a01b0319166001600160a01b0392909216919091179055565b6007545f90600160b01b900460ff1661115f575060095490565b5060085490565b61116e611b7b565b600754600160a81b900460ff16156111d25760405162461bcd60e51b815260206004820152602160248201527f43616e6e6f742063616e63656c2061667465722077696e6e65722069732073656044820152601d60fa1b6064820152608401610878565b600754600160c01b900460ff16156112255760405162461bcd60e51b8152602060048201526016602482015275141bdbdb08185b1c9958591e4818d85b98d95b1b195960521b6044820152606401610878565b6007805460ff60c01b1916600160c01b1790556040517fb8201d4fe5c71cc4bf444acaf4124edf462bda026c79355261a71d9f40d5cd0a90611268908390611df2565b60405180910390a150565b61127b611c23565b600754600160a81b900460ff166112c95760405162461bcd60e51b815260206004820152601260248201527115da5b9b995c881b9bdd081cd95d081e595d60721b6044820152606401610878565b335f908152600b60205260409020600101546113175760405162461bcd60e51b815260206004820152600d60248201526c139bc818995d081c1b1858d959609a1b6044820152606401610878565b335f908152600b602052604090206002015460ff161561136b5760405162461bcd60e51b815260206004820152600f60248201526e105b1c9958591e4818db185a5b5959608a1b6044820152606401610878565b600754335f908152600b602052604090205460ff9081161515600160b01b909204161515146113d05760405162461bcd60e51b8152602060048201526011602482015270139bdd0818481dda5b9b9a5b99c818995d607a1b6044820152606401610878565b335f908152600b6020526040812060028101805460ff191660019081179091550154600754909190600160b01b900460ff1661140e57600954611412565b6008545b6007549091505f90600160b01b900460ff1661143057600854611434565b6009545b600a549091505f612710611449609685611ec4565b6114539190611edb565b90505f611460828461203e565b90505f8561146e8389611ec4565b6114789190611edb565b90505f831180156114b357505f8052600d6020527f81955a0a11e65eac625c29e8882660bae4e165a75d72780094acae8ece9a29ee5460ff16155b156115ce57600f546040515f916001600160a01b03169085908381818185875af1925050503d805f8114611502576040519150601f19603f3d011682016040523d82523d5f602084013e611507565b606091505b505090508061154e5760405162461bcd60e51b8152602060048201526013602482015272119959481d1c985b9cd9995c8819985a5b1959606a1b6044820152606401610878565b5f8052600d6020527f81955a0a11e65eac625c29e8882660bae4e165a75d72780094acae8ece9a29ee805460ff19166001179055600f546040516001600160a01b0391909116907f34e8a84e537ed93d93ddf39a78816dcbc74df8397c635838b8cc973d4fa943f8906115c49087815260200190565b60405180910390a2505b6040515f90339083908381818185875af1925050503d805f811461160d576040519150601f19603f3d011682016040523d82523d5f602084013e611612565b606091505b505090508061165c5760405162461bcd60e51b815260206004820152601660248201527514995dd85c99081d1c985b9cd9995c8819985a5b195960521b6044820152606401610878565b81600e5f82825461166d9190611f14565b909155505060405182815233907f106f923f993c2149d49b4255ff723acafa1f2d94393f561d3eda32ae348f72419060200160405180910390a25050505050505050610ff760018055565b6116c0611c23565b600754600160c01b900460ff1661170e5760405162461bcd60e51b8152602060048201526012602482015271141bdbdb081b9bdd0818d85b98d95b1b195960721b6044820152606401610878565b335f908152600b602052604090206001015461175c5760405162461bcd60e51b815260206004820152600d60248201526c139bc818995d081c1b1858d959609a1b6044820152606401610878565b335f908152600b602052604090206002015460ff16156117b05760405162461bcd60e51b815260206004820152600f60248201526e105b1c9958591e4818db185a5b5959608a1b6044820152606401610878565b335f818152600b602052604080822060028101805460ff191660019081179091550154905190929083908381818185875af1925050503d805f8114611810576040519150601f19603f3d011682016040523d82523d5f602084013e611815565b606091505b505090508061185f5760405162461bcd60e51b81526020600482015260166024820152751499599d5b99081d1c985b9cd9995c8819985a5b195960521b6044820152606401610878565b60405182815233907f358fe4192934d3bf28ae181feda1f4bd08ca67f5e2fad55582cce5eb67304ae99060200160405180910390a25050610ff760018055565b6118a7611b7b565b60078054821515600160b81b0260ff60b81b199091161790556040517f05b88d23d9a60b7924fccc370e1e0c1ccf49989e3b2968cafaf7db7fc13bd13f9061126890831515815260200190565b6007545f90600160a01b900460ff1615801561191a5750600754600160b81b900460ff16155b80156119305750600754600160c01b900460ff16155b8015610e07575050600554421090565b60048054610e1990611f27565b611955611b7b565b600754600160a01b900460ff166119ae5760405162461bcd60e51b815260206004820152601960248201527f506f6f6c206d75737420626520636c6f736564206669727374000000000000006044820152606401610878565b600754600160a81b900460ff16156119fd5760405162461bcd60e51b815260206004820152601260248201527115da5b9b995c88185b1c9958591e481cd95d60721b6044820152606401610878565b6007805460ff60a81b19831515600160b01b021661ffff60a81b1990911617600160a81b1790555f81611a4e57604051806040016040528060068152602001652727903bb7b760d11b815250611a6f565b604051806040016040528060078152602001662ca2a9903bb7b760c91b8152505b90507f9f1ed7ec730b47aa440b5ede52772362be32571a818cd31ac36a295e8393b98e8282604051610929929190611efa565b611aaa611b7b565b6001600160a01b038116611b0f5760405162461bcd60e51b815260206004820152602660248201527f4f776e61626c653a206e6577206f776e657220697320746865207a65726f206160448201526564647265737360d01b6064820152608401610878565b611b1881611bd4565b50565b6060600c805480602002602001604051908101604052809291908181526020018280548015611b7157602002820191905f5260205f20905b81546001600160a01b03168152600190910190602001808311611b53575b5050505050905090565b5f546001600160a01b03163314610ff75760405162461bcd60e51b815260206004820181905260248201527f4f776e61626c653a2063616c6c6572206973206e6f7420746865206f776e65726044820152606401610878565b5f80546001600160a01b038381166001600160a01b0319831681178455604051919092169283917f8be0079c531659141344cd1fd0a4f28419497f9722a3daafe3b4186f6b6457e09190a35050565b600260015403611c755760405162461bcd60e51b815260206004820152601f60248201527f5265656e7472616e637947756172643a207265656e7472616e742063616c6c006044820152606401610878565b6002600155565b80358015158114611c8b575f80fd5b919050565b634e487b7160e01b5f52604160045260245ffd5b5f82601f830112611cb3575f80fd5b813567ffffffffffffffff80821115611cce57611cce611c90565b604051601f8301601f19908116603f01168101908282118183101715611cf657611cf6611c90565b81604052838152866020858801011115611d0e575f80fd5b836020870160208301375f602085830101528094505050505092915050565b5f8060408385031215611d3e575f80fd5b611d4783611c7c565b9150602083013567ffffffffffffffff811115611d62575f80fd5b611d6e85828601611ca4565b9150509250929050565b5f60208284031215611d88575f80fd5b611d9182611c7c565b9392505050565b5f60208284031215611da8575f80fd5b5035919050565b5f81518084525f5b81811015611dd357602081850181015186830182015201611db7565b505f602082860101526020601f19601f83011685010191505092915050565b602081525f611d916020830184611daf565b5f60208284031215611e14575f80fd5b81356001600160a01b0381168114611d91575f80fd5b5f60208284031215611e3a575f80fd5b813567ffffffffffffffff811115611e50575f80fd5b611e5c84828501611ca4565b949350505050565b602080825282518282018190525f9190848201906040850190845b81811015611ea45783516001600160a01b031683529284019291840191600101611e7f565b50909695505050505050565b634e487b7160e01b5f52601160045260245ffd5b808202811582820484141761106157611061611eb0565b5f82611ef557634e487b7160e01b5f52601260045260245ffd5b500490565b8215158152604060208201525f611e5c6040830184611daf565b8082018082111561106157611061611eb0565b600181811c90821680611f3b57607f821691505b602082108103611f5957634e487b7160e01b5f52602260045260245ffd5b50919050565b8681525f6020871515602084015286604084015285606084015260c060808401525f85545f60018260011c91506001831680611f9c57607f831692505b602083108103611fba57634e487b7160e01b5f52602260045260245ffd5b60c0880183905260e08801818015611fd95760018114611fef57612018565b60ff198616825284151560051b82019650612018565b5f8c8152602090205f5b8681101561201257815484820152908501908901611ff9565b83019750505b50505050505083810360a08501526120308186611daf565b9a9950505050505050505050565b8181038181111561106157611061611eb056fea26469706673582212204114cbe4bfd1b577f8448a040b91905cfff735590d45661e6c97d446e1c9b89264736f6c63430008180033",
  "linkReferences": {},
  "deployedLinkReferences": {},
  "immutableReferences": {},
  "inputSourceName": "project/contracts/BellaNapoliPredictionFactory.sol",
  "buildInfoId": "solc-0_8_24-1b437eb260a6c856cab390a106ecb0fd6135792f"
}